:020000040800F2
:10000000980C002091020008B1190008A9190008F5
:10001000AD190008890400080D2700080000000041
:10002000000000000000000000000000B9190008F6
:100030008D04000800000000B5190008BD19000873
:10004000AB020008AB020008AB020008AB020008DC
:10005000AB020008AB020008AB020008AB020008CC
:10006000AB020008AB020008AB020008AB020008BC
:10007000AB020008AB020008AB020008AB020008AC
:10008000AB020008AB020008AB020008AB0200089C
:10009000AB020008AB020008AB020008AB0200088C
:1000A000AB020008AB020008AB020008AB0200087C
:1000B000AB020008AB020008AB020008AB0200086C
:1000C000AB020008AB020008AB020008AB0200085C
:1000D000AB020008AB020008AB020008AB0200084C
:1000E000AB020008AB020008AB020008AB0200083C
:1000F000AB020008AB020008AB020008AB0200082C
:10010000AB020008AB020008AB020008AB0200081B
:10011000AB020008AB020008AB020008AB0200080B
:10012000AB020008AB020008AB020008AB020008FB
:10013000AB0200080000000000000000AB02000855
:10014000AB020008AB020008AB020008AB020008DB
:10015000AB020008AB020008AB020008AB020008CB
:10016000AB020008AB020008AB020008AB020008BB
:10017000AB020008AB020008AB0200080000000060
:1001800000000000AB0200080000000000000000BA
:10019000AB0200080000000000000000AB020008F5
:1001A000000000000000000000000000AB0200089A
:1001B000AB020008AB020008AB020008AB0200086B
:1001C000AB02000800F002F800F052F814A696E81E
:1001D000000CB244B344DA4501D100F049F8BAE862
:1001E0000F000FA696E83000A5EB040504EB060708
:1001F000AAEB0704A7F101074FEA15154FEA3414DB
:10020000A4F10104AC4201D300F032F813F0010F65
:1002100018BFFB1A43F0010300F001F8DBE71847B1
:100220007427000094270000103A24BF78C878C1D2
:10023000FAD8520724BF30C830C144BF04680C60EC
:1002400070470000704700000023002400250026AE
:10025000103A28BF78C1FBD8520728BF30C148BF29
:100260000B6070471FB502F07CFB1FBD10B510BDC1
:1002700000F0D0F81146FFF7F5FF02F049FA00F060
:10028000EEF803B4FFF7F2FF03BC00F0F5F800004E
:100290000948804709480047FEE7FEE7FEE7FEE71A
:1002A000FEE7FEE7FEE7FEE7FEE7FEE70448054956
:1002B000054A064B704700006D1A0008C50100088A
:1002C00098060020980C002098080020980800202C
:1002D00053EA020C00F069802DE9F04B4FF0000664
:1002E000002B1FBFB3FA83F503FA05F424FA05F6D1
:1002F0005E4012BF1643B2FA82F502FA05F4C5F168
:1003000020051EBF22FA05FC44EA0C04203556EAFB
:10031000044C4FEA144418BF641C4FF000084FF01F
:100320000009904271EB030C39D3002919BFB1FACF
:1003300081F701FA07F6B0FA80F700FA07F6C7F17D
:1003400020071EBF20FA07FC46EA0C062037B6FB42
:10035000F4FCA7EB0507103F07F01F0BCBF12006BD
:100360002CFA06F60CFA0BFB44BFB3460026202FEE
:10037000A4BF5E464FF0000B5BEA060C08BF4FF0CF
:10038000010B19EB0B0948EB0608ABFB027C06FBE3
:1003900002CC0BFB03CCC01B71EB0C01C1E70B467D
:1003A000024641464846BDE8F08B13B5084318BFE6
:1003B0004FF0FF300146AFF30080BDE81C407047AE
:1003C0004FF0000200B5134694469646203922BFEE
:1003D000A0E80C50A0E80C50B1F12001BFF4F7AF39
:1003E000090728BFA0E80C5048BF0CC05DF804EB1B
:1003F000890028BF40F8042B08BF704748BF20F889
:10040000022B11F0804F18BF00F8012B7047704786
:1004100070477047754600F02BF8AE4605006946F8
:10042000534620F00700854618B020B5FFF73EFF81
:10043000BDE820404FF000064FF000074FF00008E5
:100440004FF0000BAC46ACE8C009ACE8C009ACE822
:10045000C009ACE8C00921F007018D46704710B50E
:100460000446AFF300802046BDE81040FFF709BF07
:10047000004870471000002001491820ABBEFEE77D
:100480002600020070470000FEE7000070470000F1
:1004900072B600BFFEE70000B0B5044600F0E6F813
:1004A000054640F20000C2F200000078611C18BF4F
:1004B000044400BF00F0DAF8401BA042FAD3B0BDFC
:1004C0002DE9F04F83B000F1200200F13E4741F6E4
:1004D0000005009207F1FF77C4F2020507224FEAF8
:1004E000B726A84208BF062200254FF000084FF0AB
:1004F0000009062E38BF4FEAB72201920AE000BF7A
:1005000009F1010908F10208B9F1100F05F104051C
:1005100000F0A2800F68012202FA09FE17EA0E0A13
:10052000EED0D1F804C003220CF003077E1E02FABD
:1005300008F4012E6FEA040B12D88468CE6804EA2E
:100540000B0406FA08F634438460446824EA0E0675
:10055000CCF3001404FA09F42643466004E000BF1B
:10056000032F01D103271EE0C6688C6806EA0B063C
:1005700004FA08F42643022FC66014D16FF0030278
:10058000009E02EA590756F807C005F01C040F2226
:100590000B69A2402CEA0202A3401A43F251D1F89F
:1005A00004C00CF00307026807FA08F302EA0B0222
:1005B0001A431CF4403F0260A2D0002243F64403D9
:1005C0000292C4F202031A6843F6004442F48042E5
:1005D0001A601A68C4F2010402F480420292029A7C
:1005E00029F003024FF6084C2244CFF6FF7C52F864
:1005F0000C3005F00C070F26BE40B343019E06FAEF
:1006000007F73B4342F80C30A2684B6842EA0A07FE
:1006100043F60C4CDE0258BF22EA0A07A760C4F278
:10062000010CDCF800209E0242EA0A0758BF22EAC9
:100630000A07CCF8007062689E0342EA0A0758BFB6
:1006400022EA0A0767602268DB0342EA0A0758BF0A
:1006500022EA0A07276053E703B0BDE8F08F0000E5
:10066000002A08BF090481617047000040F29460CD
:10067000C2F200000068704740F2000040F294614E
:10068000C2F20000C2F2000100780A68104408605B
:100690007047000080B543F60040C4F202000168D4
:1006A00041F400710160016841F4806101600168FA
:1006B00041F480710160032000F074F8002000F024
:1006C00005F800F027F8002080BD000070B540F26A
:1006D0000006C2F2000640F208013278C2F20001C0
:1006E0004FF47A730968B3FBF2F20446B1FBF2F1FE
:1006F000084601F031F80F2C4FF0010508D838B941
:100700004FF0FF3021460022002500F01FF87460F2
:10071000284670BD82B0002043F640010190C4F22B
:1007200002014A6842F480424A604A6802F4804208
:100730000192019A0090086840F0805008600868B3
:1007400000F080500090009802B0704710B54EF64F
:100750000C5CCEF2000CDCF80030C3F3022E8EF0FD
:100760000704042C28BF0424BEF103034FF0FF3E0E
:100770000EFA04F438BF0023A14399400EFA03F3A4
:100780009A43114300F00F0200F160430901043A5B
:1007900003F564436244002848BF02F10C0319705A
:1007A00010BD00004EF60C51CEF200010A684FF663
:1007B000FF031A4060F30A2242F0806040F0FD70AF
:1007C0000860704701220168C0F8D824002280F830
:1007D000CC24886940F000608861486D40F080500A
:1007E00040F0030200204A6570470000002804BF63
:1007F00001207047F0B581B00446056890F8950473
:1008000028B9002084F89404204600F02DF9032034
:10081000B5F1A04F84F8950404BF0020A0712068B2
:1008200001F0B8FD94E80F00267C009601F03EFA36
:10083000002840F000812068002101F0B3FD00286D
:1008400040F0F98094F804E0BEF1000F00F0EC8075
:100850000EF0030CBEF1040F4FF0000240D30EF077
:10086000FC03A4F190000321012500BFCE1E80F8F7
:10087000A460A0F8BE608E1E80F8C860A0F8E26098
:100880004E1E80F8EC60A0F8066180F81011A0F808
:100890002A110E1D013180F8A55080F8A820C0E96A
:1008A0002B22C0F8B42080F8C95080F8CC20C0E9D1
:1008B0003422C0F8D82080F8ED5080F8F020C0E94C
:1008C0003D22C0F8FC2080F8115180F81421C0E9C5
:1008D0004622C0F82021903099423146C6D1F21EFE
:1008E000BCF1000F31D004F1140002EBC20100EBA7
:1008F0008105012300F821200021BCF1010F6B705C
:100900006A832971C5E9021129611ED0551C05EBC6
:10091000C50600EB8607BCF1020F7B7000F826507D
:100920007D833971C7E9021139610ED0911C01EB49
:10093000C10200EB8203012500F8221000205D7047
:1009400059831871C3E902001861BEF1000F6BD022
:10095000BEF1040F4FF0000236D30EF0FC0003216D
:10096000234600BFCF1E83F854728F1E83F878721F
:100970004F1E83F8C0120D1D013183F8552283F8F4
:100980005822C3E99722C3F8642283F8792283F8B6
:100990007C22C3E9A022C3F8882283F89D2283F831
:1009A0009C7283F8A022C3E9A922C3F8AC2283F881
:1009B000C12283F8C422C3E9B222C3F8D022903303
:1009C00081422946CED1EA1EBCF1000F2CD004F59D
:1009D000157002EBC20300EB83070021BCF1010F8D
:1009E000797000F823203971C7E9021139611BD0F1
:1009F000531C03EBC30700EB8706BCF1020F7170B9
:100A000000F827303171C6E9021131610CD0911C18
:100A100001EBC10200EB820300275F7000F8221097
:100A20001F71C3E902771F6194E80F00277C0097CC
:100A300001F056FA30B1022084F89504012001B08B
:100A4000F0BD00BF00206074012084F89504207B75
:100A5000012802D12046FFF7B5FE206801F030FAE8
:100A6000002001B0F0BD0000F0B59DB004460020AC
:100A70001C90CDE91A00CDE9180001A804305821D6
:100A8000FFF79EFC2068B0F1A04F01D01DB0F0BD73
:100A90004FF48070019001A800F03EF8002818BFC4
:100AA000FFF7F6FC002743F630060097C4F2020673
:100AB0003068002440F0010030603068C4F2020465
:100AC00000F00100009000984FF4E85018900220C8
:100AD000CDE9190703201B900A2018AD1C90204671
:100AE0002946FFF7EDFC4FF40070CDE918072046CA
:100AF00029461A97FFF7E4FC706840F080007060A8
:100B00000097706940F480407061706900F4804023
:100B1000009000981DB0F0BD2DE9F04381B004466F
:100B2000006843F68C06C107C4F2020604D14FF0F8
:100B3000000981070CD415E03168A26B21F0C06177
:100B400011433160B2FA82F14FEA5119810709D598
:100B50003168E26B21F0C05111433160002A08BFB7
:100B60004FF00109410705D44FF00008010712D4E6
:100B700020E000BF3168226B21F440111143316045
:100B8000B2FA82F14FEA5118B2F5801F08BF4FF058
:100B9000010901070ED53168626B21F44001114350
:100BA000B2F5800F316008BF4FF00109002A08BF7D
:100BB0004FF0010881065AD50020009056F84C0CE1
:100BC00047F2000740F0805046F84C0C56F84C0CA9
:100BD000C4F2000700F0805000900098386840F49C
:100BE00080703860FFF742FD054600BF3868C005D9
:100BF00006D4FFF73BFD401B0228F7D990E100BF68
:100C000056F81C0C10F4407017D0216C01F44071A0
:100C1000884212D056F81C0C40F64061C4F24721BD
:100C2000012220F440700A6000220A6046F81C0C81
:100C300056F81C0CC00740F07B812068216C56F8E8
:100C4000842C4FF6FF4701F4407322F4F812C0F6EB
:100C5000FF770F40B3F5407F08BF3A4346F8842C36
:100C600056F81C2C6FF31F31114346F81C1CC106AB
:100C700010D4010619D441061FD4C10525D481051D
:100C800030D4410536D4B9F1010F18BFB0F5006F6B
:100C90003CD062E094F8580040F64061C4F247212D
:100CA000C1F8A00320680106E5D5B168E26C21F423
:100CB00040011143B1604106DFD5B168A26C21F05B
:100CC00080611143B160C105D9D5B168626D21F071
:100CD00000611143B160B2F1006F08BF4FF001082D
:100CE0008105CED5B168626C21F080511143B160AD
:100CF0004105C8D5B268216D22F000520A43B0F513
:100D0000006FB26018BFB1F1005F23D140F26809F3
:100D1000C4F247290020C9F80000FFF7A7FC0546E8
:100D200056F88C0C000105D5FFF7A0FC401B0228EB
:100D3000F6D9F5E02068C10702D0A16B00296FD079
:100D4000810702D5E16B00296AD0410700F17D805F
:100D50007FE000BFB9F1010FD8D0B8F1000F4FF01C
:100D6000000000F0DE806827C4F24727B860FFF774
:100D70007DFC054656F88C0C800005D5FFF776FC07
:100D8000401B0228F6D9CBE02068410701D5216B32
:100D900019B101071AD5616BC1B956F8041CD4E921
:100DA000062301F44031656A114341EA831141EAA7
:100DB0000561D4F82CC046F8041C31686FF0FF02BE
:100DC00021F4F85102EB0C2211433160C00516D515
:100DD000606DB0F1006F12D156F8040C226AD4E9AC
:100DE000061300F07060D2034FF6FF75AA43084364
:100DF000A2F5803240EA8310104346F8040C01202B
:100E0000B860FFF733FC044656F88C0C800000F104
:100E10008B80FFF72BFC001B0328F5D380E000BF7D
:100E200056F8081C56F8082CD4E9013501F4403175
:100E300002F0706219436769114341EA851141EA82
:100E4000077146F8081C410703D5216BB1F5801FD7
:100E500005D001071FD5616BB1F5800F1BD156F886
:100E6000081C56F8082CD4E9013701F4403102F08F
:100E7000E04219432569114341EA871141EA0561BE
:100E8000D4F828C046F8081C3168ACF1010221F002
:100E90001F011143316041051FD5216DB1F1005F84
:100EA0001BD1271D56F808CC56F8082CA8CFFF03F5
:100EB0004FF6FF7127EA01014FF0C06702F0E042F0
:100EC00007EA4C2707F100771A433A43A1F580312E
:100ED00042EA8512114346F8081C000510D5271D6B
:100EE0008FCF40EA8110D1034FF6FF729143A1F5F5
:100EF000803140EA0360084340EA077046F8080C76
:100F00000120C9F80000FFF7B1FB054656F88C0C2C
:100F100000013FF522AFFFF7A9FB401B0228F5D9DE
:100F2000032001B0BDE8F083002001B0BDE8F083EC
:100F3000FFF79CFB054641F2883700BF56F81C0CB2
:100F400080073FF57AAEFFF791FB401BB8424FF0A8
:100F50000300F3D9E5E70000002804BF0120704733
:100F60002DE9F04143F60808C4F202080446D8F817
:100F7000F8030D4600F00F00884207D288F8F853B6
:100F8000D8F8F80300F00F00A84277D12068810755
:100F900017D5410705D5D8F8001041F4E051C8F83D
:100FA0000010010705D5D8F8001041F46041C8F8D9
:100FB0000010D8F80010A26821F0F0011143C8F821
:100FC0000010C00740D1D8F8F80300F00F00A84285
:100FD00007D988F8F853D8F8F80300F00F00A842B2
:100FE0004CD12068410707D5D8F80010E26821F4F9
:100FF000E0511143C8F80010000708D5D8F80000E8
:10100000216920F4604040EAC100C8F8000000F007
:101010007DF8D8F8001042F67C12C1F30311C0F637
:101020000002515C40F2080220FA01F140F2040093
:10103000C2F200000068C2F200021160FFF746FB36
:101040000020BDE8F08100BF6068811E022907D240
:1010500058F8081C89015CBF0120BDE8F08111E04F
:10106000012807D158F8081C89035CBF0120BDE89E
:10107000F08107E058F8081C890703D40120BDE877
:10108000F08100BFD8F8001021F003010843C8F830
:101090000000FFF7EBFA064641F28837D8F8000067
:1010A000616800F00C00B0EB810F8CD0FFF7DEFA26
:1010B000801BB842F2D90320BDE8F08140F208005D
:1010C00043F60801C2F20000C4F202010068096898
:1010D00042F68C12C1F38221C0F60002515CC84076
:1010E0007047000040F2080043F60801C2F2000019
:1010F000C4F202010068096842F68C12C1F3423161
:10110000C0F60002515CC8407047000010B543F6BD
:101110000404C4F202046068C0F3810142F200409A
:10112000C0F2F400DFE801F04202081841F20020AA
:10113000C0F27A0010BD00BF216801F03F022168B3
:1011400023684902C3F3881116D4A1FB00010023D0
:10115000FFF7BEF817E000BF216801F03F022168E9
:1011600023684902C3F3881114D4A1FB00010023B2
:10117000FFF7AEF815E000BF41F20020C0F27A00A0
:101180004843B0FBF2F021680222C1F3014102EBB7
:10119000410109E041F20020C0F27A004843B0FB6F
:1011A000F2F02168C1F30271B0FBF1F010BD000054
:1011B000002804BF012070472DE9F04182B00446A9
:1011C000007843F60006C007C4F202060CD0B068EF
:1011D00000F00C00042840F089803068800303D5BB
:1011E0006068002800F050812078800723D5B0681F
:1011F00010F00C0F11D0B06800F00C00082802D1DC
:101200007068400209D5B06800F00C000C2840F06E
:101210009F807068400200F19B803068800703D592
:10122000E068012840F030813068216920F0F80042
:1012300040EAC10030602078000713D420784007CE
:101240002AD4A569002D00F01A81B06800F00C00C6
:10125000082840F0AB80012D40F0E880012002B06A
:10126000BDE8F0816069002840F20000C4F2472028
:1012700000F088800121C0F8801EFFF7F7F90546CD
:10128000706F8007DAD4FFF7F1F9401B0228F7D915
:10129000032002B0BDE8F081306C5FEAC0080AD4D8
:1012A00000200190306C40F080503064306C00F0D1
:1012B00080500190019847F20007C4F20007386897
:1012C000C00537D4386840F480703860FFF7CEF935
:1012D000054600BF3868C0052CD4FFF7C7F9401B8E
:1012E0000228F7D9032002B0BDE8F081B06800F011
:1012F0000C00082803D1706840023FF56EAFB0685B
:1013000000F00C000C2803D1706840023FF565AF77
:1013100061683068B1F5803F07D0B1F5A02F40F08B
:10132000CB8040F480203060306840F48030306002
:10133000CBE000BFA168306F012905D0052957D146
:1013400040F004003067306F40F00100306759E032
:10135000E068002800F09C800020C4F247200121B2
:101360000160FFF783F90546306880073FF55CAF01
:10137000FFF77CF9401B02284FF00300F4D902B0BC
:10138000BDE8F0810021C0F8801EFFF76FF9054627
:10139000706F80077FF552AFFFF768F9401B022896
:1013A000F6D9032002B0BDE8F08100BF0027C4F2E7
:1013B000472700203866FFF759F9022D05460BD163
:1013C0003068800140F19280FFF750F9401B0228FD
:1013D0004FF00300F4D9D2E7306880014FD5FFF712
:1013E00045F9401B02284FF00300F5D9C7E700BFBD
:1013F00020F001003067306F002920F004003067D2
:1014000000F09880FFF732F9054641F2883700BFB7
:10141000306F800700F1A080FFF728F9401BB84229
:10142000F6D9032002B0BDE8F08100BF7068E16921
:1014300000F480028A4227D1216A00F03F028A42EA
:1014400022D147F6C071626A0140B1EB821F1BD105
:10145000A16A4FF6FF73C903994300F44032A1F526
:1014600080318A4210D1E16A00F07062B2EB016F04
:101470000AD1216B00F0E040B0EB017F04D10020E5
:1014800002B0BDE8F08100BF012002B0BDE8F081EC
:101490000020C4F2472000210160FFF7E7F805466D
:1014A000306880077FF5C7AEFFF7E0F8401B0228E1
:1014B0004FF00300F4D962E720F4803030603068E8
:1014C000002920F48020306050D0FFF7CFF8054687
:1014D000306880033FF588AEFFF7C8F8401B6428EA
:1014E000F6D9032002B0BDE8F08100BF04F11C056D
:1014F0002FCD246B084340EA8210D9034FF6FF72C8
:101500009143A1F5803140EA0560084340EA047048
:10151000706001203866FFF7A9F804463068800142
:10152000ADD4FFF7A3F8001B02284FF00300F5D954
:1015300025E700BFFFF79AF8054641F2883700BF5C
:10154000306F800708D5FFF791F8401BB8424FF085
:101550000300F5D913E700BFB8F1000F3FF571AEF6
:10156000306C20F0805030646BE600BFFFF77EF8EF
:10157000054600BF306880037FF536AEFFF776F88A
:10158000401B64284FF00300F4D9F8E670B528B189
:10159000416A29B100210161142106E0012070BDDA
:1015A0004168B1F5827F02D01C2100224250002602
:1015B000866290F8511029B980F85060054600F015
:1015C0003DF82846022180F8511090E82E0002F4E0
:1015D00082720C6803F4044324F040040C601A4443
:1015E00005F4006305691A4405F0020345691A44CD
:1015F00005F001038569C4691A4405F400731A44AF
:1016000004F03803046A1A4404F08003846A1A431D
:1016100004F400531A430A60436A042202EA1542A2
:1016200003F010031A444A60CA6922F40062CA61D6
:101630000121466580F85110304670BD2DE9F0411A
:1016400086B0006843F60001C4F20001002688421B
:10165000CDE90466CDE9026601962DD043F2000182
:10166000C4F20101884274D1002043F63001009099
:10167000C4F202014A6942F480524A614A6902F4A2
:1016800080520092009A00900A6842F001020A60BB
:10169000096801F0010100910099E0210191022106
:1016A000CDE902100320049040F60000C4F20200CD
:1016B000A0F5006048E000BF43F630000096C4F299
:1016C0000200016940F6000441F4804101610169B2
:1016D000C4F2020401F4804100910099009601686F
:1016E00001AD41F0040101600168022701F004012D
:1016F00000910099009601684FF0030841F0020143
:1017000001600068294600F0020000900098072060
:1017100005902046CDE901770396CDF81080FEF7BD
:10172000CFFE0420CDE9010705200590204629467B
:10173000CDE90368FEF7C4FE4FF48060CDE90107F0
:10174000A4F58060CDE903680521059101A9FEF7A4
:10175000B7FE06B0BDE8F081411E0020B0EB116F6E
:101760001CBF012070474EF21002CEF20002516001
:101770004EF62351CEF20001F0230B70072190604A
:101780001160704790F83C20012A4FF0020254D0BB
:1017900010B580F83D200268D2F804E0D2F808C005
:1017A0000C682EF07003234341F2FF74C4F200046E
:1017B000A24253600EDC40F2FF73C4F200039A426F
:1017C00016DCB2F1804F2BD040F20043C4F200038C
:1017D00024E000BF40F2FF33C4F201039A4213DC5D
:1017E00041F60003C4F200039A4219D0002313E02B
:1017F00040F60003C4F200039A4211D040F60043C1
:10180000C4F200030AE000BF44F20003C4F2010383
:101810009A4205D040F20043C4F201039A4204D137
:1018200049682CF08003194391600121002280F85F
:101830003D1080F83C20BDE8104010467047000085
:10184000002804BF0120704710B5044690F83D0001
:1018500028B9002084F83C00204600F01FF8022040
:1018600084F83D002068211D00F00AF9012084F869
:10187000460084F83E0084F83F0084F8400084F875
:10188000410084F8420084F8430084F8440084F85E
:10189000450084F83D00002010BD0000006841F2C2
:1018A0000001C4F20001884218BF704781B00020D7
:1018B000009043F64000C4F20200016841F01001BC
:1018C0000160006800F010000090009801B07047BF
:1018D000002804BF0120704710B5044690F841006D
:1018E00028B9002084F84000204600F021F8242088
:1018F00084F841002068C16821F40051C16020468D
:1019000000F060F92068016921F4904101614169AA
:1019100021F02A014161C16841F40051C1600020F9
:101920002021606484F8411084F84210606310BD87
:1019300080B586B044F600010068C4F200010022C0
:1019400088420592CDE903220292019202D006B0AC
:1019500080BD00BF43F630000092C4F2020003696C
:1019600043F480230361036903F480230093009B05
:101970000092036843F008030360006800F0080069
:10198000009000984FF4407001900220CDE90202CF
:10199000032004900720059001F5E23001A9FEF72D
:1019A0008FFD06B080BD0000FEE70000FEE70000EE
:1019B000FEE700007047000070470000FEF75CBEC5
:1019C00070B594B007AC20463421FEF7F9FC002531
:1019D00043F640000695CDE90455CDE90255019541
:1019E000C4F202000168022641F0805101600068E3
:1019F00000F080500190019847F200000195C4F278
:101A00000000016841F440410160006800F440407A
:101A100001900198012007904FF4A02008904FF406
:101A200080000E9004200F90A820CDE9100607201A
:101A3000CDE9120620460D96FFF7BAFB10B172B63B
:101A4000FEE700BF0F20CDE902064FF4A05005903D
:101A50004FF48050069002A805210495FFF77CFA08
:101A600010B172B6FEE700BF14B070BD4EF68850DC
:101A7000CEF20000016841F470010160704700007F
:101A800010B540F6FF3E0368C4F2000E40F2004C71
:101A90007045C4F2010C25DCB0F1804F2FD040F22C
:101AA0000042C4F20002904229D040F60002C4F283
:101AB0000002904223D041F6FF72C4F2000290422D
:101AC00027DC70453ADCB0F1804F5BD040F2004239
:101AD000C4F20002904255D040F60002C4F2000267
:101AE0004EE000BF40F60042C4F20002904206D031
:101AF000604504D00022C4F201029042DBD14A6862
:101B000023F07003134341F6FF72C4F200029042C7
:101B1000D7DD43F6FF72C4F20102904220DC42F2AC
:101B20000002C4F2000290422CD00022C4F2010252
:101B3000904227D0604525D028E000BF40F6004203
:101B4000C4F2000290421DD041F60002C4F200022D
:101B5000904217D041F60042C4F2000210E000BFEC
:101B600044F20002C4F2010290420BD044F600029B
:101B7000C4F20102904205D044F20042C4F20102D4
:101B8000904203D1CA6823F44073134323F08002C8
:101B90004B69D1F800E08C681A430260C46240F4DB
:101BA0008062C0F828E0624504BF09690163012131
:101BB00041610169C90708BF10BD016921F0010138
:101BC000016110BDB0B50446006804F108030ECBF6
:101BD0000569194325F440552A4302616269E369A6
:101BE0001143C268194349F20C639A431143C1601F
:101BF0004169A26921F4407141F20043114340F46C
:101C00008062C4F201039A42416103D1FFF76AFA8C
:101C100002E000BFFFF752FAE1694FF69C75636876
:101C20001922C0F6FF75B1F5004FA0FB02011FD1CC
:101C30005A00DB0FFEF74CFB48F21F51C5F2EB11C7
:101C4000A0FB01235A0905F1805302FB0300322354
:101C500003EBC000A0FB01014FF4F87000EA111083
:101C600000EB0210C1F34211084421688860B0BD46
:101C70009A009B0FFEF72CFB48F21F51C5F2EB11A7
:101C8000A0FB01235A0902FB0500322303EB0010DD
:101C9000A0FB0101F02000EA511000EB0210C1F39B
:101CA0004311084421688860B0BD000082B002F48E
:101CB0007F42B2F5807F40F07F80826B4FF6BF732A
:101CC00022F480328263C268CFF6BD731A40C260CC
:101CD000029BC268DBB222F44012012BC26003D126
:101CE000C26842F48012C26000220092009A01325F
:101CF0000092009AB2F1706F00F2BE800269002A71
:101D000021D4009A01320092009AB2F1706F00F271
:101D1000B3800269002A16D4009A01320092009A18
:101D2000B2F1706F00F2A8800269002A0BD4009A09
:101D300001320092009AB2F1706F00F29D80026948
:101D4000B2F1FF3FD2DC00220092026942F00102B0
:101D50000261009A01320092009AB2F1706F00F2B3
:101D60008B800269D2071ED0009A01320092009A3D
:101D7000B2F1706F00F280800269D20713D0009A2E
:101D800001320092009AB2F1706F75D80269D207E1
:101D900009D0009A01320092009AB2F1706F6BD8AC
:101DA0000269D207D5D14FF0000C01F47F01B1F5E3
:101DB000803F40F0818077E0C26842F04002C2601C
:101DC00000220192019A01320192019AB2F1706FE0
:101DD0005AD80269002A1ED4019A01320192019A4E
:101DE000B2F1706F50D80269002A14D4019A0132FE
:101DF0000192019AB2F1706F46D80269002A0AD4A2
:101E0000019A01320192019AB2F1706F3CD80269D5
:101E1000B2F1FF3FD6DC00220192026942F00102DA
:101E20000261019A01320192019AB2F1706F2BD8CE
:101E30000269D2071DD0019A01320192019AB2F1D2
:101E4000706F21D80269D20713D0019A0132019232
:101E5000019AB2F1706F17D80269D20709D0019ABE
:101E600001320192019AB2F1706F0DD80269D20766
:101E7000D7D14FF0000C09E04FF0030C01F47F01C3
:101E8000B1F5803F18D10FE04FF0030C826B13F4D3
:101E90007F4F14BF22F4803242F48032826301F417
:101EA0007F01B1F5803F07D1816841F00601816073
:101EB000816841F020018160604602B070470000F7
:101EC0000146D0F8000E20F00300C1F8000ED1F852
:101ED000040840F002020020C1F804287047000006
:101EE0002DE9F04F86B0C3F3074516468E46002114
:101EF000C0F80411C0F80811C0F80C11C0F8101196
:101F0000C0F81411C0F81811C0F81C11C0F8201145
:101F1000C0F82411C0F82811C0F82C11C0F83011F5
:101F2000C0F83411C0F83811C0F83C1125B100F1E7
:101F300038014FF400120FE0D0F80418802241F06D
:101F40000201C0F80418816B21F40011816301685B
:101F500041F04001016001460B681A430A6006F433
:101F60007F420021B2F5807FC0F8001E08D1D0F872
:101F70000028B1EB1E6F09D1C0F800280AE000BFAD
:101F8000D0F8001841F0030102E000BF42F0010167
:101F9000C0F80018002104910499013104910499BA
:101FA000B1F1706F52D8016900291ED40499013132
:101FB00004910499B1F1706F48D80169002914D4D3
:101FC0000499013104910499B1F1706F3ED801690F
:101FD00000290AD40499013104910499B1F1706F78
:101FE00034D80169B1F1FF3FD6DC002104914FF4F0
:101FF000846101610499013104910499B1F1706F18
:1020000024D8016989061DD50499013104910499E8
:10201000B1F1706F1AD80169890613D5049901319D
:1020200004910499B1F1706F10D80169890609D53E
:102030000499013104910499B1F1706F06D80169D6
:102040008906D7D44FF0000A02E000BF4FF0010A22
:10205000002105910599013105910599B1F1706F44
:102060004ED8016900291ED40599013105910599C1
:10207000B1F1706F44D80169002914D40599013178
:1020800005910599B1F1706F3AD8016900290AD418
:102090000599013105910599B1F1706F30D8016949
:1020A000B1F1FF3FD6DC00210591102101610599B6
:1020B000013105910599B1F1706F21D80169C90607
:1020C00020D50599013105910599B1F1706F17D8A7
:1020D0000169C90616D50599013105910599B1F136
:1020E000706F0DD80169C9060CD5059901310591AC
:1020F0000599B1F1706F03D80169C906D7D401E021
:102100004FF0010A5FFA8EF94FF00008B9F1000FA5
:10211000C0F81088C0F81488C0F81C8800F00D8141
:10212000CDF80CA0CDE9015ED0F800194FF00064A5
:1021300004EA11114FF67F35B9F1010BC0F800190F
:10214000C0F81089C0F8085974D0A9F10201032918
:102150000BF0030A04D20121BAF1000F40D169E06B
:1021600000962BF0030700F5186600234FF0904C03
:102170004FF67F324FF0000E56F8601C0EF1040E41
:102180000CEAE17146F8601C46F8503C46F8582CC1
:1021900056F8401C77450CEAE17146F8401C46F8B9
:1021A000303C46F8382C56F8201C0CEAE17146F811
:1021B000201C46F8103C46F8182C31680CEAE171F6
:1021C00031603361B26006F18006D5D1009E0EF118
:1021D00001014FF67F354FF00064BAF1000F29D0AE
:1021E00000F510634F01B446DE594FF0904202EA09
:1021F000E67603EB4111DE51664600274FF67F334A
:10220000BAF1010F0F618B6014D00E6ABAF1020FA0
:1022100002EAE67266460A620F638B620AD00A6CB3
:102220004FF0904303EAE2720A6400220A654FF617
:102230007F328A64D0F8001BBBF1000F04EA111151
:10224000C0F8001B4FF00001C0F8101BC0F8085B7D
:10225000DDE9015EDDF80CA06FD0A9F102010329D0
:102260000BF0030C04D20121BCF1000F3BD164E060
:10227000A94600962BF0030500F5386600234FF0C1
:1022800090474FF67F32002156F8604C043107EA40
:10229000E47446F8604C46F8503C46F8582C56F822
:1022A000404C8D4207EAE47446F8404C46F8303C16
:1022B00046F8382C56F8204C07EAE47446F8204CCF
:1022C00046F8103C46F8182C346807EAE474346089
:1022D0003361B26006F18006D6D1009E01314D46D1
:1022E000BCF1000F29D000F530634F013446DE59B0
:1022F0004FF0904202EAE67603EB4111DE512646AA
:1023000000274FF67F33BCF1010F0F618B6014D0B3
:102310000E6ABCF1020F02EAE67226460A620F63F9
:102320008B620AD00A6C4FF0904303EAE2720A64AF
:1023300000220A654FF67F328A64D0F810181EF426
:102340007F0F21F48071C0F810186FF08041C0F841
:102350001880416103D1816941F010018161816977
:1023600043F60002C8F23C02114316F47F0F81616C
:1023700003D0816941F008018161012D05D1816996
:1023800041F0804141F004018161504606B0BDE852
:10239000F08F00000146806820F0010200208A6072
:1023A00070470000B0B50446C068002920F0C04066
:1023B000E06000F09980012940F0B080E0680A25D3
:1023C00040F00050E0600A20FEF766F854F8140F61
:1023D000C00740F09C800A20FEF75EF82068C00726
:1023E00040F09E800A20FEF757F82068C00740F0B2
:1023F000A5800A20FEF750F82068C00740F0AC80A6
:102400000A20FEF749F82068C00740F0B3800A2090
:10241000FEF742F82068C00740F0BA800A20FEF7B5
:102420003BF82068C00740F0C1800A20FEF734F86E
:102430002068C00740F0C8800A20FEF72DF8206809
:10244000C00740F0CF800A20FEF726F82068C007BA
:1024500040F0D6800A20FEF71FF82068C00740F041
:10246000DD800A20FEF718F82068C00740F0E480FD
:102470000A20FEF711F82068C00740F0EB800A2020
:10248000FEF70AF82068C00740F0F2800A20FEF745
:1024900003F82068C00740F0F9800A20FDF7FCFF30
:1024A0002068C00740F000810A20FDF7F5FF206892
:1024B000C00740F007810A20FDF7EEFF2068C00743
:1024C00040F00E810A20FDF7E7FF2068C00740F0CA
:1024D00016810A20FDF7E0FF2068C825A5F1C80095
:1024E000B0FA80F04009B0BDE0680A2540F08040B5
:1024F000E0600A20FDF7D0FF54F8140FC00706D0A3
:102500000A20FDF7C9FF2068C00711D11425A5F1E5
:10251000C800B0FA80F04009B0BD00BF0120B0BDD6
:102520001425A5F1C800B0FA80F04009B0BD00BF85
:102530000A20FDF7B1FF2068C00707D11E25A5F1CD
:10254000C800B0FA80F04009B0BD00BF0A20FDF716
:10255000A3FF2068C00707D12825A5F1C800B0FA5D
:1025600080F04009B0BD00BF0A20FDF795FF20684C
:10257000C00707D13225A5F1C800B0FA80F04009A4
:10258000B0BD00BF0A20FDF787FF2068C00707D154
:102590003C25A5F1C800B0FA80F04009B0BD00BFED
:1025A0000A20FDF779FF2068C00707D14625A5F16D
:1025B000C800B0FA80F04009B0BD00BF0A20FDF7A6
:1025C0006BFF2068C00707D15025A5F1C800B0FAFD
:1025D00080F04009B0BD00BF0A20FDF75DFF206814
:1025E000C00707D15A25A5F1C800B0FA80F040090C
:1025F000B0BD00BF0A20FDF74FFF2068C00707D11C
:102600006425A5F1C800B0FA80F04009B0BD00BF54
:102610000A20FDF741FF2068C00707D16E25A5F10C
:10262000C800B0FA80F04009B0BD00BF0A20FDF735
:1026300033FF2068C00707D17825A5F1C800B0FA9C
:1026400080F04009B0BD00BF0A20FDF725FF2068DB
:10265000C00707D18225A5F1C800B0FA80F0400973
:10266000B0BD00BF0A20FDF717FF2068C00707D1E3
:102670008C25A5F1C800B0FA80F04009B0BD00BFBC
:102680000A20FDF709FF2068C00707D19625A5F1AC
:10269000C800B0FA80F04009B0BD00BF0A20FDF7C5
:1026A000FBFE2068C00707D1A025A5F1C800B0FA3D
:1026B00080F04009B0BD00BF0A20FDF7EDFE2068A4
:1026C000C00707D1AA25A5F1C800B0FA80F04009DB
:1026D000B0BD00BF0A20FDF7DFFE2068C00707D1AC
:1026E000B425A5F1C800B0FA80F04009B0BD00BF24
:1026F0000A20FDF7D1FE2068C0077FF4EAAEBE25B0
:10270000A5F1C800B0FA80F04009B0BDFEE70000B6
:1027100088B040F60009C4F20209FDF7BBFFFFF7DD
:102720004FF9002443F630000694CDE90444CDE986
:1027300002440194C4F202000168002241F0040145
:10274000016001684FF0180B01F00401019101993B
:102750000194016841F080010160016801F080018D
:10276000019101990194016841F001010160016842
:1027700001F00101019101990194016841F0020108
:102780000160016801F00201019101990194016861
:1027900041F008010160016801F00801019101990F
:1027A0000194016841F0400101600068182100F0C7
:1027B0004000019001984846FDF752FFA9F5806856
:1027C000404644F281010022FDF74AFF09F5805599
:1027D0002846402100224FF0400AFDF741FF4FF408
:1027E000005002904FF4881002AFCDE90304484630
:1027F0003946FDF765FE012648463946CDF808B052
:10280000CDE903660594FDF75BFE44F28100CDE956
:10281000020640463946CDE90444FDF751FE2846FC
:102820003946CDE902A6CDE90444FDF749FE8020F2
:10283000CDE90204284639460494FDF741FE40F2F2
:102840005450A9F55841C2F200004FF482764FF47B
:1028500000750A27C0E90016C0E90244C0E9044433
:10286000C0E90654C0E90844C0E90A47FEF78EFEF5
:1028700010B172B6FEE700BF40F2AC50A9F5E831E6
:10288000C2F20000C0E90016C0E90244C0E90444F5
:10289000C0E90654C0E90844C0E90A47FEF776FEDD
:1028A00010B172B6FEE700BF40F204600021A9F546
:1028B000FC32C2F200004FF6FF73CDE90211C0E90D
:1028C0000021C0E902138161FEF7BAFF10B172B6B0
:1028D000FEE700BF40F20460C2F2000002A9FEF76A
:1028E00051FF18B172B600BFFEE700BF40F24C6066
:1028F000A9F5E031C2F2000000230C274FF4E132C9
:1029000080E80E00C0E90333C0E90573C361FEF738
:10291000DFFF18B172B600BFFEE700BF40F27000E3
:10292000C2F200004FF0A0410160062101714FF496
:102930000071C1804FF48171C0F809100121C1817B
:10294000FDF754FF10B172B6FEE700BF48461021F4
:102950000122FDF785FE484608210122FDF780FE91
:10296000FEE7F1EE100A4FF6FF71C0F2C03120EA27
:10297000010040F04070E1EE100A704700000000D6
:10298000000000000102030406070809000000001F
:1029900001020304B8290008000000201000000014
:1029A00028020008C829000810000020880C000038
:1029B00048020008000000000100000010000000B4
:0829C0000024F40000000000F7
:04000005080001C529
:00000001FF
