:020000040800F2
:10000000A81401209102000805260008FD2500081B
:1000100001260008C10500088D3E00080000000010
:100020000000000000000000000000000D26000895
:10003000D10500080000000009260008F12D000885
:10004000AB020008AB020008AB020008AB020008DC
:10005000AB020008AB020008AB020008AB020008CC
:10006000AB020008AB020008AB020008AB020008BC
:10007000AB020008AB020008C5050008AB0200088F
:10008000AB020008AB020008AB020008AB0200089C
:10009000AB020008AB020008AB020008AB0200088C
:1000A000AB020008AB020008AB020008AB0200087C
:1000B000AB020008AB020008AB020008AB0200086C
:1000C000AB020008AB020008AB020008AB0200085C
:1000D000AB020008AB020008AB02000821340008A4
:1000E000AB020008AB020008AB020008AB0200083C
:1000F000AB020008AB020008AB020008AB0200082C
:10010000AB020008AB020008AB020008AB0200081B
:10011000AB020008AB020008AB020008AB0200080B
:10012000AB020008AB020008AB020008AB020008FB
:10013000AB0200080000000000000000AB02000855
:10014000AB020008AB020008AB020008AB020008DB
:10015000AB020008AB020008AB020008AB020008CB
:10016000AB020008AB020008AB020008AB020008BB
:10017000AB020008AB020008AB0200080000000060
:1001800000000000AB0200080000000000000000BA
:10019000AB0200080000000000000000AB020008F5
:1001A000000000000000000000000000AB0200089A
:1001B000AB020008AB020008AB020008AB0200086B
:1001C000AB02000800F002F800F052F814A696E81E
:1001D000000CB244B344DA4501D100F049F8BAE862
:1001E0000F000FA696E83000A5EB040504EB060708
:1001F000AAEB0704A7F101074FEA15154FEA3414DB
:10020000A4F10104AC4201D300F032F813F0010F65
:1002100018BFFB1A43F0010300F001F8DBE71847B1
:100220004441000064410000103A24BF78C878C1FE
:10023000FAD8520724BF30C830C144BF04680C60EC
:1002400070470000704700000023002400250026AE
:10025000103A28BF78C1FBD8520728BF30C148BF29
:100260000B6070471FB504F05FF81FBD10B510BDDF
:1002700000F066F91146FFF7F5FF03F009FE00F004
:1002800084F903B4FFF7F2FF03BC00F08BF9000020
:100290000948804709480047FEE7FEE7FEE7FEE71A
:1002A000FEE7FEE7FEE7FEE7FEE7FEE70448054956
:1002B000054A064B70470000A12E0008C501000842
:1002C000A80E0120A8140120A8100120A8100120C8
:1002D00053EA020C00F069802DE9F04B4FF0000664
:1002E000002B1FBFB3FA83F503FA05F424FA05F6D1
:1002F0005E4012BF1643B2FA82F502FA05F4C5F168
:1003000020051EBF22FA05FC44EA0C04203556EAFB
:10031000044C4FEA144418BF641C4FF000084FF01F
:100320000009904271EB030C39D3002919BFB1FACF
:1003300081F701FA07F6B0FA80F700FA07F6C7F17D
:1003400020071EBF20FA07FC46EA0C062037B6FB42
:10035000F4FCA7EB0507103F07F01F0BCBF12006BD
:100360002CFA06F60CFA0BFB44BFB3460026202FEE
:10037000A4BF5E464FF0000B5BEA060C08BF4FF0CF
:10038000010B19EB0B0948EB0608ABFB027C06FBE3
:1003900002CC0BFB03CCC01B71EB0C01C1E70B467D
:1003A000024641464846BDE8F08B13B5084318BFE6
:1003B0004FF0FF300146AFF30080BDE81C407047AE
:1003C00010B5431C02E010F8011B71B18107FAD18E
:1003D0004FF0013202C88C1A8C4314EAC211F9D0D2
:1003E000C01A0A0603D0C01E10BDC01A10BD0A04F0
:1003F00001D0801E10BD0902FCD0401E10BD032A92
:1004000040F2308010F0030C00F0158011F8013B31
:10041000BCF1020F624498BF11F801CB00F8013B18
:1004200038BF11F8013BA2F1040298BF00F801CBDC
:1004300038BF00F8013B11F0030300F04F80083A89
:10044000C0F0088051F8043B083A51F804CBA0E80A
:100450000810F5E7121D5CBF51F8043B40F8043B5F
:10046000AFF30080D20724BF11F8013B11F801CB94
:1004700048BF11F8012B24BF00F8013B00F801CB65
:1004800048BF00F8012B70474FF0000200B513463B
:1004900094469646203922BFA0E80C50A0E80C50A4
:1004A000B1F12001BFF4F7AF090728BFA0E80C5055
:1004B00048BF0CC05DF804EB890028BF40F8042B4E
:1004C00008BF704748BF20F8022B11F0804F18BFBB
:1004D00000F8012B704770477047704710B5203AFD
:1004E000C0F00B80B1E81850A0E81850B1E81850DF
:1004F000A0E81850203ABFF4F5AF5FEA027C24BFB1
:10050000B1E81850A0E8185044BF18C918C0BDE899
:1005100010405FEA827C24BF51F8043B40F8043B62
:1005200008BF7047D20728BF31F8023B48BF11F817
:10053000012B28BF20F8023B48BF00F8012B704771
:10054000754600F02BF8AE4605006946534620F08C
:100550000700854618B020B5FFF7A8FEBDE820408B
:100560004FF000064FF000074FF000084FF0000B6F
:10057000AC46ACE8C009ACE8C009ACE8C009ACE8DE
:10058000C00921F007018D46704710B50446AFF34E
:1005900000802046BDE81040FFF773BE004870475A
:1005A0001000002001491820ABBEFEE72600020023
:1005B0007047000030EE010A70EEA10A704700009B
:1005C000FEE700004DF6C400C2F2000000F060B883
:1005D0007047000072B600BFFEE7000070B5866D80
:1005E000044600F025FB94F83510022928D1054671
:1005F0002068216C026822F016020260426922F033
:100600008002426109B9A16C19B1016821F00801A9
:100610000160016821F00101016000BF20680068ED
:10062000C00715D000F004FB401B0628F6D320209D
:100630006065032084F83500002184F8341070BD13
:10064000802060650120002184F8341070BD00BF57
:10065000E06D3F2101FA00F0B060012084F8350020
:100660000020002184F8341070BD000090F835108F
:10067000022909D1052180F835100068016821F0B0
:100680000101016000207047802141650120704711
:10069000F0B581B00021009140F20801C2F20001E2
:1006A0000B68D0E9166148F2B51537680822C1F623
:1006B0004E358A403A42A3FB05350CD003681C68CE
:1006C000640708D51C6824F004041C60B260426D05
:1006D00042F00102426501228A403A4208D0036892
:1006E0005B691B0604D5B260426D42F002024265AE
:1006F00004228A403A4208D003681B689B0704D54D
:10070000B260426D42F00402426510228A403A42D1
:1007100019D001680B681B0715D5B2600B680A6811
:100720005B0309D4D20509D40A6822F008020A60E2
:10073000016C29B907E000BF110341D4016C11B16C
:10074000044688472046C26D202101FA02F33B424D
:1007500043D001680F68FF063FD5B36090F835704D
:100760000B68052F1CD123F016030B604B6923F097
:1007700080034B61036C0BB9836C1BB10B6823F0D6
:1007800008030B603F219140B160012180F83510D2
:10079000016D0022002980F8342054D158E000BFB8
:1007A0000A685B0310D4D20512D40A6822F0100242
:1007B0000A60012180F83510002180F8341007E02C
:1007C000816C0029BCD1BEE7110301D4416C00E06B
:1007D000C16B11B1044688472046416DC1B3416DDC
:1007E000C9072ED0052180F835100168AA0A0B68C8
:1007F00023F001030B60009B0133934200931AD84E
:100800000B68DB0717D0009B01339342009312D88B
:100810000B68DB070FD0009B0133934200930AD88B
:100820000B68DB0707D0009B01339342009302D88B
:100830000B68DB07DFD1012180F83510002180F83B
:100840003410C16C21B101B0BDE8F040084700BFD1
:1008500001B0F0BD2DE9F041044600F0E9F9ECB13A
:100860000546022084F835000020216884F8340011
:10087000086820F00100086021680868C00711D0EE
:1008800000F0D6F9401B0528F6D9032520230320C4
:10089000636584F83550BDE8F08100BF0120BDE8F4
:1008A000F08100BF086848F23F02CFF21002D4E99D
:1008B000013500EA020C04F10C0898E8C10143EA92
:1008C0000C032B431843D4E9072E3043384310431D
:1008D000626A40EA0E00042A40EA08031CD1206B39
:1008E000D4E90A2E40EA0E00184308604869BEF1B8
:1008F000000F20F0030040EA020040F0040C11D089
:10090000B8F5005F36D0B8F1000F45D1022A46D0C5
:10091000012A3BD032B942E00B60486920F0070061
:1009200040EA020C01F0F8004AF6AB221038CAF691
:10093000AA22A0FB02231A0944F25A33C1F814C0B8
:10094000C0F600039A5C40F2FF335F284FF03F008F
:1009500021EA030100FA02F088BF0431C4E916124B
:100960008860002301250020636584F83550BDE8C8
:10097000F08100BF032AD5D8012540230120DFE8FC
:1009800002F0030E030500BF82E700BFAEF1C070A6
:10099000B0FA80F0400904E0032A04D3C2D1CEF3B8
:1009A00000600028BED0012540230120636584F843
:1009B0003550BDE8F081000090F834C0BCF1010F63
:1009C00004BF0220704770B54FF0010C80F834C0AE
:1009D000D0F858E090F835C0BCF1010F38D14FF095
:1009E000020C80F835C04FF0000CC0F854C0D0F8AD
:1009F00000C08468056CC06DDCF80060402C26F4F3
:100A00008026CCF80060CCF804300B4604BF1346B7
:100A10000A463F2101FA00F0CCF80830CCF80C204F
:100A2000CEF80800DCF8000040F01600CCF800001A
:100A30002DB1DCF8000040F00800CCF80000DCF834
:100A4000000040F00100CCF80000002070BD00BFA5
:100A5000002180F83410022070BD0000B0B50446BB
:100A600000F0E6F8054640F20000C2F2000000780F
:100A7000611C18BF044400BF00F0DAF8401BA0421C
:100A8000FAD3B0BD2DE9F04F83B000F1200200F1A0
:100A90003E4741F60005009207F1FF77C4F20205D8
:100AA00007224FEAB726A84208BF062200254FF0CA
:100AB00000084FF00009062E38BF4FEAB722019216
:100AC0000AE000BF09F1010908F10208B9F1100FAD
:100AD00005F1040500F0A2800F68012202FA09FE68
:100AE00017EA0E0AEED0D1F804C003220CF0030777
:100AF0007E1E02FA08F4012E6FEA040B12D88468F5
:100B0000CE6804EA0B0406FA08F6344384604468AD
:100B100024EA0E06CCF3001404FA09F426434660D6
:100B200004E000BF032F01D103271EE0C6688C68D4
:100B300006EA0B0604FA08F42643022FC66014D115
:100B40006FF00302009E02EA590756F807C005F04D
:100B50001C040F220B69A2402CEA0202A3401A4394
:100B6000F251D1F804C00CF00307026807FA08F349
:100B700002EA0B021A431CF4403F0260A2D000229A
:100B800043F644030292C4F202031A6843F6004497
:100B900042F480421A601A68C4F2010402F48042EE
:100BA0000292029A29F003024FF6084C2244CFF633
:100BB000FF7C52F80C3005F00C070F26BE40B34303
:100BC000019E06FA07F73B4342F80C30A2684B68D7
:100BD00042EA0A0743F60C4CDE0258BF22EA0A0733
:100BE000A760C4F2010CDCF800209E0242EA0A076A
:100BF00058BF22EA0A07CCF8007062689E0342EAF6
:100C00000A0758BF22EA0A0767602268DB0342EA44
:100C10000A0758BF22EA0A07276053E703B0BDE876
:100C2000F08F0000002A08BF0904816170470000AE
:100C300040F6A060C2F201000068704740F2000078
:100C400040F6A061C2F20000C2F2010100780A6819
:100C5000104408607047000080B543F60040C4F2BD
:100C60000200016841F400710160016841F4806193
:100C70000160016841F480710160032000F086F892
:100C8000002000F005F800F027F8002080BD0000EB
:100C900070B540F20006C2F2000640F20801327858
:100CA000C2F200014FF47A730968B3FBF2F2044612
:100CB000B1FBF2F1084600F05DFF0F2C4FF001058B
:100CC00008D838B94FF0FF3021460022002500F047
:100CD00031F87460284670BD82B0002043F64001B0
:100CE0000190C4F202014A6842F480424A604A68B4
:100CF00002F480420192019A0090086840F080500E
:100D00000860086800F080500090009802B07047BA
:100D1000002848BF704700F01F01012202FA01F1CC
:100D20001C2202EAD0004EF20012CEF200028150E4
:100D30007047000010B54EF60C5CCEF2000CDCF8EB
:100D40000030C3F3022E8EF00704042C28BF0424C5
:100D5000BEF103034FF0FF3E0EFA04F438BF002348
:100D6000A14399400EFA03F39A43114300F00F0296
:100D700000F160430901043A03F56443624400282A
:100D800048BF02F10C03197010BD00004EF60C5163
:100D9000CEF200010A684FF6FF031A4060F30A2200
:100DA00042F0806040F0FD700860704701220168E9
:100DB000C0F8D824002280F8CC24886940F0006074
:100DC0008861486D40F0805040F0030200204A6581
:100DD00070470000002804BF01207047F0B581B0C3
:100DE0000446056890F8950428B9002084F8940416
:100DF000204600F02DF90320B5F1A04F84F89504AA
:100E000004BF0020A071206802F084FE94E80F0067
:100E1000267C009602F00AFB002840F00081206842
:100E2000002102F07FFE002840F0F98094F804E0F1
:100E3000BEF1000F00F0EC800EF0030CBEF1040FC9
:100E40004FF0000240D30EF0FC03A4F19000032108
:100E5000012500BFCE1E80F8A460A0F8BE608E1EE3
:100E600080F8C860A0F8E2604E1E80F8EC60A0F840
:100E7000066180F81011A0F82A110E1D013180F8CA
:100E8000A55080F8A820C0E92B22C0F8B42080F833
:100E9000C95080F8CC20C0E93422C0F8D82080F8AE
:100EA000ED5080F8F020C0E93D22C0F8FC2080F829
:100EB000115180F81421C0E94622C0F82021903059
:100EC00099423146C6D1F21EBCF1000F31D004F177
:100ED000140002EBC20100EB8105012300F8212080
:100EE0000021BCF1010F6B706A832971C5E9021101
:100EF00029611ED0551C05EBC50600EB8607BCF129
:100F0000020F7B7000F826507D833971C7E902110A
:100F100039610ED0911C01EBC10200EB8203012567
:100F200000F8221000205D7059831871C3E9020097
:100F30001861BEF1000F6BD0BEF1040F4FF000023C
:100F400036D30EF0FC000321234600BFCF1E83F8EA
:100F500054728F1E83F878724F1E83F8C0120D1DD5
:100F6000013183F8552283F85822C3E99722C3F848
:100F7000642283F8792283F87C22C3E9A022C3F893
:100F8000882283F89D2283F89C7283F8A022C3E90B
:100F9000A922C3F8AC2283F8C12283F8C422C3E992
:100FA000B222C3F8D022903381422946CED1EA1E24
:100FB000BCF1000F2CD004F5157002EBC20300EB5E
:100FC00083070021BCF1010F797000F823203971EB
:100FD000C7E9021139611BD0531C03EBC30700EBB7
:100FE0008706BCF1020F717000F827303171C6E935
:100FF000021131610CD0911C01EBC10200EB8203A4
:1010000000275F7000F822101F71C3E902771F618B
:1010100094E80F00277C009702F022FB30B10220F9
:1010200084F89504012001B0F0BD00BF0020607479
:10103000012084F89504207B012802D12046FFF787
:10104000B5FE206802F0FCFA002001B0F0BD0000FF
:10105000F0B59DB0044600201C90CDE91A00CDE902
:10106000180001A804305821FFF70EFA2068B0F1EB
:10107000A04F01D01DB0F0BD4FF48070019001A8C9
:1010800000F03EF8002818BFFFF7A4FA002743F647
:1010900030060097C4F202063068002440F00100D8
:1010A00030603068C4F2020400F001000090009843
:1010B0004FF4E85018900220CDE9190703201B9047
:1010C0000A2018AD1C9020462946FFF7DBFC4FF4A0
:1010D0000070CDE91807204629461A97FFF7D2FC81
:1010E000706840F0800070600097706940F4804044
:1010F0007061706900F48040009000981DB0F0BDF0
:101100002DE9F04381B00446006843F68C06C10720
:10111000C4F2020604D14FF0000981070CD415E097
:101120003168A26B21F0C06111433160B2FA82F1E3
:101130004FEA5119810709D53168E26B21F0C0519E
:1011400011433160002A08BF4FF00109410705D45F
:101150004FF00008010712D420E000BF3168226B75
:1011600021F4401111433160B2FA82F14FEA511873
:10117000B2F5801F08BF4FF0010901070ED5316895
:10118000626B21F440011143B2F5800F316008BF5A
:101190004FF00109002A08BF4FF0010881065AD517
:1011A0000020009056F84C0C47F2000740F08050A9
:1011B00046F84C0C56F84C0CC4F2000700F0805076
:1011C00000900098386840F480703860FFF730FD78
:1011D000054600BF3868C00506D4FFF729FD401B4F
:1011E0000228F7D990E100BF56F81C0C10F44070AB
:1011F00017D0216C01F44071884212D056F81C0CB3
:1012000040F64061C4F24721012220F440700A6098
:1012100000220A6046F81C0C56F81C0CC00740F06F
:101220007B812068216C56F8842C4FF6FF4701F42F
:10123000407322F4F812C0F6FF770F40B3F5407FF9
:1012400008BF3A4346F8842C56F81C2C6FF31F3124
:10125000114346F81C1CC10610D4010619D44106DE
:101260001FD4C10525D4810530D4410536D4B9F148
:10127000010F18BFB0F5006F3CD062E094F8580041
:1012800040F64061C4F24721C1F8A003206801067E
:10129000E5D5B168E26C21F440011143B16041062B
:1012A000DFD5B168A26C21F080611143B160C10546
:1012B000D9D5B168626D21F000611143B160B2F11E
:1012C000006F08BF4FF001088105CED5B168626C90
:1012D00021F080511143B1604105C8D5B268216D3C
:1012E00022F000520A43B0F5006FB26018BFB1F1AE
:1012F000005F23D140F26809C4F247290020C9F8F1
:101300000000FFF795FC054656F88C0C000105D54A
:10131000FFF78EFC401B0228F6D9F5E02068C107D4
:1013200002D0A16B00296FD0810702D5E16B0029A3
:101330006AD0410700F17D807FE000BFB9F1010F65
:10134000D8D0B8F1000F4FF0000000F0DE80682721
:10135000C4F24727B860FFF76BFC054656F88C0CC3
:10136000800005D5FFF764FC401B0228F6D9CBE0CE
:101370002068410701D5216B19B101071AD5616BAE
:10138000C1B956F8041CD4E9062301F44031656A5A
:10139000114341EA831141EA0561D4F82CC046F8B3
:1013A000041C31686FF0FF0221F4F85102EB0C22AB
:1013B00011433160C00516D5606DB0F1006F12D1D8
:1013C00056F8040C226AD4E9061300F07060D203C8
:1013D0004FF6FF75AA430843A2F5803240EA831016
:1013E000104346F8040C0120B860FFF721FC0446C6
:1013F00056F88C0C800000F18B80FFF719FC001B65
:101400000328F5D380E000BF56F8081C56F8082CD6
:10141000D4E9013501F4403102F070621943676983
:10142000114341EA851141EA077146F8081C41075A
:1014300003D5216BB1F5801F05D001071FD5616B66
:10144000B1F5800F1BD156F8081C56F8082CD4E9CA
:10145000013701F4403102F0E0421943256911439C
:1014600041EA871141EA0561D4F828C046F8081C12
:101470003168ACF1010221F01F01114331604105D7
:101480001FD5216DB1F1005F1BD1271D56F808CC87
:1014900056F8082CA8CFFF034FF6FF7127EA010189
:1014A0004FF0C06702F0E04207EA4C2707F10077EF
:1014B0001A433A43A1F5803142EA8512114346F8B6
:1014C000081C000510D5271D8FCF40EA8110D103DD
:1014D0004FF6FF729143A1F5803140EA0360084363
:1014E00040EA077046F8080C0120C9F80000FFF731
:1014F0009FFB054656F88C0C00013FF522AFFFF725
:1015000097FB401B0228F5D9032001B0BDE8F0830A
:10151000002001B0BDE8F083FFF78AFB054641F2E9
:10152000883700BF56F81C0C80073FF57AAEFFF7EE
:101530007FFB401BB8424FF00300F3D9E5E7000002
:10154000002804BF012070472DE9F04143F6080848
:10155000C4F202080446D8F8F8030D4600F00F0064
:10156000884207D288F8F853D8F8F80300F00F0043
:10157000A84277D12068810717D5410705D5D8F84B
:10158000001041F4E051C8F80010010705D5D8F863
:10159000001041F46041C8F80010D8F80010A268AB
:1015A00021F0F0011143C8F80010C00740D1D8F86D
:1015B000F80300F00F00A84207D988F8F853D8F8CC
:1015C000F80300F00F00A8424CD12068410707D56E
:1015D000D8F80010E26821F4E0511143C8F8001077
:1015E000000708D5D8F80000216920F4604040EADF
:1015F000C100C8F8000000F07DF8D8F8001044F2EF
:101600004232C1F30311C0F60002515C40F20802FD
:1016100020FA01F140F20400C2F200000068C2F2B8
:1016200000021160FFF734FB0020BDE8F08100BF2D
:101630006068811E022907D258F8081C89015CBF26
:101640000120BDE8F08111E0012807D158F8081CFD
:1016500089035CBF0120BDE8F08107E058F8081C51
:10166000890703D40120BDE8F08100BFD8F800103D
:1016700021F003010843C8F80000FFF7D9FA064635
:1016800041F28837D8F80000616800F00C00B0EB38
:10169000810F8CD0FFF7CCFA801BB842F2D903201F
:1016A000BDE8F08140F2080043F60801C2F20000F4
:1016B000C4F202010068096844F25232C1F3822187
:1016C000C0F60002515CC8407047000040F20800BC
:1016D00043F60801C2F20000C4F202010068096882
:1016E00044F25232C1F34231C0F60002515CC840AC
:1016F0007047000010B543F60404C4F202046068A9
:10170000C0F3810142F20040C0F2F400DFE801F0D2
:101710004202081841F20020C0F27A0010BD00BF5A
:10172000216801F03F02216823684902C3F3881150
:1017300016D4A1FB00010023FEF7CAFD17E000BF8D
:10174000216801F03F02216823684902C3F3881130
:1017500014D4A1FB00010023FEF7BAFD15E000BF81
:1017600041F20020C0F27A004843B0FBF2F0216859
:101770000222C1F3014102EB410109E041F20020E4
:10178000C0F27A004843B0FBF2F02168C1F3027165
:10179000B0FBF1F010BD0000002804BF012070472D
:1017A0002DE9F04182B00446007843F60006C007F8
:1017B000C4F202060CD0B06800F00C00042840F01F
:1017C00089803068800303D56068002800F050816C
:1017D0002078800723D5B06810F00C0F11D0B068C6
:1017E00000F00C00082802D17068400209D5B068EA
:1017F00000F00C000C2840F09F807068400200F15F
:101800009B803068800703D5E068012840F0308174
:101810003068216920F0F80040EAC100306020788B
:10182000000713D4207840072AD4A569002D00F0C2
:101830001A81B06800F00C00082840F0AB80012D40
:1018400040F0E880012002B0BDE8F0816069002826
:1018500040F20000C4F2472000F088800121C0F867
:10186000801EFFF7E5F90546706F8007DAD4FFF7B1
:10187000DFF9401B0228F7D9032002B0BDE8F08150
:10188000306C5FEAC0080AD400200190306C40F050
:1018900080503064306C00F080500190019847F225
:1018A0000007C4F200073868C00537D4386840F430
:1018B00080703860FFF7BCF9054600BF3868C00586
:1018C0002CD4FFF7B5F9401B0228F7D9032002B04A
:1018D000BDE8F081B06800F00C00082803D1706802
:1018E00040023FF56EAFB06800F00C000C2803D149
:1018F000706840023FF565AF61683068B1F5803FC0
:1019000007D0B1F5A02F40F0CB8040F480203060AC
:10191000306840F480303060CBE000BFA168306FA9
:10192000012905D0052957D140F004003067306FF8
:1019300040F00100306759E0E068002800F09C802A
:101940000020C4F2472001210160FFF771F905462C
:10195000306880073FF55CAFFFF76AF9401B02284B
:101960004FF00300F4D902B0BDE8F0810021C0F8C7
:10197000801EFFF75DF90546706F80077FF552AF57
:10198000FFF756F9401B0228F6D9032002B0BDE844
:10199000F08100BF0027C4F2472700203866FFF718
:1019A00047F9022D05460BD13068800140F1928045
:1019B000FFF73EF9401B02284FF00300F4D9D2E7AD
:1019C000306880014FD5FFF733F9401B02284FF0F4
:1019D0000300F5D9C7E700BF20F001003067306F82
:1019E000002920F00400306700F09880FFF720F90C
:1019F000054641F2883700BF306F800700F1A080B4
:101A0000FFF716F9401BB842F6D9032002B0BDE833
:101A1000F08100BF7068E16900F480028A4227D13A
:101A2000216A00F03F028A4222D147F6C071626A01
:101A30000140B1EB821F1BD1A16A4FF6FF73C903AE
:101A4000994300F44032A1F580318A4210D1E16A15
:101A500000F07062B2EB016F0AD1216B00F0E04040
:101A6000B0EB017F04D1002002B0BDE8F08100BFDF
:101A7000012002B0BDE8F0810020C4F2472000211F
:101A80000160FFF7D5F80546306880077FF5C7AEDF
:101A9000FFF7CEF8401B02284FF00300F4D962E7AD
:101AA00020F4803030603068002920F480203060DD
:101AB00050D0FFF7BDF80546306880033FF588AE8B
:101AC000FFF7B6F8401B6428F6D9032002B0BDE842
:101AD000F08100BF04F11C052FCD246B084340EAC0
:101AE0008210D9034FF6FF729143A1F5803140EA8D
:101AF0000560084340EA0470706001203866FFF713
:101B000097F8044630688001ADD4FFF791F8001BC8
:101B100002284FF00300F5D925E700BFFFF788F84A
:101B2000054641F2883700BF306F800708D5FFF7C0
:101B30007FF8401BB8424FF00300F5D913E700BF10
:101B4000B8F1000F3FF571AE306C20F0805030647A
:101B50006BE600BFFFF76CF8054600BF30688003F6
:101B60007FF536AEFFF764F8401B64284FF00300A2
:101B7000F4D9F8E6411E0020B0EB116F1CBF012024
:101B800070474EF21002CEF2000251604EF6235121
:101B9000CEF20001F0230B700721906011607047B6
:101BA00090F83C20012A4FF0020254D010B580F882
:101BB0003D200268D2F804E0D2F808C00C682EF08C
:101BC0007003234341F2FF74C4F20004A242536045
:101BD0000EDC40F2FF73C4F200039A4216DCB2F14D
:101BE000804F2BD040F20043C4F2000324E000BF3A
:101BF00040F2FF33C4F201039A4213DC41F60003C2
:101C0000C4F200039A4219D0002313E040F6000307
:101C1000C4F200039A4211D040F60043C4F200031C
:101C20000AE000BF44F20003C4F201039A4205D067
:101C300040F20043C4F201039A4204D149682CF0F7
:101C40008003194391600121002280F83D1080F843
:101C50003C20BDE81040104670470000002804BF3B
:101C60000120704710B5044690F83D0028B90020C7
:101C700084F83C00204600F01FF8022084F83D0064
:101C80002068211D01F016F9012084F8460084F82F
:101C90003E0084F83F0084F8400084F8410084F856
:101CA000420084F8430084F8440084F8450084F836
:101CB0003D00002010BD0000006841F20001C4F2A8
:101CC0000001884218BF704781B00020009043F6A1
:101CD0004000C4F20200016841F010010160006898
:101CE00000F010000090009801B0704770470000AD
:101CF0007047000090F8411090F842000843C0B2CD
:101D000070470000B0B582B001680A68CC684B69C2
:101D100002F02F05202D04F0200505D125B102B0D9
:101D2000BDE8B04001F088BA5FEA027C1EBF03F054
:101D3000010E04F4907313EB0E0341D1036BD5062F
:101D400018D5012B16D114F0100313D000220192E4
:101D50000A6801924A680192019A496949064BD47E
:101D6000818DC28DC38D002B18BF914240F0F4814C
:101D700002B0B0BD13062DD514F080032AD090F820
:101D80004120212AF4D18268B2F5805F03D1026933
:101D9000002A00F06782026A531C036212784A60CC
:101DA000C28C013A1304C284E2D1C86820F08000DA
:101DB000C860C86840F04000C86002B0B0BD00BF55
:101DC000D30718BF14F4807340F0D080530700F19C
:101DD000D380D8E05206CBD514F04002C8D0CA68F0
:101DE00022F04002CA60202180F8411002B0BDE814
:101DF000B04000F0FFBB00BFC16B0A68526893B2ED
:101E0000002BB5D0858DAB42B2D2C285C969B1F580
:101E1000807F00F0A080016851E8031F026821F470
:101E2000807142E80313DBB1016851E8031F0268C7
:101E300021F4807142E8031393B1016851E8031F54
:101E4000026821F4807142E803134BB1016851E844
:101E5000031F026821F4807142E80313002BDAD1DA
:101E6000016851E8051F026821F0010142E80513ED
:101E7000BBB3016851E8051F026821F0010142E887
:101E8000051373B3016851E8051F026821F00101D1
:101E900042E805132BB3016851E8051F026821F0E1
:101EA000010142E80513002BDAD11AE0016851E87C
:101EB000051F026821F0400142E80513DBB101680B
:101EC00051E8051F026821F0400142E8051393B173
:101ED000016851E8051F026821F0400142E805133E
:101EE0004BB1016851E8051F026821F0400142E84A
:101EF0000513002BDAD1202180F842100021016364
:101F0000016851E8031F026821F0100142E8031341
:101F1000DBB1016851E8031F026821F0100142E8BB
:101F2000031393B1016851E8031F026821F0100107
:101F300042E803134BB1016851E8031F026821F026
:101F4000100142E80313002BDAD1C16B04460846A6
:101F5000FEF744FB204602214163818DC28D891A20
:101F600089B202B0BDE8B040FFF7C0BE436C43F099
:101F700001034364530706D5BEF1000F03D0436C41
:101F800043F002034364930706D5BEF1000F03D06C
:101F9000436C43F004034364BCF1000F06D55EEAD2
:101FA000050303D0436C43F008034364436C002BE8
:101FB0003FF4DEAE920605D525B1044601F03CF9AA
:101FC000216820464969426C01F0400102F0080294
:101FD000891800F0B98000BF016851E8031F02684A
:101FE00021F4907142E80313BBB3016851E8031F69
:101FF000026821F4907142E8031373B3016851E859
:10200000031F026821F4907142E803132BB30168A7
:1020100051E8031F026821F4907142E80313002B7A
:10202000DAD11AE0016851E8051F026821F00101C8
:1020300042E80513DBB1016851E8051F026821F091
:10204000010142E8051393B1016851E8051F0268D8
:1020500021F0010142E805134BB1016851E8051F69
:10206000026821F0010142E80513002BDAD1016B6F
:10207000012924D1016851E8031F026821F01001F1
:1020800042E80313DBB1016851E8031F026821F045
:10209000100142E8031393B1016851E8031F02687D
:1020A00021F0100142E803134BB1016851E8031F0E
:1020B000026821F0100142E80313002BDAD120213D
:1020C00080F842100021016301684969490640F126
:1020D000C380016851E8051F026821F0400142E811
:1020E0000513DBB1016851E8051F026821F04001CA
:1020F00042E8051393B1016851E8051F026821F019
:10210000400142E805134BB1016851E8051F026820
:1021100021F0400142E80513002BDAD1C16B002900
:1021200000F09A8042F6F972C0F6000204460846B2
:102130000A65FEF79BFA00283FF41AAEE06B016DCA
:1021400002B0BDE8B04008470446FFF7D1FD0020CB
:10215000606402B0B0BD00BF891A00BF026852E8D7
:10216000032F036822F4907243E80325BDB302688D
:1021700052E8032F036822F4907243E8032575B3F5
:10218000026852E8032F036822F4907243E80325A3
:102190002DB3026852E8032F036822F4907243E8DB
:1021A0000325002DDAD11AE0026852E8052F0368F2
:1021B00022F0010243E80525DDB1026852E8052F4F
:1021C000036822F0010243E8052595B1026852E850
:1021D000052F036822F0010243E805254DB102688E
:1021E00052E8052F036822F0010243E80525002D7F
:1021F000DAD1202280F8422000220263026852E8ED
:10220000032F036822F0100243E80325DDB10268C2
:1022100052E8032F036822F0100243E8032595B12A
:10222000026852E8032F036822F0100243E80325F6
:102230004DB1026852E8032F036822F0100243E810
:102240000325002DDAD1022289B2426302B0BDE833
:10225000B040FFF74BBD00BF02B0BDE8B040FFF794
:1022600047BD00BF026A32F8023B6FF35F234B6049
:10227000026295E5002804BF0120704710B50446AE
:1022800090F8410028B9002084F84000204600F072
:1022900021F8242084F841002068C16821F400510D
:1022A000C160204601F048F82068016921F490419E
:1022B0000161416921F02A014161C16841F4005185
:1022C000C16000202021606484F8411084F842102D
:1022D000606310BDF0B587B0044644F60000216885
:1022E000C4F20000002681420696CDE904660396FA
:1022F000029601D007B0F0BD43F630010196C4F25A
:1023000002010A69032742F480220A610A6900F582
:10231000E23002F480220192019A01960A6842F0AA
:1023200008020A60096801F00801019101994FF45F
:10233000407102910221CDE903160721069102A9FD
:102340000597FEF79FFB4DF6C40546F25800C2F212
:102350000005C4F202004FF00061402285E847000A
:1023600004204FF48063C5E908602846C5E90436B7
:10237000C5E90666C5E90A762E63FEF76BFA002802
:1023800018BFFEF727F9272000210022A563AC63C0
:10239000FEF7D0FC2720FEF7BBFC07B0F0BD000025
:1023A000704700002DE9F04381B0044690F84100E9
:1023B000202809D100294FF0010018BF002A07D1B9
:1023C00001B0BDE8F08300BF022001B0BDE8F0839A
:1023D0000020606421201D460E4684F84100174607
:1023E000FEF726FCA784E784A1688146B1F5805FEB
:1023F00002D1206900285DD037460020E28C216898
:10240000002A5DD06A1C24D0002D4AD0804600BF2F
:102410000868000608D4FEF70BFCA0EB0900A842F0
:102420007AD82168C868F3E717B117F8010B04E000
:1024300038F8020B00276FF35F204860E08C01380A
:10244000E084E08C0028E3D13AE000BF0A6812067D
:1024500009D40A68120606D40A6812065CBF0A6824
:102460005FEA0262F2D51FB117F8012B05E000BF49
:1024700030F8022B00276FF35F224A60E28C013AAA
:10248000E284E28C002AE4D11AE000BF30F8022B8B
:1024900000276FF35F224A60E28C013AE284E28C0B
:1024A00072B10A68120635D5002FEFD017F8012B4C
:1024B000F1E700BF00273046E28C2168002AA1D155
:1024C000086840061ED42DB3681C14D10868400665
:1024D0002AD40868400627D40868400624D408682F
:1024E00040064FF00000F1D50DE000BF2068C16844
:1024F0000068400618D4FEF79BFBA0EB0900A84239
:10250000F4D909E00020202184F8411001B0BDE891
:10251000F08300BFFEF78CFB0320202184F84110DC
:1025200001B0BDE8F08300BF0020202184F84110F5
:1025300001B0BDE8F0830000B0B590F84140202C18
:102540001CBF0220B0BD134600294FF0010218BF86
:10255000002B01D11046B0BD0022212401628384EA
:10256000C384426480F84140D0F838C043F2811EF1
:1025700043F23125C0F6000EC0F600050468CCE930
:102580000FE543F20505C0F60005CCE91352221D04
:1025900004466046FEF710FA216820466FF04002BC
:1025A0000A6000BF016851E8051F026841F0800120
:1025B00042E80513DBB1016851E8051F026841F0EC
:1025C000800142E8051393B1016851E8051F0268D4
:1025D00041F0800142E805134BB1016851E8051F45
:1025E000026841F0800142E80513002BDAD1002295
:1025F0001046B0BD7047000070470000FEE70000C5
:10260000FEE70000FEE70000704700007047000092
:1026100020EE010A60EE810A704700002DE9F043C8
:1026200040F2C40CC2F2000C9FEDAF0AACF25C4960
:10263000ACF58968002063460CE000BF09F590699D
:1026400008F59068BEF1300F03F59063704608BF3F
:10265000BDE8F08300EBC006F2015CF8022000F157
:10266000010E002A00F0B4801F24002504E000BF02
:10267000013C05F12405E1D05E19726A002AF7D108
:1026800090B159F80520012A1ED10027B0EE401A5A
:102690002F28B0EE402A23D0D6F8A424012A0AD14C
:1026A000B0EE402A1CE000BF0027B0EE401AD6F87A
:1026B000A424012AF4D006F5956292ED002A013790
:1026C000B8EEC22A0CE000BF09EB050292ED011A38
:1026D0000127B8EEC11A2F28B0EE402ADCD100BF86
:1026E00009EB0502D2F85C14012905D1B0EE403A9D
:1026F000B5F5876F08D10AE096ED023A0137B8EEDA
:10270000C33AB5F5876F02D0B16C012904D1B0EEA0
:10271000404A37B9ACE700BF96ED144A0137B8EE2E
:10272000C44A34EE433A32EE032A32EE411A88B1FB
:1027300059F8051001290DD002EE107AB8EEC22A20
:1027400081EE022A08EB050191ED003A33EE422AB0
:1027500081ED002AD6F8A414012909D1D2F85C141D
:10276000012917D1B16C01293FF482AF22E000BFEB
:1027700002EE107AB8EEC22A81EE022A06F59761BF
:1027800091ED003A32EE032A81ED002AD2F85C1472
:102790000129E7D002EE107AB8EEC22A81EE022AB1
:1027A00096ED063A33EE422A86ED062AB16C0129EF
:1027B0003FF45EAF02EE107AB8EEC22A81EE021A42
:1027C00096ED182A31EE021A86ED181A50E700BF6E
:1027D000A0F1010570B105EBC502D4015CF804401D
:1027E000012C0BD10024B0EE401A2F28B0EE402A65
:1027F0000FD120E00024B0EE401A0AE00CEBC21228
:1028000092ED011A0124B8EEC11A2F28B0EE402A29
:1028100011D00EEBCE02D7015CF80770012F03D167
:10282000B0EE402A07E000BF0CEBC21292ED012A85
:102830000134B8EEC22A0CEBC612164656F8247FB5
:10284000012F0BD1002CB0EE403A3FF40DAF32EE29
:10285000032A32EE411A58B91FE000BF96ED023A42
:102860000134B8EEC33A32EE032A32EE411AA0B177
:1028700005EBC505EE015CF80660012E0DD002EEF9
:10288000104AB8EEC22A81EE022A0CEBC51595ED6E
:10289000053A33EE422A85ED052A0EEBCE05EE0110
:1028A0005CF80660012E0DD002EE104AB8EEC22A86
:1028B00081EE022A0CEBC51595ED053A32EE032A9E
:1028C00085ED052A52F8245F012D3FF4CDAE02EECE
:1028D000104AB8EEC22A81EE021A92ED062A31EEB3
:1028E000021A82ED061ABFE600000000F0B581B0C2
:1028F0002DED0C8B40F2BC00C2F200009FED588A17
:1029000090EC020AB0EE481AFFF782FE4FF25064D4
:10291000C2F20004B0EE409AB0EE60AAA4F11C0628
:10292000402500BF96ED090AD6ED0A0AB0EE491A15
:10293000F0EE4A1A06F11C07FDF73CFE96ED081A68
:1029400086ED090A96ED070AC6ED0A0AF0EE410A7D
:10295000B0EE481AF0EE481AFDF72CFE86ED070A95
:10296000C6ED080A013D3E46DCD140F2C4069FEDAB
:102970003DCA9FED3DDA0025C2F20006BEEE089A80
:1029800004E000BF1C35B5F5E06F65D0601990ED2F
:10299000001A90ED012ABDEEC10A10EE101ABDEE2C
:1029A000C20A10EE102A01EBC10106EBC11102EBC5
:1029B000C20251F822100129E4D1B5EE402AB0EE4E
:1029C00042AAF1EE10FAB8BFB0EE48AAB4EE4CAA93
:1029D000D0ED030AF1EE10FAB5EE402A90ED020AAE
:1029E000C8BFF0EE480AF1EE10FAB4EE4CAAB8BF38
:1029F000F0EE480AF1EE10FAB5EE401AB0EE41BA28
:102A0000C8BFB0EE4CAAF1EE10FAB8BFB0EE48BAAB
:102A1000B4EE4DBAF1EE10FAB5EE401AC8BFB0EE02
:102A2000480AF1EE10FAB4EE4DBAB0EE491AB8BF4A
:102A3000B0EE480AF1EE10FAC8BFB0EE4DBAFFF79B
:102A4000E7FDB0EE401AF0EE601AB0EE4B0AF0EE81
:102A50004A0AFDF7AFFD95E7BDEC0C8B01B0F0BD68
:102A60000000000000000042000040422DE9F0415B
:102A7000FFF73CFF4FF2506840F2C4050020C2F25D
:102A80000008C2F20005002108EB010292ED000AE5
:102A900092ED011ABDEEC00A10EE104ABDEEC10A59
:102AA00010EE106A04EBC40305EBC31306EBC60774
:102AB00003EB87031F2EC8BF0023002E48BF00234F
:102AC0002F2C88BF00231F687031022F08BF1860A9
:102AD00092ED070A92ED081ABDEEC00A10EE107AC8
:102AE000BDEEC10A10EE106A07EBC70305EBC31376
:102AF00006EBC60403EB84031F2EC8BF0023002E81
:102B000048BF00232F2F88BF00231F68022F08BF54
:102B1000186092ED0E0A92ED0F1ABDEEC00A10EE8B
:102B2000107ABDEEC10A10EE106A07EBC70305EB81
:102B3000C31306EBC60403EB84031F2EC8BF002398
:102B4000002E48BF00232F2F88BF00231F68022FAD
:102B500008BF186092ED150A92ED161ABDEEC00A74
:102B600010EE103ABDEEC10A10EE107A03EBC3026C
:102B700005EBC21207EBC70602EB86021F2FC8BF88
:102B80000022002F48BF00222F2B88BF002213688D
:102B9000022B08BF1060B1F5E06F7FF475AFFFF74F
:102BA0003DFDFFF7A3FE0020002100BF08EB01025E
:102BB00092ED000A92ED011ABDEEC00A10EE107AF5
:102BC000BDEEC10A10EE106A07EBC70305EBC31395
:102BD00006EBC60403EB84031F2EC8BF0023002EA0
:102BE00048BF00232F2F88BF00231F687031022F9A
:102BF00008BF186092ED070A92ED081ABDEEC00AF0
:102C000010EE107ABDEEC10A10EE106A07EBC70392
:102C100005EBC31306EBC60403EB84031F2EC8BFEA
:102C20000023002E48BF00232F2F88BF00231F68DA
:102C3000022F08BF186092ED0E0A92ED0F1ABDEE3A
:102C4000C00A10EE107ABDEEC10A10EE106A07EB52
:102C5000C70305EBC31306EBC60403EB84031F2E67
:102C6000C8BF0023002E48BF00232F2F88BF00239A
:102C70001F68022F08BF186092ED150A92ED161A10
:102C8000BDEEC00A10EE103ABDEEC10A10EE107A89
:102C900003EBC30205EBC21207EBC70602EB860289
:102CA0001F2FC8BF0022002F48BF00222F2B88BF34
:102CB00000221368022B08BF1060B1F5E06F7FF4AB
:102CC00075AFFFF7ABFCFFF711FE0020002100BF3E
:102CD00008EB010292ED000A92ED011ABDEEC00A66
:102CE00010EE107ABDEEC10A10EE106A07EBC703B2
:102CF00005EBC31306EBC60403EB84031F2EC8BF0A
:102D00000023002E48BF00232F2F88BF00231F68F9
:102D10007031022F08BF186092ED070A92ED081A71
:102D2000BDEEC00A10EE107ABDEEC10A10EE106AB8
:102D300007EBC70305EBC31306EBC60403EB8403E1
:102D40001F2EC8BF0023002E48BF00232F2F88BF8F
:102D500000231F68022F08BF186092ED0E0A92ED43
:102D60000F1ABDEEC00A10EE107ABDEEC10A10EEC9
:102D7000106A07EBC70305EBC31306EBC60403EBAE
:102D800084031F2EC8BF0023002E48BF00232F2F0F
:102D900088BF00231F68022F08BF186092ED150A34
:102DA00092ED161ABDEEC00A10EE103ABDEEC10A41
:102DB00010EE107A03EBC30205EBC21207EBC70655
:102DC00002EB86021F2FC8BF0022002F48BF00223F
:102DD0002F2B88BF00221368022B08BF1060B1F5AB
:102DE000E06F7FF475AFBDE8F041FFF717BC00005E
:102DF000FDF724BF70B594B007AC20463421FDF731
:102E000043FB002543F640000695CDE90455CDE986
:102E100002550195C4F202000168022641F080517A
:102E20000160006800F080500190019847F20000B6
:102E30000195C4F20000016841F44041016000685E
:102E400000F4404001900198012007904FF4A02029
:102E500008904FF480000E9004200F90A820CDE938
:102E600010060720CDE9120620460D96FEF794FCC9
:102E700010B172B6FEE700BF0F20CDE902064FF495
:102E8000A05005904FF48050069002A805210495AB
:102E9000FEF756FB10B172B6FEE700BF14B070BD6E
:102EA0004EF68850CEF20000016841F470010160D6
:102EB0007047000010B540F6FF3E0368C4F2000EF4
:102EC00040F2004C7045C4F2010C25DCB0F1804F9B
:102ED0002FD040F20042C4F20002904229D040F6C6
:102EE0000002C4F20002904223D041F6FF72C4F205
:102EF0000002904227DC70453ADCB0F1804F5BD095
:102F000040F20042C4F20002904255D040F6000266
:102F1000C4F200024EE000BF40F60042C4F20002DC
:102F2000904206D0604504D00022C4F201029042D3
:102F3000DBD14A6823F07003134341F6FF72C4F2F9
:102F400000029042D7DD43F6FF72C4F201029042C4
:102F500020DC42F20002C4F2000290422CD0002297
:102F6000C4F20102904227D0604525D028E000BF7E
:102F700040F60042C4F2000290421DD041F6000229
:102F8000C4F20002904217D041F60042C4F200029F
:102F900010E000BF44F20002C4F2010290420BD0E4
:102FA00044F60002C4F20102904205D044F200420D
:102FB000C4F20102904203D1CA6823F44073134360
:102FC00023F080024B69D1F800E08C681A4302605C
:102FD000C46240F48062C0F828E0624504BF096919
:102FE0000163012141610169C90708BF10BD016981
:102FF00021F00101016110BD806B0021C185C184F8
:10300000FEF776BE806B01684A6990F84130212B4B
:103010002DD112F080022AD00021C184016851E82C
:10302000031F026821F0C00142E80313DBB101680D
:1030300051E8031F026821F0C00142E8031393B175
:10304000016851E8031F026821F0C00142E8031340
:103050004BB1016851E8031F026821F0C00142E84A
:103060000313002BDAD1202180F84110016849694F
:1030700090F84220222A40F07D8011F0400179D062
:103080000021C185016851E8031F026821F4907195
:1030900042E80313BBB3016851E8031F026821F43F
:1030A000907142E8031373B3016851E8031F02688B
:1030B00021F4907142E803132BB3016851E8031F18
:1030C000026821F4907142E80313002BDAD11AE070
:1030D000016851E8051F026821F0010142E805136B
:1030E000DBB1016851E8051F026821F0010142E8E7
:1030F000051393B1016851E8051F026821F0010131
:1031000042E805134BB1016851E8051F026821F040
:10311000010142E80513002BDAD1016B012924D10A
:10312000016851E8031F026821F0100142E803130F
:10313000DBB1016851E8031F026821F0100142E889
:10314000031393B1016851E8031F026821F01001D5
:1031500042E803134BB1016851E8031F026821F0F4
:10316000100142E80313002BDAD1202180F842102D
:1031700000210163416C41F010014164FEF7B8BDCC
:103180000168806B0968C90548BFFFF733BA0021A1
:10319000C18400BF016851E8051F026821F0800169
:1031A00042E8051383B3016851E8051F026821F066
:1031B000800142E805133BB3016851E8051F02682E
:1031C00021F0800142E80513F3B1016851E8051FC1
:1031D000026821F0800142E80513002BDAD113E0E8
:1031E000016851E8031F026841F0400142E80313FF
:1031F000002B08BF7047016851E8031F026841F0C7
:10320000400142E8031393B1016851E8031F0268CB
:1032100041F0400142E803134BB1016851E8031F3C
:10322000026841F0400142E80313002BD8D17047F7
:10323000806BFFF7E1B9000081B090F842102229BD
:1032400021D183680246B3F5805F09D152F8281F67
:1032500052F8183C002B63D003685B680AE000BF9B
:1032600052F8281F13B90369002BF5D003685B6877
:1032700003F07F030B70116801311160C18D0139BA
:103280000A04C18502D001B0704700BF0168CA6856
:1032900022F02002CA60CA6822F48072CA604A69B9
:1032A00022F001024A61202180F84210002141638E
:1032B000026B012A3CD10163016851E8031F0268D7
:1032C00021F0100142E80313DBB1016851E8031F4C
:1032D000026821F0100142E8031393B1016851E83C
:1032E000031F026821F0100142E803134BB101688B
:1032F00051E8031F026821F0100142E80313002B7C
:10330000DAD101680A68D20606D5002200920A685E
:103310000092496800910099818D01B0FEF7E6BCEA
:10332000026852686FF35F2221F8022B8162A5E7E1
:1033300001B0FFF735B80000B0B50446006804F1ED
:1033400008030ECB0569194325F440552A43026151
:103350006269E3691143C268194349F20C639A43F5
:103360001143C1604169A26921F4407141F20043F7
:10337000114340F48062C4F201039A42416103D1D7
:10338000FEF7A4F902E000BFFEF78CF9E1694FF601
:103390009C7563681922C0F6FF75B1F5004FA0FB5C
:1033A00002011FD15A00DB0FFCF792FF48F21F51B8
:1033B000C5F2EB11A0FB01235A0905F1805302FB72
:1033C0000300322303EBC000A0FB01014FF4F870AF
:1033D00000EA111000EB0210C1F342110844216809
:1033E0008860B0BD9A009B0FFCF772FF48F21F5136
:1033F000C5F2EB11A0FB01235A0902FB05003223A1
:1034000003EB0010A0FB0101F02000EA511000EBDB
:103410000210C1F34311084421688860B0BD000068
:103420004DF60860C2F20000FEF76CBC82B002F4F8
:103430007F42B2F5807F40F07F80826B4FF6BF7392
:1034400022F480328263C268CFF6BD731A40C26034
:10345000029BC268DBB222F44012012BC26003D18E
:10346000C26842F48012C26000220092009A0132C7
:103470000092009AB2F1706F00F2BE800269002AD9
:1034800021D4009A01320092009AB2F1706F00F2DA
:10349000B3800269002A16D4009A01320092009A81
:1034A000B2F1706F00F2A8800269002A0BD4009A72
:1034B00001320092009AB2F1706F00F29D800269B1
:1034C000B2F1FF3FD2DC00220092026942F0010219
:1034D0000261009A01320092009AB2F1706F00F21C
:1034E0008B800269D2071ED0009A01320092009AA6
:1034F000B2F1706F00F280800269D20713D0009A97
:1035000001320092009AB2F1706F75D80269D20749
:1035100009D0009A01320092009AB2F1706F6BD814
:103520000269D207D5D14FF0000C01F47F01B1F54B
:10353000803F40F0818077E0C26842F04002C26084
:1035400000220192019A01320192019AB2F1706F48
:103550005AD80269002A1ED4019A01320192019AB6
:10356000B2F1706F50D80269002A14D4019A013266
:103570000192019AB2F1706F46D80269002A0AD40A
:10358000019A01320192019AB2F1706F3CD802693E
:10359000B2F1FF3FD6DC00220192026942F0010243
:1035A0000261019A01320192019AB2F1706F2BD837
:1035B0000269D2071DD0019A01320192019AB2F13B
:1035C000706F21D80269D20713D0019A013201929B
:1035D000019AB2F1706F17D80269D20709D0019A27
:1035E00001320192019AB2F1706F0DD80269D207CF
:1035F000D7D14FF0000C09E04FF0030C01F47F012C
:10360000B1F5803F18D10FE04FF0030C826B13F43B
:103610007F4F14BF22F4803242F48032826301F47F
:103620007F01B1F5803F07D1816841F006018160DB
:10363000816841F020018160604602B0704700005F
:103640000146D0F8000E20F00300C1F8000ED1F8BA
:10365000040840F002020020C1F80428704700006E
:103660002DE9F04F86B0C3F3074516468E4600217C
:10367000C0F80411C0F80811C0F80C11C0F81011FE
:10368000C0F81411C0F81811C0F81C11C0F82011AE
:10369000C0F82411C0F82811C0F82C11C0F830115E
:1036A000C0F83411C0F83811C0F83C1125B100F150
:1036B00038014FF400120FE0D0F80418802241F0D6
:1036C0000201C0F80418816B21F4001181630168C4
:1036D00041F04001016001460B681A430A6006F49C
:1036E0007F420021B2F5807FC0F8001E08D1D0F8DB
:1036F0000028B1EB1E6F09D1C0F800280AE000BF16
:10370000D0F8001841F0030102E000BF42F00101CF
:10371000C0F8001800210491049901310491049922
:10372000B1F1706F52D8016900291ED4049901319A
:1037300004910499B1F1706F48D80169002914D43B
:103740000499013104910499B1F1706F3ED8016977
:1037500000290AD40499013104910499B1F1706FE0
:1037600034D80169B1F1FF3FD6DC002104914FF458
:10377000846101610499013104910499B1F1706F80
:1037800024D8016989061DD5049901310491049951
:10379000B1F1706F1AD80169890613D50499013106
:1037A00004910499B1F1706F10D80169890609D5A7
:1037B0000499013104910499B1F1706F06D801693F
:1037C0008906D7D44FF0000A02E000BF4FF0010A8B
:1037D000002105910599013105910599B1F1706FAD
:1037E0004ED8016900291ED405990131059105992A
:1037F000B1F1706F44D80169002914D405990131E1
:1038000005910599B1F1706F3AD8016900290AD480
:103810000599013105910599B1F1706F30D80169B1
:10382000B1F1FF3FD6DC002105911021016105991E
:10383000013105910599B1F1706F21D80169C9066F
:1038400020D50599013105910599B1F1706F17D80F
:103850000169C90616D50599013105910599B1F19E
:10386000706F0DD80169C9060CD505990131059114
:103870000599B1F1706F03D80169C906D7D401E089
:103880004FF0010A5FFA8EF94FF00008B9F1000F0E
:10389000C0F81088C0F81488C0F81C8800F00D81AA
:1038A000CDF80CA0CDE9015ED0F800194FF000640E
:1038B00004EA11114FF67F35B9F1010BC0F8001978
:1038C000C0F81089C0F8085974D0A9F10201032981
:1038D0000BF0030A04D20121BAF1000F40D169E0D4
:1038E00000962BF0030700F5186600234FF0904C6C
:1038F0004FF67F324FF0000E56F8601C0EF1040EAA
:103900000CEAE17146F8601C46F8503C46F8582C29
:1039100056F8401C77450CEAE17146F8401C46F821
:10392000303C46F8382C56F8201C0CEAE17146F879
:10393000201C46F8103C46F8182C31680CEAE1715E
:1039400031603361B26006F18006D5D1009E0EF180
:1039500001014FF67F354FF00064BAF1000F29D016
:1039600000F510634F01B446DE594FF0904202EA71
:10397000E67603EB4111DE51664600274FF67F33B2
:10398000BAF1010F0F618B6014D00E6ABAF1020F09
:1039900002EAE67266460A620F638B620AD00A6C1C
:1039A0004FF0904303EAE2720A6400220A654FF680
:1039B0007F328A64D0F8001BBBF1000F04EA1111BA
:1039C000C0F8001B4FF00001C0F8101BC0F8085BE6
:1039D000DDE9015EDDF80CA06FD0A9F10201032939
:1039E0000BF0030C04D20121BCF1000F3BD164E0C9
:1039F000A94600962BF0030500F5386600234FF02A
:103A000090474FF67F32002156F8604C043107EAA8
:103A1000E47446F8604C46F8503C46F8582C56F88A
:103A2000404C8D4207EAE47446F8404C46F8303C7E
:103A300046F8382C56F8204C07EAE47446F8204C37
:103A400046F8103C46F8182C346807EAE4743460F1
:103A50003361B26006F18006D6D1009E01314D4639
:103A6000BCF1000F29D000F530634F013446DE5918
:103A70004FF0904202EAE67603EB4111DE51264612
:103A800000274FF67F33BCF1010F0F618B6014D01C
:103A90000E6ABCF1020F02EAE67226460A620F6362
:103AA0008B620AD00A6C4FF0904303EAE2720A6418
:103AB00000220A654FF67F328A64D0F810181EF48F
:103AC0007F0F21F48071C0F810186FF08041C0F8AA
:103AD0001880416103D1816941F0100181618169E0
:103AE00043F60002C8F23C02114316F47F0F8161D5
:103AF00003D0816941F008018161012D05D18169FF
:103B000041F0804141F004018161504606B0BDE8BA
:103B1000F08F00000146806820F0010200208A60DA
:103B200070470000B0B50446C068002920F0C040CE
:103B3000E06000F09980012940F0B080E0680A253B
:103B400040F00050E0600A20FCF788FF54F8140FA2
:103B5000C00740F09C800A20FCF780FF2068C00767
:103B600040F09E800A20FCF779FF2068C00740F0F3
:103B7000A5800A20FCF772FF2068C00740F0AC80E7
:103B80000A20FCF76BFF2068C00740F0B3800A20D2
:103B9000FCF764FF2068C00740F0BA800A20FCF7F9
:103BA0005DFF2068C00740F0C1800A20FCF756FF87
:103BB0002068C00740F0C8800A20FCF74FFF20684B
:103BC000C00740F0CF800A20FCF748FF2068C007FC
:103BD00040F0D6800A20FCF741FF2068C00740F083
:103BE000DD800A20FCF73AFF2068C00740F0E4803F
:103BF0000A20FCF733FF2068C00740F0EB800A2062
:103C0000FCF72CFF2068C00740F0F2800A20FCF788
:103C100025FF2068C00740F0F9800A20FCF71EFF4E
:103C20002068C00740F000810A20FCF717FF2068D9
:103C3000C00740F007810A20FCF710FF2068C0078A
:103C400040F00E810A20FCF709FF2068C00740F011
:103C500016810A20FCF702FF2068C825A5F1C800DC
:103C6000B0FA80F04009B0BDE0680A2540F080401D
:103C7000E0600A20FCF7F2FE54F8140FC00706D0EB
:103C80000A20FCF7EBFE2068C00711D11425A5F12E
:103C9000C800B0FA80F04009B0BD00BF0120B0BD3F
:103CA0001425A5F1C800B0FA80F04009B0BD00BFEE
:103CB0000A20FCF7D3FE2068C00707D11E25A5F116
:103CC000C800B0FA80F04009B0BD00BF0A20FCF780
:103CD000C5FE2068C00707D12825A5F1C800B0FAA5
:103CE00080F04009B0BD00BF0A20FCF7B7FE206895
:103CF000C00707D13225A5F1C800B0FA80F040090D
:103D0000B0BD00BF0A20FCF7A9FE2068C00707D19C
:103D10003C25A5F1C800B0FA80F04009B0BD00BF55
:103D20000A20FCF79BFE2068C00707D14625A5F1B5
:103D3000C800B0FA80F04009B0BD00BF0A20FCF70F
:103D40008DFE2068C00707D15025A5F1C800B0FA44
:103D500080F04009B0BD00BF0A20FCF77FFE20685C
:103D6000C00707D15A25A5F1C800B0FA80F0400974
:103D7000B0BD00BF0A20FCF771FE2068C00707D164
:103D80006425A5F1C800B0FA80F04009B0BD00BFBD
:103D90000A20FCF763FE2068C00707D16E25A5F155
:103DA000C800B0FA80F04009B0BD00BF0A20FCF79F
:103DB00055FE2068C00707D17825A5F1C800B0FAE4
:103DC00080F04009B0BD00BF0A20FCF747FE206824
:103DD000C00707D18225A5F1C800B0FA80F04009DC
:103DE000B0BD00BF0A20FCF739FE2068C00707D12C
:103DF0008C25A5F1C800B0FA80F04009B0BD00BF25
:103E00000A20FCF72BFE2068C00707D19625A5F1F4
:103E1000C800B0FA80F04009B0BD00BF0A20FCF72E
:103E20001DFE2068C00707D1A025A5F1C800B0FA83
:103E300080F04009B0BD00BF0A20FCF70FFE2068EB
:103E4000C00707D1AA25A5F1C800B0FA80F0400943
:103E5000B0BD00BF0A20FCF701FE2068C00707D1F3
:103E6000B425A5F1C800B0FA80F04009B0BD00BF8C
:103E70000A20FCF7F3FD2068C0077FF4EAAEBE25F8
:103E8000A5F1C800B0FA80F04009B0BDFEE700001F
:103E900088B040F6000BC4F2020BFCF7DDFEFEF723
:103EA000A9FF002443F630060694CDE90444CDE989
:103EB00002440194C4F202063068182140F0040064
:103EC00030603068002200F00400019001980194F5
:103ED00030684FF0180840F080003060306800F023
:103EE0008000019001980194306840F0010030603A
:103EF000306800F00100019001980194306840F0B2
:103F000002003060306800F00200019001980194D6
:103F1000306840F008003060306800F00800019020
:103F200001980194306840F040003060306800F043
:103F30004000019001985846FCF774FEABF580698B
:103F4000484644F281010022FCF76CFE0BF58055D7
:103F5000284640210022FCF765FE4FF400500290F5
:103F60004FF488100DF1080ACDE903045846514674
:103F7000FCF788FD012758465146CDF80880CDE969
:103F800003770594FCF77EFD44F28100CDE902073A
:103F900048465146CDE90444FCF774FD4020CDE984
:103FA000020728465146CDE90444FCF76BFD80200A
:103FB000CDE90204284651460494FCF763FD0294BF
:103FC0003068002140F4001030603068002200F4B6
:103FD0000010029002980E20FCF7ACFE0E20FCF7B9
:103FE00097FE40F27006C2F20006ABF5FC31304697
:103FF00040F8041F4FF6FF71CDE90244C0E90144C7
:10400000C1608461FDF72AFE10B172B6FEE700BF01
:10401000301D02A9FDF7C4FD10B172B6FEE700BF66
:104020004DF60860ABF5E031C2F2000000230C272A
:104030004FF4E13280E80E00C0E90333C0E90573B4
:10404000C361FEF717F918B172B600BFFEE700BFF3
:104050004DF62410C2F200004FF0A041016006218D
:1040600001714FF40071C1804FF48171C0F80910E3
:104070000121C181FCF7AEFE10B172B6FEE700BFB0
:104080000BA000F03BF80FA000F038F813A417A520
:10409000204600F033F8FEF7E9FC3068013030606C
:1040A000284600F02BF800F039F800F0D9F8EFE7D7
:1040B00066696E6973686564204D5820496E69743D
:1040C000730A00007374617274696E67207768699F
:1040D0006C65206C6F6F700A000000007068797367
:1040E00069637320737465700A00000072656E6402
:1040F000657220737465700A0000000010B50446F4
:10410000FCF75EF982B24DF60860C2F2000021466B
:104110006423BDE81040FEF745B900002DE9F04FDB
:1041200040F2C4004DF6506CC2F20000C2F2000C26
:104130004EF600694FF2802A4FF2007B4FF6803432
:1041400000F5905E4FF00008CFF6FF79CFF6FF7ACA
:10415000CFF6FF7BCFF6FF74654600BF4FEA4801FC
:1041600001310CEB81135E180027714651F80930BC
:104170004FF0FF32002B08BF6FF06F0251F80A00BA
:10418000EB1900284FF0FF30EA5583F840205A70B1
:10419000327008BF6FF06F0051F80B20987083F8F1
:1041A0004200D87030704FF0FF30002A08BF6FF027
:1041B0006F000A59187183F84400587130704FF03D
:1041C000FF30002A08BF6FF06F000A68987183F80B
:1041D0004600D87130704FF0FF30002A08BF6FF0F2
:1041E0006F00D1F88024187283F84800587230703C
:1041F0004FF0FF30002A08BF6FF06F00D1F80029A0
:10420000987283F84A00D87230704FF0FF30002A5D
:1042100008BF6FF06F00D1F8802D187383F84C0041
:1042200058733070002A4FF0FF3007F1100708BFB5
:104230006FF06F00402F01F51051987383F84E0016
:10424000D873307092D108F10108B8F1300F05F140
:1042500080050EF1240E08BFBDE8F08F7EE7000058
:10426000F0B581B04FF2886544F25410C2F20005F7
:10427000C5F25240686040F60D2040F62156C5F266
:1042800021304DF65061C0F20A06286005F10C009D
:10429000C2F200014FF4C052AE60FCF7B0F840F635
:1042A0009C674DF60864C2F2010741F60C00C2F2A9
:1042B0000004386011A1204629226423FEF772F819
:1042C000386844F22152C4F24E4229182A5008306C
:1042D0004E6038602046FDF70DFD2028FAD14DF6DE
:1042E00008604FF28861C2F20000C2F2000141F69C
:1042F0000C0201B0BDE8F040FEF71EB966696E69B8
:1043000073686564206C6F6164696E6720696D61B4
:1043100067655F62756666206F6E746F2074785F84
:10432000627566660A000000F1EE100A4FF6FF7132
:10433000C0F2C03120EA010040F04070E1EE100A06
:10434000704700000000000000000102030406079F
:104350000809000000000102030400061016000610
:104360001016000088430008000000201000000024
:10437000280200089843000810000020981401004B
:1043800048020008000000000100000010000000CA
:084390000024F400000000000D
:04000005080001C529
:00000001FF
