:020000040800F2
:1000000010C50120B10200088531000869310008DF
:1000100081310008C10C0008CD4C00080000000030
:10002000000000000000000000000000E9330008AC
:10003000DD0C00080000000089310008653E000862
:10004000CB020008CB020008CB020008CB0200085C
:10005000CB020008CB020008CB020008CB0200084C
:10006000CB020008CB020008CB020008CB0200083C
:10007000CB020008CB020008C50C0008CB02000828
:10008000CB020008CB020008CB020008CB0200081C
:10009000CB020008CB020008CB020008CB0200080C
:1000A000CB020008CB020008CB020008CB020008FC
:1000B000CB020008CB020008CB020008CB020008EC
:1000C000CB020008CB020008CB020008CB020008DC
:1000D000CB020008CB020008CB02000861420008F6
:1000E000E10C0008CB020008CB020008CB0200089C
:1000F000CB020008CB020008CB020008CB020008AC
:10010000CB020008CB020008CB020008CB0200089B
:10011000CB020008CB020008CB020008CB0200088B
:10012000CB020008CB020008CB020008D10C00086B
:10013000CB0200080000000000000000CB02000815
:10014000CB020008CB020008CB020008CB0200085B
:10015000CB020008CB020008CB020008CB0200084B
:10016000CB020008CB020008CB020008CB0200083B
:10017000CB020008CB020008CB0200080000000000
:1001800000000000CB02000800000000000000009A
:10019000CB0200080000000000000000CB020008B5
:1001A000000000000000000000000000CB0200087A
:1001B000CB020008CB020008CB020008CB020008EB
:1001C000CB02000800F002F800F062F814A696E8EE
:1001D000000CB244B344DA4501D100F059F8BAE852
:1001E0000F000FA696E83000A5EB040504EB060708
:1001F000AAEB0704A7F101074FEA15154FEA3414DB
:10020000A4F10104AC4201D300F042F813F0010F55
:1002100018BFFB1A43F0010300F001F8DBE71847B1
:10022000EC7300000C740000103A24BF78C878C149
:10023000FAD8520724BF30C830C144BF04680C60EC
:1002400070470000704700000023002400250026AE
:10025000103A28BF78C1FBD8520728BF30C148BF29
:100260000B607047662907F07481642900F0B8803C
:10027000002070471FB507F05AF900F09DFB0400FD
:100280000020002106F07AFCE0601FBD10B510BD13
:1002900000F092FC1146FFF7EDFF04F019FD00F0AD
:1002A000B0FC03B4FFF7F2FF03BC00F0F3FC000066
:1002B0000948804709480047FEE7FEE7FEE7FEE7FA
:1002C000FEE7FEE7FEE7FEE7FEE7FEE70448054936
:1002D000054A064B70470000153F0008C50100089D
:1002E00010BF012010C5012010C1012010C1012044
:1002F00053EA020C00F069802DE9F04B4FF0000644
:10030000002B1FBFB3FA83F503FA05F424FA05F6B0
:100310005E4012BF1643B2FA82F502FA05F4C5F147
:1003200020051EBF22FA05FC44EA0C04203556EADB
:10033000044C4FEA144418BF641C4FF000084FF0FF
:100340000009904271EB030C39D3002919BFB1FAAF
:1003500081F701FA07F6B0FA80F700FA07F6C7F15D
:1003600020071EBF20FA07FC46EA0C062037B6FB22
:10037000F4FCA7EB0507103F07F01F0BCBF120069D
:100380002CFA06F60CFA0BFB44BFB3460026202FCE
:10039000A4BF5E464FF0000B5BEA060C08BF4FF0AF
:1003A000010B19EB0B0948EB0608ABFB027C06FBC3
:1003B00002CC0BFB03CCC01B71EB0C01C1E70B465D
:1003C000024641464846BDE8F08B13B5084318BFC6
:1003D0004FF0FF300146AFF30080BDE81C4070478E
:1003E0002DE9F0410646002410687529314616A50E
:1003F00010D0AFF30080002802DA404213A507E0D6
:1004000031688A0701D512A502E0490704D511A574
:10041000012401E0AFF3008000210A2206F1240745
:1004200009E0B0FBF2FCB0FBF2F302FB1C00303041
:1004300078541846491C0028F3D123462A463046F2
:10044000BDE8F04100F051B8000000002D000000B0
:100450002B0000002000000010B5431C02E010F843
:10046000011B71B18107FAD14FF0013202C88C1A19
:100470008C4314EAC211F9D0C01A0A0603D0C01E78
:1004800010BDC01A10BD0A0401D0801E10BD0902A3
:10049000FCD0401E10BD4FF0000200B5134694463C
:1004A0009646203922BFA0E80C50A0E80C50B1F1CC
:1004B0002001BFF4F7AF090728BFA0E80C5048BFE0
:1004C0000CC05DF804EB890028BF40F8042B08BF7E
:1004D000704748BF20F8022B11F0804F18BF00F87A
:1004E000012B70477047704770472DE9F0470D4664
:1004F00099469246044600F124080168880604D50E
:10050000E06921F01001216000E00120A84201DD36
:10051000471B00E00027A1697A1902EB0900081ABD
:10052000A0612078C00602D42046AFF300800026E8
:1005300008E0D4E901211AF806009047206A401C1F
:10054000761C20624E45F4DB2078C0060AD5204692
:10055000AFF3008006E0D4E9012130209047206A03
:10056000401C2062381EA7F10107F4DC07E0D4E943
:10057000012118F805009047206A401C2062281EBF
:10058000A5F10105F3DC2046AFF3008020780006DA
:1005900002D50220BDE8F0870120FBE72DE9FF4FDF
:1005A0000C461E464FF0FF378BB0D2E90001DDF854
:1005B00060800A908A46C1F30A5505B93D4600217C
:1005C00008464FF00000BAF1000F00F4400005DAD1
:1005D00000EB80004FF4400101EA50004FEA9059CF
:1005E000B9F1010F00DDB9460A9850EA4A000ED071
:1005F00044F61050A5F2FF3545432F14B8F1000F13
:100600001ED07542291E1EDDC9F100021CE0B8F1A2
:10061000010F4FF0000001D0302103E0F24305E06C
:100620002154401CB042FBDB304600220021215403
:100630000B99C1F80880C1E900200FB0BDE8F08F28
:10064000BD1B6D1CDEE74A4600DA694206A800F0D1
:100650003DFA06AB93E8070003AB83E8070050467A
:100660000A9905F0AAFE8DE80700A0F500501F3892
:1006700000900398002D0ADD42F21F014A4608440B
:10068000002303A90390684606F014F909E0A0F5D9
:1006900000504A461F38002303A90390684606F01D
:1006A0001EF98DE807000004000C03D04FF0FF3066
:1006B000410800E01046B8F1000F03D0002200927C
:1006C00015461EE0751E05D400F07AF930326255E9
:1006D0006D1EF9D5B3460122084302D000227F1CCB
:1006E00004E02078302801D100227F1E002A0997DB
:1006F00084D01DE0112D07DA00F062F93032625526
:100700006D1C50EA0102F5D1084302D00098C8B12F
:100710000EE00021681E05E0235C625C63542254F5
:10072000401E491C8142F7DBAB46A81B401E0990C6
:10073000002004F80B000B98099AC0F80880C0E963
:10074000002B7AE711264FF0000857E72DE9F04F0C
:1007500088460446D21D22F0070191B0D1E900017C
:10076000CDE90A0106F0F2F902460B98C00F01D05C
:100770002D2007E02068810701D52B2002E02021F1
:1007800001EAC000032A099001D0072A05DB0346CD
:100790004146204600F05AF90BE12078800601D549
:1007A000E06900E00620B8F1650F814606D0B8F197
:1007B000660F18D0B8F1670F70D131E00020B9F1A1
:1007C000110F009001DB112301E009F101030AAAD6
:1007D00001A90CA8FFF7E2FEDDE90C70002609F183
:1007E0000105834647E001204B4600904FF000474B
:1007F0000AAA01A90CA8FFF7D1FEDDE90DB00C99FA
:100800005D46002610B909F101000D18B9EB05008D
:1008100003D4C0F1FF3609F10105A5EB09002BE077
:10082000B9F1010F01DA4FF001090020B9F1110F00
:100830000090484601DD112300E003460AAA01A901
:100840000CA8FFF7ABFEDDE90C704D460026834691
:10085000207800070AD4AB4500DA5D4601A8012DD7
:1008600004DD411911F8011C302907D04F4502DA87
:1008700017F1040F04DA012082460FE06D1EEEE747
:10088000002F02DCED1B3E4403E0781CA84200DD93
:100890007D1CB81B00F1010A4FF0004720780007CB
:1008A00003D4AA4501DB4FF0FF3A0021B7F1004F16
:1008B0000DF143088DF8431024D002202B23002F84
:1008C00001DA7F422D230A21021EA0F1010000DC83
:1008D0005FB197FBF1FC97FBF1F201FB1C7C174623
:1008E0000CF1300C08F801CDEEE7A8F1010003701F
:1008F0002188090501D5452100E06521A0F1010805
:1009000000F8011C09980FA9A1EB0807FF1D00B111
:100910000120411901EBEA70A1693844081A401E10
:10092000A0612078C00602D42046AFF30080099869
:1009300028B1D4E901219047206A401C2062207828
:10094000C00622D52046AFF300801EE0002E04DB57
:10095000B34502DD01A8805D00E03020D4E901212B
:100960009047206A401C2062761CAAF101005FEAD1
:10097000000A0AD100F020F8C0680168405CD4E9A0
:1009800001219047206A401C2062281EA5F1010524
:10099000DCDC07E0D4E9012118F8010B9047206A5C
:1009A000401C2062381EA7F10107F3DC2046AFF39C
:1009B0000080032011B041E600487047300000205D
:1009C00030B5B0F10A0271F100034FEA900E4EEA21
:1009D000817EB0EB0E0061EB91014FEA101E4EEAF2
:1009E000017E10EB0E0041EB11114FEA102E4EEA82
:1009F000016E10EB0E0041EB11214FEA104E4EEA52
:100A0000014E10EB0E0041EB1141401841F1000185
:100A10004FEAD00040EA41704FEAD1014FEA810429
:100A200044EA907410EB800544EB01046D1944EB2B
:100A30000404521BA3414FF0000348BF0A3200D503
:100A400030BD401C41F1000130BD00002DE9F041F6
:100A50001F46044603260168072A01F4006004DBF0
:100A600008B116A505E016A503E008B115A500E03C
:100A700015A521F010002060A069C01EA0610FB173
:100A8000401EA0612046AFF300804FB1D4E90121A0
:100A900038469047206A401C2062C01C206206E055
:100AA000206AFAE7D4E9012115F8010B9047761E78
:100AB000F8D22046AFF30080BDE8F0814E414E00F1
:100AC0006E616E00494E4600696E66002DE9F04782
:100AD000814616468AB0354878440DC88DE80D0029
:100AE00032487844801C03AC0DC884E80D0041F600
:100AF0009B300844372190FBF1F290FBF1F5A5F112
:100B0000800501FB12041B3C02D56442012000E079
:100B10000020DFF898A080460027FA44AAF1BE0A18
:100B20000EE0E0070AD03246684607EB4701012392
:100B30000AEB810105F0D3FE8DE8070064107F1CED
:100B4000002CEED1194F7F44AE3F19E0E80715D0D5
:100B500007EB04100DF1180A90E80E008AE80E0069
:100B6000C068F04201D1981908903246012306A9C5
:100B700003A805F0B4FE03AB83E807006D10641C06
:100B8000002DE3D14FF0010332466946B8F1000F62
:100B900003A802D005F08EFE01E005F0A0FEC9E931
:100BA0000001C9F808200AB0BDE8F087F86A000023
:100BB00000487047100000207546FFF7F9FFAE4669
:100BC00005006946534620F00700854618B020B559
:100BD000FFF77CFBBDE820404FF000064FF0000718
:100BE0004FF000084FF0000BAC46ACE8C009ACE891
:100BF000C009ACE8C009ACE8C00921F007018D4686
:100C0000704710B50446AFF300802046BDE81040A1
:100C1000FFF747BB0000000030B44FF0013C50F834
:100C2000042B51F8043BCCFA52F4D51A20D1FCB96C
:100C300050F8042B51F8043BCCFA52F4D51A17D1D2
:100C4000B4B950F8042B51F8043BCCFA52F4D51A3D
:100C50000ED16CB950F8042B51F8043BCCFA52F485
:100C6000D51A05D1002CDAD030BC4FF00000704707
:100C700029BAB1FA81F111F01801D1F120008440B4
:100C8000F2D1CA40CB4012F0FF0213F0FF0330BC98
:100C9000D01A704701491820ABBEFEE726000200BB
:100CA0007047000030EE010A70EEA10A70470000A4
:100CB0009FED020AF0EE400A704700BF00000000FE
:100CC000FEE700004DF62410C2F2000000F088B8E4
:100CD0004DF6C400C2F2000000F082B87047000078
:100CE00043F61440C4F201000168090405D54DF62D
:100CF0000871C2F2000101220A700068800405D563
:100D000040F27000C2F200000121017080B54FF482
:100D1000005000F061FA4FF40040BDE8804000F060
:100D20005BBA000072B600BFFEE7000070B5866DCA
:100D3000044600F033FB94F83510022928D105460B
:100D40002068216C026822F016020260426922F0DB
:100D50008002426109B9A16C19B1016821F0080152
:100D60000160016821F00101016000BF2068006896
:100D7000C00715D000F012FB401B0628F6D3202038
:100D80006065032084F83500002184F8341070BDBC
:100D9000802060650120002184F8341070BD00BF00
:100DA000E06D3F2101FA00F0B060012084F83500C9
:100DB0000020002184F8341070BD000090F8351038
:100DC000022909D1052180F835100068016821F059
:100DD00001010160002070478021416501207047BA
:100DE000F0B581B00021009140F20801C2F200018B
:100DF0000B68D0E9166148F2B51537680822C1F6CC
:100E00004E358A403A42A3FB05350CD003681C6876
:100E1000640708D51C6824F004041C60B260426DAD
:100E200042F00102426501228A403A4208D003683A
:100E30005B691B0604D5B260426D42F00202426556
:100E400004228A403A4208D003681B689B0704D5F5
:100E5000B260426D42F00402426510228A403A427A
:100E600019D001680B681B0715D5B2600B680A68BA
:100E70005B0309D4D20509D40A6822F008020A608B
:100E8000016C29B907E000BF110341D4016C11B115
:100E9000044688472046C26D202101FA02F33B42F6
:100EA00043D001680F68FF063FD5B36090F83570F6
:100EB0000B68052F1CD123F016030B604B6923F040
:100EC00080034B61036C0BB9836C1BB10B6823F07F
:100ED00008030B603F219140B160012180F835107B
:100EE000016D0022002980F8342054D158E000BF61
:100EF0000A685B0310D4D20512D40A6822F01002EB
:100F00000A60012180F83510002180F8341007E0D4
:100F1000816C0029BCD1BEE7110301D4416C00E013
:100F2000C16B11B1044688472046416DC1B3416D84
:100F3000C9072ED0052180F835100168AA0A0B6870
:100F400023F001030B60009B0133934200931AD8F6
:100F50000B68DB0717D0009B01339342009312D834
:100F60000B68DB070FD0009B0133934200930AD834
:100F70000B68DB0707D0009B01339342009302D834
:100F80000B68DB07DFD1012180F83510002180F8E4
:100F90003410C16C21B101B0BDE8F040084700BF7A
:100FA00001B0F0BD2DE9F041044600F0F7F9ECB1D5
:100FB0000546022084F835000020216884F83400BA
:100FC000086820F00100086021680868C00711D097
:100FD00000F0E4F9401B0528F6D90325202303205F
:100FE000636584F83550BDE8F08100BF0120BDE89D
:100FF000F08100BF086848F23F02CFF21002D4E946
:10100000013500EA020C04F10C0898E8C10143EA3A
:101010000C032B431843D4E9072E304338431043C5
:10102000626A40EA0E00042A40EA08031CD1206BE1
:10103000D4E90A2E40EA0E00184308604869BEF160
:10104000000F20F0030040EA020040F0040C11D031
:10105000B8F5005F36D0B8F1000F45D1022A46D06E
:10106000012A3BD032B942E00B60486920F007000A
:1010700040EA020C01F0F8004AF6AB221038CAF63A
:10108000AA22A0FB02231A0947F20463C1F814C084
:10109000C0F600039A5C40F2FF335F284FF03F0038
:1010A00021EA030100FA02F088BF0431C4E91612F4
:1010B0008860002301250020636584F83550BDE871
:1010C000F08100BF032AD5D8012540230120DFE8A5
:1010D00002F0030E030500BF82E700BFAEF1C0704F
:1010E000B0FA80F0400904E0032A04D3C2D1CEF361
:1010F00000600028BED0012540230120636584F8EC
:101100003550BDE8F081000090F834C0BCF1010F0B
:1011100004BF0220704770B54FF0010C80F834C056
:10112000D0F858E090F835C0BCF1010F38D14FF03D
:10113000020C80F835C04FF0000CC0F854C0D0F855
:1011400000C08468056CC06DDCF80060402C26F49B
:101150008026CCF80060CCF804300B4604BF134660
:101160000A463F2101FA00F0CCF80830CCF80C20F8
:10117000CEF80800DCF8000040F01600CCF80000C3
:101180002DB1DCF8000040F00800CCF80000DCF8DD
:10119000000040F00100CCF80000002070BD00BF4E
:1011A000002180F83410022070BD0000B0B5044664
:1011B00000F0F4F8054640F20000C2F200000078AA
:1011C000611C18BF044400BF00F0E8F8401BA042B7
:1011D000FAD3B0BD7047000043F61441C4F20101D8
:1011E0000A68024214BF08607047FFF7F3BF0000AF
:1011F0002DE9F04F83B000F1200200F13E4741F6A7
:101200000005009207F1FF77C4F2020507224FEABA
:10121000B726A84208BF062200254FF000084FF06D
:101220000009062E38BF4FEAB72201920AE000BF3C
:1012300009F1010908F10208B9F1100F05F10405DF
:1012400000F0A2800F68012202FA09FE17EA0E0AD6
:10125000EED0D1F804C003220CF003077E1E02FA80
:1012600008F4012E6FEA040B12D88468CE6804EAF1
:101270000B0406FA08F634438460446824EA0E0638
:10128000CCF3001404FA09F42643466004E000BFDE
:10129000032F01D103271EE0C6688C6806EA0B06FF
:1012A00004FA08F42643022FC66014D16FF003023B
:1012B000009E02EA590756F807C005F01C040F22E9
:1012C0000B69A2402CEA0202A3401A43F251D1F862
:1012D00004C00CF00307026807FA08F302EA0B02E5
:1012E0001A431CF4403F0260A2D0002243F644039C
:1012F0000292C4F202031A6843F6004442F48042A8
:101300001A601A68C4F2010402F480420292029A3E
:1013100029F003024FF6084C2244CFF6FF7C52F826
:101320000C3005F00C070F26BE40B343019E06FAB1
:1013300007F73B4342F80C30A2684B6842EA0A07C1
:1013400043F60C4CDE0258BF22EA0A07A760C4F23B
:10135000010CDCF800209E0242EA0A0758BF22EA8C
:101360000A07CCF8007062689E0342EA0A0758BF79
:1013700022EA0A0767602268DB0342EA0A0758BFCD
:1013800022EA0A07276053E703B0BDE8F08F0000A8
:10139000002A08BF09048161704700004BF60C70F9
:1013A000C2F201000068704740F200004BF60C7179
:1013B000C2F20000C2F2010100780A68104408601D
:1013C0007047000080B543F60040C4F20200016897
:1013D00041F400710160016841F4806101600168BD
:1013E00041F480710160032000F086F8002000F0D5
:1013F00005F800F027F8002080BD000070B540F22D
:101400000006C2F2000640F208013278C2F2000182
:101410004FF47A730968B3FBF2F20446B1FBF2F1C0
:10142000084601F0C5F90F2C4FF0010508D838B96E
:101430004FF0FF3021460022002500F031F87460A3
:10144000284670BD82B0002043F640010190C4F2EE
:1014500002014A6842F480424A604A6802F48042CB
:101460000192019A0090086840F080500860086876
:1014700000F080500090009802B07047002848BFEC
:10148000704700F01F01012202FA01F11C2202EA5A
:10149000D0004EF20012CEF20002815070470000E0
:1014A00010B54EF60C5CCEF2000CDCF80030C3F345
:1014B000022E8EF00704042C28BF0424BEF103037F
:1014C0004FF0FF3E0EFA04F438BF0023A1439940C9
:1014D0000EFA03F39A43114300F00F0200F1604348
:1014E0000901043A03F564436244002848BF02F14D
:1014F0000C03197010BD00004EF60C51CEF2000125
:101500000A684FF6FF031A4060F30A2242F0806037
:1015100040F0FD700860704701220168C0F8D824CF
:10152000002280F8CC24886940F000608861486D12
:1015300040F0805040F0030200204A6570470000F0
:10154000002804BF01207047F0B581B0044605684B
:1015500090F8950428B9002084F89404204600F0FF
:101560002DF90320B5F1A04F84F8950404BF0020A5
:10157000A071206803F0EEF994E80F00267C009635
:1015800002F074FE002840F000812068002103F082
:10159000E9F9002840F0F98094F804E0BEF1000F6A
:1015A00000F0EC800EF0030CBEF1040F4FF00002CF
:1015B00040D30EF0FC03A4F190000321012500BFED
:1015C000CE1E80F8A460A0F8BE608E1E80F8C860B1
:1015D000A0F8E2604E1E80F8EC60A0F8066180F88A
:1015E0001011A0F82A110E1D013180F8A55080F8C5
:1015F000A820C0E92B22C0F8B42080F8C95080F898
:10160000CC20C0E93422C0F8D82080F8ED5080F812
:10161000F020C0E93D22C0F8FC2080F8115180F88C
:101620001421C0E94622C0F8202190309942314669
:10163000C6D1F21EBCF1000F31D004F1140002EB50
:10164000C20100EB8105012300F821200021BCF13B
:10165000010F6B706A832971C5E9021129611ED0DF
:10166000551C05EBC50600EB8607BCF1020F7B702D
:1016700000F826507D833971C7E9021139610ED017
:10168000911C01EBC10200EB8203012500F822103E
:1016900000205D7059831871C3E902001861BEF122
:1016A000000F6BD0BEF1040F4FF0000236D30EF0E6
:1016B000FC000321234600BFCF1E83F854728F1E07
:1016C00083F878724F1E83F8C0120D1D013183F824
:1016D000552283F85822C3E99722C3F8642283F87D
:1016E000792283F87C22C3E9A022C3F8882283F8F8
:1016F0009D2283F89C7283F8A022C3E9A922C3F833
:10170000AC2283F8C12283F8C422C3E9B222C3F811
:10171000D022903381422946CED1EA1EBCF1000F7F
:101720002CD004F5157002EBC20300EB83070021F7
:10173000BCF1010F797000F823203971C7E902115B
:1017400039611BD0531C03EBC30700EB8706BCF1C8
:10175000020F717000F827303171C6E90211316152
:101760000CD0911C01EBC10200EB820300275F70DB
:1017700000F822101F71C3E902771F6194E80F007F
:10178000277C009702F08CFE30B1022084F895048B
:10179000012001B0F0BD00BF00206074012084F87A
:1017A0009504207B012802D12046FFF7B5FE206872
:1017B00002F066FE002001B0F0BD0000F0B59DB063
:1017C000044600201C90CDE91A00CDE9180001A8BC
:1017D00004305821FEF75FFE2068B0F1A04F01D021
:1017E0001DB0F0BD4FF48070019001A800F03EF8EC
:1017F000002818BFFFF796FA002743F63006009737
:10180000C4F202063068002440F001003060306805
:10181000C4F2020400F00100009000984FF4E85078
:1018200018900220CDE9190703201B900A2018AD5B
:101830001C9020462946FFF7DBFC4FF40070CDE9F1
:101840001807204629461A97FFF7D2FC706840F027
:10185000800070600097706940F48040706170692A
:1018600000F48040009000981DB0F0BD2DE9F043D9
:1018700081B00446006843F68C06C107C4F2020634
:1018800004D14FF0000981070CD415E03168A26B38
:1018900021F0C06111433160B2FA82F14FEA51196F
:1018A000810709D53168E26B21F0C05111433160E5
:1018B000002A08BF4FF00109410705D44FF0000886
:1018C000010712D420E000BF3168226B21F44011DF
:1018D00011433160B2FA82F14FEA5118B2F5801F1C
:1018E00008BF4FF0010901070ED53168626B21F482
:1018F00040011143B2F5800F316008BF4FF001097C
:10190000002A08BF4FF0010881065AD50020009038
:1019100056F84C0C47F2000740F0805046F84C0C4B
:1019200056F84C0CC4F2000700F08050009000986C
:10193000386840F480703860FFF730FD054600BF1E
:101940003868C00506D4FFF729FD401B0228F7D9E7
:1019500090E100BF56F81C0C10F4407017D0216CB9
:1019600001F44071884212D056F81C0C40F64061D8
:10197000C4F24721012220F440700A6000220A606C
:1019800046F81C0C56F81C0CC00740F07B81206800
:10199000216C56F8842C4FF6FF4701F4407322F473
:1019A000F812C0F6FF770F40B3F5407F08BF3A4307
:1019B00046F8842C56F81C2C6FF31F31114346F85F
:1019C0001C1CC10610D4010619D441061FD4C10540
:1019D00025D4810530D4410536D4B9F1010F18BFA3
:1019E000B0F5006F3CD062E094F8580040F64061DA
:1019F000C4F24721C1F8A00320680106E5D5B1680B
:101A0000E26C21F440011143B1604106DFD5B168B9
:101A1000A26C21F080611143B160C105D9D5B168D4
:101A2000626D21F000611143B160B2F1006F08BF37
:101A30004FF001088105CED5B168626C21F080516C
:101A40001143B1604105C8D5B268216D22F0005242
:101A50000A43B0F5006FB26018BFB1F1005F23D147
:101A600040F26809C4F247290020C9F80000FFF7D6
:101A700095FC054656F88C0C000105D5FFF78EFC49
:101A8000401B0228F6D9F5E02068C10702D0A16BFF
:101A900000296FD0810702D5E16B00296AD0410788
:101AA00000F17D807FE000BFB9F1010FD8D0B8F11F
:101AB000000F4FF0000000F0DE806827C4F24727D7
:101AC000B860FFF76BFC054656F88C0C800005D516
:101AD000FFF764FC401B0228F6D9CBE020684107E1
:101AE00001D5216B19B101071AD5616BC1B956F83F
:101AF000041CD4E9062301F44031656A114341EA2C
:101B0000831141EA0561D4F82CC046F8041C316801
:101B10006FF0FF0221F4F85102EB0C221143316007
:101B2000C00516D5606DB0F1006F12D156F8040CE7
:101B3000226AD4E9061300F07060D2034FF6FF75F5
:101B4000AA430843A2F5803240EA8310104346F8C6
:101B5000040C0120B860FFF721FC044656F88C0CF9
:101B6000800000F18B80FFF719FC001B0328F5D3E0
:101B700080E000BF56F8081C56F8082CD4E901355F
:101B800001F4403102F0706219436769114341EA80
:101B9000851141EA077146F8081C410703D5216BFE
:101BA000B1F5801F05D001071FD5616BB1F5800F1E
:101BB0001BD156F8081C56F8082CD4E9013701F45B
:101BC000403102F0E04219432569114341EA87118F
:101BD00041EA0561D4F828C046F8081C3168ACF128
:101BE000010221F01F011143316041051FD5216D14
:101BF000B1F1005F1BD1271D56F808CC56F8082C10
:101C0000A8CFFF034FF6FF7127EA01014FF0C0672D
:101C100002F0E04207EA4C2707F100771A433A4303
:101C2000A1F5803142EA8512114346F8081C0005EF
:101C300010D5271D8FCF40EA8110D1034FF6FF72D8
:101C40009143A1F5803140EA0360084340EA077000
:101C500046F8080C0120C9F80000FFF79FFB054675
:101C600056F88C0C00013FF522AFFFF797FB401BA5
:101C70000228F5D9032001B0BDE8F083002001B0AF
:101C8000BDE8F083FFF78AFB054641F2883700BFC5
:101C900056F81C0C80073FF57AAEFFF77FFB401B20
:101CA000B8424FF00300F3D9E5E70000002804BF75
:101CB000012070472DE9F04143F60808C4F20208FC
:101CC0000446D8F8F8030D4600F00F00884207D20A
:101CD00088F8F853D8F8F80300F00F00A84277D13D
:101CE0002068810717D5410705D5D8F8001041F4C1
:101CF000E051C8F80010010705D5D8F8001041F4EC
:101D00006041C8F80010D8F80010A26821F0F00176
:101D10001143C8F80010C00740D1D8F8F80300F00C
:101D20000F00A84207D988F8F853D8F8F80300F054
:101D30000F00A8424CD12068410707D5D8F8001001
:101D4000E26821F4E0511143C8F80010000708D5FB
:101D5000D8F80000216920F4604040EAC100C8F8CA
:101D6000000000F07DF8D8F8001047F2EC52C1F303
:101D70000311C0F60002515C40F2080220FA01F1A2
:101D800040F20400C2F200000068C2F200021160DA
:101D9000FFF734FB0020BDE8F08100BF6068811EC2
:101DA000022907D258F8081C89015CBF0120BDE850
:101DB000F08111E0012807D158F8081C89035CBFA5
:101DC0000120BDE8F08107E058F8081C890703D41A
:101DD0000120BDE8F08100BFD8F8001021F0030118
:101DE0000843C8F80000FFF7D9FA064641F28837E1
:101DF000D8F80000616800F00C00B0EB810F8CD0C7
:101E0000FFF7CCFA801BB842F2D90320BDE8F0817D
:101E100040F2080043F60801C2F20000C4F20201D9
:101E20000068096847F2FC52C1F38221C0F6000243
:101E3000515CC8407047000040F2080043F60801BA
:101E4000C2F20000C4F202010068096847F2FC52C5
:101E5000C1F34231C0F60002515CC8407047000037
:101E600010B543F60404C4F202046068C0F38101B3
:101E700042F20040C0F2F400DFE801F0420208182C
:101E800041F20020C0F27A0010BD00BF216801F0CD
:101E90003F02216823684902C3F3881116D4A1FBCD
:101EA00000010023FEF724FA17E000BF216801F0CB
:101EB0003F02216823684902C3F3881114D4A1FBAF
:101EC00000010023FEF714FA15E000BF41F20020E4
:101ED000C0F27A004843B0FBF2F021680222C1F35D
:101EE000014102EB410109E041F20020C0F27A0019
:101EF0004843B0FBF2F02168C1F30271B0FBF1F08E
:101F000010BD0000002804BF012070472DE9F041FA
:101F100082B00446007843F60006C007C4F2020609
:101F20000CD0B06800F00C00042840F089803068C4
:101F3000800303D56068002800F050812078800776
:101F400023D5B06810F00C0F11D0B06800F00C0071
:101F5000082802D17068400209D5B06800F00C0072
:101F60000C2840F09F807068400200F19B80306830
:101F7000800703D5E068012840F03081306821698E
:101F800020F0F80040EAC10030602078000713D448
:101F9000207840072AD4A569002D00F01A81B06886
:101FA00000F00C00082840F0AB80012D40F0E880E4
:101FB000012002B0BDE8F0816069002840F2000015
:101FC000C4F2472000F088800121C0F8801EFFF78E
:101FD000E5F90546706F8007DAD4FFF7DFF9401B9B
:101FE0000228F7D9032002B0BDE8F081306C5FEA27
:101FF000C0080AD400200190306C40F0805030645A
:10200000306C00F080500190019847F20007C4F254
:1020100000073868C00537D4386840F480703860ED
:10202000FFF7BCF9054600BF3868C0052CD4FFF7A0
:10203000B5F9401B0228F7D9032002B0BDE8F081B2
:10204000B06800F00C00082803D1706840023FF52A
:102050006EAFB06800F00C000C2803D1706840022D
:102060003FF565AF61683068B1F5803F07D0B1F5E5
:10207000A02F40F0CB8040F480203060306840F4E6
:1020800080303060CBE000BFA168306F012905D0FF
:10209000052957D140F004003067306F40F001004F
:1020A000306759E0E068002800F09C800020C4F20E
:1020B000472001210160FFF771F90546306880076C
:1020C0003FF55CAFFFF76AF9401B02284FF00300B1
:1020D000F4D902B0BDE8F0810021C0F8801EFFF7FE
:1020E0005DF90546706F80077FF552AFFFF756F92F
:1020F000401B0228F6D9032002B0BDE8F08100BFE2
:102100000027C4F2472700203866FFF747F9022D61
:1021100005460BD13068800140F19280FFF73EF90F
:10212000401B02284FF00300F4D9D2E73068800149
:102130004FD5FFF733F9401B02284FF00300F5D9C4
:10214000C7E700BF20F001003067306F002920F0A2
:102150000400306700F09880FFF720F9054641F24F
:10216000883700BF306F800700F1A080FFF716F9B5
:10217000401BB842F6D9032002B0BDE8F08100BF91
:102180007068E16900F480028A4227D1216A00F078
:102190003F028A4222D147F6C071626A0140B1EB28
:1021A000821F1BD1A16A4FF6FF73C903994300F444
:1021B0004032A1F580318A4210D1E16A00F07062AC
:1021C000B2EB016F0AD1216B00F0E040B0EB017F70
:1021D00004D1002002B0BDE8F08100BF012002B0B0
:1021E000BDE8F0810020C4F2472000210160FFF724
:1021F000D5F80546306880077FF5C7AEFFF7CEF803
:10220000401B02284FF00300F4D962E720F480302D
:1022100030603068002920F48020306050D0FFF713
:10222000BDF80546306880033FF588AEFFF7B6F885
:10223000401B6428F6D9032002B0BDE8F08100BF3E
:1022400004F11C052FCD246B084340EA8210D9030A
:102250004FF6FF729143A1F5803140EA05600843D3
:1022600040EA0470706001203866FFF797F8044672
:1022700030688001ADD4FFF791F8001B02284FF0C1
:102280000300F5D925E700BFFFF788F8054641F2BE
:10229000883700BF306F800708D5FFF77FF8401BF5
:1022A000B8424FF00300F5D913E700BFB8F1000FB3
:1022B0003FF571AE306C20F0805030646BE600BFAB
:1022C000FFF76CF8054600BF306880037FF536AE37
:1022D000FFF764F8401B64284FF00300F4D9F8E6D8
:1022E0007047000090F851007047000070B528B1A9
:1022F000416A29B100210161142106E0012070BD6D
:102300004168B1F5827F02D01C2100224250002694
:10231000866290F8511029B980F85060054600F0A7
:102320003DF82846022180F8511090E82E0002F472
:1023300082720C6803F4044324F040040C601A44D5
:1023400005F4006305691A4405F0020345691A445F
:1023500005F001038569C4691A4405F400731A4441
:1023600004F03803046A1A4404F08003846A1A43B0
:1023700004F400531A430A60436A042202EA154235
:1023800003F010031A444A60CA6922F40062CA6169
:102390000121466580F85110304670BD70B586B099
:1023A000044643F200002168C4F201000026814285
:1023B0000596CDE903660296019601D006B070BD80
:1023C00043F630010096C4F202014A6900F550401C
:1023D00042F480524A614A6902F480520092009AA3
:1023E00000960A6842F001020A60096801F00101E2
:1023F00000910099E02101910221CDE9021603210B
:1024000004910521059101A9FEF7F2FE4DF6C405E0
:1024100046F25840C2F20005C4F202004FF0C0611B
:1024200040224FF4806385E847002846C5E904361A
:10243000C5E90666C5E90866FEF7B4FD002818BFC1
:10244000FEF770FCA564AC6306B070BD2DE9F041E9
:1024500084B01D4616460F460446FEF79FFF94F8CB
:10246000511001290ED18046002F4FF0010018BFF6
:10247000002E03D104B0BDE8F08100BF94F85000F5
:10248000012803D1022004B0BDE8F081012084F8C6
:1024900050000320002184F8510061652763A6865F
:1024A000E686A163A187E187A0682164B0F5004FAB
:1024B0002068616407D1016821F040010160016872
:1024C00041F4804101600168490603D4016841F08C
:1024D000400101606168731EE268B1FA81F1B3FAEC
:1024E00083F349095B09B2F5006F41EA030139D171
:1024F00031B137F8021BC1602763E08E0138E086F6
:10250000E08E002870D0681C0BD11AE0216B31F8E6
:10251000022BC2602163E08E0138E086E08E002845
:1025200062D0206881688907F0D4FEF737FFA0EBFE
:102530000800A842F2D338E0FEF730FFE08E002812
:1025400052D0206881688907F6D5216B31F8022BBB
:10255000C2602163E08E0138E086E08E0028F0D171
:1025600042E000BF39B139780173206B013020633C
:10257000E08E0138E086E08EB0B3681C0BD123E01A
:10258000216B09780173206B01302063E08E0138E4
:10259000E086E08E40B3206881688907F0D4FEF7BA
:1025A000FDFEA0EB0800A842F3D3012084F85100FF
:1025B000002084F85000032004B0BDE8F08100BF83
:1025C000FEF7ECFEE08E78B1206881688907F7D5C8
:1025D000216B09780173206B01302063E08E013894
:1025E000E086E08E0028EFD12046022101222B4612
:1025F000CDF8008000F068FEE0B1606D40F0200092
:10260000606520206065A06838B9002002902068CD
:10261000C1680291806802900298012084F85100FC
:10262000002084F85000606D002818BF012004B01D
:10263000BDE8F08140F20800C2F20000006849F6EF
:102640008171C1F25E61A0FB0101480D4FF47A7106
:10265000484303906068B0F5827F0BD1204680210B
:1026600000222B46CDF8008000F02EFE0028C4D1B9
:10267000C9E700BF03980028C5D00398013803902C
:10268000206880680006BED503980028BBD0039858
:1026900001380390206880680006B4D503980028AC
:1026A000B1D0039801380390206880680006AAD54D
:1026B00003980028A7D00398013803902068806809
:1026C0000006D7D49FE7000090F85130012B0BD1C2
:1026D00000294FF0010318BF002A01D118467047A6
:1026E00090F85030012B03D102231846704700BFE9
:1026F00010B5012380F85030032380F851300023B7
:10270000436501638286C2868363C0E91033838791
:10271000C38784680268B4F5004F07D1146824F0B9
:1027200040041460146844F480441460D0F848C035
:1027300043F2AD1E43F2B514C0F6000EC0F600041D
:10274000CCE90F4E43F28D14C0F60004CCE91343DC
:10275000C38E04460C326046FEF7D6FC60B1606D55
:10276000012340F010006065002084F85000BDE8AF
:1027700010401846704700BF20680168490603D41E
:10278000016841F040010160002384F85030416845
:1027900041F020014160416841F002014160BDE823
:1027A0001040184670470000704700007047000056
:1027B000411E0020B0EB116F1CBF012070474EF28C
:1027C0001002CEF2000251604EF62351CEF200010B
:1027D000F0230B70072190601160704790F83C2047
:1027E000012A4FF0020254D010B580F83D20026853
:1027F000D2F804E0D2F808C00C682EF0700323432E
:1028000041F2FF74C4F20004A24253600EDC40F2B5
:10281000FF73C4F200039A4216DCB2F1804F2BD052
:1028200040F20043C4F2000324E000BF40F2FF3353
:10283000C4F201039A4213DC41F60003C4F2000320
:102840009A4219D0002313E040F60003C4F20003BB
:102850009A4211D040F60043C4F200030AE000BFE0
:1028600044F20003C4F201039A4205D040F200434F
:10287000C4F201039A4204D149682CF08003194341
:1028800091600121002280F83D1080F83C20BDE8D5
:102890001040104670470000002804BF0120704718
:1028A00010B5044690F83D0028B9002084F83C009B
:1028B000204600F01FF8022084F83D002068211D0A
:1028C00001F032FB012084F8460084F83E0084F8D1
:1028D0003F0084F8400084F8410084F8420084F806
:1028E000430084F8440084F8450084F83D0000204B
:1028F00010BD0000006841F20001C4F200018842EE
:1029000018BF704781B00020009043F64000C4F229
:102910000200016841F010010160006800F0100041
:102920000090009801B070477047000070470000A9
:10293000B0B582B001680A68CC684B6902F02F0517
:10294000202D04F0200505D125B102B0BDE8B0402E
:1029500001F092BB5FEA027C1EBF03F0010E04F49B
:10296000907313EB0E0341D1036BD50618D5012BE1
:1029700016D114F0100313D0002201920A680192BC
:102980004A680192019A496949064BD4818DC28DEA
:10299000C38D002B18BF914240F0F48102B0B0BD4E
:1029A00013062DD514F080032AD090F84120212A57
:1029B000F4D18268B2F5805F03D10269002A00F089
:1029C0006782026A531C036212784A60C28C013A21
:1029D0001304C284E2D1C86820F08000C860C868CF
:1029E00040F04000C86002B0B0BD00BFD30718BFC0
:1029F00014F4807340F0D080530700F1D380D8E006
:102A00005206CBD514F04002C8D0CA6822F040026A
:102A1000CA60202180F8411002B0BDE8B04000F04B
:102A2000A1BB00BFC16B0A68526893B2002BB5D03E
:102A3000858DAB42B2D2C285C969B1F5807F00F005
:102A4000A080016851E8031F026821F4807142E808
:102A50000313DBB1016851E8031F026821F48071A0
:102A600042E8031393B1016851E8031F026821F49F
:102A7000807142E803134BB1016851E8031F0268FB
:102A800021F4807142E80313002BDAD1016851E888
:102A9000051F026821F0010142E80513BBB301687C
:102AA00051E8051F026821F0010142E8051373B3E4
:102AB000016851E8051F026821F0010142E8051391
:102AC0002BB3016851E8051F026821F0010142E8BB
:102AD0000513002BDAD11AE0016851E8051F0268DE
:102AE00021F0400142E80513DBB1016851E8051F00
:102AF000026821F0400142E8051393B1016851E8F2
:102B0000051F026821F0400142E805134BB101683E
:102B100051E8051F026821F0400142E80513002B2F
:102B2000DAD1202180F8421000210163016851E8C8
:102B3000031F026821F0100142E80313DBB10168B2
:102B400051E8031F026821F0100142E8031393B11A
:102B5000016851E8031F026821F0100142E80313E5
:102B60004BB1016851E8031F026821F0100142E8EF
:102B70000313002BDAD1C16B04460846FEF7D6F8E2
:102B8000204602214163818DC28D891A89B202B02B
:102B9000BDE8B040FFF7C8BE436C43F00103436497
:102BA000530706D5BEF1000F03D0436C43F0020378
:102BB0004364930706D5BEF1000F03D0436C43F086
:102BC00004034364BCF1000F06D55EEA050303D09D
:102BD000436C43F008034364436C002B3FF4DEAEC8
:102BE000920605D525B1044601F046FA2168204633
:102BF0004969426C01F0400102F00802891800F0B6
:102C0000B98000BF016851E8031F026821F4907188
:102C100042E80313BBB3016851E8031F026821F4C3
:102C2000907142E8031373B3016851E8031F02680F
:102C300021F4907142E803132BB3016851E8031F9C
:102C4000026821F4907142E80313002BDAD11AE0F4
:102C5000016851E8051F026821F0010142E80513EF
:102C6000DBB1016851E8051F026821F0010142E86B
:102C7000051393B1016851E8051F026821F00101B5
:102C800042E805134BB1016851E8051F026821F0C5
:102C9000010142E80513002BDAD1016B012924D18F
:102CA000016851E8031F026821F0100142E8031394
:102CB000DBB1016851E8031F026821F0100142E80E
:102CC000031393B1016851E8031F026821F010015A
:102CD00042E803134BB1016851E8031F026821F079
:102CE000100142E80313002BDAD1202180F84210B2
:102CF0000021016301684969490640F1C380016808
:102D000051E8051F026821F0400142E80513DBB1DC
:102D1000016851E8051F026821F0400142E80513EF
:102D200093B1016851E8051F026821F0400142E8B3
:102D300005134BB1016851E8051F026821F04001FD
:102D400042E80513002BDAD1C16B002900F09A800C
:102D500044F26D02C0F60002044608460A65FEF71A
:102D60002DF800283FF41AAEE06B016D02B0BDE80B
:102D7000B04008470446FFF7D9FD0020606402B068
:102D8000B0BD00BF891A00BF026852E8032F036874
:102D900022F4907243E80325BDB3026852E8032F82
:102DA000036822F4907243E8032575B3026852E881
:102DB000032F036822F4907243E803252DB30268C1
:102DC00052E8032F036822F4907243E80325002D94
:102DD000DAD11AE0026852E8052F036822F00102F6
:102DE00043E80525DDB1026852E8052F036822F0AB
:102DF000010243E8052595B1026852E8052F0368F2
:102E000022F0010243E805254DB1026852E8052F82
:102E1000036822F0010243E80525002DDAD12022C3
:102E200080F8422000220263026852E8032F036800
:102E300022F0100243E80325DDB1026852E8032FB7
:102E4000036822F0100243E8032595B1026852E8B6
:102E5000032F036822F0100243E803254DB10268F6
:102E600052E8032F036822F0100243E80325002DE7
:102E7000DAD1022289B2426302B0BDE8B040FFF766
:102E800053BD00BF02B0BDE8B040FFF74FBD00BF6B
:102E9000026A32F8023B6FF35F234B60026295E5F2
:102EA000002804BF0120704710B5044690F8410087
:102EB00028B9002084F84000204600F021F82420A2
:102EC00084F841002068C16821F40051C1602046A7
:102ED00001F052F92068016921F4904101614169D2
:102EE00021F02A014161C16841F40051C160002014
:102EF0002021606484F8411084F84210606310BDA2
:102F0000F0B587B0044644F600002168C4F2000022
:102F1000002681420696CDE904660396029601D00A
:102F200007B0F0BD43F630010196C4F202010A6910
:102F3000032742F480220A610A6900F5E23002F4B4
:102F400080220192019A01960A6842F008020A6002
:102F5000096801F00801019101994FF44071029153
:102F60000221CDE903160721069102A90597FEF774
:102F70003FF94DF6241546F25800C2F20005C4F29E
:102F800002004FF00061402285E8470004204FF422
:102F90008063C5E908602846C5E90436C5E90666C8
:102FA000C5E90A762E63FDF7FDFF002818BFFDF77F
:102FB000B9FE272000210022A563AC63FEF770FA5A
:102FC0002720FEF75BFA07B0F0BD00007047000055
:102FD0002DE9F04381B0044690F84100202809D142
:102FE00000294FF0010018BF002A07D101B0BDE849
:102FF000F08300BF022001B0BDE8F08300206064D0
:1030000021201D460E4684F841001746FEF7C6F9FA
:10301000A784E784A1688146B1F5805F02D1206969
:1030200000285DD037460020E28C2168002A5DD060
:103030006A1C24D0002D4AD0804600BF08680006D4
:1030400008D4FEF7ABF9A0EB0900A8427AD82168B2
:10305000C868F3E717B117F8010B04E038F8020B62
:1030600000276FF35F204860E08C0138E084E08C3B
:103070000028E3D13AE000BF0A68120609D40A68C2
:10308000120606D40A6812065CBF0A685FEA02628A
:10309000F2D51FB117F8012B05E000BF30F8022B65
:1030A00000276FF35F224A60E28C013AE284E28CEF
:1030B000002AE4D11AE000BF30F8022B00276FF39A
:1030C0005F224A60E28C013AE284E28C72B10A68C3
:1030D000120635D5002FEFD017F8012BF1E700BF0E
:1030E00000273046E28C2168002AA1D108684006FA
:1030F0001ED42DB3681C14D1086840062AD4086871
:10310000400627D40868400624D4086840064FF0DB
:103110000000F1D50DE000BF2068C16800684006DE
:1031200018D4FEF73BF9A0EB0900A842F4D909E056
:103130000020202184F8411001B0BDE8F08300BFD9
:10314000FEF72CF90320202184F8411001B0BDE8DE
:10315000F08300BF0020202184F8411001B0BDE8B9
:10316000F083000070470000FEE7000020EEA01A88
:1031700020EE000A30EE010AB1EEC00A70470000EE
:10318000FEE70000FEE7000070470000806B01686A
:103190004A6822F003024A60416D41F01001416526
:1031A000012180F85110FFF79BB80000806BFFF7FA
:1031B000FDBA0000B0B584B0846B0546FEF7EEF8AA
:1031C00029680968C90531D405462068012241688B
:1031D000642321F020014160416821F00201416037
:1031E00020460221009500F06FF828B3606D40F092
:1031F00020006065606D40F020006065A06838B90F
:10320000002002902068C1680291806802900298B4
:103210000020E086012084F85100606D30B1204626
:1032200004B0BDE8B040FFF75BB800BF204604B073
:10323000BDE8B040FFF7B8BA40F20800C2F20000A3
:10324000006849F68171C1F25E61A0FB0101480D81
:103250004FF47A71484303906068B0F5827F09D1DA
:103260002046802100226423009500F02DF80028DC
:10327000BCD1C3E703980028C0D00398013803905D
:10328000206880680006B9D503980028B6D0039856
:1032900001380390206880680006AFD503980028A5
:1032A000ACD0039801380390206880680006A5D54B
:1032B00003980028A2D00398013803902068806802
:1032C0000006D7D49AE700002DE9F04381B0089CAE
:1032D000984615460E468146FEF760F8201A00EB28
:1032E0000804FEF75BF840F20801C2F20001096829
:1032F000C1F3CB3161430091D9F800108A683240A4
:10330000921BB2FA82F25209AA423DD0074618F146
:10331000010031D0FEF742F8C01BA04238D200981D
:1033200000990028A1F101010091D9F800108968E5
:1033300008BF044601EA0600801BB0FA80F040098D
:10334000A842E7D120E000BF88683040801BB0FA77
:1033500080F04009A84217D088683040801BB0FA3E
:1033600080F04009A8420FD088683040801BB0FA36
:1033700080F04009A84207D088683040801BB0FA2E
:1033800080F04009A842DFD1002001B0BDE8F08301
:10339000D9E900014268B1F5827F22F0E002426083
:1033A0000BD1D9F80810B1F5004F02D0B1F5806FFC
:1033B00003D1016821F040010160D9F82810B1F56E
:1033C000005F07D1016821F400510160016841F4F8
:1033D00000510160012089F85100002089F8500057
:1033E000032001B0BDE8F0837047000020EE010A21
:1033F00060EE810A704700002DE9F04F4FF68031F2
:103400000020CFF6FF714FF0180C4FF0190E4FF05F
:103410001A084FF01B094FF01C0A4FF01D0B1E2617
:103420001F274DF28032002340F2C404C2F2000490
:103430000C440125C4F8AC540225C4F8D05403252B
:10344000C4F8F4540425C4F818550525C4F83C55AF
:103450000625C4F860550725C4F884550825C4F826
:10346000A8550925C4F8CC550A25C4F8F0550B25F4
:10347000C4F814560C25C4F838560D25C4F85C560B
:103480000E25C4F880560F25C4F8A4561025C4F89C
:10349000C8561125C4F8EC561225C4F81057132548
:1034A000C4F834571425C4F858571525C4F87C5768
:1034B0001625C4F8A0571725C4F8C45704F5FC65B1
:1034C00085E8091004F5076501F59061C4F88434B6
:1034D000C4F8A834C4F8CC34C4F8F034C4F81435B3
:1034E000C4F83835C4F85C35C4F88035C4F8A43560
:1034F000C4F8C835C4F8EC35C4F81036C4F834360E
:10350000C4F85836C4F87C36C4F8A036C4F8C436BB
:10351000C4F8E836C4F80C37C4F83037C4F8543768
:10352000C4F87837C4F89C37C4F8C037C4F80838F2
:10353000C4F82C38C4F8503885E80904C4F8983821
:10354000C4F8BC38C4F8E038914203F10103C4F870
:103550008004C4F88804C4F8A404C4F8C804C4F8F7
:10356000EC04C4F81005C4F83405C4F85805C4F8D0
:103570007C05C4F8A005C4F8C405C4F8E805C4F87F
:103580000C06C4F83006C4F85406C4F87806C4F82B
:103590009C06C4F8C006C4F8E406C4F80807C4F8DA
:1035A0002C07C4F85007C4F87407C4F89807C4F887
:1035B000BC07C4F80408C4F80CE8C4F82808C4F828
:1035C0003088C4F84C08C4F85498C4F89408C4F877
:1035D0009CB8C4F8B808C4F8C068C4F8DC08C4F8DB
:1035E000E4787FF421AFBDE8F08F00000000000018
:1035F0002DE9F04F81B02DED0A8B86B09FED7A0B4F
:103600009FED7DAA51EC100B9FED790BCDE90210D7
:1036100051EC100BDDF80CB0CDE90010BDEE008AC6
:10362000B3EE0F9A4FF00009002008E0059809F169
:103630001C09B9F5604F00F1010000F0CD804DF696
:103640000C71C2F2000101EB09080590C0EBC0004B
:1036500098ED00CA01EB8000049098ED01BA1CEED1
:10366000100A03F0F3FE009E0B46B5EE40CA314649
:10367000F1EE10FA029FB8BF3946DDF804A0024609
:103680005046B8BF584603F0C1FA0446B5EE40BAFA
:103690001BEE100A0D46F1EE10FABCBF3E46DA46AC
:1036A00003F0D4FE02460B465046314603F0AEFA14
:1036B00006460F462046294603F0ACFC0446304639
:1036C000394603F0A7FC2F2C4FF0000188BF0121E1
:1036D00000284FF0000248BF01221F284FF00003CE
:1036E000B5EE40CAC8BF0123F1EE10FA0CDA98ED2E
:1036F000020A0027B5EE400AF1EE10FAC8F8007091
:1037000017DA08F1080712E0B4EE4ACAF1EE10FA2F
:103710000FDD98ED020A0027B5EE400AF1EE10FA2F
:10372000C4F23C27C8F8007003DD049F0837002668
:103730003E60B5EE40BAF1EE10FA0DDA98ED030AEC
:103740000027B5EE400AF1EE10FAC8F8047018DA56
:1037500008F10C0713E000BFB4EE49BAF1EE10FA1D
:103760000FDD98ED030A0027B5EE400AF1EE10FADE
:10377000C4F2F817C8F8047003DD049F0C37002664
:103780003E60114319437FF451AF40F2C40204EB91
:10379000C401C2F2000202EBC11100EBC00001EB58
:1037A0008000006801287FF441AF98ED020AD8ED4F
:1037B000030AB0EE481AFFF719FE98ED012AB0EEA1
:1037C000401A98ED000AF0EE601AF0EE420AFDF79A
:1037D00069FA88EC020A29E706B0BDEC0A8B01B051
:1037E000BDE8F08F00BF00BF000000000000E0BF98
:1037F000000000000000E03F00003C42000000002C
:103800002DE9F04F81B02DED0E8B86B04FF6803054
:1038100040F2C405CFF6FF70C2F2000500214DF260
:10382000803200BF2B1800F590609042C3F89014CE
:10383000C3F89C14C3F8A014C3F8B414C3F8C0149C
:10384000C3F8C414C3F8D814C3F8E414C3F8E814D4
:10385000C3F8FC14C3F80815C3F80C15C3F82015F9
:10386000C3F82C15C3F83015C3F84415C3F8501528
:10387000C3F85415C3F86815C3F87415C3F8781560
:10388000C3F88C15C3F89815C3F89C15C3F8B01588
:10389000C3F8BC15C3F8C015C3F8D415C3F8E015B8
:1038A000C3F8E415C3F8F815C3F80416C3F80816EE
:1038B000C3F81C16C3F82816C3F82C16C3F8401614
:1038C000C3F84C16C3F85016C3F86416C3F8701644
:1038D000C3F87416C3F88816C3F89416C3F898167C
:1038E000C3F8AC16C3F8B816C3F8BC16C3F8D016A4
:1038F000C3F8DC16C3F8E016C3F8F416C3F80017D3
:10390000C3F80417C3F81817C3F82417C3F8281707
:10391000C3F83C17C3F84817C3F84C17C3F860172F
:10392000C3F86C17C3F87017C3F88417C3F890175F
:10393000C3F89417C3F8A817C3F8B417C3F8B81797
:10394000C3F8CC17C3F8D817C3F8DC17C3F8F017BF
:10395000C3F8FC17C3F80018C3F81418C3F82018EC
:10396000C3F82418C3F83818C3F84418C3F8481823
:10397000C3F85C18C3F86818C3F86C18C3F880184B
:10398000C3F88C18C3F89018C3F8A418C3F8B0187B
:10399000C3F8B418C3F8C818C3F8D418C3F8D818B3
:1039A000C3F8EC18C3F8F818C3F8FC187FF43AAF62
:1039B000E7A002F0F1FC9FEDE20B9FEDE31B51EC61
:1039C000100BCDE9031058EC11BB00200AE000BF3A
:1039D0001831029A0A60026205980230B0F5006F51
:1039E00000F006814DF60C710590C0EBC000C2F2EC
:1039F000000101EB800191ED008A0020886191EDCA
:103A0000019A18EE100A019103F020FD02460B46C0
:103A1000B5EE408A41465846F1EE10FA039FB8BF12
:103A20003946049CB8BF204603F0F0F8B5EE409A42
:103A300046460290F1EE10FAB8BF3E465F4619EED8
:103A4000100A8946B8BF274603F000FD02460B4620
:103A50003846314603F0DAF8824602980F46494666
:103A600003F0D8FA06465046394603F0D3FA2F2E13
:103A70004FF000014FF0000288BF0121002848BF2D
:103A8000012211431F284FF00002C8BF0122114339
:103A900006EBC60105EBC11100EBC00001EB800194
:103AA000084618BF00201AD151F81C2F51F80C3CC1
:103AB00003F1010341F80C3C72B100BF9369114658
:103AC0004BB19A69194632B1936911461BB19A6993
:103AD0001946002AF2D11831019A0A60026205984B
:103AE0004DF60C7140F00100C0EBC000C2F20001C5
:103AF00001EB800191ED008A0020886191ED019A2F
:103B000018EE100A029103F0A1FC02460B46B5EE36
:103B1000408A41465846F1EE10FA039FB8BF394635
:103B2000049CB8BF204603F071F8B5EE409A4646B3
:103B30000546F1EE10FAB8BF3E465F4619EE100A90
:103B40008946B8BF274603F081FC02460B4638463B
:103B5000314603F05BF882460F462846494603F09B
:103B600059FA06465046394603F054FA2F2E4FF0C4
:103B700000014FF0000288BF0121002848BF012248
:103B800011431F284FF00002C8BF0122114340F229
:103B9000C40506EBC601C2F2000505EBC11100EB3E
:103BA000C00001EB8001084618BF00207FF414AF6D
:103BB00051F81C2F51F80C3C002A03F1010341F885
:103BC0000C3C3FF406AF00BF93691146002B3FF455
:103BD000FFAE9A691946002A3FF4FAAE936911467E
:103BE000002B3FF4F5AE9A691946002AECD1EFE6B6
:103BF0000020BFEE008AB1EE00DAB0EE00EA08E085
:103C0000049840F2C40501303028C2F2000500F0EB
:103C10008D80049000EBC000002405EBC0100590DF
:103C200003E000BF0134202CEAD0059904EBC40066
:103C300001EB800001690229F4DBD0F81CA001E04F
:103C4000D5F800A0BAF1000FECD0554655F8189FF2
:103C5000B9F1000FE6D09AEC020AB0EE481AFFF76D
:103C6000C5FB99ED012AB0EE401A99ED000AF0EE7D
:103C7000601AF0EE420AFDF715F8B0EE409AB0EE89
:103C800060AAFFF773FA20EE001AB4EE4D1AF1EEB7
:103C900010FAD5DCB5EE401AF1EE10FAD0D03EEEB7
:103CA000401A11EE100AB0EE40BA03F0CFFB5A46AC
:103CB000434603F0DFF906461BEE100A0F4603F0F9
:103CC000C5FB02460B463046394603F047F802F082
:103CD0006BFF01EE100AB0EE490AF0EE4A0AFFF758
:103CE00085FBB0EE481AB0EE409AB0EE60AAFFF73E
:103CF0007DFB99ED011AB0EE40BA99ED000AB0EEE5
:103D000060CAF0EE410AB0EE491AF0EE4A1AFCF72A
:103D1000C9FF89EC020A9AEC020AB0EE4B1AF0EEE7
:103D20004C1AFCF7BFFF8AEC020A89E706B0BDEC2B
:103D30000E8B01B0BDE8F04FFFF75ABC00BF00BFCB
:103D4000000000000000E0BF000000000000E03FB5
:103D5000636F756E74696E67207061727469636CED
:103D6000657320696E2063656C6C0A002DE9F04F65
:103D700081B02DED0A8BFFF73FFB4DF60C70C2F2C0
:103D80000000A0F11C0700244FF002084FF07E59FC
:103D900046F22D4A4FF0170BB6EE00AAB2EE08BA63
:103DA00048F68905B3EE05CA07F11C06FCF780FF4B
:103DB000B0EE408AB0EE609AFCF77AFF87ED078A92
:103DC00087ED089A87ED090AC7ED0A0AC7E90B894A
:103DD000FCF76EFF87ED070AC7ED080AFCF768FFDE
:103DE000A0B200FB0AF1A4EB114292B2520802EB1E
:103DF000114168430909C00C01FB1B41A0EB0010F5
:103E0000204489B280B287ED090A00EE101A01EE53
:103E1000100AB8EE400AB8EE411A20EE0A0A21EE66
:103E20000A1A30EE0B0A31EE0C1A0134C7ED0A0AF9
:103E300087ED070A87ED081AB4F5006F3746B3D14E
:103E4000FFF7DEFC40F274000021C2F20000CCF269
:103E5000A0010022C0E90021BDEC0A8B01B0BDE841
:103E6000F08F0000FDF7A0BA70B594B007AC204603
:103E70003421FCF710FB002543F640000695CDE900
:103E80000455CDE902550195C4F2020001680226ED
:103E900041F080510160006800F08050019001986D
:103EA00047F200000195C4F20000016841F440416E
:103EB0000160006800F440400190019801200790E3
:103EC0004FF4A02008904FF480000E9004200F9033
:103ED000A820CDE910060720CDE9120620460D9650
:103EE000FEF710F810B172B6FEE700BF0F20CDE963
:103EF00002064FF4A05005904FF48050069002A89F
:103F000005210495FDF7D2FE10B172B6FEE700BFA1
:103F100014B070BD4EF68850CEF20000016841F436
:103F2000700101607047000010B540F6FF3E036865
:103F3000C4F2000E40F2004C7045C4F2010C25DCC6
:103F4000B0F1804F2FD040F20042C4F20002904204
:103F500029D040F60002C4F20002904223D041F67C
:103F6000FF72C4F20002904227DC70453ADCB0F1E7
:103F7000804F5BD040F20042C4F20002904255D024
:103F800040F60002C4F200024EE000BF40F60042DC
:103F9000C4F20002904206D0604504D00022C4F270
:103FA00001029042DBD14A6823F07003134341F6CB
:103FB000FF72C4F200029042D7DD43F6FF72C4F2F2
:103FC0000102904220DC42F20002C4F20002904260
:103FD0002CD00022C4F20102904227D0604525D0A7
:103FE00028E000BF40F60042C4F2000290421DD01B
:103FF00041F60002C4F20002904217D041F600429E
:10400000C4F2000210E000BF44F20002C4F2010258
:1040100090420BD044F60002C4F20102904205D057
:1040200044F20042C4F20102904203D1CA6823F470
:104030004073134323F080024B69D1F800E08C6891
:104040001A430260C46240F48062C0F828E062450E
:1040500004BF09690163012141610169C90708BF02
:1040600010BD016921F00101016110BD806B0021CB
:10407000C185C184FEF75ABC81B090F84210222954
:1040800021D183680246B3F5805F09D152F8281F19
:1040900052F8183C002B63D003685B680AE000BF4D
:1040A00052F8281F13B90369002BF5D003685B6829
:1040B00003F07F030B70116801311160C18D01396C
:1040C0000A04C18502D001B0704700BF0168CA6808
:1040D00022F02002CA60CA6822F48072CA604A696B
:1040E00022F001024A61202180F842100021416340
:1040F000026B012A3CD10163016851E8031F026889
:1041000021F0100142E80313DBB1016851E8031FFD
:10411000026821F0100142E8031393B1016851E8ED
:10412000031F026821F0100142E803134BB101683C
:1041300051E8031F026821F0100142E80313002B2D
:10414000DAD101680A68D20606D5002200920A6810
:104150000092496800910099818D01B0FEF7E4BB9F
:10416000026852686FF35F2221F8022B8162A5E793
:1041700001B0FEF72BBF0000B0B50446006804F1A3
:1041800008030ECB0569194325F440552A43026103
:104190006269E3691143C268194349F20C639A43A7
:1041A0001143C1604169A26921F4407141F20043A9
:1041B000114340F48062C4F201039A42416103D189
:1041C000FDF73AFE02E000BFFDF722FEE1694FF67F
:1041D0009C7563681922C0F6FF75B1F5004FA0FB0E
:1041E00002011FD15A00DB0FFCF782F848F21F5181
:1041F000C5F2EB11A0FB01235A0905F1805302FB24
:104200000300322303EBC000A0FB01014FF4F87060
:1042100000EA111000EB0210C1F3421108442168BA
:104220008860B0BD9A009B0FFCF762F848F21F51FE
:10423000C5F2EB11A0FB01235A0902FB0500322352
:1042400003EB0010A0FB0101F02000EA511000EB8D
:104250000210C1F34311084421688860B0BD00001A
:1042600040F27C00C2F20000FEF762BB82B002F4B2
:104270007F42B2F5807F40F07F80826B4FF6BF7344
:1042800022F480328263C268CFF6BD731A40C260E6
:10429000029BC268DBB222F44012012BC26003D140
:1042A000C26842F48012C26000220092009A013279
:1042B0000092009AB2F1706F00F2BE800269002A8B
:1042C00021D4009A01320092009AB2F1706F00F28C
:1042D000B3800269002A16D4009A01320092009A33
:1042E000B2F1706F00F2A8800269002A0BD4009A24
:1042F00001320092009AB2F1706F00F29D80026963
:10430000B2F1FF3FD2DC00220092026942F00102CA
:104310000261009A01320092009AB2F1706F00F2CD
:104320008B800269D2071ED0009A01320092009A57
:10433000B2F1706F00F280800269D20713D0009A48
:1043400001320092009AB2F1706F75D80269D207FB
:1043500009D0009A01320092009AB2F1706F6BD8C6
:104360000269D207D5D14FF0000C01F47F01B1F5FD
:10437000803F40F0818077E0C26842F04002C26036
:1043800000220192019A01320192019AB2F1706FFA
:104390005AD80269002A1ED4019A01320192019A68
:1043A000B2F1706F50D80269002A14D4019A013218
:1043B0000192019AB2F1706F46D80269002A0AD4BC
:1043C000019A01320192019AB2F1706F3CD80269F0
:1043D000B2F1FF3FD6DC00220192026942F00102F5
:1043E0000261019A01320192019AB2F1706F2BD8E9
:1043F0000269D2071DD0019A01320192019AB2F1ED
:10440000706F21D80269D20713D0019A013201924C
:10441000019AB2F1706F17D80269D20709D0019AD8
:1044200001320192019AB2F1706F0DD80269D20780
:10443000D7D14FF0000C09E04FF0030C01F47F01DD
:10444000B1F5803F18D10FE04FF0030C826B13F4ED
:104450007F4F14BF22F4803242F48032826301F431
:104460007F01B1F5803F07D1816841F0060181608D
:10447000816841F020018160604602B07047000011
:104480000146D0F8000E20F00300C1F8000ED1F86C
:10449000040840F002020020C1F804287047000020
:1044A0002DE9F04F86B0C3F3074516468E4600212E
:1044B000C0F80411C0F80811C0F80C11C0F81011B0
:1044C000C0F81411C0F81811C0F81C11C0F8201160
:1044D000C0F82411C0F82811C0F82C11C0F8301110
:1044E000C0F83411C0F83811C0F83C1125B100F102
:1044F00038014FF400120FE0D0F80418802241F088
:104500000201C0F80418816B21F400118163016875
:1045100041F04001016001460B681A430A6006F44D
:104520007F420021B2F5807FC0F8001E08D1D0F88C
:104530000028B1EB1E6F09D1C0F800280AE000BFC7
:10454000D0F8001841F0030102E000BF42F0010181
:10455000C0F80018002104910499013104910499D4
:10456000B1F1706F52D8016900291ED4049901314C
:1045700004910499B1F1706F48D80169002914D4ED
:104580000499013104910499B1F1706F3ED8016929
:1045900000290AD40499013104910499B1F1706F92
:1045A00034D80169B1F1FF3FD6DC002104914FF40A
:1045B000846101610499013104910499B1F1706F32
:1045C00024D8016989061DD5049901310491049903
:1045D000B1F1706F1AD80169890613D504990131B8
:1045E00004910499B1F1706F10D80169890609D559
:1045F0000499013104910499B1F1706F06D80169F1
:104600008906D7D44FF0000A02E000BF4FF0010A3C
:10461000002105910599013105910599B1F1706F5E
:104620004ED8016900291ED40599013105910599DB
:10463000B1F1706F44D80169002914D40599013192
:1046400005910599B1F1706F3AD8016900290AD432
:104650000599013105910599B1F1706F30D8016963
:10466000B1F1FF3FD6DC00210591102101610599D0
:10467000013105910599B1F1706F21D80169C90621
:1046800020D50599013105910599B1F1706F17D8C1
:104690000169C90616D50599013105910599B1F150
:1046A000706F0DD80169C9060CD5059901310591C6
:1046B0000599B1F1706F03D80169C906D7D401E03B
:1046C0004FF0010A5FFA8EF94FF00008B9F1000FC0
:1046D000C0F81088C0F81488C0F81C8800F00D815C
:1046E000CDF80CA0CDE9015ED0F800194FF00064C0
:1046F00004EA11114FF67F35B9F1010BC0F800192A
:10470000C0F81089C0F8085974D0A9F10201032932
:104710000BF0030A04D20121BAF1000F40D169E085
:1047200000962BF0030700F5186600234FF0904C1D
:104730004FF67F324FF0000E56F8601C0EF1040E5B
:104740000CEAE17146F8601C46F8503C46F8582CDB
:1047500056F8401C77450CEAE17146F8401C46F8D3
:10476000303C46F8382C56F8201C0CEAE17146F82B
:10477000201C46F8103C46F8182C31680CEAE17110
:1047800031603361B26006F18006D5D1009E0EF132
:1047900001014FF67F354FF00064BAF1000F29D0C8
:1047A00000F510634F01B446DE594FF0904202EA23
:1047B000E67603EB4111DE51664600274FF67F3364
:1047C000BAF1010F0F618B6014D00E6ABAF1020FBB
:1047D00002EAE67266460A620F638B620AD00A6CCE
:1047E0004FF0904303EAE2720A6400220A654FF632
:1047F0007F328A64D0F8001BBBF1000F04EA11116C
:10480000C0F8001B4FF00001C0F8101BC0F8085B97
:10481000DDE9015EDDF80CA06FD0A9F102010329EA
:104820000BF0030C04D20121BCF1000F3BD164E07A
:10483000A94600962BF0030500F5386600234FF0DB
:1048400090474FF67F32002156F8604C043107EA5A
:10485000E47446F8604C46F8503C46F8582C56F83C
:10486000404C8D4207EAE47446F8404C46F8303C30
:1048700046F8382C56F8204C07EAE47446F8204CE9
:1048800046F8103C46F8182C346807EAE4743460A3
:104890003361B26006F18006D6D1009E01314D46EB
:1048A000BCF1000F29D000F530634F013446DE59CA
:1048B0004FF0904202EAE67603EB4111DE512646C4
:1048C00000274FF67F33BCF1010F0F618B6014D0CE
:1048D0000E6ABCF1020F02EAE67226460A620F6314
:1048E0008B620AD00A6C4FF0904303EAE2720A64CA
:1048F00000220A654FF67F328A64D0F810181EF441
:104900007F0F21F48071C0F810186FF08041C0F85B
:104910001880416103D1816941F010018161816991
:1049200043F60002C8F23C02114316F47F0F816186
:1049300003D0816941F008018161012D05D18169B0
:1049400041F0804141F004018161504606B0BDE86C
:10495000F08F00000146806820F0010200208A608C
:1049600070470000B0B50446C068002920F0C04080
:10497000E06000F09980012940F0B080E0680A25ED
:1049800040F00050E0600A20FCF710FC54F8140FCF
:10499000C00740F09C800A20FCF708FC2068C00794
:1049A00040F09E800A20FCF701FC2068C00740F020
:1049B000A5800A20FCF7FAFB2068C00740F0AC8015
:1049C0000A20FCF7F3FB2068C00740F0B3800A2000
:1049D000FCF7ECFB2068C00740F0BA800A20FCF727
:1049E000E5FB2068C00740F0C1800A20FCF7DEFB31
:1049F0002068C00740F0C8800A20FCF7D7FB206879
:104A0000C00740F0CF800A20FCF7D0FB2068C00729
:104A100040F0D6800A20FCF7C9FB2068C00740F0B0
:104A2000DD800A20FCF7C2FB2068C00740F0E4806C
:104A30000A20FCF7BBFB2068C00740F0EB800A208F
:104A4000FCF7B4FB2068C00740F0F2800A20FCF7B6
:104A5000ADFB2068C00740F0F9800A20FCF7A6FBF8
:104A60002068C00740F000810A20FCF79FFB206807
:104A7000C00740F007810A20FCF798FB2068C007B8
:104A800040F00E810A20FCF791FB2068C00740F03F
:104A900016810A20FCF78AFB2068C825A5F1C8000A
:104AA000B0FA80F04009B0BDE0680A2540F08040CF
:104AB000E0600A20FCF77AFB54F8140FC00706D018
:104AC0000A20FCF773FB2068C00711D11425A5F15B
:104AD000C800B0FA80F04009B0BD00BF0120B0BDF1
:104AE0001425A5F1C800B0FA80F04009B0BD00BFA0
:104AF0000A20FCF75BFB2068C00707D11E25A5F143
:104B0000C800B0FA80F04009B0BD00BF0A20FCF731
:104B10004DFB2068C00707D12825A5F1C800B0FAD1
:104B200080F04009B0BD00BF0A20FCF73FFB2068C1
:104B3000C00707D13225A5F1C800B0FA80F04009BE
:104B4000B0BD00BF0A20FCF731FB2068C00707D1C9
:104B50003C25A5F1C800B0FA80F04009B0BD00BF07
:104B60000A20FCF723FB2068C00707D14625A5F1E2
:104B7000C800B0FA80F04009B0BD00BF0A20FCF7C1
:104B800015FB2068C00707D15025A5F1C800B0FA71
:104B900080F04009B0BD00BF0A20FCF707FB206889
:104BA000C00707D15A25A5F1C800B0FA80F0400926
:104BB000B0BD00BF0A20FCF7F9FA2068C00707D192
:104BC0006425A5F1C800B0FA80F04009B0BD00BF6F
:104BD0000A20FCF7EBFA2068C00707D16E25A5F183
:104BE000C800B0FA80F04009B0BD00BF0A20FCF751
:104BF000DDFA2068C00707D17825A5F1C800B0FA12
:104C000080F04009B0BD00BF0A20FCF7CFFA206851
:104C1000C00707D18225A5F1C800B0FA80F040098D
:104C2000B0BD00BF0A20FCF7C1FA2068C00707D159
:104C30008C25A5F1C800B0FA80F04009B0BD00BFD6
:104C40000A20FCF7B3FA2068C00707D19625A5F122
:104C5000C800B0FA80F04009B0BD00BF0A20FCF7E0
:104C6000A5FA2068C00707D1A025A5F1C800B0FAB1
:104C700080F04009B0BD00BF0A20FCF797FA206819
:104C8000C00707D1AA25A5F1C800B0FA80F04009F5
:104C9000B0BD00BF0A20FCF789FA2068C00707D121
:104CA000B425A5F1C800B0FA80F04009B0BD00BF3E
:104CB0000A20FCF77BFA2068C0077FF4EAAEBE2525
:104CC000A5F1C800B0FA80F04009B0BDFEE70000D1
:104CD00030B4ADF5104D86B00DF1280E0EF5C04480
:104CE0000DF1180E40F200460EF54055C4F20206D2
:104CF000FCF768FBFFF7B8F84FF0000943F6300BFC
:104D000044E9049944E90299C4F80090C5F8009078
:104D1000C4F2020BDBF80000A6F5806A40F0040044
:104D2000CBF80000DBF80000102100F00400286040
:104D30002868C5F80090DBF80000002240F08000F1
:104D4000CBF80000DBF8000000F080002860286845
:104D5000C5F80090DBF8000040F00100CBF800003F
:104D6000DBF8000000F0010028602868C5F800901A
:104D7000DBF8000040F00200CBF80000DBF8000098
:104D800000F0020028602868C5F80090DBF80000F9
:104D900040F00800CBF80000DBF8000000F008004D
:104DA00028602868C5F80090DBF8000040F040005B
:104DB000CBF80000DBF8000000F040002860286815
:104DC00050463546FCF7E4FA304644F2B901002279
:104DD000FCF7DEFA06F5006630464FF4804100220B
:104DE000FCF7D6FA05F5A050442100220590FCF707
:104DF000CFFA05F580673846802101220497012506
:104E0000FCF7C6FA0DF1180E4FF400504FF488115C
:104E1000A4F110020EF5C04882E80302384641466C
:104E2000FCF7E6F902210322102044E9040544E9D5
:104E30000212504641460327FCF7DAF944F281009A
:104E4000A4F1100181E8210240F20040C4F2020006
:104E5000414644F8049CFCF7CBF94FF4804044E908
:104E600004053046414644E90257FCF7C1F94FF4C6
:104E7000004044F8100C4FF4881044F80C0C022049
:104E800044F8080C304641460396FCF7B1F9059EFC
:104E90004420A4F1100181E821023046414644F843
:104EA000049CFCF7A5F980273046414644E9047983
:104EB00044F8089CFCF79CF904980226414644E912
:104EC000047544E90265FCF793F90820A4F1100188
:104ED00061C140F20046C4F2020603273046414653
:104EE00044F8047CFCF784F9102044E904053046BA
:104EF000414644E90257FCF77BF9202044E90405C8
:104F0000022044E90205304641463546FCF770F977
:104F1000282000210022FCF7C3FA2820FCF7AEFA73
:104F200044F8109CDBF80000002140F40010CBF89E
:104F30000000DBF80000002200F4001044F8100C20
:104F400054F8100C44F8109CDBF8000040F480008A
:104F5000CBF80000DBF8000000F4800044F8100CEF
:104F600054F8100C0E20FCF79BFA0E20FCF786FA82
:104F70003B2000210022FCF793FA3B20FCF77EFA4D
:104F80004DF66860A6F55441C2F200004FF48272FB
:104F90004FF4007380E806020A21C0E90399C0E9D2
:104FA0000593C0F81C90C0E90899C0E90A91FDF783
:104FB0009DF918B172B600BFFEE700BF4DF6C060A4
:104FC000039EA5F5FA31C2F200004FF6FF7244E9E4
:104FD0000499C0E90019C0E90292C0F81890FDF7E1
:104FE0005BFC18B172B600BFFEE700BF0DF1180EF2
:104FF0004DF6C0600EF5C049C2F200004946FDF70B
:10500000EDFB18B172B600BFFEE700BF40F27008BA
:10501000C2F20008A5F5DE31404640F80C1F4FF4FF
:10502000E13100220C23C0E90112C0E90322C0E9EA
:105030000532C261FDF734FF10B172B6FEE700BF62
:105040004DF68410C2F200004FF0A041016006212D
:1050500001714FF40071C1804FF48171C0F80910E3
:105060000121C181FCF76CFA10B172B6FEE700BFF6
:1050700008F10C0085A1122264230590FDF7A8FF1A
:10508000FEF774FE30464FF480410122FCF780F9B0
:10509000284610210122AB46FCF77AF90A20FCF7DA
:1050A00085F80A20FCF782F800F0DAFB0A20FCF70A
:1050B0007DF8002000215F223F23002500F030FB17
:1050C0000A200A214FF478424FF4784600F02AFA79
:1050D0000020002132223223009600F019F940F21C
:1050E000C400C2F2000005604DF60C70C2F2000070
:1050F000056106A84FF4C041FBF7CDF906AB4FF0B0
:10510000F8201F214FF01F1203F5405709EB05044B
:1051100049F805007B1979536035B5F5C04FC3F8E0
:1051200002206060C3F80620A060C3F80A20E06097
:10513000C3F80E202061C3F812206061C3F8162066
:10514000A061C3F81A20E061D98326841A62C4F8EA
:1051500022005A62C4F826009A62C4F82A00DA6271
:10516000C4F82E001A63C4F832005A63C4F836003B
:105170009A63C4F83A00DA63C4F83E00A3F840101A
:10518000C4F84200C3F84220C4F84600C3F84620E1
:10519000C4F84A00C3F84A20C4F84E00C3F84E20B1
:1051A000C4F85200C3F85220C4F85600C3F8562081
:1051B000C4F85A00C3F85A20A4F85E60A3F85E1041
:1051C000A4D1FEF7D3FD059835A114226423FDF781
:1051D000FFFE00200027C4F2A000C8E901704DF6D0
:1051E000686606A80125C2F2000600F540592FE0C6
:1051F000152000F061F8002000F05EF85F2000F05C
:105200005BF8752000F058F8002000F055F83F20BA
:1052100000F052F8504610210122FCF7B9F8584628
:1052200010210022FCF7B4F80120FBF7BFFF304645
:1052300021464FF44052FDF747FA681CC1B2CD1E1B
:1052400098F8001018BF0546002918BF88F80070AC
:10525000E8B248B1012811D13046FDF743F80128E2
:10526000FAD106ACC4E700BF3046FDF73BF8012891
:10527000FAD106A800F5C044BAE700BF3046FDF7F2
:1052800031F80128FAD14C46B2E700BF66696E6971
:1052900073686564204D5820496E6974730A000074
:1052A0007374617274696E67207768696C65206CCD
:1052B0006F6F700A00000000B0B582B040F2004489
:1052C000C4F202040546A4F5806010210022FCF718
:1052D0005FF8204610210022FCF75AF80120FBF766
:1052E00065FF4DF66860C2F200000DF10701012272
:1052F0004FF47A738DF80750FDF7A8F8054620465D
:1053000010210122FCF744F8284602B0B0BD00008D
:105310002DE9F04F83B040F2004406465F28C4F206
:1053200002040F464FF05F0B28BF5E463F29A4F5ED
:105330008065DDF830904FF03F0A28BF57465F2A5E
:1053400038BF93462846102100223F2B38BF9A468B
:10535000FCF71EF8204610210022FCF719F8012066
:10536000FBF724FF4DF668682120C2F200088DF893
:10537000040001A9404601224FF47A73FDF766F854
:10538000204610210122FCF703F8284610210022B4
:10539000FBF7FEFF204610210022FBF7F9FF01205A
:1053A000FBF704FF0DF10501404601224FF47A732B
:1053B0008DF80560FDF74AF8204610210122FBF721
:1053C000E7FF284610210022FBF7E2FF20461021CC
:1053D0000022FBF7DDFF0120FBF7E8FE0DF10601DF
:1053E000404601224FF47A738DF80670FDF72EF8CF
:1053F000204610210122FBF7CBFF28461021002276
:10540000FBF7C6FF204610210022FBF7C1FF012059
:10541000FBF7CCFE0DF10701404601224FF47A73F1
:105420008DF807B0FDF712F8204610210122FBF796
:10543000AFFF284610210022FBF7AAFF20461021CB
:105440000022FBF7A5FF0120FBF7B0FE02A94046B2
:1054500001224FF47A738DF808A0FCF7F7FF20467D
:1054600010210122FBF794FF2846102100224FEA69
:10547000D926FBF78DFF204610210022FBF788FF7D
:105480000120FBF793FE0DF10901404601224FF484
:105490007A738DF80960FCF7D9FF204610210122AC
:1054A000FBF776FF284610210022C9F34516FBF7CB
:1054B0006FFF204610210022FBF76AFF0120FBF757
:1054C00075FE0DF10A01404601224FF47A738DF802
:1054D0000A60FCF7BBFF204610210122FBF758FFB2
:1054E00028461021002209F01F06FBF751FF204635
:1054F00010210022FBF74CFF0120FBF757FE0DF1B6
:105500000B01404601224FF47A738DF80B60FCF7D3
:105510009DFF204610210122FBF73AFF03B0BDE8B2
:10552000F08F00002DE9F04782B040F20044C4F251
:105530000204A4F58066914688460546304610214F
:105540000022FBF725FF204610210022FBF720FF59
:105550000120FBF72BFE4DF6686A1520C2F2000A07
:105560008DF800006946504601224FF47A73FCF72B
:105570006DFF0746204610210122FBF709FF304648
:1055800010210022FBF704FF204610210022FBF728
:10559000FFFE0120FBF70AFE0DF10101504601223A
:1055A0004FF47A738DF80150FCF750FF0546204602
:1055B00010210122FBF7ECFE3046102100222F4380
:1055C000FBF7E6FE204610210022FBF7E1FE01205A
:1055D000FBF7ECFD5F208DF802000DF10201504653
:1055E00001224FF47A73FCF731FF05462046102163
:1055F0000122FBF7CDFE3046102100222F43FBF79E
:10560000C7FE204610210022FBF7C2FE0120FBF757
:10561000CDFD75208DF803000DF1030150460122E8
:105620004FF47A73FCF712FF054620461021012241
:10563000FBF7AEFE3046102100222F43FBF7A8FEF9
:10564000204610210022FBF7A3FE0120FBF7AEFD50
:1056500001A9504601224FF47A738DF80480FCF7BB
:10566000F5FE0546204610210122FBF791FE30464B
:10567000102100222F43FBF78BFE20461021002231
:10568000FBF786FE0120FBF791FD3F208DF805001A
:105690000DF10501504601224FF47A73FCF7D6FE56
:1056A0000546204610210122FBF772FE30461021EC
:1056B00001223D434FEA1927FBF76AFE20461021DD
:1056C0000022FBF765FE0DF10601504601224FF462
:1056D0007A738DF80670FCF7B9FE2046102101227E
:1056E000FBF756FE304610210122FBF751FE204603
:1056F00010210022FBF74CFE0DF10701504601225C
:105700004FF47A738DF80790FCF7A0FE2046102125
:105710000122FBF73DFE284602B0BDE8F0870000FD
:105720002DE9F04782B040F20044C4F20204A4F52F
:10573000806691468A4605463046102100229846EA
:10574000FBF726FE204610210022FBF721FE012058
:10575000FBF72CFD4DF668672520C2F200078DF897
:1057600003000DF10301384601224FF47A73FCF770
:105770006DFE204610210122FBF70AFE3046102163
:105780000022FBF705FE204610210022FBF700FE59
:105790000120FBF70BFD01A9384601224FF47A7373
:1057A0008DF80450FCF752FE204610210122FBF731
:1057B000EFFD304610210022FBF7EAFD20461021C4
:1057C0000022FBF7E5FD0120FBF7F0FC0DF10501E0
:1057D000384601224FF47A738DF805A0FCF736FEA7
:1057E000204610210122FBF7D3FD30461021002274
:1057F000FBF7CEFD204610210022FBF7C9FD01205A
:10580000FBF7D4FC0DF10601384601224FF47A7300
:105810008DF80690FCF71AFE204610210122FBF7B6
:10582000B7FD304610210022FBF7B2FD20461021C3
:105830000022FBF7ADFD0120FBF7B8FC0DF10701DD
:10584000384601224FF47A738DF80780FCF7FEFD8D
:10585000204610210122FBF79BFD02B0BDE8F08736
:105860002DE9F04FA3B040F200440FF6B820C4F287
:10587000020400F091FD2046102100224FF00008A4
:10588000FBF786FDA4F58065284610210022FBF772
:105890007FFD04F58066304680210122FBF778FD0C
:1058A000204608210022FBF773FD2046202101221B
:1058B000FBF76EFD1420FBF779FC304680210022B7
:1058C000FBF766FD0A20FBF771FC304680210122C0
:1058D000FBF75EFD0A20FBF769FC4DF66866FD20CC
:1058E000C2F200068DF88B000DF18B0130460122CB
:1058F0004FF47A73FCF7AAFD074612208DF88B004F
:105900000DF18B01304601224FF47A73FCF79EFDB6
:105910003843219003D00FF6282000F03DFD2846A3
:1059200010210122FBF734FD0A20FBF73FFC28463B
:1059300010210022FBF72CFD204610210022FBF74E
:1059400027FD0120FBF732FC4DF66867AE20C2F25E
:1059500000078DF88B000DF18B01384601224FF4C2
:105960007A73FCF773FD2090204610210122FBF78B
:105970000FFD284610210022FBF70AFD20461021CA
:105980000022FBF705FD0120FBF710FC81208DF8BC
:105990008B000DF18B01384601224FF47A73FCF72E
:1059A00055FD1F90204610210122FBF7F1FC2846EF
:1059B00010210022FBF7ECFC204610210022FBF70F
:1059C000E7FC0120FBF7F2FB91208DF88B000DF135
:1059D0008B01384601224FF47A73FCF737FD1E9095
:1059E000204610210122FBF7D3FC2846102100227B
:1059F000FBF7CEFC204610210022FBF7C9FC01205A
:105A0000FBF7D4FB82208DF88B000DF18B0138461B
:105A100001224FF47A73FCF719FD1D9020461021E6
:105A20000122FBF7B5FC284610210022FBF7B0FC51
:105A3000204610210022FBF7ABFC0120FBF7B6FB50
:105A400050208DF88B000DF18B01384601224FF468
:105A50007A73FCF7FBFC1C90204610210122FBF717
:105A600097FC284610210022FBF792FC20461021CB
:105A70000022FBF78DFC0120FBF798FB83208DF8BB
:105A80008B000DF18B01384601224FF47A73FCF73D
:105A9000DDFC1B90204610210122FBF779FC2846F3
:105AA00010210022FBF774FC204610210022FBF796
:105AB0006FFC0120FBF77AFB7D208DF88B000DF148
:105AC0008B01384601224FF47A73FCF7BFFC1A9021
:105AD000204610210122FBF75BFC28461021002202
