:020000040800F2
:1000000008230120910200087929000871290008BD
:1000100075290008C9040008493A000800000000DA
:10002000000000000000000000000000DD2B0008C0
:10003000E5040008000000007D290008E12B00080D
:10004000AB020008AB020008AB020008AB020008DC
:10005000AB020008AB020008AB020008AB020008CC
:10006000AB020008AB020008AB020008AB020008BC
:10007000AB020008AB020008CD040008AB02000888
:10008000AB020008AB020008AB020008AB0200089C
:10009000AB020008AB020008AB020008AB0200088C
:1000A000AB020008AB020008AB020008AB0200087C
:1000B000AB020008AB020008AB020008AB0200086C
:1000C000AB020008AB020008AB020008AB0200085C
:1000D000AB020008AB020008AB020008DD2F0008ED
:1000E000E9040008AB020008AB020008AB020008FC
:1000F000AB020008AB020008AB020008AB0200082C
:10010000AB020008AB020008AB020008AB0200081B
:10011000AB020008AB020008AB020008AB0200080B
:10012000AB020008AB020008AB020008D9040008CB
:10013000AB0200080000000000000000AB02000855
:10014000AB020008AB020008AB020008AB020008DB
:10015000AB020008AB020008AB020008AB020008CB
:10016000AB020008AB020008AB020008AB020008BB
:10017000AB020008AB020008AB0200080000000060
:1001800000000000AB0200080000000000000000BA
:10019000AB0200080000000000000000AB020008F5
:1001A000000000000000000000000000AB0200089A
:1001B000AB020008AB020008AB020008AB0200086B
:1001C000AB02000800F002F800F052F814A696E81E
:1001D000000CB244B344DA4501D100F049F8BAE862
:1001E0000F000FA696E83000A5EB040504EB060708
:1001F000AAEB0704A7F101074FEA15154FEA3414DB
:10020000A4F10104AC4201D300F032F813F0010F65
:1002100018BFFB1A43F0010300F001F8DBE71847B1
:10022000044F0000244F0000103A24BF78C878C162
:10023000FAD8520724BF30C830C144BF04680C60EC
:1002400070470000704700000023002400250026AE
:10025000103A28BF78C1FBD8520728BF30C148BF29
:100260000B6070471FB504F03FFF1FBD10B510BDF8
:1002700000F0EFF81146FFF7F5FF03F0E7FB00F0A1
:100280000DF903B4FFF7F2FF03BC00F015F900000D
:100290000948804709480047FEE7FEE7FEE7FEE71A
:1002A000FEE7FEE7FEE7FEE7FEE7FEE70448054956
:1002B000054A064B70470000912C0008C501000854
:1002C000081D012008230120081F0120081F01200C
:1002D00053EA020C00F069802DE9F04B4FF0000664
:1002E000002B1FBFB3FA83F503FA05F424FA05F6D1
:1002F0005E4012BF1643B2FA82F502FA05F4C5F168
:1003000020051EBF22FA05FC44EA0C04203556EAFB
:10031000044C4FEA144418BF641C4FF000084FF01F
:100320000009904271EB030C39D3002919BFB1FACF
:1003300081F701FA07F6B0FA80F700FA07F6C7F17D
:1003400020071EBF20FA07FC46EA0C062037B6FB42
:10035000F4FCA7EB0507103F07F01F0BCBF12006BD
:100360002CFA06F60CFA0BFB44BFB3460026202FEE
:10037000A4BF5E464FF0000B5BEA060C08BF4FF0CF
:10038000010B19EB0B0948EB0608ABFB027C06FBE3
:1003900002CC0BFB03CCC01B71EB0C01C1E70B467D
:1003A000024641464846BDE8F08B13B5084318BFE6
:1003B0004FF0FF300146AFF30080BDE81C407047AE
:1003C00010B5431C02E010F8011B71B18107FAD18E
:1003D0004FF0013202C88C1A8C4314EAC211F9D0D2
:1003E000C01A0A0603D0C01E10BDC01A10BD0A04F0
:1003F00001D0801E10BD0902FCD0401E10BD4FF080
:10040000000200B5134694469646203922BFA0E864
:100410000C50A0E80C50B1F12001BFF4F7AF090770
:1004200028BFA0E80C5048BF0CC05DF804EB890061
:1004300028BF40F8042B08BF704748BF20F8022BA4
:1004400011F0804F18BF00F8012B704770477047BC
:100450007047754600F02CF8AE46050069465346D5
:1004600020F00700854618B020B5FFF71FFFBDE854
:1004700020404FF000064FF000074FF000084FF00B
:10048000000BAC46ACE8C009ACE8C009ACE8C00958
:10049000ACE8C00921F007018D46704710B504464D
:1004A000AFF300802046BDE81040FFF7EABE000031
:1004B000004870471000002001491820ABBEFEE73D
:1004C0002600020070470000FEE7000043F21C70A7
:1004D000C2F2000000F088B843F2BC60C2F2000033
:1004E00000F082B87047000043F61440C4F20100E7
:1004F0000168090405D543F60051C2F2000101224A
:100500000A700068800405D540F27000C2F2000055
:100510000121017080B54FF4005000F061FA4FF4F2
:100520000040BDE8804000F05BBA000072B600BF3A
:10053000FEE7000070B5866D044600F033FB94F8CA
:100540003510022928D105462068216C026822F066
:1005500016020260426922F08002426109B9A16C70
:1005600019B1016821F008010160016821F0010161
:10057000016000BF20680068C00715D000F012FBC2
:10058000401B0628F6D320206065032084F8350040
:10059000002184F8341070BD8020606501200021A6
:1005A00084F8341070BD00BFE06D3F2101FA00F007
:1005B000B060012084F835000020002184F8341058
:1005C00070BD000090F83510022909D1052180F88E
:1005D00035100068016821F00101016000207047BA
:1005E0008021416501207047F0B581B00021009164
:1005F00040F20801C2F200010B68D0E9166148F22E
:10060000B51537680822C1F64E358A403A42A3FB39
:1006100005350CD003681C68640708D51C6824F0F5
:1006200004041C60B260426D42F001024265012286
:100630008A403A4208D003685B691B0604D5B26061
:10064000426D42F00202426504228A403A4208D0DA
:1006500003681B689B0704D5B260426D42F0040238
:10066000426510228A403A4219D001680B681B0784
:1006700015D5B2600B680A685B0309D4D20509D4AA
:100680000A6822F008020A60016C29B907E000BF7D
:10069000110341D4016C11B1044688472046C26D54
:1006A000202101FA02F33B4243D001680F68FF06A4
:1006B0003FD5B36090F835700B68052F1CD123F03F
:1006C00016030B604B6923F080034B61036C0BB97D
:1006D000836C1BB10B6823F008030B603F21914032
:1006E000B160012180F83510016D0022002980F8E9
:1006F000342054D158E000BF0A685B0310D4D205FF
:1007000012D40A6822F010020A60012180F8351024
:10071000002180F8341007E0816C0029BCD1BEE7CD
:10072000110301D4416C00E0C16B11B1044688474C
:100730002046416DC1B3416DC9072ED0052180F817
:1007400035100168AA0A0B6823F001030B60009BB7
:100750000133934200931AD80B68DB0717D0009B34
:1007600001339342009312D80B68DB070FD0009B34
:100770000133934200930AD80B68DB0707D0009B34
:1007800001339342009302D80B68DB07DFD10121CC
:1007900080F83510002180F83410C16C21B101B00F
:1007A000BDE8F040084700BF01B0F0BD2DE9F041C1
:1007B000044600F0F7F9ECB10546022084F8350054
:1007C0000020216884F83400086820F001000860E7
:1007D00021680868C00711D000F0E4F9401B052823
:1007E000F6D9032520230320636584F83550BDE83E
:1007F000F08100BF0120BDE8F08100BF086848F229
:100800003F02CFF21002D4E9013500EA020C04F1F4
:100810000C0898E8C10143EA0C032B431843D4E9C0
:10082000072E304338431043626A40EA0E00042A20
:1008300040EA08031CD1206BD4E90A2E40EA0E00DE
:10084000184308604869BEF1000F20F0030040EA39
:10085000020040F0040C11D0B8F5005F36D0B8F1BA
:10086000000F45D1022A46D0012A3BD032B942E0DE
:100870000B60486920F0070040EA020C01F0F80024
:100880004AF6AB221038CAF6AA22A0FB02231A09A4
:1008900045F21A13C1F814C0C0F600039A5C40F286
:1008A000FF335F284FF03F0021EA030100FA02F016
:1008B00088BF0431C4E91612886000230125002096
:1008C000636584F83550BDE8F08100BF032AD5D8B0
:1008D000012540230120DFE802F0030E030500BFDD
:1008E00082E700BFAEF1C070B0FA80F0400904E0CA
:1008F000032A04D3C2D1CEF300600028BED0012564
:1009000040230120636584F83550BDE8F081000084
:1009100090F834C0BCF1010F04BF0220704770B5DD
:100920004FF0010C80F834C0D0F858E090F835C092
:10093000BCF1010F38D14FF0020C80F835C04FF0F8
:10094000000CC0F854C0D0F800C08468056CC06DBD
:10095000DCF80060402C26F48026CCF80060CCF84F
:1009600004300B4604BF13460A463F2101FA00F04B
:10097000CCF80830CCF80C20CEF80800DCF80000E9
:1009800040F01600CCF800002DB1DCF8000040F07B
:100990000800CCF80000DCF8000040F00100CCF8C2
:1009A0000000002070BD00BF002180F8341002203C
:1009B00070BD0000B0B5044600F0F4F8054640F202
:1009C0000000C2F200000078611C18BF044400BFA0
:1009D00000F0E8F8401BA042FAD3B0BD7047000019
:1009E00043F61441C4F201010A68024214BF0860D0
:1009F0007047FFF7F3BF00002DE9F04F83B000F11F
:100A0000200200F13E4741F60005009207F1FF7712
:100A1000C4F2020507224FEAB726A84208BF062201
:100A200000254FF000084FF00009062E38BF4FEAAE
:100A3000B72201920AE000BF09F1010908F102089A
:100A4000B9F1100F05F1040500F0A2800F68012232
:100A500002FA09FE17EA0E0AEED0D1F804C003220A
:100A60000CF003077E1E02FA08F4012E6FEA040B55
:100A700012D88468CE6804EA0B0406FA08F63443F8
:100A80008460446824EA0E06CCF3001404FA09F4E6
:100A90002643466004E000BF032F01D103271EE078
:100AA000C6688C6806EA0B0604FA08F42643022F8F
:100AB000C66014D16FF00302009E02EA590756F88F
:100AC00007C005F01C040F220B69A2402CEA0202A9
:100AD000A3401A43F251D1F804C00CF00307026896
:100AE00007FA08F302EA0B021A431CF4403F0260C3
:100AF000A2D0002243F644030292C4F202031A6811
:100B000043F6004442F480421A601A68C4F20104B9
:100B100002F480420292029A29F003024FF6084C36
:100B20002244CFF6FF7C52F80C3005F00C070F265C
:100B3000BE40B343019E06FA07F73B4342F80C3030
:100B4000A2684B6842EA0A0743F60C4CDE0258BF23
:100B500022EA0A07A760C4F2010CDCF800209E021A
:100B600042EA0A0758BF22EA0A07CCF80070626816
:100B70009E0342EA0A0758BF22EA0A076760226812
:100B8000DB0342EA0A0758BF22EA0A07276053E755
:100B900003B0BDE8F08F0000002A08BF090481619E
:100BA0007047000041F60450C2F20100006870472F
:100BB00040F2000041F60451C2F20000C2F201010D
:100BC00000780A68104408607047000080B543F65A
:100BD0000040C4F20200016841F400710160016844
:100BE00041F480610160016841F48071016003207B
:100BF00000F086F8002000F005F800F027F800204B
:100C000080BD000070B540F20006C2F2000640F25E
:100C100008013278C2F200014FF47A730968B3FB1D
:100C2000F2F20446B1FBF2F1084601F0C5F90F2CCF
:100C30004FF0010508D838B94FF0FF3021460022A7
:100C4000002500F031F87460284670BD82B00020A5
:100C500043F640010190C4F202014A6842F4804226
:100C60004A604A6802F480420192019A0090086842
:100C700040F080500860086800F0805000900098B4
:100C800002B07047002848BF704700F01F010122E2
:100C900002FA01F11C2202EAD0004EF20012CEF25A
:100CA000000281507047000010B54EF60C5CCEF289
:100CB000000CDCF80030C3F3022E8EF00704042C85
:100CC00028BF0424BEF103034FF0FF3E0EFA04F4E4
:100CD00038BF0023A14399400EFA03F39A4311430E
:100CE00000F00F0200F160430901043A03F5644388
:100CF0006244002848BF02F10C03197010BD0000C7
:100D00004EF60C51CEF200010A684FF6FF031A406E
:100D100060F30A2242F0806040F0FD700860704786
:100D200001220168C0F8D824002280F8CC24886908
:100D300040F000608861486D40F0805040F0030250
:100D400000204A6570470000002804BF012070475A
:100D5000F0B581B00446056890F8950428B90020E4
:100D600084F89404204600F02DF90320B5F1A04F3B
:100D700084F8950404BF0020A071206802F0A8FC4C
:100D800094E80F00267C009602F02EF9002840F02F
:100D900000812068002102F0A3FC002840F0F980C7
:100DA00094F804E0BEF1000F00F0EC800EF0030CAC
:100DB000BEF1040F4FF0000240D30EF0FC03A4F18B
:100DC00090000321012500BFCE1E80F8A460A0F88A
:100DD000BE608E1E80F8C860A0F8E2604E1E80F8EB
:100DE000EC60A0F8066180F81011A0F82A110E1D21
:100DF000013180F8A55080F8A820C0E92B22C0F866
:100E0000B42080F8C95080F8CC20C0E93422C0F862
:100E1000D82080F8ED5080F8F020C0E93D22C0F8DD
:100E2000FC2080F8115180F81421C0E94622C0F856
:100E30002021903099423146C6D1F21EBCF1000FFC
:100E400031D004F1140002EBC20100EB8105012353
:100E500000F821200021BCF1010F6B706A83297119
:100E6000C5E9021129611ED0551C05EBC50600EB32
:100E70008607BCF1020F7B7000F826507D83397124
:100E8000C7E9021139610ED0911C01EBC10200EBE0
:100E90008203012500F8221000205D70598318712B
:100EA000C3E902001861BEF1000F6BD0BEF1040F60
:100EB0004FF0000236D30EF0FC000321234600BFA2
:100EC000CF1E83F854728F1E83F878724F1E83F8FA
:100ED000C0120D1D013183F8552283F85822C3E951
:100EE0009722C3F8642283F8792283F87C22C3E92D
:100EF000A022C3F8882283F89D2283F89C7283F88D
:100F0000A022C3E9A922C3F8AC2283F8C12283F846
:100F1000C422C3E9B222C3F8D022903381422946C9
:100F2000CED1EA1EBCF1000F2CD004F5157002EBF7
:100F3000C20300EB83070021BCF1010F797000F8B8
:100F400023203971C7E9021139611BD0531C03EB0F
:100F5000C30700EB8706BCF1020F717000F8273061
:100F60003171C6E9021131610CD0911C01EBC10253
:100F700000EB820300275F7000F822101F71C3E9A5
:100F800002771F6194E80F00277C009702F046F972
:100F900030B1022084F89504012001B0F0BD00BFFB
:100FA00000206074012084F89504207B012802D180
:100FB0002046FFF7B5FE206802F020F9002001B0BE
:100FC000F0BD0000F0B59DB0044600201C90CDE9B6
:100FD0001A00CDE9180001A804305821FFF70FFAD4
:100FE0002068B0F1A04F01D01DB0F0BD4FF480706B
:100FF000019001A800F03EF8002818BFFFF796FA0C
:10100000002743F630060097C4F202063068002439
:1010100040F0010030603068C4F2020400F00100CA
:10102000009000984FF4E85018900220CDE919077D
:1010300003201B900A2018AD1C9020462946FFF77C
:10104000DBFC4FF40070CDE91807204629461A97BB
:10105000FFF7D2FC706840F0800070600097706904
:1010600040F480407061706900F480400090009806
:101070001DB0F0BD2DE9F04381B00446006843F691
:101080008C06C107C4F2020604D14FF000098107A3
:101090000CD415E03168A26B21F0C06111433160BE
:1010A000B2FA82F14FEA5119810709D53168E26B32
:1010B00021F0C05111433160002A08BF4FF00109EF
:1010C000410705D44FF00008010712D420E000BF0B
:1010D0003168226B21F4401111433160B2FA82F180
:1010E0004FEA5118B2F5801F08BF4FF00109010700
:1010F0000ED53168626B21F440011143B2F5800FC7
:10110000316008BF4FF00109002A08BF4FF0010805
:1011100081065AD50020009056F84C0C47F2000783
:1011200040F0805046F84C0C56F84C0CC4F20007C6
:1011300000F0805000900098386840F4807038606B
:10114000FFF730FD054600BF3868C00506D4FFF73D
:1011500029FD401B0228F7D990E100BF56F81C0C6E
:1011600010F4407017D0216C01F44071884212D005
:1011700056F81C0C40F64061C4F24721012220F4CD
:1011800040700A6000220A6046F81C0C56F81C0CDD
:10119000C00740F07B812068216C56F8842C4FF604
:1011A000FF4701F4407322F4F812C0F6FF770F40B6
:1011B000B3F5407F08BF3A4346F8842C56F81C2C00
:1011C0006FF31F31114346F81C1CC10610D40106F1
:1011D00019D441061FD4C10525D4810530D4410559
:1011E00036D4B9F1010F18BFB0F5006F3CD062E002
:1011F00094F8580040F64061C4F24721C1F8A003BA
:1012000020680106E5D5B168E26C21F44001114384
:10121000B1604106DFD5B168A26C21F08061114355
:10122000B160C105D9D5B168626D21F0006111438B
:10123000B160B2F1006F08BF4FF001088105CED553
:10124000B168626C21F080511143B1604105C8D58D
:10125000B268216D22F000520A43B0F5006FB2600F
:1012600018BFB1F1005F23D140F26809C4F24729E9
:101270000020C9F80000FFF795FC054656F88C0CD5
:10128000000105D5FFF78EFC401B0228F6D9F5E0DA
:101290002068C10702D0A16B00296FD0810702D559
:1012A000E16B00296AD0410700F17D807FE000BF3B
:1012B000B9F1010FD8D0B8F1000F4FF0000000F0E5
:1012C000DE806827C4F24727B860FFF76BFC05464D
:1012D00056F88C0C800005D5FFF764FC401B0228F3
:1012E000F6D9CBE02068410701D5216B19B1010780
:1012F0001AD5616BC1B956F8041CD4E9062301F470
:101300004031656A114341EA831141EA0561D4F82D
:101310002CC046F8041C31686FF0FF0221F4F8512C
:1013200002EB0C2211433160C00516D5606DB0F19F
:10133000006F12D156F8040C226AD4E9061300F0AB
:101340007060D2034FF6FF75AA430843A2F58032BE
:1013500040EA8310104346F8040C0120B860FFF700
:1013600021FC044656F88C0C800000F18B80FFF7BE
:1013700019FC001B0328F5D380E000BF56F8081CB9
:1013800056F8082CD4E9013501F4403102F07062BE
:1013900019436769114341EA851141EA077146F82B
:1013A000081C410703D5216BB1F5801F05D001074B
:1013B0001FD5616BB1F5800F1BD156F8081C56F88C
:1013C000082CD4E9013701F4403102F0E04219431E
:1013D0002569114341EA871141EA0561D4F828C023
:1013E00046F8081C3168ACF1010221F01F011143DD
:1013F000316041051FD5216DB1F1005F1BD1271D63
:1014000056F808CC56F8082CA8CFFF034FF6FF710A
:1014100027EA01014FF0C06702F0E04207EA4C27DB
:1014200007F100771A433A43A1F5803142EA851269
:10143000114346F8081C000510D5271D8FCF40EA40
:101440008110D1034FF6FF729143A1F5803140EA3C
:101450000360084340EA077046F8080C0120C9F809
:101460000000FFF79FFB054656F88C0C00013FF586
:1014700022AFFFF797FB401B0228F5D9032001B0EC
:10148000BDE8F083002001B0BDE8F083FFF78AFBE0
:10149000054641F2883700BF56F81C0C80073FF51F
:1014A0007AAEFFF77FFB401BB8424FF00300F3D941
:1014B000E5E70000002804BF012070472DE9F04156
:1014C00043F60808C4F202080446D8F8F8030D46AB
:1014D00000F00F00884207D288F8F853D8F8F803D4
:1014E00000F00F00A84277D12068810717D5410787
:1014F00005D5D8F8001041F4E051C8F800100107F4
:1015000005D5D8F8001041F46041C8F80010D8F8AB
:101510000010A26821F0F0011143C8F80010C007C4
:1015200040D1D8F8F80300F00F00A84207D988F896
:10153000F853D8F8F80300F00F00A8424CD1206807
:10154000410707D5D8F80010E26821F4E0511143B3
:10155000C8F80010000708D5D8F80000216920F469
:10156000604040EAC100C8F8000000F07DF8D8F8FB
:10157000001045F20212C1F30311C0F60002515CE3
:1015800040F2080220FA01F140F20400C2F2000029
:101590000068C2F200021160FFF734FB0020BDE8D2
:1015A000F08100BF6068811E022907D258F8081C2C
:1015B00089015CBF0120BDE8F08111E0012807D15D
:1015C00058F8081C89035CBF0120BDE8F08107E0E2
:1015D00058F8081C890703D40120BDE8F08100BF3A
:1015E000D8F8001021F003010843C8F80000FFF705
:1015F000D9FA064641F28837D8F80000616800F051
:101600000C00B0EB810F8CD0FFF7CCFA801BB842F6
:10161000F2D90320BDE8F08140F2080043F608014A
:10162000C2F20000C4F202010068096845F2121219
:10163000C1F38221C0F60002515CC840704700002F
:1016400040F2080043F60801C2F20000C4F20201B1
:101650000068096845F21212C1F34231C0F6000277
:10166000515CC8407047000010B543F60404C4F252
:1016700002046068C0F3810142F20040C0F2F4004D
:10168000DFE801F04202081841F20020C0F27A00BF
:1016900010BD00BF216801F03F02216823684902A4
:1016A000C3F3881116D4A1FB00010023FEF710FE3E
:1016B00017E000BF216801F03F022168236849025A
:1016C000C3F3881114D4A1FB00010023FEF700FE30
:1016D00015E000BF41F20020C0F27A004843B0FBA1
:1016E000F2F021680222C1F3014102EB410109E05D
:1016F00041F20020C0F27A004843B0FBF2F02168CA
:10170000C1F30271B0FBF1F010BD0000002804BF6E
:10171000012070472DE9F04182B00446007843F67D
:101720000006C007C4F202060CD0B06800F00C003E
:10173000042840F089803068800303D56068002861
:1017400000F050812078800723D5B06810F00C0F8E
:1017500011D0B06800F00C00082802D17068400277
:1017600009D5B06800F00C000C2840F09F8070682C
:10177000400200F19B803068800703D5E0680128B3
:1017800040F030813068216920F0F80040EAC10063
:1017900030602078000713D4207840072AD4A56948
:1017A000002D00F01A81B06800F00C00082840F00D
:1017B000AB80012D40F0E880012002B0BDE8F0814F
:1017C0006069002840F20000C4F2472000F08880E1
:1017D0000121C0F8801EFFF7E5F90546706F80070C
:1017E000DAD4FFF7DFF9401B0228F7D9032002B053
:1017F000BDE8F081306C5FEAC0080AD40020019097
:10180000306C40F080503064306C00F080500190BB
:10181000019847F20007C4F200073868C00537D4C2
:10182000386840F480703860FFF7BCF9054600BFA7
:101830003868C0052CD4FFF7B5F9401B0228F7D94A
:10184000032002B0BDE8F081B06800F00C00082869
:1018500003D1706840023FF56EAFB06800F00C0035
:101860000C2803D1706840023FF565AF61683068AD
:10187000B1F5803F07D0B1F5A02F40F0CB8040F408
:1018800080203060306840F480303060CBE000BFB2
:10189000A168306F012905D0052957D140F0040017
:1018A0003067306F40F00100306759E0E068002891
:1018B00000F09C800020C4F2472001210160FFF766
:1018C00071F90546306880073FF55CAFFFF76AF9AC
:1018D000401B02284FF00300F4D902B0BDE8F081AC
:1018E0000021C0F8801EFFF75DF90546706F800784
:1018F0007FF552AFFFF756F9401B0228F6D90320B7
:1019000002B0BDE8F08100BF0027C4F247270020E5
:101910003866FFF747F9022D05460BD13068800184
:1019200040F19280FFF73EF9401B02284FF0030080
:10193000F4D9D2E7306880014FD5FFF733F9401B67
:1019400002284FF00300F5D9C7E700BF20F00100DF
:101950003067306F002920F00400306700F0988075
:10196000FFF720F9054641F2883700BF306F800746
:1019700000F1A080FFF716F9401BB842F6D903200A
:1019800002B0BDE8F08100BF7068E16900F4800238
:101990008A4227D1216A00F03F028A4222D147F6CB
:1019A000C071626A0140B1EB821F1BD1A16A4FF680
:1019B000FF73C903994300F44032A1F580318A4294
:1019C00010D1E16A00F07062B2EB016F0AD1216BB5
:1019D00000F0E040B0EB017F04D1002002B0BDE890
:1019E000F08100BF012002B0BDE8F0810020C4F208
:1019F000472000210160FFF7D5F8054630688007D1
:101A00007FF5C7AEFFF7CEF8401B02284FF003006A
:101A1000F4D962E720F4803030603068002920F487
:101A20008020306050D0FFF7BDF805463068800355
:101A30003FF588AEFFF7B6F8401B6428F6D90320BF
:101A400002B0BDE8F08100BF04F11C052FCD246B6E
:101A5000084340EA8210D9034FF6FF729143A1F583
:101A6000803140EA0560084340EA0470706001205C
:101A70003866FFF797F8044630688001ADD4FFF769
:101A800091F8001B02284FF00300F5D925E700BFAD
:101A9000FFF788F8054641F2883700BF306F8007AE
:101AA00008D5FFF77FF8401BB8424FF00300F5D987
:101AB00013E700BFB8F1000F3FF571AE306C20F0B6
:101AC000805030646BE600BFFFF76CF8054600BF3E
:101AD000306880037FF536AEFFF764F8401B64285A
:101AE0004FF00300F4D9F8E67047000090F8510079
:101AF0007047000070B528B1416A29B10021016129
:101B0000142106E0012070BD4168B1F5827F02D04A
:101B10001C21002242500026866290F8511029B9FB
:101B200080F85060054600F03DF82846022180F814
:101B3000511090E82E0002F482720C6803F4044302
:101B400024F040040C601A4405F4006305691A444B
:101B500005F0020345691A4405F001038569C4696B
:101B60001A4405F400731A4404F03803046A1A4452
:101B700004F08003846A1A4304F400531A430A6091
:101B8000436A042202EA154203F010031A444A6031
:101B9000CA6922F40062CA610121466580F85110C9
:101BA000304670BD70B586B0044643F2000021682F
:101BB000C4F20100002681420596CDE90366029633
:101BC000019601D006B070BD43F630010096C4F214
:101BD00002014A6900F5504042F480524A614A6964
:101BE00002F480520092009A00960A6842F00102C4
:101BF0000A60096801F0010100910099E02101915A
:101C00000221CDE90216032104910521059101A9C4
:101C1000FEF7F2FE43F2BC6546F25840C2F2000500
:101C2000C4F202004FF0C06140224FF4806385E8A7
:101C300047002846C5E90436C5E90666C5E90866D1
:101C4000FEF7B4FD002818BFFEF770FCA564AC6376
:101C500006B070BD2DE9F04184B01D4616460F4612
:101C60000446FEF79FFF94F8511001290ED18046DB
:101C7000002F4FF0010018BF002E03D104B0BDE8C3
:101C8000F08100BF94F85000012803D1022004B075
:101C9000BDE8F081012084F850000320002184F881
:101CA000510061652763A686E686A163A187E18767
:101CB000A0682164B0F5004F2068616407D1016815
:101CC00021F040010160016841F480410160016838
:101CD000490603D4016841F0400101606168731E48
:101CE000E268B1FA81F1B3FA83F349095B09B2F50D
:101CF000006F41EA030139D131B137F8021BC160ED
:101D00002763E08E0138E086E08E002870D0681CE2
:101D10000BD11AE0216B31F8022BC2602163E08EF7
:101D20000138E086E08E002862D02068816889074B
:101D3000F0D4FEF737FFA0EB0800A842F2D338E05A
:101D4000FEF730FFE08E002852D0206881688907B6
:101D5000F6D5216B31F8022BC2602163E08E013889
:101D6000E086E08E0028F0D142E000BF39B139783A
:101D70000173206B01302063E08E0138E086E08E35
:101D8000B0B3681C0BD123E0216B09780173206B81
:101D900001302063E08E0138E086E08E40B3206899
:101DA00081688907F0D4FEF7FDFEA0EB0800A84289
:101DB000F3D3012084F85100002084F85000032060
:101DC00004B0BDE8F08100BFFEF7ECFEE08E78B114
:101DD000206881688907F7D5216B09780173206B2A
:101DE00001302063E08E0138E086E08E0028EFD1DC
:101DF0002046022101222B46CDF8008000F05EFE35
:101E0000E0B1606D40F02000606520206065A06852
:101E100038B9002002902068C16802918068029061
:101E20000298012084F85100002084F85000606D71
:101E3000002818BF012004B0BDE8F08140F208007E
:101E4000C2F20000006849F68171C1F25E61A0FB38
:101E50000101480D4FF47A71484303906068B0F572
:101E6000827F0BD12046802100222B46CDF80080B6
:101E700000F024FE0028C4D1C9E700BF0398002861
:101E8000C5D0039801380390206880680006BED54D
:101E900003980028BBD0039801380390206880681D
:101EA0000006B4D503980028B1D0039801380390F8
:101EB000206880680006AAD503980028A7D0039858
:101EC00001380390206880680006D7D49FE700009F
:101ED00090F85130012B0BD100294FF0010318BFAE
:101EE000002A01D11846704790F85030012B03D1D9
:101EF00002231846704700BF10B5012380F8503008
:101F0000032380F851300023436501638286C28633
:101F10008363C0E910338387C38784680268B4F59C
:101F2000004F07D1146824F040041460146844F48E
:101F300080441460D0F848C042F6A11E42F6A914AD
:101F4000C0F6000EC0F60004CCE90F4E42F6811434
:101F5000C0F60004CCE91343C38E04460C3260463D
:101F6000FEF7D6FC60B1606D012340F010006065A3
:101F7000002084F85000BDE810401846704700BFAC
:101F800020680168490603D4016841F040010160FE
:101F9000002384F85030416841F0200141604168DD
:101FA00041F002014160BDE8104018467047000052
:101FB0007047000070470000411E0020B0EB116F19
:101FC0001CBF012070474EF21002CEF20002516099
:101FD0004EF62351CEF20001F0230B7007219060E2
:101FE0001160704790F83C20012A4FF0020254D053
:101FF00010B580F83D200268D2F804E0D2F808C09D
:102000000C682EF07003234341F2FF74C4F2000405
:10201000A24253600EDC40F2FF73C4F200039A4206
:1020200016DCB2F1804F2BD040F20043C4F2000323
:1020300024E000BF40F2FF33C4F201039A4213DCF4
:1020400041F60003C4F200039A4219D0002313E0C2
:1020500040F60003C4F200039A4211D040F6004358
:10206000C4F200030AE000BF44F20003C4F201031B
:102070009A4205D040F20043C4F201039A4204D1CF
:1020800049682CF08003194391600121002280F8F7
:102090003D1080F83C20BDE810401046704700001D
:1020A000002804BF0120704710B5044690F83D0099
:1020B00028B9002084F83C00204600F01FF80220D8
:1020C00084F83D002068211D00F0ECFD012084F81B
:1020D000460084F83E0084F83F0084F8400084F80D
:1020E000410084F8420084F8430084F8440084F8F6
:1020F000450084F83D00002010BD0000006841F25A
:102100000001C4F20001884218BF704781B000206E
:10211000009043F64000C4F20200016841F0100153
:102120000160006800F010000090009801B0704756
:102130007047000070470000B0B582B001680A68BF
:10214000CC684B6902F02F05202D04F0200505D145
:1021500025B102B0BDE8B04000F04CBE5FEA027CA1
:102160001EBF03F0010E04F4907313EB0E0341D174
:10217000036BD50618D5012B16D114F0100313D01C
:10218000002201920A6801924A680192019A496903
:1021900049064BD4818DC28DC38D002B18BF91424F
:1021A00040F0F48102B0B0BD13062DD514F08003C9
:1021B0002AD090F84120212AF4D18268B2F5805FBC
:1021C00003D10269002A00F06782026A531C03628D
:1021D00012784A60C28C013A1304C284E2D1C86802
:1021E00020F08000C860C86840F04000C86002B0BD
:1021F000B0BD00BFD30718BF14F4807340F0D08087
:10220000530700F1D380D8E05206CBD514F040023A
:10221000C8D0CA6822F04002CA60202180F841106C
:1022200002B0BDE8B04000F0A1BB00BFC16B0A68BE
:10223000526893B2002BB5D0858DAB42B2D2C28525
:10224000C969B1F5807F00F0A080016851E8031FE3
:10225000026821F4807142E80313DBB1016851E8A0
:10226000031F026821F4807142E8031393B10168EF
:1022700051E8031F026821F4807142E803134BB157
:10228000016851E8031F026821F4807142E80313DA
:10229000002BDAD1016851E8051F026821F0010125
:1022A00042E80513BBB3016851E8051F026821F03D
:1022B000010142E8051373B3016851E8051F026884
:1022C00021F0010142E805132BB3016851E8051F15
:1022D000026821F0010142E80513002BDAD11AE06F
:1022E000016851E8051F026821F0400142E805132A
:1022F000DBB1016851E8051F026821F0400142E8A6
:10230000051393B1016851E8051F026821F04001EF
:1023100042E805134BB1016851E8051F026821F03E
:10232000400142E80513002BDAD1202180F8421049
:1023300000210163016851E8031F026821F01001C8
:1023400042E80313DBB1016851E8031F026821F082
:10235000100142E8031393B1016851E8031F0268BA
:1023600021F0100142E803134BB1016851E8031F4B
:10237000026821F0100142E80313002BDAD1C16B8F
:1023800004460846FEF7D6F8204602214163818DB7
:10239000C28D891A89B202B0BDE8B040FFF7C8BE4D
:1023A000436C43F001034364530706D5BEF1000FAD
:1023B00003D0436C43F002034364930706D5BEF198
:1023C000000F03D0436C43F004034364BCF1000FDF
:1023D00006D55EEA050303D0436C43F0080343646B
:1023E000436C002B3FF4DEAE920605D525B10446C2
:1023F00000F000FD216820464969426C01F040016F
:1024000002F00802891800F0B98000BF016851E8A5
:10241000031F026821F4907142E80313BBB3016803
:1024200051E8031F026821F4907142E8031373B36B
:10243000016851E8031F026821F4907142E8031318
:102440002BB3016851E8031F026821F4907142E840
:102450000313002BDAD11AE0016851E8051F026866
:1024600021F0010142E80513DBB1016851E8051FC5
:10247000026821F0010142E8051393B1016851E8B7
:10248000051F026821F0010142E805134BB1016804
:1024900051E8051F026821F0010142E80513002BF5
:1024A000DAD1016B012924D1016851E8031F0268C8
:1024B00021F0100142E80313DBB1016851E8031F6A
:1024C000026821F0100142E8031393B1016851E85A
:1024D000031F026821F0100142E803134BB10168A9
:1024E00051E8031F026821F0100142E80313002B9A
:1024F000DAD1202180F84210002101630168496986
:10250000490640F1C380016851E8051F026821F0C7
:10251000400142E80513DBB1016851E8051F02687C
:1025200021F0400142E8051393B1016851E8051F0D
:10253000026821F0400142E805134BB1016851E8FF
:10254000051F026821F0400142E80513002BDAD193
:10255000C16B002900F09A8042F6E952C0F60002F1
:10256000044608460A65FEF72DF800283FF41AAE27
:10257000E06B016D02B0BDE8B04008470446FFF7CC
:10258000D9FD0020606402B0B0BD00BF891A00BF51
:10259000026852E8032F036822F4907243E803258F
:1025A000BDB3026852E8032F036822F4907243E837
:1025B000032575B3026852E8032F036822F4907272
:1025C00043E803252DB3026852E8032F036822F481
:1025D000907243E80325002DDAD11AE0026852E830
:1025E000052F036822F0010243E80525DDB10268EA
:1025F00052E8052F036822F0010243E8052595B152
:10260000026852E8052F036822F0010243E805251D
:102610004DB1026852E8052F036822F0010243E839
:102620000525002DDAD1202280F842200022026305
:10263000026852E8032F036822F0100243E80325E2
:10264000DDB1026852E8032F036822F0100243E86C
:10265000032595B1026852E8032F036822F01002A7
:1026600043E803254DB1026852E8032F036822F0C6
:10267000100243E80325002DDAD1022289B2426319
:1026800002B0BDE8B040FFF753BD00BF02B0BDE8E7
:10269000B040FFF74FBD00BF026A32F8023B6FF354
:1026A0005F234B60026295E5002804BF012070475C
:1026B00010B5044690F8410028B9002084F8400085
:1026C000204600F021F8242084F841002068C168E9
:1026D00021F40051C160204600F00CFC2068016923
:1026E00021F490410161416921F02A014161C168F1
:1026F00041F40051C16000202021606484F8411041
:1027000084F84210606310BDF0B587B0044644F60B
:1027100000002168C4F20000002681420696CDE93F
:1027200004660396029601D007B0F0BD43F630016F
:102730000196C4F202010A69032742F480220A6169
:102740000A6900F5E23002F480220192019A0196B2
:102750000A6842F008020A60096801F00801019164
:1027600001994FF4407102910221CDE9031607212E
:10277000069102A90597FEF73FF943F21C7546F250
:102780005800C2F20005C4F202004FF0006140227E
:1027900085E8470004204FF48063C5E908602846B7
:1027A000C5E90436C5E90666C5E90A762E63FDF774
:1027B000FDFF002818BFFDF7B9FE272000210022E9
:1027C000A563AC63FEF770FA2720FEF75BFA07B04B
:1027D000F0BD0000704700002DE9F04381B00446D1
:1027E00090F84100202809D100294FF0010018BFBE
:1027F000002A07D101B0BDE8F08300BF022001B07C
:10280000BDE8F0830020606421201D460E4684F858
:1028100041001746FEF7C6F9A784E784A168814600
:10282000B1F5805F02D1206900285DD037460020D5
:10283000E28C2168002A5DD06A1C24D0002D4AD089
:10284000804600BF0868000608D4FEF7ABF9A0EB8D
:102850000900A8427AD82168C868F3E717B117F8C9
:10286000010B04E038F8020B00276FF35F2048608B
:10287000E08C0138E084E08C0028E3D13AE000BF2E
:102880000A68120609D40A68120606D40A681206F3
:102890005CBF0A685FEA0262F2D51FB117F8012B2C
:1028A00005E000BF30F8022B00276FF35F224A607B
:1028B000E28C013AE284E28C002AE4D11AE000BF03
:1028C00030F8022B00276FF35F224A60E28C013A56
:1028D000E284E28C72B10A68120635D5002FEFD07F
:1028E00017F8012BF1E700BF00273046E28C216882
:1028F000002AA1D1086840061ED42DB3681C14D14B
:10290000086840062AD40868400627D408684006AC
:1029100024D4086840064FF00000F1D50DE000BF58
:102920002068C1680068400618D4FEF73BF9A0EBA8
:102930000900A842F4D909E00020202184F84110C0
:1029400001B0BDE8F08300BFFEF72CF90320202181
:1029500084F8411001B0BDE8F08300BF00202021C1
:1029600084F8411001B0BDE8F0830000704700001A
:10297000FEE70000FEE70000FEE7000070470000F1
:10298000806B01684A6822F003024A60416D41F0A1
:1029900010014165012180F85110FFF7A5B8000032
:1029A000806BFFF707BB0000B0B584B0846B0546B1
:1029B000FEF7F8F829680968C90531D4054620688A
:1029C00001224168642321F020014160416821F027
:1029D0000201416020460221009500F06FF828B303
:1029E000606D40F020006065606D40F02000606523
:1029F000A06838B9002002902068C1680291806800
:102A0000029002980020E086012084F85100606D59
:102A100030B1204604B0BDE8B040FFF765B800BF54
:102A2000204604B0BDE8B040FFF7C2BA40F208004B
:102A3000C2F20000006849F68171C1F25E61A0FB3C
:102A40000101480D4FF47A71484303906068B0F576
:102A5000827F09D12046802100226423009500F066
:102A60002DF80028BCD1C3E703980028C0D00398F4
:102A700001380390206880680006B9D503980028C3
:102A8000B6D0039801380390206880680006AFD55F
:102A900003980028ACD00398013803902068806820
:102AA0000006A5D503980028A2D00398013803900A
:102AB000206880680006D7D49AE700002DE9F0432B
:102AC00081B0089C984615460E468146FEF76AF886
:102AD000201A00EB0804FEF765F840F20801C2F284
:102AE00000010968C1F3CB3161430091D9F80010AE
:102AF0008A683240921BB2FA82F25209AA423DD051
:102B0000074618F1010031D0FEF74CF8C01BA04277
:102B100038D2009800990028A1F101010091D9F85C
:102B20000010896808BF044601EA0600801BB0FA5D
:102B300080F04009A842E7D120E000BF886830401B
:102B4000801BB0FA80F04009A84217D08868304056
:102B5000801BB0FA80F04009A8420FD0886830404E
:102B6000801BB0FA80F04009A84207D08868304046
:102B7000801BB0FA80F04009A842DFD1002001B0EC
:102B8000BDE8F083D9E900014268B1F5827F22F007
:102B9000E00242600BD1D9F80810B1F5004F02D025
:102BA000B1F5806F03D1016821F040010160D9F8CF
:102BB0002810B1F5005F07D1016821F400510160D0
:102BC000016841F400510160012089F851000020A2
:102BD00089F85000032001B0BDE8F0837047000081
:102BE000FDF7E6BF70B594B007AC20463421FDF781
:102BF00006FC002543F640000695CDE90455CDE9D5
:102C000002550195C4F202000168022641F080518C
:102C10000160006800F080500190019847F20000C8
:102C20000195C4F20000016841F440410160006870
:102C300000F4404001900198012007904FF4A0203B
:102C400008904FF480000E9004200F90A820CDE94A
:102C500010060720CDE9120620460D96FEF756FD18
:102C600010B172B6FEE700BF0F20CDE902064FF4A7
:102C7000A05005904FF48050069002A805210495BD
:102C8000FEF718FC10B172B6FEE700BF14B070BDBD
:102C90004EF68850CEF20000016841F470010160E8
:102CA0007047000010B540F6FF3E0368C4F2000E06
:102CB00040F2004C7045C4F2010C25DCB0F1804FAD
:102CC0002FD040F20042C4F20002904229D040F6D8
:102CD0000002C4F20002904223D041F6FF72C4F217
:102CE0000002904227DC70453ADCB0F1804F5BD0A7
:102CF00040F20042C4F20002904255D040F6000279
:102D0000C4F200024EE000BF40F60042C4F20002EE
:102D1000904206D0604504D00022C4F201029042E5
:102D2000DBD14A6823F07003134341F6FF72C4F20B
:102D300000029042D7DD43F6FF72C4F201029042D6
:102D400020DC42F20002C4F2000290422CD00022A9
:102D5000C4F20102904227D0604525D028E000BF90
:102D600040F60042C4F2000290421DD041F600023B
:102D7000C4F20002904217D041F60042C4F20002B1
:102D800010E000BF44F20002C4F2010290420BD0F6
:102D900044F60002C4F20102904205D044F200421F
:102DA000C4F20102904203D1CA6823F44073134372
:102DB00023F080024B69D1F800E08C681A4302606E
:102DC000C46240F48062C0F828E0624504BF09692B
:102DD0000163012141610169C90708BF10BD016993
:102DE00021F00101016110BD806B0021C185C1840A
:102DF000FFF7A0B981B090F84210222921D1836851
:102E00000246B3F5805F09D152F8281F52F8183CEA
:102E1000002B63D003685B680AE000BF52F8281FEC
:102E200013B90369002BF5D003685B6803F07F03D7
:102E30000B70116801311160C18D01390A04C1851F
:102E400002D001B0704700BF0168CA6822F02002BA
:102E5000CA60CA6822F48072CA604A6922F001021C
:102E60004A61202180F8421000214163026B012A4F
:102E70003CD10163016851E8031F026821F0100191
:102E800042E80313DBB1016851E8031F026821F037
:102E9000100142E8031393B1016851E8031F02686F
:102EA00021F0100142E803134BB1016851E8031F00
:102EB000026821F0100142E80313002BDAD1016807
:102EC0000A68D20606D5002200920A680092496874
:102ED00000910099818D01B0FFF72AB9026852680C
:102EE0006FF35F2221F8022B8162A5E701B0FFF7A3
:102EF00071BC0000B0B50446006804F108030ECBB5
:102F00000569194325F440552A4302616269E36962
:102F10001143C268194349F20C639A431143C160DB
:102F20004169A26921F4407141F20043114340F428
:102F30008062C4F201039A42416103D1FEF780FB33
:102F400002E000BFFEF768FBE1694FF69C7563681D
:102F50001922C0F6FF75B1F5004FA0FB02011FD189
:102F60005A00DB0FFDF7B4F948F21F51C5F2EB111F
:102F7000A0FB01235A0905F1805302FB0300322311
:102F800003EBC000A0FB01014FF4F87000EA111040
:102F900000EB0210C1F34211084421688860B0BD03
:102FA0009A009B0FFDF794F948F21F51C5F2EB11FF
:102FB000A0FB01235A0902FB0500322303EB00109A
:102FC000A0FB0101F02000EA511000EB0210C1F358
:102FD0004311084421688860B0BD000040F27400CD
:102FE000C2F20000FFF7A8B882B002F47F42B2F547
:102FF000807F40F07F80826B4FF6BF7322F4803277
:103000008263C268CFF6BD731A40C260029BC26879
:10301000DBB222F44012012BC26003D1C26842F439
:103020008012C26000220092009A01320092009A3F
:10303000B2F1706F00F2BE800269002A21D4009ABA
:1030400001320092009AB2F1706F00F2B38002690F
:10305000002A16D4009A01320092009AB2F1706FE1
:1030600000F2A8800269002A0BD4009A0132009273
:10307000009AB2F1706F00F29D800269B2F1FF3FD9
:10308000D2DC00220092026942F001020261009A41
:1030900001320092009AB2F1706F00F28B800269E7
:1030A000D2071ED0009A01320092009AB2F1706FDE
:1030B00000F280800269D20713D0009A0132009298
:1030C000009AB2F1706F75D80269D20709D0009AE0
:1030D00001320092009AB2F1706F6BD80269D20788
:1030E000D5D14FF0000C01F47F01B1F5803F40F0E5
:1030F000818077E0C26842F04002C2600022019203
:10310000019A01320192019AB2F1706F5AD80269A4
:10311000002A1ED4019A01320192019AB2F1706F15
:1031200050D80269002A14D4019A01320192019AFE
:10313000B2F1706F46D80269002A0AD4019A0132AE
:103140000192019AB2F1706F3CD80269B2F1FF3F6F
:10315000D6DC00220192026942F001020261019A6A
:1031600001320192019AB2F1706F2BD80269D20735
:103170001DD0019A01320192019AB2F1706F21D8EB
:103180000269D20713D0019A01320192019AB2F179
:10319000706F17D80269D20709D0019A01320192E3
:1031A000019AB2F1706F0DD80269D207D7D14FF0F2
:1031B000000C09E04FF0030C01F47F01B1F5803FF2
:1031C00018D10FE04FF0030C826B13F47F4F14BF44
:1031D00022F4803242F48032826301F47F01B1F53F
:1031E000803F07D1816841F006018160816841F02C
:1031F00020018160604602B0704700000146D0F8AF
:10320000000E20F00300C1F8000ED1F8040840F0D1
:1032100002020020C1F80428704700002DE9F04F99
:1032200086B0C3F3074516468E460021C0F8041148
:10323000C0F80811C0F80C11C0F81011C0F8141132
:10324000C0F81811C0F81C11C0F82011C0F82411E2
:10325000C0F82811C0F82C11C0F83011C0F8341192
:10326000C0F83811C0F83C1125B100F138014FF415
:1032700000120FE0D0F80418802241F00201C0F8DB
:103280000418816B21F400118163016841F0400151
:10329000016001460B681A430A6006F47F42002170
:1032A000B2F5807FC0F8001E08D1D0F80028B1EB3D
:1032B0001E6F09D1C0F800280AE000BFD0F800183E
:1032C00041F0030102E000BF42F00101C0F8001824
:1032D000002104910499013104910499B1F1706FB6
:1032E00052D8016900291ED404990131049104992E
:1032F000B1F1706F48D80169002914D404990131E3
:1033000004910499B1F1706F3ED8016900290AD483
:103310000499013104910499B1F1706F34D80169B5
:10332000B1F1FF3FD6DC002104914FF484610161CB
:103330000499013104910499B1F1706F24D80169A5
:1033400089061DD50499013104910499B1F1706F7A
:103350001AD80169890613D5049901310491049999
:10336000B1F1706F10D80169890609D5049901314E
:1033700004910499B1F1706F06D801698906D7D418
:103380004FF0000A02E000BF4FF0010A0021059152
:103390000599013105910599B1F1706F4ED8016918
:1033A00000291ED40599013105910599B1F1706F7D
:1033B00044D80169002914D4059901310591059972
:1033C000B1F1706F3AD8016900290AD40599013129
:1033D00005910599B1F1706F30D80169B1F1FF3FE6
:1033E000D6DC00210591102101610599013105917B
:1033F0000599B1F1706F21D80169C90620D50599E9
:10340000013105910599B1F1706F17D80169C906AD
:1034100016D50599013105910599B1F1706F0DD857
:103420000169C9060CD50599013105910599B1F1DC
:10343000706F03D80169C906D7D401E04FF0010AC3
:103440005FFA8EF94FF00008B9F1000FC0F810884C
:10345000C0F81488C0F81C8800F00D81CDF80CA0CD
:10346000CDE9015ED0F800194FF0006404EA1111B3
:103470004FF67F35B9F1010BC0F80019C0F810897B
:10348000C0F8085974D0A9F1020103290BF0030A0E
:1034900004D20121BAF1000F40D169E000962BF06F
:1034A000030700F5186600234FF0904C4FF67F326B
:1034B0004FF0000E56F8601C0EF1040E0CEAE1719C
:1034C00046F8601C46F8503C46F8582C56F8401C0C
:1034D00077450CEAE17146F8401C46F8303C46F866
:1034E000382C56F8201C0CEAE17146F8201C46F8EE
:1034F000103C46F8182C31680CEAE17131603361F8
:10350000B26006F18006D5D1009E0EF101014FF6A2
:103510007F354FF00064BAF1000F29D000F5106339
:103520004F01B446DE594FF0904202EAE67603EBD3
:103530004111DE51664600274FF67F33BAF1010F85
:103540000F618B6014D00E6ABAF1020F02EAE672C4
:1035500066460A620F638B620AD00A6C4FF0904392
:1035600003EAE2720A6400220A654FF67F328A6437
:10357000D0F8001BBBF1000F04EA1111C0F8001BCA
:103580004FF00001C0F8101BC0F8085BDDE9015ED8
:10359000DDF80CA06FD0A9F1020103290BF0030C98
:1035A00004D20121BCF1000F3BD164E0A946009692
:1035B0002BF0030500F5386600234FF090474FF6D7
:1035C0007F32002156F8604C043107EAE47446F873
:1035D000604C46F8503C46F8582C56F8404C8D420A
:1035E00007EAE47446F8404C46F8303C46F8382C7C
:1035F00056F8204C07EAE47446F8204C46F8103C94
:1036000046F8182C346807EAE47434603361B26019
:1036100006F18006D6D1009E01314D46BCF1000F67
:1036200029D000F530634F013446DE594FF0904207
:1036300002EAE67603EB4111DE51264600274FF6FB
:103640007F33BCF1010F0F618B6014D00E6ABCF1A7
:10365000020F02EAE67226460A620F638B620AD004
:103660000A6C4FF0904303EAE2720A6400220A6592
:103670004FF67F328A64D0F810181EF47F0F21F4C1
:103680008071C0F810186FF08041C0F81880416157
:1036900003D1816941F010018161816943F6000223
:1036A000C8F23C02114316F47F0F816103D0816997
:1036B00041F008018161012D05D1816941F080410E
:1036C00041F004018161504606B0BDE8F08F000072
:1036D0000146806820F0010200208A6070470000E7
:1036E000B0B50446C068002920F0C040E06000F09A
:1036F0009980012940F0B080E0680A2540F0005030
:10370000E0600A20FDF756F954F8140FC00740F0A6
:103710009C800A20FDF74EF92068C00740F09E808B
:103720000A20FDF747F92068C00740F0A5800A206D
:10373000FDF740F92068C00740F0AC800A20FDF793
:1037400039F92068C00740F0B3800A20FDF732F94C
:103750002068C00740F0BA800A20FDF72BF92068E6
:10376000C00740F0C1800A20FDF724F92068C00797
:1037700040F0C8800A20FDF71DF92068C00740F01E
:10378000CF800A20FDF716F92068C00740F0D680E8
:103790000A20FDF70FF92068C00740F0DD800A20FD
:1037A000FDF708F92068C00740F0E4800A20FDF723
:1037B00001F92068C00740F0EB800A20FDF7FAF815
:1037C0002068C00740F0F2800A20FDF7F3F8206877
:1037D000C00740F0F9800A20FDF7ECF82068C00728
:1037E00040F000810A20FDF7E5F82068C00740F0AE
:1037F00007810A20FDF7DEF82068C00740F00E813F
:103800000A20FDF7D7F82068C00740F016810A208B
:10381000FDF7D0F82068C825A5F1C800B0FA80F0FF
:103820004009B0BDE0680A2540F08040E0600A2011
:10383000FDF7C0F854F8140FC00706D00A20FDF7B2
:10384000B9F82068C00711D11425A5F1C800B0FA55
:1038500080F04009B0BD00BF0120B0BD1425A5F126
:10386000C800B0FA80F04009B0BD00BF0A20FDF7E3
:10387000A1F82068C00707D11E25A5F1C800B0FA3D
:1038800080F04009B0BD00BF0A20FDF793F8206822
:10389000C00707D12825A5F1C800B0FA80F040097B
:1038A000B0BD00BF0A20FDF785F82068C00707D12A
:1038B0003225A5F1C800B0FA80F04009B0BD00BFC4
:1038C0000A20FDF777F82068C00707D13C25A5F14D
:1038D000C800B0FA80F04009B0BD00BF0A20FDF773
:1038E00069F82068C00707D14625A5F1C800B0FADD
:1038F00080F04009B0BD00BF0A20FDF75BF82068EA
:10390000C00707D15025A5F1C800B0FA80F04009E2
:10391000B0BD00BF0A20FDF74DF82068C00707D1F1
:103920005A25A5F1C800B0FA80F04009B0BD00BF2B
:103930000A20FDF73FF82068C00707D16425A5F1EC
:10394000C800B0FA80F04009B0BD00BF0A20FDF702
:1039500031F82068C00707D16E25A5F1C800B0FA7C
:1039600080F04009B0BD00BF0A20FDF723F82068B1
:10397000C00707D17825A5F1C800B0FA80F040094A
:10398000B0BD00BF0A20FDF715F82068C00707D1B9
:103990008225A5F1C800B0FA80F04009B0BD00BF93
:1039A0000A20FDF707F82068C00707D18C25A5F18C
:1039B000C800B0FA80F04009B0BD00BF0A20FCF793
:1039C000F9FF2068C00707D19625A5F1C800B0FA15
:1039D00080F04009B0BD00BF0A20FCF7EBFF206873
:1039E000C00707D1A025A5F1C800B0FA80F04009B2
:1039F000B0BD00BF0A20FCF7DDFF2068C00707D17B
:103A0000AA25A5F1C800B0FA80F04009B0BD00BFFA
:103A10000A20FCF7CFFF2068C00707D1B425A5F125
:103A2000C800B0FA80F04009B0BD00BF0A20FCF722
:103A3000C1FF2068C0077FF4EAAEBE25A5F1C8002B
:103A4000B0FA80F04009B0BDFEE7000030B4ADF53B
:103A5000104D86B00DF1280E0EF5C0440DF1180E74
:103A600040F200460EF54055C4F20206FDF7AEF8EE
:103A7000FFF7B8F84FF0000843F6300A44E904882D
:103A800044E90288C4F80080C5F80080C4F2020A44
:103A9000DAF80000A6F5806940F00400CAF80000DA
:103AA000DAF80000102100F0040028602868C5F84A
:103AB0000080DAF80000002240F08000CAF8000020
:103AC000DAF8000000F0800028602868C5F800805F
:103AD000DAF8000040F00100CAF80000DAF800004F
:103AE00000F0010028602868C5F80080DAF80000BE
:103AF00040F00200CAF80000DAF8000000F002000E
:103B000028602868C5F80080DAF8000040F0080056
:103B1000CAF80000DAF8000000F008002860286801
:103B2000C5F80080DAF8000040F04000CAF8000054
:103B3000DAF8000000F04000286028684846354662
:103B4000FDF72AF8304644F2B9010022FDF724F8C7
:103B500006F5006630464FF480410022FDF71CF860
:103B600005F5A050442100220590FDF715F805F554
:103B7000806738468021012204970125FDF70CF863
:103B80000DF1180E4FF400504FF48811A4F11002FB
:103B90000EF5C04B82E8030138465946FCF72CFF6E
:103BA00002210322102044E9040544E90212484698
:103BB00059460327FCF720FF44F28100A4F11001CD
:103BC00081E8210140F20040C4F20200594644F865
:103BD000048CFCF711FF4FF4804044E904053046A3
:103BE000594644E90257FCF707FF4FF4004044F8F8
:103BF000100C4FF4881044F80C0C022044F8080C08
:103C0000304659460396FCF7F7FE059E4420A4F182
:103C1000100181E821013046594644F8048CFCF734
:103C2000EBFE80273046594644E9047844F8088C76
:103C3000FCF7E2FE04980226594644E9047544E97B
:103C40000265FCF7D9FE0820A4F1100161C140F221
:103C50000046C4F2020603273046594644F8047C65
:103C6000FCF7CAFE102044E904053046594644E9F1
:103C70000257FCF7C1FE202044E90405022044E974
:103C80000205304659463546FCF7B6FE282000218D
:103C90000022FDF709F82820FCF7F4FF44F8108C07
:103CA000DAF80000002140F40010CAF80000DAF849
:103CB0000000002200F4001044F8100C54F8100C1E
:103CC00044F8108CDAF8000040F48000CAF80000D4
:103CD000DAF8000000F4800044F8100C54F8100CDE
:103CE0000E20FCF7E1FF0E20FCF7CCFF3B2000216B
:103CF0000022FCF7D9FF3B20FCF7C4FF43F66040ED
:103D0000A6F55441C2F200004FF482724FF40073E2
:103D100080E806010A21C0E90388C0E90583C0F8EC
:103D20001C80C0E90888C0E90A81FDF7E3FE18B1EC
:103D300072B600BFFEE700BF43F6B840039E0DF128
:103D4000180EA5F5FA31C2F200004FF6FF720EF51B
:103D5000405A44E90488C0E90018C0E90282C0F86A
:103D60001880FEF79DF918B172B600BFFEE700BFDC
:103D70000DF1180E43F6B8400EF5C048C2F200002F
:103D80004146FEF72FF918B172B600BFFEE700BF3B
:103D900040F27007C2F20007A5F5DE31384640F860
:103DA000041F4FF4E13100220C23C0E90112C0E9E5
:103DB0000322C0E90532C261FEF776FC10B172B68B
:103DC000FEE700BF43F27C70C2F200004FF0A0415A
:103DD0000160062101714FF40071C1804FF48171BF
:103DE000C0F809100121C181FCF7AEFF10B172B615
:103DF000FEE700BF30464FF480410122FCF7CCFEC5
:103E0000284610210122AB46FCF7C6FE0A20FCF72B
:103E1000D1FD0A20FCF7CEFD00F0CAFB0A20FCF71A
:103E2000C9FD002000215F223F23002500F020FB78
:103E30000A200A214FF478424FF4784600F01AFA2B
:103E40000020002132223223009600F009F940F2CE
:103E5000BC00C2F20000056043F60450C2F200004C
:103E6000056106A84FF4C041FCF7C9FA4FF0F820ED
:103E70001F214FF01F1200BF08EB050448F8050092
:103E80000AEB05032AF805106035B5F5C04FC3F8F5
:103E900002206060C3F80620A060C3F80A20E0603A
:103EA000C3F80E202061C3F812206061C3F8162009
:103EB000A061C3F81A20E061D98326841A62C4F88D
:103EC00022005A62C4F826009A62C4F82A00DA6214
:103ED000C4F82E001A63C4F832005A63C4F83600DE
:103EE0009A63C4F83A00DA63C4F83E00A3F84010BD
:103EF000C4F84200C3F84220C4F84600C3F8462084
:103F0000C4F84A00C3F84A20C4F84E00C3F84E2053
:103F1000C4F85200C3F85220C4F85600C3F8562023
:103F2000C4F85A00C3F85A20A4F85E60A3F85E10E3
:103F3000A2D143F6604606A80125C2F200064FF062
:103F4000000A00F540582EE0152000F05DF8002032
:103F500000F05AF85F2000F057F8752000F054F890
:103F6000002000F051F83F2000F04EF848461021A4
:103F70000122FCF711FE584610210022FCF70CFE2E
:103F80000120FCF717FD304621464FF44052FDF763
:103F90009FFF681CC1B2CD1E397818BF05460029A5
:103FA00018BF87F800A0E8B250B1012812D100BFB5
:103FB0003046FDF79BFD0128FAD106ACC4E700BFEF
:103FC0003046FDF793FD0128FAD106A800F5C0445C
:103FD000BAE700BF3046FDF789FD0128FAD1444613
:103FE000B2E7000010B50446FCF7EAF940F27001B0
:103FF000C2F20001043182B2084621466423BDE8C2
:104000001040FEF7E9BB0000B0B582B040F20044BA
:10401000C4F202040546A4F5806010210022FCF7DA
:10402000BBFD204610210022FCF7B6FD0120FCF765
:10403000C1FC43F66040C2F200000DF1070101220D
:104040004FF47A738DF80750FDF704FE05462046BD
:1040500010210122FCF7A0FD284602B0B0BD0000EF
:104060002DE9F04F83B040F2004406465F28C4F2C9
:1040700002040F464FF05F0B28BF5E463F29A4F5B0
:104080008065DDF830904FF03F0A28BF57465F2A21
:1040900038BF93462846102100223F2B38BF9A464E
:1040A000FCF77AFD204610210022FCF775FD012067
:1040B000FCF780FC43F660482120C2F200088DF82E
:1040C000040001A9404601224FF47A73FDF7C2FDB6
:1040D000204610210122FCF75FFD28461021002216
:1040E000FCF75AFD204610210022FCF755FD012067
:1040F000FCF760FC0DF10501404601224FF47A7394
:104100008DF80560FDF7A6FD204610210122FCF781
:1041100043FD284610210022FCF73EFD20461021D9
:104120000022FCF739FD0120FCF744FC0DF10601EB
:10413000404601224FF47A738DF80670FDF78AFD30
:10414000204610210122FCF727FD284610210022DD
:10415000FCF722FD204610210022FCF71DFD012066
:10416000FCF728FC0DF10701404601224FF47A7359
:104170008DF807B0FDF76EFD204610210122FCF7F7
:104180000BFD284610210022FCF706FD20461021D9
:104190000022FCF701FD0120FCF70CFC02A94046BF
:1041A00001224FF47A738DF808A0FDF753FD2046E5
:1041B00010210122FCF7F0FC2846102100224FEAD2
:1041C000D926FCF7E9FC204610210022FCF7E4FC8C
:1041D0000120FCF7EFFB0DF10901404601224FF4ED
:1041E0007A738DF80960FDF735FD20461021012214
:1041F000FCF7D2FC284610210022C9F34516FCF733
:10420000CBFC204610210022FCF7C6FC0120FCF765
:10421000D1FB0DF10A01404601224FF47A738DF86B
:104220000A60FDF717FD204610210122FCF7B4FCBF
:1042300028461021002209F01F06FCF7ADFC20469D
:1042400010210022FCF7A8FC0120FCF7B3FB0DF1C4
:104250000B01404601224FF47A738DF80B60FDF795
:10426000F9FC204610210122FCF796FC03B0BDE8C2
:10427000F08F00002DE9F04782B040F20044C4F214
:104280000204A4F580669146884605463046102112
:104290000022FCF781FC204610210022FCF77CFC68
:1042A0000120FCF787FB43F6604A1520C2F2000AA2
:1042B0008DF800006946504601224FF47A73FDF7ED
:1042C000C9FC0746204610210122FCF765FC304658
:1042D00010210022FCF760FC204610210022FCF790
:1042E0005BFC0120FCF766FB0DF101015046012249
:1042F0004FF47A738DF80150FDF7ACFC054620466B
:1043000010210122FCF748FC3046102100222F43E7
:10431000FCF742FC204610210022FCF73DFC012066
:10432000FCF748FB5F208DF802000DF102015046BA
:1043300001224FF47A73FDF78DFC054620461021CB
:104340000122FCF729FC3046102100222F43FCF704
:1043500023FC204610210022FCF71EFC0120FCF764
:1043600029FB75208DF803000DF103015046012251
:104370004FF47A73FDF76EFC0546204610210122AA
:10438000FCF70AFC3046102100222F43FCF704FC06
:10439000204610210022FCF7FFFB0120FCF70AFB5E
:1043A00001A9504601224FF47A738DF80480FDF77D
:1043B00051FC0546204610210122FCF7EDFB30465A
:1043C000102100222F43FCF7E7FB2046102100229A
:1043D000FCF7E2FB0120FCF7EDFA3F208DF8050029
:1043E0000DF10501504601224FF47A73FDF732FCBE
:1043F0000546204610210122FCF7CEFB3046102155
:1044000001223D434FEA1927FCF7C6FB2046102145
:104410000022FCF7C1FB0DF10601504601224FF4CA
:104420007A738DF80670FDF715FC204610210122E5
:10443000FCF7B2FB304610210122FCF7ADFB204611
:1044400010210022FCF7A8FB0DF1070150460122C4
:104450004FF47A738DF80790FDF7FCFB204610218E
:104460000122FCF799FB284602B0BDE8F087000066
:104470002DE9F04782B040F20044C4F20204A4F5F2
:10448000806691468A4605463046102100229846AD
:10449000FCF782FB204610210022FCF77DFB012067
:1044A000FCF788FA43F660472520C2F200078DF832
:1044B00003000DF10301384601224FF47A73FDF732
:1044C000C9FB204610210122FCF766FB3046102173
:1044D0000022FCF761FB204610210022FCF75CFB68
:1044E0000120FCF767FA01A9384601224FF47A73DC
:1044F0008DF80450FDF7AEFB204610210122FCF799
:104500004BFB304610210022FCF746FB20461021D1
:104510000022FCF741FB0120FCF74CFA0DF10501EC
:10452000384601224FF47A738DF805A0FDF792FB0F
:10453000204610210122FCF72FFB304610210022DB
:10454000FCF72AFB204610210022FCF725FB012066
:10455000FCF730FA0DF10601384601224FF47A7368
:104560008DF80690FDF776FB204610210122FCF71E
:1045700013FB304610210022FCF70EFB20461021D1
:104580000022FCF709FB0120FCF714FA0DF10701EA
:10459000384601224FF47A738DF80780FDF75AFBF5
:1045A000204610210122FCF7F7FA02B0BDE8F0879F
:1045B0002DE9F04FA3B040F200440FF6B820C4F24A
:1045C0000204FFF70FFD2046102100224FF00008E3
:1045D000FCF7E2FAA4F58065284610210022FCF7DA
:1045E000DBFA04F58066304680210122FCF7D4FA1C
:1045F000204608210022FCF7CFFA20462021012284
:10460000FCF7CAFA1420FCF7D5F9304680210022C5
:10461000FCF7C2FA0A20FCF7CDF9304680210122CE
:10462000FCF7BAFA0A20FCF7C5F943F66046FD200C
:10463000C2F200068DF88B000DF18B01304601228D
:104640004FF47A73FDF706FB074612208DF88B00B6
:104650000DF18B01304601224FF47A73FDF7FAFA1F
:104660003843219003D00FF62820FFF7BBFC2846E3
:1046700010210122FCF790FA0A20FCF79BF928464A
:1046800010210022FCF788FA204610210022FCF7B6
:1046900083FA0120FCF78EF943F66047AE20C2F2A0
:1046A00000078DF88B000DF18B01384601224FF485
:1046B0007A73FDF7CFFA2090204610210122FCF7F3
:1046C0006BFA284610210022FCF766FA20461021DA
:1046D0000022FCF761FA0120FCF76CF981208DF8CB
:1046E0008B000DF18B01384601224FF47A73FDF7F0
:1046F000B1FA1F90204610210122FCF74DFA2846FE
:1047000010210022FCF748FA204610210022FCF775
:1047100043FA0120FCF74EF991208DF88B000DF142
:104720008B01384601224FF47A73FDF793FA1E90FD
:10473000204610210122FCF72FFA284610210022E2
:10474000FCF72AFA204610210022FCF725FA012066
:10475000FCF730F982208DF88B000DF18B01384683
:1047600001224FF47A73FDF775FA1D90204610214F
:104770000122FCF711FA284610210022FCF70CFA5E
:10478000204610210022FCF707FA0120FCF712F95D
:1047900050208DF88B000DF18B01384601224FF42B
:1047A0007A73FDF757FA1C90204610210122FCF77E
:1047B000F3F9284610210022FCF7EEF920461021DB
:1047C0000022FCF7E9F90120FCF7F4F883208DF8CA
:1047D0008B000DF18B01384601224FF47A73FDF7FF
:1047E00039FA1B90204610210122FCF7D5F9284602
:1047F00010210022FCF7D0F9204610210022FCF7FE
:10480000CBF90120FCF7D6F87D208DF88B000DF157
:104810008B01384601224FF47A73FDF71BFA1A9088
:10482000204610210122FCF7B7F92846102100226A
:10483000FCF7B2F9204610210022FCF7ADF9012067
:10484000FCF7B8F887208DF88B000DF18B01384606
:1048500001224FF47A73FDF7FDF9199020461021DB
:104860000122FCF799F9284610210022FCF794F95F
:10487000204610210022FCF78FF90120FCF79AF85E
:1048800006208DF88B000DF18B01384601224FF484
:104890007A73FDF7DFF91890204610210122FCF70A
:1048A0007BF9284610210022FCF776F920461021DA
:1048B0000022FCF771F90120FCF77CF88A208DF8C2
:1048C0008B000DF18B01384601224FF47A73FDF70E
:1048D000C1F91790204610210122FCF75DF9284606
:1048E00010210022FCF758F9204610210022FCF785
:1048F00053F90120FCF75EF864260DF18B01384670
:1049000001224FF47A738DF88B60FDF7A3F91690AE
:10491000204610210122FCF73FF9284610210022F1
:10492000FCF73AF9204610210022FCF735F9012066
:10493000FCF740F88B208DF88B000DF18B01384689
:1049400001224FF47A73FDF785F915902046102166
:104950000122FCF721F9284610210022FCF71CF95E
:10496000204610210022FCF717F90120FCF722F85D
:1049700078208DF88B000DF18B01384601224FF421
:104980007A73FDF767F91490204610210122FCF795
:1049900003F9284610210022FCF7FEF820461021DA
:1049A0000022FCF7F9F80120FCF704F88C208DF8C0
:1049B0008B000DF18B01384601224FF47A73FDF71D
:1049C00049F91390204610210122FCF7E5F828460A
:1049D00010210022FCF7E0F8204610210022FCF70D
:1049E000DBF80120FBF7E6FF0DF18B0138460122D1
:1049F0004FF47A738DF88B60FDF72CF912902046F6
:104A000010210122FCF7C8F8284610210022FCF7EB
:104A1000C3F8204610210022FCF7BEF80120FBF766
:104A2000C9FFA0208DF88B000DF18B0138460122C3
:104A30004FF47A73FDF70EF91190204610210122F0
:104A4000FCF7AAF8284610210022FCF7A5F820461A
:104A500010210022FCF7A0F80120FBF7ABFF762025
:104A60008DF88B000DF18B01384601224FF47A73DB
:104A7000FDF7F0F81090204610210122FCF78CF889
:104A8000284610210022FCF787F82046102100223A
:104A9000FCF782F80120FBF78DFFA1208DF88B0039
:104AA0000DF18B01384601224FF47A73FDF7D2F8ED
:104AB0000F90204610210122FCF76EF828461021A5
:104AC0000022FCF769F8204610210022FCF764F868
:104AD0000120FBF76FFF0DF18B01384601224FF4E7
:104AE0007A738DF88B80FDF7B5F80E902046102173
:104AF0000122FCF751F8284610210022FCF74CF85F
:104B0000204610210022FCF747F80120FBF752FF56
:104B1000A2208DF88B000DF18B01384601224FF455
:104B20007A73FDF797F80D90204610210122FCF7CB
:104B300033F8284610210022FCF72EF820461021D9
:104B40000022FCF729F80120FBF734FF0DF18B015F
:104B5000384601224FF47A738DF88B80FDF77AF88E
:104B60000C90204610210122FCF716F8284610214F
:104B70000022FCF711F8204610210022FCF70CF867
:104B80000120FBF717FFA4208DF88B000DF18B019E
:104B9000384601224FF47A73FDF75CF80B902046FB
:104BA00010210122FBF7F8FF284610210022FBF715
:104BB000F3FF204610210022FBF7EEFF0120FBF758
:104BC000F9FEA8208DF88B000DF18B0138460122EB
:104BD0004FF47A73FDF73EF80A9020461021012227
:104BE000FBF7DAFF284610210022FBF7D5FF20460D
:104BF00010210022FBF7D0FF0120FBF7DBFE3F2056
:104C00008DF88B000DF18B01384601224FF47A7339
:104C1000FDF720F80990204610210122FBF7BCFF88
:104C2000284610210022FBF7B7FF20461021002262
:104C3000FBF7B2FF0120FBF7BDFEAD208DF88B0026
:104C40000DF18B01384601224FF47A73FDF702F81B
:104C50000890204610210122FBF79EFF28461021D4
:104C60000022FBF799FF204610210022FBF794FF5A
:104C70000120FBF79FFE8E208DF88B000DF18B013C
:104C8000384601224FF47A73FCF7E4FF0790204680
:104C900010210122FBF780FF284610210022FBF79C
:104CA0007BFF204610210022FBF776FF0120FBF757
:104CB00081FEB0208DF88B000DF18B01384601226A
:104CC0004FF47A73FCF7C6FF0690204610210122AC
:104CD000FBF762FF284610210022FBF75DFF20460C
:104CE00010210022FBF758FF0120FBF763FE0DF1B6
:104CF0008B01384601224FF47A738DF88B80FCF7D4
:104D0000A9FF0590204610210122FBF745FF284608
:104D100010210022FBF740FF204610210022FBF764
:104D20003BFF0120FBF746FEB1208DF88B000DF113
:104D30008B01384601224FF47A73FCF78BFF049005
:104D4000204610210122FBF727FF284610210022D0
:104D5000FBF722FF204610210022FBF71DFF012058
:104D6000FBF728FE31208DF88B000DF18B013846C2
:104D700001224FF47A73FCF76DFF03902046102157
:104D80000122FBF709FF284610210022FBF704FF50
:104D9000204610210022FBF7FFFE0120FBF70AFE50
:104DA000B3208DF88B000DF18B01384601224FF4B2
:104DB0007A73FCF74FFF0290204610210122FBF787
:104DC000EBFE284610210022FBF7E6FE20461021CC
:104DD0000022FBF7E1FE0120FBF7ECFDF0208DF84F
:104DE0008B000DF18B01384601224FF47A73FCF7EA
:104DF00031FF0190204610210122FBF7CDFE28460D
:104E000010210022FBF7C8FE204610210022FBF7EC
:104E1000C3FE0120FBF7CEFDBB208DF88B000DF10A
:104E20008B01384601224FF47A73FCF713FF009090
:104E3000204610210122FBF7AFFE28461021002258
:104E4000FBF7AAFE204610210022FBF7A5FE012059
:104E5000FBF7B0FD3A208DF88B000DF18B01384641
:104E600001224FF47A73FCF7F5FE834620461021A9
:104E70000122FBF791FE284610210022FBF78CFE51
:104E8000204610210022FBF787FE0120FBF792FD50
:104E9000BE208DF88B000DF18B01384601224FF4B6
:104EA0007A73FCF7D7FE0646204610210122FBF755
:104EB00073FE284610210022FBF76EFE20461021CB
:104EC0000022FBF769FE0120FBF774FD3E208DF800
:104ED0008B000DF18B01384601224FF47A73FCF7F9
:104EE000B9FE8046204610210122FBF755FE2846D8
:104EF00010210022FBF750FE204610210022FBF774
:104F00004BFE0120FBF756FD2E208DF88B000DF196
:104F10008B01384601224FF47A73FCF79BFE8146E1
:104F2000204610210122FBF737FE284610210022DF
:104F3000FBF732FE204610210022FBF72DFE012058
:104F4000FBF738FD4FF0AF0A0DF18B013846012217
:104F50004FF47A738DF88BA0FCF77CFE0746204651
:104F600010210122FBF718FEDDE91F100122084382
:104F70001E9908431D9908431C9908431B9908432F
:104F80001A9908431999084318990843179908432F
:104F9000169908431599084314990843139908432F
:104FA0001299084311990843109908430F9908432F
:104FB0000E9908430D9908430C9908430B9908432F
:104FC0000A9908430999084308990843079908432F
:104FD000069908430599084304990843039908432F
:104FE00002990843019908430099084340EA0B00DD
:104FF000304340EA080040EA09002199384340EA7A
:10500000010620460821FBF7C7FD1920FBF7D2FC5B
:1050100016B125A0FEF7E6FF284610210022FBF777
:10502000BBFD204610210022FBF7B6FD0120FBF757
:10503000C1FC43F66040C2F200000DF18B01012279
:105040004FF47A738DF88BA0FCF704FE05462046DA
:1050500010210122FBF7A0FD15B116A0FEF7C2FF3B
:105060006420FBF7A7FC17A0FEF7BCFF284623B07F
:10507000BDE8F08F0A2A20496E697469616C697A0B
:10508000696E67204F4C4544202A0A0A0000000040
:10509000454E41424C45434D44207772697465202A
:1050A0006261640A0000000042616420696E6974F4
:1050B0000A0000004F4E20777269746520626164B7
:1050C0000A0000000A2A204F4C454420696E69748A
:1050D00069616C697A6174696F6E20636F6D706C61
:1050E000657465202A0A0A00F1EE100A4FF6FF7176
:1050F000C0F2C03120EA010040F04070E1EE100A39
:1051000070470000000000000000010203040607D1
:105110000809000000000102030400061016000642
:105120001016000048510008000000201000000088
:10513000280200085851000810000020F822010041
:1051400048020008000000000100000010000000FC
:085150000024F400000000003F
:04000005080001C529
:00000001FF
