:020000040800F2
:10000000F0BA0120B5020008AD37000891370008AA
:10001000A9370008490E0008C15800080000000078
:10002000000000000000000000000000413A00084D
:10003000710E000800000000E9370008594A000866
:10004000CF020008CF020008CF020008CF0200084C
:10005000CF020008CF020008CF020008CF0200083C
:10006000CF020008CF020008CF020008CF0200082C
:10007000CF020008CF0200084D0E0008CF02000892
:10008000590E0008CF020008CF020008CF02000876
:10009000CF020008CF020008CF020008CF020008FC
:1000A000CF020008CF020008CF020008CF020008EC
:1000B000CF020008CF020008CF020008CF020008DC
:1000C000CF020008CF020008CF020008CF020008CC
:1000D000CF020008CF020008CF020008554E0008EA
:1000E000750E0008CF020008CF020008CF020008FA
:1000F000CF020008CF020008CF020008CF0200089C
:10010000CF020008CF020008CF020008CF0200088B
:10011000CF020008CF020008CF020008CF0200087B
:10012000CF020008CF020008CF020008650E0008C9
:10013000CF0200080000000000000000CF0200080D
:10014000CF020008CF020008CF020008CF0200084B
:10015000CF020008CF020008CF020008CF0200083B
:10016000CF020008CF020008CF020008CF0200082B
:10017000CF020008CF020008CF02000800000000F4
:1001800000000000CF020008000000000000000096
:10019000CF0200080000000000000000CF020008AD
:1001A000000000000000000000000000CF02000876
:1001B000CF020008CF020008CF020008CF020008DB
:1001C000CF02000800F002F800F065F814A696E8E7
:1001D000000CB244B344DA4501D100F05CF8BAE84F
:1001E0000F000FA696E83000A5EB040504EB060708
:1001F000AAEB0704A7F101074FEA15154FEA3414DB
:10020000A4F10104AC4201D300F045F813F0010F52
:1002100018BFFB1A43F0010300F001F8DBE71847B1
:1002200094940000B4940000103A24BF78C878C1B8
:10023000FAD8520724BF30C830C144BF04680C60EC
:1002400070470000704700000023002400250026AE
:10025000103A28BF78C1FBD8520728BF30C148BF29
:100260000B607047662909F08C80642900F00281D8
:10027000782900F03B81002070471FB509F06FF826
:1002800000F05CFC04000020002108F081FAE0602E
:100290001FBD10B510BD00F055FD1146FFF7EDFF75
:1002A00005F04EFD00F073FD03B4FFF7F2FF03BC51
:1002B00000F0B4FD0948804709480047FEE7FEE723
:1002C000FEE7FEE7FEE7FEE7FEE7FEE7FEE7FEE706
:1002D00004480549054A064B70470000094B0008D1
:1002E000C5010008F0B40120F0BA0120F0B60120E9
:1002F000F0B6012053EA020C00F069802DE9F04BC2
:100300004FF00006002B1FBFB3FA83F503FA05F484
:1003100024FA05F65E4012BF1643B2FA82F502FADD
:1003200005F4C5F120051EBF22FA05FC44EA0C04C1
:10033000203556EA044C4FEA144418BF641C4FF0B1
:1003400000084FF00009904271EB030C39D30029EB
:1003500019BFB1FA81F701FA07F6B0FA80F700FA8F
:1003600007F6C7F120071EBF20FA07FC46EA0C0675
:100370002037B6FBF4FCA7EB0507103F07F01F0B77
:10038000CBF120062CFA06F60CFA0BFB44BFB34661
:100390000026202FA4BF5E464FF0000B5BEA060C40
:1003A00008BF4FF0010B19EB0B0948EB0608ABFB3C
:1003B000027C06FB02CC0BFB03CCC01B71EB0C01D7
:1003C000C1E70B46024641464846BDE8F08B13B5EF
:1003D000084318BF4FF0FF300146AFF30080BDE87F
:1003E0001C4070470FB41CB5074B06AA7B446946F6
:1003F0000090059800F089FB0020694600F098FB0A
:100400001CBC5DF814FB0000410700002DE9F04121
:100410000E460446002020622046E168884730B33B
:10042000252805D0D4E901219047206A401CF2E735
:10043000E168204600278847050018D0A5F1410053
:10044000192802D820354FF4006732462946204645
:100450002760FFF707FF40B1012804D0F61D26F002
:1004600007060836D8E7361DD6E72846DAE7206AB9
:10047000BDE8F0812DE9F041064600241068752999
:10048000314616A510D0AFF30080002802DA4042B2
:1004900013A507E031688A0701D512A502E04907D4
:1004A00004D511A5012401E0AFF3008000210A2248
:1004B00006F1240709E0B0FBF2FCB0FBF2F302FB0B
:1004C0001C00303078541846491C0028F3D12346CC
:1004D0002A463046BDE8F04100F0AAB8000000000E
:1004E0002D0000002B0000002000000070B5044625
:1004F0000D4621461068AFF300802188090502D51A
:100500000F4A7A4402E00E4A7A440E32002104F186
:10051000240305E000F00F060009965D5E54491CB7
:100520000028F7D120780023000704D5702D02D0D1
:1005300009B1022311322046BDE8704000F078B8BE
:10054000808E000010B5431C02E010F8011B71B151
:100550008107FAD14FF0013202C88C1A8C4314EA99
:10056000C211F9D0C01A0A0603D0C01E10BDC01AAD
:1005700010BD0A0401D0801E10BD0902FCD0401E2F
:1005800010BD4FF000020429C0F0128010F0030CDF
:1005900000F01B80CCF1040CBCF1020F18BF00F876
:1005A000012BA8BF20F8022BA1EB0C0100F00DB825
:1005B0005FEAC17C24BF00F8012B00F8012B48BF83
:1005C00000F8012B70474FF0000200B51346944627
:1005D0009646203922BFA0E80C50A0E80C50B1F19B
:1005E0002001BFF4F7AF090728BFA0E80C5048BFAF
:1005F0000CC05DF804EB890028BF40F8042B08BF4D
:10060000704748BF20F8022B11F0804F18BF00F848
:10061000012B704770477047704710B500F092FA91
:10062000006810BD10B5044600F08CFA046010BDDF
:100630002DE9F0470D4699469246044600F12408FC
:100640000168880604D5E06921F01001216000E00E
:100650000120A84201DD471B00E00027A1697A19AB
:1006600002EB0900081AA0612078C00602D42046D7
:10067000AFF30080002608E0D4E901211AF8060053
:100680009047206A401C761C20624E45F4DB20789F
:10069000C0060AD52046AFF3008006E0D4E9012168
:1006A00030209047206A401C2062381EA7F10107C5
:1006B000F4DC07E0D4E9012118F805009047206A2E
:1006C000401C2062281EA5F10105F3DC2046AFF393
:1006D00000802078000602D50220BDE8F0870120C6
:1006E000FBE72DE9FF4F0C461E464FF0FF378BB05E
:1006F000D2E90001DDF860800A908A46C1F30A550C
:1007000005B93D46002108464FF00000BAF1000F40
:1007100000F4400005DA00EB80004FF4400101EAEC
:1007200050004FEA9059B9F1010F00DDB9460A981F
:1007300050EA4A000ED044F61050A5F2FF3545436A
:100740002F14B8F1000F1ED07542291E1EDDC9F10D
:1007500000021CE0B8F1010F4FF0000001D0302181
:1007600003E0F24305E02154401CB042FBDB30467D
:100770000022002121540B99C1F80880C1E9002012
:100780000FB0BDE8F08FBD1B6D1CDEE74A4600DAF6
:10079000694206A800F060FA06AB93E8070003ABD5
:1007A00083E8070050460A9906F0E2FD8DE807004D
:1007B000A0F500501F3800900398002D0ADD42F28A
:1007C0001F014A460844002303A90390684607F026
:1007D0004BF809E0A0F500504A461F38002303A952
:1007E0000390684607F055F88DE807000004000CF8
:1007F00003D04FF0FF30410800E01046B8F1000F81
:1008000003D00022009215461EE0751E05D400F0AC
:100810009DF9303262556D1EF9D5B3460122084369
:1008200002D000227F1C04E02078302801D1002271
:100830007F1E002A099784D01DE0112D07DA00F0F1
:1008400085F9303262556D1C50EA0102F5D108433A
:1008500002D00098C8B10EE00021681E05E0235CBC
:10086000625C63542254401E491C8142F7DBAB4654
:10087000A81B401E0990002004F80B000B98099A51
:10088000C0F80880C0E9002B7AE711264FF0000875
:1008900057E72DE9F04F88460446D21D22F00701A4
:1008A00091B0D1E90001CDE90A0107F029F902462A
:1008B0000B98C00F01D02D2007E02068810701D5DB
:1008C0002B2002E0202101EAC000032A099001D078
:1008D000072A05DB03464146204600F07DF90BE17F
:1008E0002078800601D5E06900E00620B8F1650FA8
:1008F000814606D0B8F1660F18D0B8F1670F70D1F5
:1009000031E00020B9F1110F009001DB112301E06B
:1009100009F101030AAA01A90CA8FFF7E2FEDDE92B
:100920000C70002609F10105834647E001204B4683
:1009300000904FF000470AAA01A90CA8FFF7D1FECA
:10094000DDE90DB00C995D46002610B909F10100F2
:100950000D18B9EB050003D4C0F1FF3609F101050C
:10096000A5EB09002BE0B9F1010F01DA4FF0010905
:100970000020B9F1110F0090484601DD112300E07D
:1009800003460AAA01A90CA8FFF7ABFEDDE90C702B
:100990004D4600268346207800070AD4AB4500DA8E
:1009A0005D4601A8012D04DD411911F8011C302913
:1009B00007D04F4502DA17F1040F04DA012082460E
:1009C0000FE06D1EEEE7002F02DCED1B3E4403E05E
:1009D000781CA84200DD7D1CB81B00F1010A4FF015
:1009E00000472078000703D4AA4501DB4FF0FF3A07
:1009F0000021B7F1004F0DF143088DF8431024D0CA
:100A000002202B23002F01DA7F422D230A21021E10
:100A1000A0F1010000DC5FB197FBF1FC97FBF1F264
:100A200001FB1C7C17460CF1300C08F801CDEEE7F9
:100A3000A8F1010003702188090501D5452100E0D6
:100A40006521A0F1010800F8011C09980FA9A1EB8C
:100A50000807FF1D00B10120411901EBEA70A169EF
:100A60003844081A401EA0612078C00602D42046EF
:100A7000AFF30080099828B1D4E901219047206A9A
:100A8000401C20622078C00622D52046AFF30080AB
:100A90001EE0002E04DBB34502DD01A8805D00E00E
:100AA0003020D4E901219047206A401C2062761C46
:100AB000AAF101005FEA000A0AD100F03FF8C0681D
:100AC0000168405CD4E901219047206A401C206203
:100AD000281EA5F10105DCDC07E0D4E9012118F8A6
:100AE000010B9047206A401C2062381EA7F10107C5
:100AF000F3DC2046AFF30080032011B041E6000094
:100B000001694A1C02610878704700B58FB0CDE9D1
:100B100001310021059105497944CDE903101146C1
:100B20006846FFF773FC0FB000BD0000E5FFFFFF54
:100B30000A6802F8010B0A6070470000004870471D
:100B400030000020004870471000002030B5B0F1A0
:100B50000A0271F100034FEA900E4EEA817EB0EB7B
:100B60000E0061EB91014FEA101E4EEA017E10EB80
:100B70000E0041EB11114FEA102E4EEA016E10EB00
:100B80000E0041EB11214FEA104E4EEA014E10EBE0
:100B90000E0041EB1141401841F100014FEAD00035
:100BA00040EA41704FEAD1014FEA810444EA90746F
:100BB00010EB800544EB01046D1944EB0404521B57
:100BC000A3414FF0000348BF0A3200D530BD401C9E
:100BD00041F1000130BD00002DE9F0411F460446FF
:100BE00003260168072A01F4006004DB08B116A59A
:100BF00005E016A503E008B115A500E015A521F054
:100C000010002060A069C01EA0610FB1401EA0614D
:100C10002046AFF300804FB1D4E901213846904718
:100C2000206A401C2062C01C206206E0206AFAE7AD
:100C3000D4E9012115F8010B9047761EF8D2204621
:100C4000AFF30080BDE8F0814E414E006E616E0052
:100C5000494E4600696E66002DE9F047814616460A
:100C60008AB0354878440DC88DE80D003248784484
:100C7000801C03AC0DC884E80D0041F69B3008448D
:100C8000372190FBF1F290FBF1F5A5F1800501FB16
:100C900012041B3C02D56442012000E00020DFF872
:100CA00098A080460027FA44AAF1BE0A0EE0E007A9
:100CB0000AD03246684607EB470101230AEB81015F
:100CC00006F0E7FD8DE8070064107F1C002CEED1D4
:100CD000194F7F44AE3F19E0E80715D007EB041029
:100CE0000DF1180A90E80E008AE80E00C068F04284
:100CF00001D1981908903246012306A903A806F0ED
:100D0000C8FD03AB83E807006D10641C002DE3D120
:100D10004FF0010332466946B8F1000F03A802D034
:100D200006F0A2FD01E006F0B4FDC9E90001C9F832
:100D300008200AB0BDE8F0878489000000487047A9
:100D4000100000207546FFF7F9FFAE460500694622
:100D5000534620F00700854618B020B5FFF7B8FAD3
:100D6000BDE820404FF000064FF000074FF00008AC
:100D70004FF0000BAC46ACE8C009ACE8C009ACE8E9
:100D8000C009ACE8C00921F007018D46704710B5D5
:100D90000446AFF300802046BDE81040FFF784BA58
:100DA00030B44FF0013C50F8042B51F8043BCCFA1E
:100DB00052F4D51A20D1FCB950F8042B51F8043B59
:100DC000CCFA52F4D51A17D1B4B950F8042B51F813
:100DD000043BCCFA52F4D51A0ED16CB950F8042B5E
:100DE00051F8043BCCFA52F4D51A05D1002CDAD0D4
:100DF00030BC4FF00000704729BAB1FA81F111F010
:100E00001801D1F120008440F2D1CA40CB4012F049
:100E1000FF0213F0FF0330BCD01A704701491820BD
:100E2000ABBEFEE7260002007047000031EE000A6C
:100E300071EEA00A704700009FED020AF0EE400A32
:100E4000704700BF00000000FEE700004DF668108C
:100E5000C2F2000000F084B84DF60810C2F20000A3
:100E600000F07EB84DF6A800C2F2000000F078B89D
:100E70007047000043F61440C4F20100006880048B
:100E800005D540F27000C2F200000121017080B56A
:100E90004FF4005000F060FA4FF40040BDE880408D
:100EA00000F05ABA72B600BFFEE7000070B5866D5A
:100EB000044600F033FB94F83510022928D105468A
:100EC0002068216C026822F016020260426922F05A
:100ED0008002426109B9A16C19B1016821F00801D1
:100EE0000160016821F00101016000BF2068006815
:100EF000C00715D000F012FB401B0628F6D32020B7
:100F00006065032084F83500002184F8341070BD3A
:100F1000802060650120002184F8341070BD00BF7E
:100F2000E06D3F2101FA00F0B060012084F8350047
:100F30000020002184F8341070BD000090F83510B6
:100F4000022909D1052180F835100068016821F0D7
:100F50000101016000207047802141650120704738
:100F6000F0B581B00021009140F20801C2F2000109
:100F70000B68D0E9166148F2B51537680822C1F64A
:100F80004E358A403A42A3FB05350CD003681C68F5
:100F9000640708D51C6824F004041C60B260426D2C
:100FA00042F00102426501228A403A4208D00368B9
:100FB0005B691B0604D5B260426D42F002024265D5
:100FC00004228A403A4208D003681B689B0704D574
:100FD000B260426D42F00402426510228A403A42F9
:100FE00019D001680B681B0715D5B2600B680A6839
:100FF0005B0309D4D20509D40A6822F008020A600A
:10100000016C29B907E000BF110341D4016C11B193
:10101000044688472046C26D202101FA02F33B4274
:1010200043D001680F68FF063FD5B36090F8357074
:101030000B68052F1CD123F016030B604B6923F0BE
:1010400080034B61036C0BB9836C1BB10B6823F0FD
:1010500008030B603F219140B160012180F83510F9
:10106000016D0022002980F8342054D158E000BFDF
:101070000A685B0310D4D20512D40A6822F0100269
:101080000A60012180F83510002180F8341007E053
:10109000816C0029BCD1BEE7110301D4416C00E092
:1010A000C16B11B1044688472046416DC1B3416D03
:1010B000C9072ED0052180F835100168AA0A0B68EF
:1010C00023F001030B60009B0133934200931AD875
:1010D0000B68DB0717D0009B01339342009312D8B3
:1010E0000B68DB070FD0009B0133934200930AD8B3
:1010F0000B68DB0707D0009B01339342009302D8B3
:101100000B68DB07DFD1012180F83510002180F862
:101110003410C16C21B101B0BDE8F040084700BFF8
:1011200001B0F0BD2DE9F041044600F0F7F9ECB153
:101130000546022084F835000020216884F8340038
:10114000086820F00100086021680868C00711D015
:1011500000F0E4F9401B0528F6D9032520230320DD
:10116000636584F83550BDE8F08100BF0120BDE81B
:10117000F08100BF086848F23F02CFF21002D4E9C4
:10118000013500EA020C04F10C0898E8C10143EAB9
:101190000C032B431843D4E9072E30433843104344
:1011A000626A40EA0E00042A40EA08031CD1206B60
:1011B000D4E90A2E40EA0E00184308604869BEF1DF
:1011C000000F20F0030040EA020040F0040C11D0B0
:1011D000B8F5005F36D0B8F1000F45D1022A46D0ED
:1011E000012A3BD032B942E00B60486920F0070089
:1011F00040EA020C01F0F8004AF6AB221038CAF6B9
:10120000AA22A0FB02231A0949F21C63C1F814C0E8
:10121000C0F600039A5C40F2FF335F284FF03F00B6
:1012200021EA030100FA02F088BF0431C4E9161272
:101230008860002301250020636584F83550BDE8EF
:10124000F08100BF032AD5D8012540230120DFE823
:1012500002F0030E030500BF82E700BFAEF1C070CD
:10126000B0FA80F0400904E0032A04D3C2D1CEF3DF
:1012700000600028BED0012540230120636584F86A
:101280003550BDE8F081000090F834C0BCF1010F8A
:1012900004BF0220704770B54FF0010C80F834C0D5
:1012A000D0F858E090F835C0BCF1010F38D14FF0BC
:1012B000020C80F835C04FF0000CC0F854C0D0F8D4
:1012C00000C08468056CC06DDCF80060402C26F41A
:1012D0008026CCF80060CCF804300B4604BF1346DF
:1012E0000A463F2101FA00F0CCF80830CCF80C2077
:1012F000CEF80800DCF8000040F01600CCF8000042
:101300002DB1DCF8000040F00800CCF80000DCF85B
:10131000000040F00100CCF80000002070BD00BFCC
:10132000002180F83410022070BD0000B0B50446E2
:1013300000F0F4F8054640F20000C2F20000007828
:10134000611C18BF044400BF00F0E8F8401BA04235
:10135000FAD3B0BD7047000043F61441C4F2010156
:101360000A68024214BF08607047FFF7F3BF00002D
:101370002DE9F04F83B000F1200200F13E4741F625
:101380000005009207F1FF77C4F2020507224FEA39
:10139000B726A84208BF062200254FF000084FF0EC
:1013A0000009062E38BF4FEAB72201920AE000BFBB
:1013B00009F1010908F10208B9F1100F05F104055E
:1013C00000F0A2800F68012202FA09FE17EA0E0A55
:1013D000EED0D1F804C003220CF003077E1E02FAFF
:1013E00008F4012E6FEA040B12D88468CE6804EA70
:1013F0000B0406FA08F634438460446824EA0E06B7
:10140000CCF3001404FA09F42643466004E000BF5C
:10141000032F01D103271EE0C6688C6806EA0B067D
:1014200004FA08F42643022FC66014D16FF00302B9
:10143000009E02EA590756F807C005F01C040F2267
:101440000B69A2402CEA0202A3401A43F251D1F8E0
:1014500004C00CF00307026807FA08F302EA0B0263
:101460001A431CF4403F0260A2D0002243F644031A
:101470000292C4F202031A6843F6004442F4804226
:101480001A601A68C4F2010402F480420292029ABD
:1014900029F003024FF6084C2244CFF6FF7C52F8A5
:1014A0000C3005F00C070F26BE40B343019E06FA30
:1014B00007F73B4342F80C30A2684B6842EA0A0740
:1014C00043F60C4CDE0258BF22EA0A07A760C4F2BA
:1014D000010CDCF800209E0242EA0A0758BF22EA0B
:1014E0000A07CCF8007062689E0342EA0A0758BFF8
:1014F00022EA0A0767602268DB0342EA0A0758BF4C
:1015000022EA0A07276053E703B0BDE8F08F000026
:10151000002A08BF09048161704700004BF2EC40CB
:10152000C2F201000068704740F200004BF2EC414B
:10153000C2F20000C2F2010100780A68104408609B
:101540007047000080B543F60040C4F20200016815
:1015500041F400710160016841F48061016001683B
:1015600041F480710160032000F086F8002000F053
:1015700005F800F027F8002080BD000070B540F2AB
:101580000006C2F2000640F208013278C2F2000101
:101590004FF47A730968B3FBF2F20446B1FBF2F13F
:1015A000084601F0ADFB0F2C4FF0010508D838B903
:1015B0004FF0FF3021460022002500F031F8746022
:1015C000284670BD82B0002043F640010190C4F26D
:1015D00002014A6842F480424A604A6802F480424A
:1015E0000192019A0090086840F0805008600868F5
:1015F00000F080500090009802B07047002848BF6B
:10160000704700F01F01012202FA01F11C2202EAD8
:10161000D0004EF20012CEF200028150704700005E
:1016200010B54EF60C5CCEF2000CDCF80030C3F3C3
:10163000022E8EF00704042C28BF0424BEF10303FD
:101640004FF0FF3E0EFA04F438BF0023A143994047
:101650000EFA03F39A43114300F00F0200F16043C6
:101660000901043A03F564436244002848BF02F1CB
:101670000C03197010BD00004EF60C51CEF20001A3
:101680000A684FF6FF031A4060F30A2242F08060B6
:1016900040F0FD700860704701220168C0F8D8244E
:1016A000002280F8CC24886940F000608861486D91
:1016B00040F0805040F0030200204A65704700006F
:1016C000002804BF01207047F0B581B004460568CA
:1016D00090F8950428B9002084F89404204600F07E
:1016E0002DF90320B5F1A04F84F8950404BF002024
:1016F000A071206803F028FF94E80F00267C009674
:1017000003F0AEFB002840F000812068002103F0C8
:1017100023FF002840F0F98094F804E0BEF1000FA8
:1017200000F0EC800EF0030CBEF1040F4FF000024D
:1017300040D30EF0FC03A4F190000321012500BF6B
:10174000CE1E80F8A460A0F8BE608E1E80F8C8602F
:10175000A0F8E2604E1E80F8EC60A0F8066180F808
:101760001011A0F82A110E1D013180F8A55080F843
:10177000A820C0E92B22C0F8B42080F8C95080F816
:10178000CC20C0E93422C0F8D82080F8ED5080F891
:10179000F020C0E93D22C0F8FC2080F8115180F80B
:1017A0001421C0E94622C0F82021903099423146E8
:1017B000C6D1F21EBCF1000F31D004F1140002EBCF
:1017C000C20100EB8105012300F821200021BCF1BA
:1017D000010F6B706A832971C5E9021129611ED05E
:1017E000551C05EBC50600EB8607BCF1020F7B70AC
:1017F00000F826507D833971C7E9021139610ED096
:10180000911C01EBC10200EB8203012500F82210BC
:1018100000205D7059831871C3E902001861BEF1A0
:10182000000F6BD0BEF1040F4FF0000236D30EF064
:10183000FC000321234600BFCF1E83F854728F1E85
:1018400083F878724F1E83F8C0120D1D013183F8A2
:10185000552283F85822C3E99722C3F8642283F8FB
:10186000792283F87C22C3E9A022C3F8882283F876
:101870009D2283F89C7283F8A022C3E9A922C3F8B1
:10188000AC2283F8C12283F8C422C3E9B222C3F890
:10189000D022903381422946CED1EA1EBCF1000FFE
:1018A0002CD004F5157002EBC20300EB8307002176
:1018B000BCF1010F797000F823203971C7E90211DA
:1018C00039611BD0531C03EBC30700EB8706BCF147
:1018D000020F717000F827303171C6E902113161D1
:1018E0000CD0911C01EBC10200EB820300275F705A
:1018F00000F822101F71C3E902771F6194E80F00FE
:10190000277C009703F0C6FB30B1022084F89504D1
:10191000012001B0F0BD00BF00206074012084F8F8
:101920009504207B012802D12046FFF7B5FE2068F0
:1019300003F0A0FB002001B0F0BD0000F0B59DB0A9
:10194000044600201C90CDE91A00CDE9180001A83A
:1019500004305821FEF737FE2068B0F1A04F01D0C7
:101960001DB0F0BD4FF48070019001A800F03EF86A
:10197000002818BFFFF796FA002743F630060097B5
:10198000C4F202063068002440F001003060306884
:10199000C4F2020400F00100009000984FF4E850F7
:1019A00018900220CDE9190703201B900A2018ADDA
:1019B0001C9020462946FFF7DBFC4FF40070CDE970
:1019C0001807204629461A97FFF7D2FC706840F0A6
:1019D000800070600097706940F4804070617069A9
:1019E00000F48040009000981DB0F0BD2DE9F04358
:1019F00081B00446006843F68C06C107C4F20206B3
:101A000004D14FF0000981070CD415E03168A26BB6
:101A100021F0C06111433160B2FA82F14FEA5119ED
:101A2000810709D53168E26B21F0C0511143316063
:101A3000002A08BF4FF00109410705D44FF0000804
:101A4000010712D420E000BF3168226B21F440115D
:101A500011433160B2FA82F14FEA5118B2F5801F9A
:101A600008BF4FF0010901070ED53168626B21F400
:101A700040011143B2F5800F316008BF4FF00109FA
:101A8000002A08BF4FF0010881065AD500200090B7
:101A900056F84C0C47F2000740F0805046F84C0CCA
:101AA00056F84C0CC4F2000700F0805000900098EB
:101AB000386840F480703860FFF730FD054600BF9D
:101AC0003868C00506D4FFF729FD401B0228F7D966
:101AD00090E100BF56F81C0C10F4407017D0216C38
:101AE00001F44071884212D056F81C0C40F6406157
:101AF000C4F24721012220F440700A6000220A60EB
:101B000046F81C0C56F81C0CC00740F07B8120687E
:101B1000216C56F8842C4FF6FF4701F4407322F4F1
:101B2000F812C0F6FF770F40B3F5407F08BF3A4385
:101B300046F8842C56F81C2C6FF31F31114346F8DD
:101B40001C1CC10610D4010619D441061FD4C105BE
:101B500025D4810530D4410536D4B9F1010F18BF21
:101B6000B0F5006F3CD062E094F8580040F6406158
:101B7000C4F24721C1F8A00320680106E5D5B16889
:101B8000E26C21F440011143B1604106DFD5B16838
:101B9000A26C21F080611143B160C105D9D5B16853
:101BA000626D21F000611143B160B2F1006F08BFB6
:101BB0004FF001088105CED5B168626C21F08051EB
:101BC0001143B1604105C8D5B268216D22F00052C1
:101BD0000A43B0F5006FB26018BFB1F1005F23D1C6
:101BE00040F26809C4F247290020C9F80000FFF755
:101BF00095FC054656F88C0C000105D5FFF78EFCC8
:101C0000401B0228F6D9F5E02068C10702D0A16B7D
:101C100000296FD0810702D5E16B00296AD0410706
:101C200000F17D807FE000BFB9F1010FD8D0B8F19D
:101C3000000F4FF0000000F0DE806827C4F2472755
:101C4000B860FFF76BFC054656F88C0C800005D594
:101C5000FFF764FC401B0228F6D9CBE0206841075F
:101C600001D5216B19B101071AD5616BC1B956F8BD
:101C7000041CD4E9062301F44031656A114341EAAA
:101C8000831141EA0561D4F82CC046F8041C316880
:101C90006FF0FF0221F4F85102EB0C221143316086
:101CA000C00516D5606DB0F1006F12D156F8040C66
:101CB000226AD4E9061300F07060D2034FF6FF7574
:101CC000AA430843A2F5803240EA8310104346F845
:101CD000040C0120B860FFF721FC044656F88C0C78
:101CE000800000F18B80FFF719FC001B0328F5D35F
:101CF00080E000BF56F8081C56F8082CD4E90135DE
:101D000001F4403102F0706219436769114341EAFE
:101D1000851141EA077146F8081C410703D5216B7C
:101D2000B1F5801F05D001071FD5616BB1F5800F9C
:101D30001BD156F8081C56F8082CD4E9013701F4D9
:101D4000403102F0E04219432569114341EA87110D
:101D500041EA0561D4F828C046F8081C3168ACF1A6
:101D6000010221F01F011143316041051FD5216D92
:101D7000B1F1005F1BD1271D56F808CC56F8082C8E
:101D8000A8CFFF034FF6FF7127EA01014FF0C067AC
:101D900002F0E04207EA4C2707F100771A433A4382
:101DA000A1F5803142EA8512114346F8081C00056E
:101DB00010D5271D8FCF40EA8110D1034FF6FF7257
:101DC0009143A1F5803140EA0360084340EA07707F
:101DD00046F8080C0120C9F80000FFF79FFB0546F4
:101DE00056F88C0C00013FF522AFFFF797FB401B24
:101DF0000228F5D9032001B0BDE8F083002001B02E
:101E0000BDE8F083FFF78AFB054641F2883700BF43
:101E100056F81C0C80073FF57AAEFFF77FFB401B9E
:101E2000B8424FF00300F3D9E5E70000002804BFF3
:101E3000012070472DE9F04143F60808C4F202087A
:101E40000446D8F8F8030D4600F00F00814207D988
:101E500088F8F853D8F8F80300F00F00A84277D1BB
:101E60002068810717D5410705D5D8F8001041F43F
:101E7000E051C8F80010010705D5D8F8001041F46A
:101E80006041C8F80010D8F80010A26821F0F001F5
:101E90001143C8F80010C00740D1D8F8F80300F08B
:101EA0000F00854207D288F8F853D8F8F80300F0FD
:101EB0000F00A8424CD12068410707D5D8F8001080
:101EC000E26821F4E0511143C8F80010000708D57A
:101ED000D8F80000216920F4604040EAC100C8F849
:101EE000000000F07DF8D8F8001049F20462C1F358
:101EF0000311C0F60002515C40F2080220FA01F121
:101F000040F20400C2F200000068C2F20002116058
:101F1000FFF734FB0020BDE8F08100BF6068811E40
:101F2000022907D258F8081C89015CBF0120BDE8CE
:101F3000F08111E0012807D158F8081C89035CBF23
:101F40000120BDE8F08107E058F8081C890703D498
:101F50000120BDE8F08100BFD8F8001021F0030196
:101F60000843C8F80000FFF7D9FA064641F288375F
:101F7000D8F80000616800F00C00B0EB810F8CD045
:101F8000FFF7CCFA801BB842F2D90320BDE8F081FC
:101F900040F2080043F60801C2F20000C4F2020158
:101FA0000068096849F21462C1F38221C0F6000298
:101FB000515CC8407047000040F2080043F6080139
:101FC000C2F20000C4F202010068096849F214621A
:101FD000C1F34231C0F60002515CC84070470000B6
:101FE00010B543F60404C4F202046068C0F3810132
:101FF00042F20040C0F2F400DFE801F042020818AB
:1020000041F20020C0F27A0010BD00BF216801F04B
:102010003F02216823684902C3F3881116D4A1FB4B
:1020200000010023FEF766F917E000BF216801F008
:102030003F02216823684902C3F3881114D4A1FB2D
:1020400000010023FEF756F915E000BF41F2002021
:10205000C0F27A004843B0FBF2F021680222C1F3DB
:10206000014102EB410109E041F20020C0F27A0097
:102070004843B0FBF2F02168C1F30271B0FBF1F00C
:1020800010BD0000002804BF012070472DE9F04179
:1020900082B00446007843F60006C007C4F2020688
:1020A0000CD0B06800F00C00042840F08980306843
:1020B000800303D56068002800F0508120788007F5
:1020C00023D5B06810F00C0F11D0B06800F00C00F0
:1020D000082802D17068400209D5B06800F00C00F1
:1020E0000C2840F09F807068400200F19B803068AF
:1020F000800703D5E068012840F03081306821690D
:1021000020F0F80040EAC10030602078000713D4C6
:10211000207840072AD4A569002D00F01A81B06804
:1021200000F00C00082840F0AB80012D40F0E88062
:10213000012002B0BDE8F0816069002840F2000093
:10214000C4F2472000F088800121C0F8801EFFF70C
:10215000E5F90546706F8007DAD4FFF7DFF9401B19
:102160000228F7D9032002B0BDE8F081306C5FEAA5
:10217000C0080AD400200190306C40F080503064D8
:10218000306C00F080500190019847F20007C4F2D3
:1021900000073868C00537D4386840F4807038606C
:1021A000FFF7BCF9054600BF3868C0052CD4FFF71F
:1021B000B5F9401B0228F7D9032002B0BDE8F08131
:1021C000B06800F00C00082803D1706840023FF5A9
:1021D0006EAFB06800F00C000C2803D170684002AC
:1021E0003FF565AF61683068B1F5803F07D0B1F564
:1021F000A02F40F0CB8040F480203060306840F465
:1022000080303060CBE000BFA168306F012905D07D
:10221000052957D140F004003067306F40F00100CD
:10222000306759E0E068002800F09C800020C4F28C
:10223000472001210160FFF771F9054630688007EA
:102240003FF55CAFFFF76AF9401B02284FF003002F
:10225000F4D902B0BDE8F0810021C0F8801EFFF77C
:102260005DF90546706F80077FF552AFFFF756F9AD
:10227000401B0228F6D9032002B0BDE8F08100BF60
:102280000027C4F2472700203866FFF747F9022DE0
:1022900005460BD13068800140F19280FFF73EF98E
:1022A000401B02284FF00300F4D9D2E730688001C8
:1022B0004FD5FFF733F9401B02284FF00300F5D943
:1022C000C7E700BF20F001003067306F002920F021
:1022D0000400306700F09880FFF720F9054641F2CE
:1022E000883700BF306F800700F1A080FFF716F934
:1022F000401BB842F6D9032002B0BDE8F08100BF10
:102300007068E16900F480028A4227D1216A00F0F6
:102310003F028A4222D147F6C071626A0140B1EBA6
:10232000821F1BD1A16A4FF6FF73C903994300F4C2
:102330004032A1F580318A4210D1E16A00F070622A
:10234000B2EB016F0AD1216B00F0E040B0EB017FEE
:1023500004D1002002B0BDE8F08100BF012002B02E
:10236000BDE8F0810020C4F2472000210160FFF7A2
:10237000D5F80546306880077FF5C7AEFFF7CEF881
:10238000401B02284FF00300F4D962E720F48030AC
:1023900030603068002920F48020306050D0FFF792
:1023A000BDF80546306880033FF588AEFFF7B6F804
:1023B000401B6428F6D9032002B0BDE8F08100BFBD
:1023C00004F11C052FCD246B084340EA8210D90389
:1023D0004FF6FF729143A1F5803140EA0560084352
:1023E00040EA0470706001203866FFF797F80446F1
:1023F00030688001ADD4FFF791F8001B02284FF040
:102400000300F5D925E700BFFFF788F8054641F23C
:10241000883700BF306F800708D5FFF77FF8401B73
:10242000B8424FF00300F5D913E700BFB8F1000F31
:102430003FF571AE306C20F0805030646BE600BF29
:10244000FFF76CF8054600BF306880037FF536AEB5
:10245000FFF764F8401B64284FF00300F4D9F8E656
:102460007047000090F851007047000070B528B127
:10247000416A29B100210161142106E0012070BDEB
:102480004168B1F5827F02D01C2100224250002613
:10249000866290F8511029B980F85060054600F026
:1024A0003DF82846022180F8511090E82E0002F4F1
:1024B00082720C6803F4044324F040040C601A4454
:1024C00005F4006305691A4405F0020345691A44DE
:1024D00005F001038569C4691A4405F400731A44C0
:1024E00004F03803046A1A4404F08003846A1A432F
:1024F00004F400531A430A60436A042202EA1542B4
:1025000003F010031A444A60CA6922F40062CA61E7
:102510000121466580F85110304670BDF0B587B096
:102520000446006843F60041C4F2000100268842D8
:10253000CDE90566CDE90366029649D043F2000174
:10254000C4F20101884240F08B8043F630000196CE
:10255000C4F202004169032741F48051416141699D
:1025600001F48051019101990196016841F0010146
:102570000160006802A900F0010001900198E020CC
:1025800002900220CDE90306052006900020C4F247
:1025900002000597FEF7ECFE46F28800C4F2020046
:1025A0004DF6A80500F57470C2F200054FF0C06149
:1025B00040224FF4806385E847000420C5E90436D3
:1025C000C5E90666C5E90860C5E90A762E633EE0FE
:1025D00043F630000196C4F20200016941F4004163
:1025E0000161016901F400410191019901960168BD
:1025F00041F004010160006802A900F004000190AC
:1026000001984FF4E05002900220CDE90306032028
:102610000590062006900020C4F2020000F500603C
:10262000FEF7A6FE4DF6081546F28800C2F2000538
:10263000C4F2020040214FF48062C5E90006C5E9FA
:102640000216C5E90426C5E90666C5E908662846F6
:10265000FEF768FD002818BFFEF724FCA564AC63F4
:1026600007B0F0BD2DE9F04184B01D4616460F4677
:102670000446FEF753FF94F8511001290ED180460D
:10268000002F4FF0010018BF002E03D104B0BDE8A9
:10269000F08100BF94F85000012803D1022004B05B
:1026A000BDE8F081012084F850000320002184F867
:1026B000510061652763A686E686A163A187E1874D
:1026C000A0682164B0F5004F2068616407D10168FB
:1026D00021F040010160016841F48041016001681E
:1026E000490603D4016841F0400101606168731E2E
:1026F000E268B1FA81F1B3FA83F349095B09B2F5F3
:10270000006F41EA030139D131B137F8021BC160D2
:102710002763E08E0138E086E08E002870D0681CC8
:102720000BD11AE0216B31F8022BC2602163E08EDD
:102730000138E086E08E002862D020688168890731
:10274000F0D4FEF7EBFEA0EB0800A842F2D338E08D
:10275000FEF7E4FEE08E002852D0206881688907E9
:10276000F6D5216B31F8022BC2602163E08E01386F
:10277000E086E08E0028F0D142E000BF39B1397820
:102780000173206B01302063E08E0138E086E08E1B
:10279000B0B3681C0BD123E0216B09780173206B67
:1027A00001302063E08E0138E086E08E40B320687F
:1027B00081688907F0D4FEF7B1FEA0EB0800A842BB
:1027C000F3D3012084F85100002084F85000032046
:1027D00004B0BDE8F08100BFFEF7A0FEE08E78B146
:1027E000206881688907F7D5216B09780173206B10
:1027F00001302063E08E0138E086E08E0028EFD1C2
:102800002046022101222B46CDF8008001F088F8F5
:10281000E0B1606D40F02000606520206065A06838
:1028200038B9002002902068C16802918068029047
:102830000298012084F85100002084F85000606D57
:10284000002818BF012004B0BDE8F08140F2080064
:10285000C2F20000006849F68171C1F25E61A0FB1E
:102860000101480D4FF47A71484303906068B0F558
:10287000827F0BD12046802100222B46CDF800809C
:1028800001F04EF80028C4D1C9E700BF0398002822
:10289000C5D0039801380390206881680906BED529
:1028A00003990029BBD00399013903918168090676
:1028B000B5D503990029B2D00399013903918168F4
:1028C0000906ACD503990029A9D0039901390391D0
:1028D00080680006DAD4A2E72DE9F04383B01E46F3
:1028E00015460F460446FEF719FE94F8511081462E
:1028F000012909D1002F4FF0010018BF002D0FD181
:1029000003B0BDE8F08300BF6068B0F5827F0DD1F1
:1029100004294FF00200F3D1A1680029EAD0EFE7C3
:10292000002EEDD094F85000012803D1022003B00E
:10293000BDE8F083012084F8500094F85100002194
:1029400004281CBF052084F851006165A563E68753
:10295000A6872763E6862068A686216461640168ED
:10296000490603D4016841F0400101606168731EAB
:10297000E268B1FA81F1B3FA83F3DDF828804909FE
:102980005B09B2F5006F41EA030165D131B137F857
:10299000021BC1602763E08E0138E086012518F133
:1029A000010032D102E000BFFEF7B8FDE08E18B999
:1029B000E08F002800F0B8802068816889070CD576
:1029C000E18E51B1012D08D1216B002531F8022B88
:1029D000C2602163E18E0139E1868168C907E3D0D5
:1029E000E18F0029E0D0C068A16B012521F8020B1E
:1029F000A163E08F0138E087D6E700BFFEF78EFDC8
:102A0000A0EB0900404580F0A580E08E18B9E08F6A
:102A1000002800F089802068816889070CD5E18E44
:102A200051B1012D08D1216B002531F8022BC26074
:102A30002163E18E0139E1868168C907DED0E18F2B
:102A40000029DBD0C068A16B012521F8020BA1632E
:102A5000E08F0138E087D1E739B139780173206B15
:102A600001302063E08E0138E086012518F1010075
:102A700032D101E0FEF752FDE08E10B9E08F002860
:102A800052D02068816889070ED5E18E61B1012D91
:102A90000AD1216B002509780173216B206801316F
:102AA0002163E18E0139E1868168C907E2D0E18FB7
:102AB0000029DFD0C068A16B01250870A06B013030
:102AC000A063E08F0138E087D4E700BFFEF726FD62
:102AD000A0EB090040453DD2E08E08B9E08F18B365
:102AE0002068816889070ED5E18E61B1012D0AD178
:102AF000216B002509780173216B20680131216366
:102B0000E18E0139E1868168C907DFD0E18F0029B4
:102B1000DCD0C068A16B01250870A06B0130A063F8
:102B2000E08F0138E087D1E72046022101224346A9
:102B3000CDF8009000F0F4FEB0B1606D40F02000E0
:102B4000606520206065002084F85000012003B0FB
:102B5000BDE8F083012084F85100002084F8500083
:102B6000032003B0BDE8F08340F20800C2F2000089
:102B7000006849F68171C1F25E61A0FB0101480D58
:102B80004FF47A71484302906068B0F5827F0BD1B0
:102B90002046802100224346CDF8009000F0C0FE80
:102BA0000028CAD121E000BF0298F0B10298013894
:102BB000029020688168090617D50299A9B1029987
:102BC00001390291816809060FD5029969B102990C
:102BD000013902918168090607D5029929B1029944
:102BE0000139029180680006DED4A06838B900205F
:102BF00001902068C16801918068019001980120CE
:102C000084F85100002084F85000606D002818BF3F
:102C1000012003B0BDE8F08390F85130012B0BD1B7
:102C200000294FF0010318BF002A01D11846704750
:102C300090F85030012B03D102231846704700BF93
:102C400010B5012380F85030032380F85130002361
:102C5000436501638286C2868363C0E9103383873C
:102C6000C38784680268B4F5004F07D1146824F064
:102C700040041460146844F480441460D0F848C0E0
:102C800043F60D0E43F61504C0F6000EC0F6000420
:102C9000CCE90F4E43F2ED74C0F60004CCE91343C7
:102CA000C38E04460C326046FEF7EEFA60B1606DEA
:102CB000012340F010006065002084F85000BDE85A
:102CC00010401846704700BF20680168490603D4C9
:102CD000016841F040010160002384F850304168F0
:102CE00041F020014160416841F002014160BDE8CE
:102CF0001040184670470000704700007047000001
:102D0000411E0020B0EB116F1CBF012070474EF236
:102D10001002CEF2000251604EF62351CEF20001B5
:102D2000F0230B70072190601160704790F83C20F1
:102D3000012A4FF0020254D010B580F83D200268FD
:102D4000D2F804E0D2F808C00C682EF070032343D8
:102D500041F2FF74C4F20004A24253600EDC40F260
:102D6000FF73C4F200039A4216DCB2F1804F2BD0FD
:102D700040F20043C4F2000324E000BF40F2FF33FE
:102D8000C4F201039A4213DC41F60003C4F20003CB
:102D90009A4219D0002313E040F60003C4F2000366
:102DA0009A4211D040F60043C4F200030AE000BF8B
:102DB00044F20003C4F201039A4205D040F20043FA
:102DC000C4F201039A4204D149682CF080031943EC
:102DD00091600121002280F83D1080F83C20BDE880
:102DE0001040104670470000002804BF01207047C3
:102DF00010B5044690F83D0028B9002084F83C0046
:102E0000204600F01FF8022084F83D002068211DB4
:102E100001F084FE012084F8460084F83E0084F826
:102E20003F0084F8400084F8410084F8420084F8B0
:102E3000430084F8440084F8450084F83D000020F5
:102E400010BD0000006841F20001C4F20001884298
:102E500018BF704781B00020009043F64000C4F2D4
:102E60000200016841F010010160006800F01000EC
:102E70000090009801B0704790F83D1001291CBFE8
:102E800001207047022180F83D10006841F2FF7177
:102E9000C4F2000188420DDC40F2FF71C4F200016F
:102EA000884215DCB0F1804F2AD040F20041C4F2D4
:102EB000000123E040F2FF31C4F20101884213DC3B
:102EC00041F60001C4F20001884219D0002113E04C
:102ED00040F60001C4F20001884211D040F60041E2
:102EE000C4F200010AE000BF44F20001C4F2010193
:102EF000884205D040F20041C4F20101884206D167
:102F0000816801F00701062904BF002070470168AD
:102F100041F0010101600020704700000146006897
:102F200041F21113026A1A4204D00122002081F8F2
:102F30003D207047026A40F244431A42F5D10268CC
:102F400022F0010202600122002081F83D2070473A
:102F50007047000070470000B0B582B001680A6891
:102F6000CC684B6902F02F05202D04F0200505D117
:102F700025B102B0BDE8B04001F078BE5FEA027C46
:102F80001EBF03F0010E04F4907313EB0E0341D146
:102F9000036BD50618D5012B16D114F0100313D0EE
:102FA000002201920A6801924A680192019A4969D5
:102FB00049064BD4818DC28DC38D002B18BF914221
:102FC00040F0F48102B0B0BD13062DD514F080039B
:102FD0002AD090F84120212AF4D18268B2F5805F8E
:102FE00003D10269002A00F06782026A531C03625F
:102FF00012784A60C28C013A1304C284E2D1C868D4
:1030000020F08000C860C86840F04000C86002B08E
:10301000B0BD00BFD30718BF14F4807340F0D08058
:10302000530700F1D380D8E05206CBD514F040020C
:10303000C8D0CA6822F04002CA60202180F841103E
:1030400002B0BDE8B04000F0A1BB00BFC16B0A6890
:10305000526893B2002BB5D0858DAB42B2D2C285F7
:10306000C969B1F5807F00F0A080016851E8031FB5
:10307000026821F4807142E80313DBB1016851E872
:10308000031F026821F4807142E8031393B10168C1
:1030900051E8031F026821F4807142E803134BB129
:1030A000016851E8031F026821F4807142E80313AC
:1030B000002BDAD1016851E8051F026821F00101F7
:1030C00042E80513BBB3016851E8051F026821F00F
:1030D000010142E8051373B3016851E8051F026856
:1030E00021F0010142E805132BB3016851E8051FE7
:1030F000026821F0010142E80513002BDAD11AE041
:10310000016851E8051F026821F0400142E80513FB
:10311000DBB1016851E8051F026821F0400142E877
:10312000051393B1016851E8051F026821F04001C1
:1031300042E805134BB1016851E8051F026821F010
:10314000400142E80513002BDAD1202180F842101B
:1031500000210163016851E8031F026821F010019A
:1031600042E80313DBB1016851E8031F026821F054
:10317000100142E8031393B1016851E8031F02688C
:1031800021F0100142E803134BB1016851E8031F1D
:10319000026821F0100142E80313002BDAD1C16B61
:1031A00004460846FDF782FE204602214163818DD8
:1031B000C28D891A89B202B0BDE8B040FFF7C8BE1F
:1031C000436C43F001034364530706D5BEF1000F7F
:1031D00003D0436C43F002034364930706D5BEF16A
:1031E000000F03D0436C43F004034364BCF1000FB1
:1031F00006D55EEA050303D0436C43F0080343643D
:10320000436C002B3FF4DEAE920605D525B1044693
:1032100001F02CFD216820464969426C01F0400113
:1032200002F00802891800F0B98000BF016851E877
:10323000031F026821F4907142E80313BBB30168D5
:1032400051E8031F026821F4907142E8031373B33D
:10325000016851E8031F026821F4907142E80313EA
:103260002BB3016851E8031F026821F4907142E812
:103270000313002BDAD11AE0016851E8051F026838
:1032800021F0010142E80513DBB1016851E8051F97
:10329000026821F0010142E8051393B1016851E889
:1032A000051F026821F0010142E805134BB10168D6
:1032B00051E8051F026821F0010142E80513002BC7
:1032C000DAD1016B012924D1016851E8031F02689A
:1032D00021F0100142E80313DBB1016851E8031F3C
:1032E000026821F0100142E8031393B1016851E82C
:1032F000031F026821F0100142E803134BB101687B
:1033000051E8031F026821F0100142E80313002B6B
:10331000DAD1202180F84210002101630168496957
:10332000490640F1C380016851E8051F026821F099
:10333000400142E80513DBB1016851E8051F02684E
:1033400021F0400142E8051393B1016851E8051FDF
:10335000026821F0400142E805134BB1016851E8D1
:10336000051F026821F0400142E80513002BDAD165
:10337000C16B002900F09A8044F66142C0F6000259
:10338000044608460A65FDF7D9FD00283FF41AAE49
:10339000E06B016D02B0BDE8B04008470446FFF79E
:1033A000D9FD0020606402B0B0BD00BF891A00BF23
:1033B000026852E8032F036822F4907243E8032561
:1033C000BDB3026852E8032F036822F4907243E809
:1033D000032575B3026852E8032F036822F4907244
:1033E00043E803252DB3026852E8032F036822F453
:1033F000907243E80325002DDAD11AE0026852E802
:10340000052F036822F0010243E80525DDB10268BB
:1034100052E8052F036822F0010243E8052595B123
:10342000026852E8052F036822F0010243E80525EF
:103430004DB1026852E8052F036822F0010243E80B
:103440000525002DDAD1202280F8422000220263D7
:10345000026852E8032F036822F0100243E80325B4
:10346000DDB1026852E8032F036822F0100243E83E
:10347000032595B1026852E8032F036822F0100279
:1034800043E803254DB1026852E8032F036822F098
:10349000100243E80325002DDAD1022289B24263EB
:1034A00002B0BDE8B040FFF753BD00BF02B0BDE8B9
:1034B000B040FFF74FBD00BF026A32F8023B6FF326
:1034C0005F234B60026295E5002804BF012070472E
:1034D00010B5044690F8410028B9002084F8400057
:1034E000204600F021F8242084F841002068C168BB
:1034F00021F40051C160204601F038FC20680169C8
:1035000021F490410161416921F02A014161C168C2
:1035100041F40051C16000202021606484F8411012
:1035200084F84210606310BDF0B587B0044644F6DD
:1035300000002168C4F20000002681420696CDE911
:1035400004660396029601D007B0F0BD43F6300141
:103550000196C4F202010A69032742F480220A613B
:103560000A6900F5E23002F480220192019A019684
:103570000A6842F008020A60096801F00801019136
:1035800001994FF4407102910221CDE90316072100
:10359000069102A90597FDF7EBFE4DF6681546F278
:1035A0005800C2F20005C4F202004FF00061402250
:1035B00085E8470004204FF48063C5E90860284689
:1035C000C5E90436C5E90666C5E90A762E63FDF746
:1035D000A9FD002818BFFDF765FC27200021002267
:1035E000A563AC63FEF71CF82720FEF707F807B0C9
:1035F000F0BD0000704700002DE9F04381B00446A3
:1036000090F84100202809D100294FF0010018BF8F
:10361000002A07D101B0BDE8F08300BF022001B04D
:10362000BDE8F0830020606421201D460E4684F82A
:1036300041001746FDF772FFA784E784A168814621
:10364000B1F5805F02D1206900285DD037460020A7
:10365000E28C2168002A5DD06A1C24D0002D4AD05B
:10366000804600BF0868000608D4FDF757FFA0EBAE
:103670000900A8427AD82168C868F3E717B117F89B
:10368000010B04E038F8020B00276FF35F2048605D
:10369000E08C0138E084E08C0028E3D13AE000BF00
:1036A0000A68120609D40A68120606D40A681206C5
:1036B0005CBF0A685FEA0262F2D51FB117F8012BFE
:1036C00005E000BF30F8022B00276FF35F224A604D
:1036D000E28C013AE284E28C002AE4D11AE000BFD5
:1036E00030F8022B00276FF35F224A60E28C013A28
:1036F000E284E28C72B10A68120635D5002FEFD051
:1037000017F8012BF1E700BF00273046E28C216853
:10371000002AA1D1086840061ED42DB3681C14D11C
:10372000086840062AD40868400627D4086840067E
:1037300024D4086840064FF00000F1D50DE000BF2A
:103740002068C1680068400618D4FDF7E7FEA0EBCA
:103750000900A842F4D909E00020202184F8411092
:1037600001B0BDE8F08300BFFDF7D8FE03202021A3
:1037700084F8411001B0BDE8F08300BF0020202193
:1037800084F8411001B0BDE8F083000070470000EC
:10379000FEE7000020EE000A20EEA01A30EE010A3B
:1037A000B1EEC00A70470000FEE70000FEE700002F
:1037B00020EE001A20EEA02A31EE021AB1EEC12A44
:1037C000B5EE401AF1EE10FA80EE023A80EE822A4F
:1037D000DFED040AB0EE600A1CBFB0EE430AF0EE63
:1037E000420A70470000000070470000806B0168CB
:1037F0004A6822F003024A60416D41F010014165C0
:10380000012180F85110FEF72BBE0000806BFFF7FE
:1038100075BA0000B0B584B0846B0546FDF77EFE36
:1038200029680968C90531D4054620680122416824
:10383000642321F020014160416821F002014160D0
:1038400020460221009500F06BF828B3606D40F02F
:1038500020006065606D40F020006065A06838B9A8
:10386000002002902068C16802918068029002984E
:103870000020E086012084F85100606D30B12046C0
:1038800004B0BDE8B040FEF7EBBD00BF204604B079
:10389000BDE8B040FFF730BA40F20800C2F20000C5
:1038A000006849F68171C1F25E61A0FB0101480D1B
:1038B0004FF47A71484303906068B0F5827F09D174
:1038C0002046802100226423009500F029F800287A
:1038D000BCD1C3E703980028C0D0039801380390F7
:1038E000206881680906B9D503990029B6D00399E3
:1038F0000139039181680906B0D503990029ADD03B
:1039000003990139039181680906A7D50399002914
:10391000A4D003990139039180680006DAD49DE7A9
:103920002DE9F04381B0089C984615460E46814625
:10393000FDF7F4FD201A00EB0804FDF7EFFD40F25F
:103940000801C2F200010968C1F3CB316143009163
:10395000D9F800108A683240921BB2FA82F25209FA
:1039600095423DD0074618F1010031D0FDF7D6FD54
:10397000C01BA04238D2009800990028A1F1010193
:103980000091D9F80010896808BF044601EA0600D2
:10399000801BB0FA80F040098542E7D120E000BFEB
:1039A00088683040801BB0FA80F04009854217D00B
:1039B00088683040801BB0FA80F0400985420FD003
:1039C00088683040801BB0FA80F04009854207D0FB
:1039D00088683040801BB0FA80F040098542DFD112
:1039E000002001B0BDE8F083D9E900014268B1F5DB
:1039F000827F22F0E00242600BD1D9F80810B1F5C5
:103A0000004F02D0B1F5806F03D1016821F0400171
:103A10000160D9F82810B1F5005F07D1016821F4E1
:103A200000510160016841F400510160012089F8F2
:103A30005100002089F85000032001B0BDE8F08358
:103A40007047000020EE010A60EE810A7047000016
:103A50002DE9F04F4FF680310020CFF6FF714FF087
:103A6000180C4FF0190E4FF01A084FF01B094FF0C9
:103A70001C0A4FF01D0B1E261F274DF2803200231B
:103A800040F2A804C2F200040C440125C4F8AC546E
:103A90000225C4F8D0540325C4F8F4540425C4F80E
:103AA00018550525C4F83C550625C4F8605507256A
:103AB000C4F884550825C4F8A8550925C4F8CC5580
:103AC0000A25C4F8F0550B25C4F814560C25C4F883
:103AD00038560D25C4F85C560E25C4F880560F25BF
:103AE000C4F8A4561025C4F8C8561125C4F8EC56DD
:103AF0001225C4F810571325C4F834571425C4F8F8
:103B000058571525C4F87C571625C4F8A057172513
:103B1000C4F8C45704F5FC6585E8091004F5076589
:103B200001F59061C4F88434C4F8A834C4F8CC34E6
:103B3000C4F8F034C4F81435C4F83835C4F85C352A
:103B4000C4F88035C4F8A435C4F8C835C4F8EC35D9
:103B5000C4F81036C4F83436C4F85836C4F87C3685
:103B6000C4F8A036C4F8C436C4F8E836C4F80C3734
:103B7000C4F83037C4F85437C4F87837C4F89C37E1
:103B8000C4F8C037C4F80838C4F82C38C4F8503822
:103B900085E80904C4F89838C4F8BC38C4F8E0389B
:103BA000914203F10103C4F88004C4F88804C4F806
:103BB000A404C4F8C804C4F8EC04C4F81005C4F89C
:103BC0003405C4F85805C4F87C05C4F8A005C4F849
:103BD000C405C4F8E805C4F80C06C4F83006C4F8F7
:103BE0005406C4F87806C4F89C06C4F8C006C4F8A5
:103BF000E406C4F80807C4F82C07C4F85007C4F852
:103C00007407C4F89807C4F8BC07C4F80408C4F8DB
:103C10000CE8C4F82808C4F83088C4F84C08C4F884
:103C20005498C4F89408C4F89CB8C4F8B808C4F808
:103C3000C068C4F8DC08C4F8E4787FF421AFBDE8BC
:103C4000F08F00002DE9F04F81B02DED0C8B82B08C
:103C500040F2A000C2F2000090EC020A9FEDA81A08
:103C6000FFF7F0FE40F2A803C2F200039FEDA58A21
:103C70009FEDA59AA3F58960A3F25C464FF0000B77
:103C80001C46002501900FE00198009D40F2A8031A
:103C900004F5906400F5906006F59066302DC2F250
:103CA0000003019000F0268105EBC500C1015958C1
:103CB00003EBC01005F1010C02290746CDF800C046
:103CC00004D0002908BFC7E905BB71E095B1691EA2
:103CD00001EBC101CA019A58022A11D103EBC111AB
:103CE00091ED05AA4FF002082F2DB0EE48BA0FD182
:103CF0001EE000BF4FF00108B0EE48AA08E000BF88
:103D00004FF00108B0EE48AA2F2DB0EE48BA0FD000
:103D10000CEBCC01CA019A58022A07D103EBC1115E
:103D200091ED05BA08F1010802E000BFB0EE48BA13
:103D300050F8241F022906BF90ED06CA08F10108B9
:103D4000B0EE48CA97ED050AD7ED060AFFF722FD47
:103D50003BEE4A1A31EE0C1A31EE000A01EE108ADF
:103D600020EE090AB8EE411A80EE010A97ED062A04
:103D7000B5EE40CA97ED051AF1EE10FAB0EE404AE2
:103D8000B1EE403A08BFB0EE434A32EE042AB0EE3C
:103D9000CA3AB0EECB4AB4EE443AF1EE10FA87EDEF
:103DA000062ACCBF31EE000A31EE400A87ED050A43
:103DB0001F274FF0000808E0002808BFC9E90EBB24
:103DC000013F08F124083FF45FAF04EB0809D9F87C
:103DD00024000228F0D1DDB156F80800022825D1D0
:103DE00001984FF0020A404490ED00AA2F2DB0EE4A
:103DF00048BA23D006EB0800D0F80009022811D1F8
:103E000009F5976090ED00BA0AF1010A16E000BFCB
:103E10004FF0010AB0EE48AA06EB0800D0F80009FE
:103E20000228EDD0B0EE48BA08E000BF4FF0010A1A
:103E3000B0EE48AA2F2DB0EE48BADBD106EB080051
:103E4000D0F85C04022806BF99ED06CA0AF1010AFF
:103E5000B0EE48CAB8F5876F02D1B0EE48DA09E093
:103E6000D9F84800022806BF99ED18DA0AF1010ACC
:103E7000B0EE48DA99ED0E0AD9ED0F0AFFF78AFC89
:103E80003AEE0C1A3BEE411A31EE0D1A31EE000AF1
:103E900001EE10AA20EE090AB8EE411A80EE010ADE
:103EA000B0EECD2AB0EECC3A99ED0F4AB4EE432AEB
:103EB00099ED0E1AF1EE10FAB0EECA3AB1EE405A90
:103EC000C8BFB0EE405A34EE052AB0EECB4AB4EE8D
:103ED000443AF1EE10FA89ED0F2AD4BF31EE400AD0
:103EE00031EE000A89ED0E0A013F08F124087FF443
:103EF0006CAFC9E602B0BDEC0C8B01B0BDE8F08F31
:103F0000ABAA2A3E000000009A99D93F00000000A9
:103F10002DE9F04F81B02DED0A8B86B041F2DC0027
:103F20009FED770BC2F2010000F1080451EC100B79
:103F3000CDE902109FED740B9FED75AADDF80CB072
:103F400040F2DC5651EC100BBDEE008AB3EE0F9A36
:103F50004FF00008CDE9001007E000BF08F10108AC
:103F6000013E04F11C0400F0C38041F2DC01C8EB07
:103F7000C80014ED02CAC2F2010101EB800014ED89
:103F800001BA04901CEE100A059605F077F9009E20
:103F90000B46B5EE40CA3146F1EE10FA029FB8BFAB
:103FA0003946DDF804A002465046B8BF584604F032
:103FB00043FC8146B5EE40BA1BEE100A0D46F1EE09
:103FC00010FABCBF3E46DA4605F058F902460B46E9
:103FD0005046314604F030FC06460F464846294616
:103FE00004F02EFE05463046394604F029FE2F2DFA
:103FF0004FF0000188BF01211F284FF00002B5EEED
:1040000040CA88BF0122F1EE10FA0BDA94ED000AE3
:104010000023B5EE400A44F8083CF1EE10FA2346BE
:1040200013DB14E0B4EE4ACAF1EE10FA0FDD94EDA2
:10403000000A0023B5EE400AF1EE10FAC4F23C2368
:1040400044F8083C03DD049B083300271F60B5EEED
:1040500040BAF1EE10FA0BDA94ED010A0023B5EE46
:10406000400AF1EE10FA44F8043C16DA231D12E07F
:10407000B4EE49BAF1EE10FA0FDD94ED010A002317
:10408000B5EE400AF1EE10FAC4F2F81344F8043C1D
:1040900003DD049B0C3300271F60059E11437FF452
:1040A0005DAF40F2A80205EBC501C2F2000202EBCF
:1040B000C11100EBC00001EB8000006801287FF413
:1040C0004DAF94EC020AB0EE481AFFF7BBFC14EDBA
:1040D000012AB0EE401A14ED020AF0EE601AF0EE7A
:1040E000420AFCF7A3FE04ED020A44ED010A35E79B
:1040F00006B0BDEC0A8B01B0BDE8F08F00BF00BF79
:10410000000000000000E0BF000000000000E03FF1
:1041100000003C42000000002DE9F04F81B02DED81
:104120000E8B84B04FF6803040F2A807CFF6FF70B8
:10413000C2F2000700214DF2803200BF3B1800F5AB
:1041400090609042C3F89014C3F89C14C3F8A01474
:10415000C3F8B414C3F8C014C3F8C414C3F8D81413
:10416000C3F8E414C3F8E814C3F8FC14C3F8081542
:10417000C3F80C15C3F82015C3F82C15C3F8301577
:10418000C3F84415C3F85015C3F85415C3F868159F
:10419000C3F87415C3F87815C3F88C15C3F89815CF
:1041A000C3F89C15C3F8B015C3F8BC15C3F8C01507
:1041B000C3F8D415C3F8E015C3F8E415C3F8F8152F
:1041C000C3F80416C3F80816C3F81C16C3F828165B
:1041D000C3F82C16C3F84016C3F84C16C3F8501693
:1041E000C3F86416C3F87016C3F87416C3F88816BB
:1041F000C3F89416C3F89816C3F8AC16C3F8B816EB
:10420000C3F8BC16C3F8D016C3F8DC16C3F8E01622
:10421000C3F8F416C3F80017C3F80417C3F8181747
:10422000C3F82417C3F82817C3F83C17C3F8481776
:10423000C3F84C17C3F86017C3F86C17C3F87017AE
:10424000C3F88417C3F89017C3F89417C3F8A817D6
:10425000C3F8B417C3F8B817C3F8CC17C3F8D81706
:10426000C3F8DC17C3F8F017C3F8FC17C3F800183D
:10427000C3F81418C3F82018C3F82418C3F8381862
:10428000C3F84418C3F84818C3F85C18C3F8681892
:10429000C3F86C18C3F88018C3F88C18C3F89018CA
:1042A000C3F8A418C3F8B018C3F8B418C3F8C818F2
:1042B000C3F8D418C3F8D818C3F8EC18C3F8F81822
:1042C000C3F8FC187FF43AAF9FEDDD0B51EC100BF7
:1042D0009FEDDD0BCDE9011058EC10BB00210AE089
:1042E0001831009A0A600262039940F2DC500231F0
:1042F000814200F0FD800391C1EBC10041F2DC017D
:10430000C2F2010101EB800191ED008A0020886179
:1043100091ED019A18EE100A009104F0AFFF0246E9
:104320000B46B5EE408A41465846F1EE10FA019F21
:10433000B8BF3946029CB8BF204604F07DFAB5EEFE
:10434000409A46460546F1EE10FAB8BF3E465F4633
:1043500019EE100A8946B8BF274604F08FFF0246BF
:104360000B463846314604F067FA82460F46284627
:10437000494604F065FC06465046394604F060FCA8
:104380002F2E4FF000014FF0000288BF01211F289F
:1043900088BF0122114340F2A80206EBC601C2F217
:1043A000000202EBC11100EBC00001EB80010846E6
:1043B00018BF002019D151F81C2F51F80C3C03F103
:1043C000010341F80C3C6AB1936911464BB19A69FB
:1043D000194632B1936911461BB19A691946002AF0
:1043E000F2D11831009A0A600262039841F2DC01AE
:1043F00040F00100C0EBC000C2F2010101EB8001FE
:1044000091ED008A0020886191ED019A18EE100A62
:10441000009104F033FF02460B46B5EE408A414658
:104420005846F1EE10FA019FB8BF3946029CB8BF5A
:10443000204604F001FAB5EE409A46460546F1EEF4
:1044400010FAB8BF3E465F4619EE100A8946B8BF5B
:10445000274604F013FF02460B463846314604F067
:10446000EBF982460F462846494604F0E9FB06462A
:104470005046394604F0E4FB2F2E4FF0000188BF70
:1044800001211F284FF0000288BF0122114340F292
:10449000A80706EBC601C2F2000707EBC11100EB4B
:1044A000C00001EB8001084618BF00207FF41CAF5C
:1044B00051F81C2F51F80C3C002A03F1010341F87C
:1044C0000C3C3FF40EAF00BF93691146002B3FF444
:1044D00007AF9A691946002A3FF402AF9369114663
:1044E000002B3FF4FDAE9A691946002AECD1F7E69D
:1044F0000020BFEE008AB0EE02DAB7EE08EA08E06C
:10450000029840F2A80701303028C2F2000700F0FC
:104510008D80029000EBC000002407EBC0100390D8
:1045200003E000BF0134202CEAD0039904EBC4005F
:1045300001EB800001690229F4DBD0F81CA001E046
:10454000D5F800A0BAF1000FECD0554655F8189FE9
:10455000B9F1000FE6D09AEC020AB0EE481AFFF764
:1045600071FA99ED012AB0EE401A99ED000AF0EEC9
:10457000601AF0EE420AFCF759FCB0EE409AB0EE39
:1045800060AAFFF707F920EE001AB4EE4D1AF1EE1B
:1045900010FAD5DCB5EE401AF1EE10FAD0D03EEEAE
:1045A000401A11EE100AB0EE40BA04F067FE5A4607
:1045B000434604F09FFB06461BEE100A0F4604F02C
:1045C0005DFE02460B463046394604F0DDF904F044
:1045D00001F901EE100AB0EE490AF0EE4A0AFFF7BF
:1045E00031FAB0EE481AB0EE409AB0EE60AAFFF78A
:1045F00029FA99ED011AB0EE40BA99ED000AB0EE31
:1046000060CAF0EE410AB0EE491AF0EE4A1AFCF721
:104610000DFC89EC020A9AEC020AB0EE4B1AF0EE9D
:104620004C1AFCF703FC8AEC020A89E704B0BDECE3
:104630000E8B01B0BDE8F04FFFF76ABC00BF00BFB2
:10464000000000000000E0BF000000000000E03FAC
:104650002DE9F04F81B02DED0A8BFFF7F9F941F20A
:10466000DC00C2F20100A0F11C0700244FF07D59CC
:1046700046F22D4A4FF0170BB6EE00AAB2EE08BA7A
:1046800048F68905B3EE05CA40F2DC5607F11C086E
:10469000FCF7D2FBB0EE408AB0EE609AFCF7CCFBA0
:1046A000022087ED078A87ED089A87ED090AC7ED92
:1046B0000A0AC7E90B09FCF7BFFB87ED070AC7ED3C
:1046C000080AFCF7B9FBA0B200FB0AF1A4EB114207
:1046D00092B2520802EB114168430909C00C01FB78
:1046E0001B41A0EB0010204489B280B287ED090A7B
:1046F00000EE101A01EE100AB8EE400AB8EE411AA8
:1047000020EE0A0A21EE0A1A30EE0B0A31EE0C1ADC
:104710000134C7ED0A0A87ED070A87ED081AB4428B
:104720004746B3D1FFF7F8FC40F2A0000021C2F2E7
:104730000000CCF2A0010022C0E90021BDEC0A8BF0
:1047400001B0BDE8F08F00002DE9F04381B02DED00
:10475000068B40F2A000C2F200009FED438A90EC6D
:10476000020AB0EE481AFFF76DF941F2DC00C2F21E
:104770000100B0EE409AB0EE60AAA0F11C0540F234
:10478000DC5400BF95ED090AD5ED0A0AB0EE491ACE
:10479000F0EE4A1A05F11C06FCF748FB95ED082AD5
:1047A00085ED090A20EE081A95ED070AC5ED0A0AFB
:1047B00060EE881AF0EE420AFCF738FB85ED070A36
:1047C000C5ED080A013C3546DCD1FFF7A1FBFFF738
:1047D000A3FC012000F04CF8FFF734FA40F2A808DF
:1047E0004FF00009C2F20008B7EE009A05E000BFE2
:1047F00009F10109B9F1300F30D009EBC9000026E9
:1048000008EBC01703E000BF0136202EF0D006EB06
:10481000C60007EB800528690128F5DB2968022915
:10482000F2D1EC69002CEFD000EE100AB8EE400A8D
:1048300089EE008A95ED050AD5ED060AB0EE481A14
:10484000FFF700F994ED020AD4ED030AB0EE481A1E
:10485000FFF7F8F8A469002CECD1D5E7BDEC068B86
:1048600001B0BDE8F08300BFABAA2A3E0000000003
:104870002DE9F04F81B02DED048B84B0002800F0BD
:104880009B8040F2A8050024C2F200054FF000080A
:10489000002700BFE859EE19022808BFEC51FCF7C9
:1048A000CBFA2437B7F5906F86ED050AC6ED060AF8
:1048B0003461EFD108F10108B8F1300F05F59065CA
:1048C000E6D141F2DC009FED600BC2F2010000F185
:1048D000080551EC100BCDE902109FED5D0BDDF8E2
:1048E0000CA040F2DC5851EC100BCDE9001005E0B3
:1048F000B8F1010805F11C0500F09E8015ED028A53
:1049000015ED019A18EE100A04F0B8FC009E0B4653
:10491000B5EE408A3146F1EE10FA029FB8BF394633
:10492000DDF804B002465846B8BF504603F084FF95
:104930000446B5EE409A19EE100A8946F1EE10FAD7
:10494000BCBF3E46D34604F099FC02460B4658468F
:10495000314603F071FF06460F462046494604F0F3
:104960006FF904463046394604F06AF92F2C98BF97
:104970001F28BDD840F2A80204EBC401C2F2000215
:1049800002EBC11100EBC00001EB8004206921683B
:1049900001300029206104BF0220206094ED050A47
:1049A000D4ED060A95EC021AFCF740FA84ED050AEC
:1049B000C4ED060A9CE700BF40F2A8084FF00009CA
:1049C000C2F20008B7EE009A03E000BFB9F1300F61
:1049D00032D009EBC90009F10109002608EBC01724
:1049E00003E000BF0136202EF0D006EBC60007EB37
:1049F000800420690128F5DB21680229F2D1E569EC
:104A0000002DEFD000EE100AB8EE400A89EE008AC1
:104A100094ED050AD4ED060AB0EE481AFFF712F835
:104A200095ED020AD5ED030AB0EE481AFFF70AF831
:104A3000AD69002DECD1D5E704B0BDEC048B01B01D
:104A4000BDE8F08F00BF00BF000000000000E0BF25
:104A5000000000000000E03FFCF766BD70B594B0B8
:104A600007AC20463421FBF7AEFD002543F640009D
:104A70000695CDE90455CDE902550195C4F2020031
:104A80000168022641F080510160006800F080500A
:104A90000190019847F200000195C4F200000168FE
:104AA00041F440410160006800F4404001900198E9
:104AB000012007904FF4A02008904FF480000E9042
:104AC00004200F90A820CDE910060720CDE912069A
:104AD00020460D96FDF7D6FA10B172B6FEE700BF7C
:104AE0000F20CDE902064FF4A05005904FF48050FE
:104AF000069002A805210495FDF798F910B172B649
:104B0000FEE700BF14B070BD4EF68850CEF2000034
:104B1000016841F4700101607047000010B540F673
:104B2000FF3E0368C4F2000E40F2004C7045C4F230
:104B3000010C25DCB0F1804F2FD040F20042C4F2CE
:104B40000002904229D040F60002C4F200029042D6
:104B500023D041F6FF72C4F20002904227DC704578
:104B60003ADCB0F1804F5BD040F20042C4F2000268
:104B7000904255D040F60002C4F200024EE000BF61
:104B800040F60042C4F20002904206D0604504D0D4
:104B90000022C4F201029042DBD14A6823F0700384
:104BA000134341F6FF72C4F200029042D7DD43F690
:104BB000FF72C4F20102904220DC42F20002C4F211
:104BC000000290422CD00022C4F20102904227D071
:104BD000604525D028E000BF40F60042C4F2000244
:104BE00090421DD041F60002C4F20002904217D05C
:104BF00041F60042C4F2000210E000BF44F200029D
:104C0000C4F2010290420BD044F60002C4F2010249
:104C1000904205D044F20042C4F20102904203D116
:104C2000CA6823F44073134323F080024B69D1F820
:104C300000E08C681A430260C46240F48062C0F8ED
:104C400028E0624504BF09690163012141610169EE
:104C5000C90708BF10BD016921F00101016110BD44
:104C6000806B0021C185C184FEF774B981B090F8D2
:104C70004210222921D183680246B3F5805F09D111
:104C800052F8281F52F8183C002B63D003685B6869
:104C90000AE000BF52F8281F13B90369002BF5D0B2
:104CA00003685B6803F07F030B70116801311160CA
:104CB000C18D01390A04C18502D001B0704700BF1F
:104CC0000168CA6822F02002CA60CA6822F48072B1
:104CD000CA604A6922F001024A61202180F842102C
:104CE00000214163026B012A3CD10163016851E854
:104CF000031F026821F0100142E80313DBB10168D1
:104D000051E8031F026821F0100142E8031393B138
:104D1000016851E8031F026821F0100142E8031303
:104D20004BB1016851E8031F026821F0100142E80D
:104D30000313002BDAD101680A68D20606D50022D7
:104D400000920A680092496800910099818D01B033
:104D5000FEF7FEB8026852686FF35F2221F8022B5B
:104D60008162A5E701B0FEF745BC0000B0B504467E
:104D7000006804F108030ECB0569194325F440557A
:104D80002A4302616269E3691143C268194349F227
:104D90000C639A431143C1604169A26921F44071D7
:104DA00041F20043114340F48062C4F201039A428D
:104DB000416103D1FDF700F902E000BFFDF7E8F81B
:104DC000E1694FF69C7563681922C0F6FF75B1F56D
:104DD000004FA0FB02011FD15A00DB0FFBF78AFA3C
:104DE00048F21F51C5F2EB11A0FB01235A0905F14E
:104DF000805302FB0300322303EBC000A0FB010140
:104E00004FF4F87000EA111000EB0210C1F34211E8
:104E1000084421688860B0BD9A009B0FFBF76AFACE
:104E200048F21F51C5F2EB11A0FB01235A0902FB06
:104E30000500322303EB0010A0FB0101F02000EA83
:104E4000511000EB0210C1F343110844216888603F
:104E5000B0BD00004DF6A470C2F20000FEF77CB8B1
:104E600082B002F47F42B2F5807F40F07F80826B97
:104E70004FF6BF7322F480328263C268CFF6BD73EF
:104E80001A40C260029BC268DBB222F44012012BBE
:104E9000C26003D1C26842F48012C2600022009254
:104EA000009A01320092009AB2F1706F00F2BE8057
:104EB0000269002A21D4009A01320092009AB2F1CC
:104EC000706F00F2B3800269002A16D4009A013292
:104ED0000092009AB2F1706F00F2A8800269002A75
:104EE0000BD4009A01320092009AB2F1706F00F276
:104EF0009D800269B2F1FF3FD2DC0022009202697C
:104F000042F001020261009A01320092009AB2F16D
:104F1000706F00F28B800269D2071ED0009A0132B6
:104F20000092009AB2F1706F00F280800269D2079D
:104F300013D0009A01320092009AB2F1706F75D8C6
:104F40000269D20709D0009A01320092009AB2F1A8
:104F5000706F6BD80269D207D5D14FF0000C01F405
:104F60007F01B1F5803F40F0818077E0C26842F078
:104F70004002C26000220192019A01320192019A1C
:104F8000B2F1706F5AD80269002A1ED4019A013218
:104F90000192019AB2F1706F50D80269002A14D4BC
:104FA000019A01320192019AB2F1706F46D80269FA
:104FB000002A0AD4019A01320192019AB2F1706F6B
:104FC0003CD80269B2F1FF3FD6DC002201920269AF
:104FD00042F001020261019A01320192019AB2F19A
:104FE000706F2BD80269D2071DD0019A013201924D
:104FF000019AB2F1706F21D80269D20713D0019AD9
:1050000001320192019AB2F1706F17D80269D2078A
:1050100009D0019A01320192019AB2F1706F0DD854
:105020000269D207D7D14FF0000C09E04FF0030C12
:1050300001F47F01B1F5803F18D10FE04FF0030C70
:10504000826B13F47F4F14BF22F4803242F480321B
:10505000826301F47F01B1F5803F07D1816841F09F
:1050600006018160816841F020018160604602B0E4
:10507000704700000146D0F8000E20F00300C1F890
:10508000000ED1F8040840F002020020C1F8042804
:10509000704700002DE9F04F86B0C3F30745164670
:1050A0008E460021C0F80411C0F80811C0F80C1198
:1050B000C0F81011C0F81411C0F81811C0F81C1174
:1050C000C0F82011C0F82411C0F82811C0F82C1124
:1050D000C0F83011C0F83411C0F83811C0F83C11D4
:1050E00025B100F138014FF400120FE0D0F8041898
:1050F000802241F00201C0F80418816B21F40011F4
:105100008163016841F04001016001460B681A4368
:105110000A6006F47F420021B2F5807FC0F8001ECD
:1051200008D1D0F80028B1EB1E6F09D1C0F80028D3
:105130000AE000BFD0F8001841F0030102E000BF10
:1051400042F00101C0F800180021049104990131D6
:1051500004910499B1F1706F52D8016900291ED4ED
:105160000499013104910499B1F1706F48D8016933
:10517000002914D40499013104910499B1F1706F9C
:105180003ED8016900290AD4049901310491049997
:10519000B1F1706F34D80169B1F1FF3FD6DC002165
:1051A00004914FF4846101610499013104910499DF
:1051B000B1F1706F24D8016989061DD504990131B8
:1051C00004910499B1F1706F1AD80169890613D559
:1051D0000499013104910499B1F1706F10D80169FB
:1051E000890609D50499013104910499B1F1706FD0
:1051F00006D801698906D7D44FF0000A02E000BF43
:105200004FF0010A00210591059901310591059999
:10521000B1F1706F4ED8016900291ED40599013192
:1052200005910599B1F1706F44D80169002914D432
:105230000599013105910599B1F1706F3AD801696D
:1052400000290AD40599013105910599B1F1706FD2
:1052500030D80169B1F1FF3FD6DC00210591102162
:1052600001610599013105910599B1F1706F21D85E
:105270000169C90620D50599013105910599B1F15A
:10528000706F17D80169C90616D5059901310591C6
:105290000599B1F1706F0DD80169C9060CD5059952
:1052A000013105910599B1F1706F03D80169C90603
:1052B000D7D401E04FF0010A5FFA8EF94FF00008F1
:1052C000B9F1000FC0F81088C0F81488C0F81C8825
:1052D00000F00D81CDF80CA0CDE9015ED0F80019E9
:1052E0004FF0006404EA11114FF67F35B9F1010B5C
:1052F000C0F80019C0F81089C0F8085974D0A9F195
:10530000020103290BF0030A04D20121BAF1000FB4
:1053100040D169E000962BF0030700F518660023E2
:105320004FF0904C4FF67F324FF0000E56F8601C55
:105330000EF1040E0CEAE17146F8601C46F8503C90
:1053400046F8582C56F8401C77450CEAE17146F8AF
:10535000401C46F8303C46F8382C56F8201C0CEA25
:10536000E17146F8201C46F8103C46F8182C3168CC
:105370000CEAE17131603361B26006F18006D5D18B
:10538000009E0EF101014FF67F354FF00064BAF137
:10539000000F29D000F510634F01B446DE594FF0DD
:1053A000904202EAE67603EB4111DE5166460027A1
:1053B0004FF67F33BAF1010F0F618B6014D00E6A84
:1053C000BAF1020F02EAE67266460A620F638B6266
:1053D0000AD00A6C4FF0904303EAE2720A6400229A
:1053E0000A654FF67F328A64D0F8001BBBF1000FCC
:1053F00004EA1111C0F8001B4FF00001C0F8101BA7
:10540000C0F8085BDDE9015EDDF80CA06FD0A9F102
:10541000020103290BF0030C04D20121BCF1000F9F
:105420003BD164E0A94600962BF0030500F53866F1
:1054300000234FF090474FF67F32002156F8604C22
:10544000043107EAE47446F8604C46F8503C46F8EC
:10545000582C56F8404C8D4207EAE47446F8404C0C
:1054600046F8303C46F8382C56F8204C07EAE474ED
:1054700046F8204C46F8103C46F8182C346807EAE9
:10548000E47434603361B26006F18006D6D1009EC8
:1054900001314D46BCF1000F29D000F530634F01BA
:1054A0003446DE594FF0904202EAE67603EB4111B2
:1054B000DE51264600274FF67F33BCF1010F0F6106
:1054C0008B6014D00E6ABCF1020F02EAE672264627
:1054D0000A620F638B620AD00A6C4FF0904303EAB2
:1054E000E2720A6400220A654FF67F328A64D0F8BD
:1054F00010181EF47F0F21F48071C0F810186FF09F
:105500008041C0F81880416103D1816941F01001E8
:105510008161816943F60002C8F23C02114316F42E
:105520007F0F816103D0816941F008018161012D04
:1055300005D1816941F0804141F00401816150460B
:1055400006B0BDE8F08F00000146806820F001023F
:1055500000208A6070470000B0B50446C06800298A
:1055600020F0C040E06000F09980012940F0B08058
:10557000E0680A2540F00050E0600A20FBF7D6FE04
:1055800054F8140FC00740F09C800A20FBF7CEFEB1
:105590002068C00740F09E800A20FBF7C7FE206805
:1055A000C00740F0A5800A20FBF7C0FE2068C007B6
:1055B00040F0AC800A20FBF7B9FE2068C00740F03D
:1055C000B3800A20FBF7B2FE2068C00740F0BA8023
:1055D0000A20FBF7ABFE2068C00740F0C1800A201C
:1055E000FBF7A4FE2068C00740F0C8800A20FBF744
:1055F0009DFE2068C00740F0CF800A20FBF796FE92
:105600002068C00740F0D6800A20FBF78FFE206894
:10561000C00740F0DD800A20FBF788FE2068C00745
:1056200040F0E4800A20FBF781FE2068C00740F0CC
:10563000EB800A20FBF77AFE2068C00740F0F2807A
:105640000A20FBF773FE2068C00740F0F9800A20AB
:10565000FBF76CFE2068C00740F000810A20FBF7D2
:1056600065FE2068C00740F007810A20FBF75EFE58
:105670002068C00740F00E810A20FBF757FE206823
:10568000C00740F016810A20FBF750FE2068C825AD
:10569000A5F1C800B0FA80F04009B0BDE0680A2565
:1056A00040F08040E0600A20FBF740FE54F8140F01
:1056B000C00706D00A20FBF739FE2068C00711D1C9
:1056C0001425A5F1C800B0FA80F04009B0BD00BFB4
:1056D0000120B0BD1425A5F1C800B0FA80F0400942
:1056E000B0BD00BF0A20FBF721FE2068C00707D12C
:1056F0001E25A5F1C800B0FA80F04009B0BD00BF7A
:105700000A20FBF713FE2068C00707D12825A5F162
:10571000C800B0FA80F04009B0BD00BF0A20FBF716
:1057200005FE2068C00707D13225A5F1C800B0FAF0
:1057300080F04009B0BD00BF0A20FBF7F7FD2068EC
:10574000C00707D13C25A5F1C800B0FA80F0400998
:10575000B0BD00BF0A20FBF7E9FD2068C00707D1F4
:105760004625A5F1C800B0FA80F04009B0BD00BFE1
:105770000A20FBF7DBFD2068C00707D15025A5F103
:10578000C800B0FA80F04009B0BD00BF0A20FBF7A6
:10579000CDFD2068C00707D15A25A5F1C800B0FA91
:1057A00080F04009B0BD00BF0A20FBF7BFFD2068B4
:1057B000C00707D16425A5F1C800B0FA80F0400900
:1057C000B0BD00BF0A20FBF7B1FD2068C00707D1BC
:1057D0006E25A5F1C800B0FA80F04009B0BD00BF49
:1057E0000A20FBF7A3FD2068C00707D17825A5F1A3
:1057F000C800B0FA80F04009B0BD00BF0A20FBF736
:1058000095FD2068C00707D18225A5F1C800B0FA30
:1058100080F04009B0BD00BF0A20FBF787FD20687B
:10582000C00707D18C25A5F1C800B0FA80F0400967
:10583000B0BD00BF0A20FBF779FD2068C00707D183
:105840009625A5F1C800B0FA80F04009B0BD00BFB0
:105850000A20FBF76BFD2068C00707D1A025A5F142
:10586000C800B0FA80F04009B0BD00BF0A20FBF7C5
:105870005DFD2068C00707D1AA25A5F1C800B0FAD0
:1058800080F04009B0BD00BF0A20FBF74FFD206843
:10589000C00707D1B425A5F1C800B0FA80F04009CF
:1058A000B0BD00BF0A20FBF741FD2068C0077FF4B0
:1058B000EAAEBE25A5F1C800B0FA80F04009B0BD3F
:1058C000FEE70000B0B59EB032A001F07DFC0120E3
:1058D00000F018F91D280CD0C4B237A001F074FCF8
:1058E00005AD3EA128462246FAF77CFD284601F088
:1058F0006BFC1F20522100F093F949F23B60C0F687
:10590000000001F061FC40F60044C4F202042046AD
:105910004FF4804100220025FBF7FAFD0A20FBF737
:1059200005FD42F20A00ADF8040064208DF806007F
:105930003B20C1F20000CDF80D004FF49850ADF8B7
:10594000110022208DF813004DF60470C2F2000001
:1059500001A910224FF47A73CDF80750ADF80B501F
:10596000FCF780FE20464FF480410122FBF7D0FD7A
:105970000A20FBF7DBFC012000F0C4F805ACC2B242
:105980001CA12046FAF72EFD204601F01DFC002048
:105990001EB0B0BD0A2A20416363656C65726F6DED
:1059A0006574657220696E697469616C697A696E83
:1059B00067202A0A0A000000416363656C65726F04
:1059C0006D6574657220696E697469616C207265B9
:1059D0006164206661696C0A0000000052656164C0
:1059E00020612076616C7565206F663A20307825DD
:1059F000780A0000436F6E74656E7473206F6620C2
:105A0000726567697374657220307830312069730C
:105A100020307825780A00009EB04DF65C74C2F202
:105A20000004064640F600472046C4F20207FDF790
:105A300023FA40F60B60ADF80C000020CDF80E0004
:105A4000ADF8120038464FF480410022FBF760FDAC
:105A50000A20FBF76BFC4DF604704FF47A75C2F226
:105A6000000003A901AA08230095FCF735FF38B10F
:105A70009DF806209DF807309DF8085011E000BF02
:105A80009DF806209DF807309DF808509DF8090004
:105A900042EA03213180BDF80A1045EA00207080F7
:105AA000B18005AE0EA130460095FAF79BFC384652
:105AB0004FF480410122FBF72BFD0A20FBF736FC57
:105AC0002046FDF72BFA20680BA1406A82B23046CF
:105AD000FAF788FC304601F077FB00BFFEE700BF15
