:020000040800F2
:1000000080F50120B1020008F5300008D930000861
:10001000F1300008D10E00081D5200080000000059
:10002000000000000000000000000000FD3000089B
:10003000E10E000800000000F930000881410008CE
:10004000CB020008CB020008CB020008CB0200085C
:10005000CB020008CB020008CB020008CB0200084C
:10006000CB020008CB020008CB020008CB0200083C
:10007000CB020008CB020008D50E0008CB02000816
:10008000CB020008CB020008CB020008CB0200081C
:10009000CB020008CB020008CB020008CB0200080C
:1000A000CB020008CB020008CB020008CB020008FC
:1000B000CB020008CB020008CB020008CB020008EC
:1000C000CB020008CB020008CB020008CB020008DC
:1000D000CB020008CB020008CB020008B1470008A1
:1000E000CB020008CB020008CB020008CB020008BC
:1000F000CB020008CB020008CB020008CB020008AC
:10010000CB020008CB020008CB020008CB0200089B
:10011000CB020008CB020008CB020008CB0200088B
:10012000CB020008CB020008CB020008CB0200087B
:10013000CB0200080000000000000000CB02000815
:10014000CB020008CB020008CB020008CB0200085B
:10015000CB020008CB020008CB020008CB0200084B
:10016000CB020008CB020008CB020008CB0200083B
:10017000CB020008CB020008CB0200080000000000
:1001800000000000CB02000800000000000000009A
:10019000CB0200080000000000000000CB020008B5
:1001A000000000000000000000000000CB0200087A
:1001B000CB020008CB020008CB020008CB020008EB
:1001C000CB02000800F002F800F062F814A696E8EE
:1001D000000CB244B344DA4501D100F059F8BAE852
:1001E0000F000FA696E83000A5EB040504EB060708
:1001F000AAEB0704A7F101074FEA15154FEA3414DB
:10020000A4F10104AC4201D300F042F813F0010F55
:1002100018BFFB1A43F0010300F001F8DBE71847B1
:100220008C670000AC670000103A24BF78C878C122
:10023000FAD8520724BF30C830C144BF04680C60EC
:1002400070470000704700000023002400250026AE
:10025000103A28BF78C1FBD8520728BF30C148BF29
:100260000B607047662906F04483642900F0008122
:10027000002070471FB506F02AFB00F0A5FC040023
:100280000020002105F04AFEE0601FBD10B510BD42
:1002900000F09AFD1146FFF7EDFF04F0C1FF00F0FA
:1002A000B8FD03B4FFF7F2FF03BC00F0FBFD000054
:1002B0000948804709480047FEE7FEE7FEE7FEE7FA
:1002C000FEE7FEE7FEE7FEE7FEE7FEE70448054936
:1002D000054A064B7047000031420008C50100087E
:1002E00080EF012080F5012080F1012080F10120C4
:1002F00053EA020C00F069802DE9F04B4FF0000644
:10030000002B1FBFB3FA83F503FA05F424FA05F6B0
:100310005E4012BF1643B2FA82F502FA05F4C5F147
:1003200020051EBF22FA05FC44EA0C04203556EADB
:10033000044C4FEA144418BF641C4FF000084FF0FF
:100340000009904271EB030C39D3002919BFB1FAAF
:1003500081F701FA07F6B0FA80F700FA07F6C7F15D
:1003600020071EBF20FA07FC46EA0C062037B6FB22
:10037000F4FCA7EB0507103F07F01F0BCBF120069D
:100380002CFA06F60CFA0BFB44BFB3460026202FCE
:10039000A4BF5E464FF0000B5BEA060C08BF4FF0AF
:1003A000010B19EB0B0948EB0608ABFB027C06FBC3
:1003B00002CC0BFB03CCC01B71EB0C01C1E70B465D
:1003C000024641464846BDE8F08B13B5084318BFC6
:1003D0004FF0FF300146AFF30080BDE81C4070478E
:1003E0000FB41CB5074B06AA7B44694600900598DC
:1003F00000F07DFB0020694600F08CFB1CBC5DF822
:1004000014FB0000290700002DE9F0410E460446C8
:10041000002020622046E168884730B3252805D0B7
:10042000D4E901219047206A401CF2E7E1682046A8
:1004300000278847050018D0A5F14100192802D8E7
:1004400020354FF400673246294620462760FFF7E3
:1004500009FF40B1012804D0F61D26F00706083632
:10046000D8E7361DD6E72846DAE7206ABDE8F081EE
:100470002DE9F0410646002410687529314616A57D
:1004800010D0AFF30080002802DA404213A507E045
:1004900031688A0701D512A502E0490704D511A5E4
:1004A000012401E0AFF3008000210A2206F12407B5
:1004B00009E0B0FBF2FCB0FBF2F302FB1C003030B1
:1004C00078541846491C0028F3D123462A46304662
:1004D000BDE8F04100F09EB8000000002D000000D3
:1004E0002B0000002000000010B5431C02E010F8B3
:1004F000011B71B18107FAD14FF0013202C88C1A89
:100500008C4314EAC211F9D0C01A0A0603D0C01EE7
:1005100010BDC01A10BD0A0401D0801E10BD090212
:10052000FCD0401E10BD032A40F2308010F0030CB6
:1005300000F0158011F8013BBCF1020F624498BF36
:1005400011F801CB00F8013B38BF11F8013BA2F1D3
:10055000040298BF00F801CB38BF00F8013B11F04E
:10056000030300F0DC82083AC0F0088051F8043B35
:10057000083A51F804CBA0E80810F5E7121D5CBF5B
:1005800051F8043B40F8043BAFF30080D20724BF8E
:1005900011F8013B11F801CB48BF11F8012B24BF22
:1005A00000F8013B00F801CB48BF00F8012B704771
:1005B00002F0FF0343EA032242EA024200F0E3BAF8
:1005C0004FF0000200B5134694469646203922BFEC
:1005D000A0E80C50A0E80C50B1F12001BFF4F7AF37
:1005E000090728BFA0E80C5048BF0CC05DF804EB19
:1005F000890028BF40F8042B08BF704748BF20F887
:10060000022B11F0804F18BF00F8012B7047704784
:10061000704770472DE9F0470D46994692460446CB
:1006200000F124080168880604D5E06921F0100172
:10063000216000E00120A84201DD471B00E0002707
:10064000A1697A1902EB0900081AA0612078C00696
:1006500002D42046AFF30080002608E0D4E901214F
:100660001AF806009047206A401C761C20624E450E
:10067000F4DB2078C0060AD52046AFF3008006E000
:10068000D4E9012130209047206A401C2062381EA6
:10069000A7F10107F4DC07E0D4E9012118F805000F
:1006A0009047206A401C2062281EA5F10105F3DC5A
:1006B0002046AFF300802078000602D50220BDE876
:1006C000F0870120FBE72DE9FF4F0C461E464FF057
:1006D000FF378BB0D2E90001DDF860800A908A46CE
:1006E000C1F30A5505B93D46002108464FF0000008
:1006F000BAF1000F00F4400005DA00EB80004FF47F
:10070000400101EA50004FEA9059B9F1010F00DDB4
:10071000B9460A9850EA4A000ED044F61050A5F2A5
:10072000FF3545432F14B8F1000F1ED07542291E26
:100730001EDDC9F100021CE0B8F1010F4FF000000E
:1007400001D0302103E0F24305E02154401CB042C7
:10075000FBDB30460022002121540B99C1F80880B0
:10076000C1E900200FB0BDE8F08FBD1B6D1CDEE7B6
:100770004A4600DA694206A800F0B0FA06AB93E8F0
:10078000070003AB83E8070050460A9904F0E5FF31
:100790008DE80700A0F500501F3800900398002D49
:1007A0000ADD42F21F014A460844002303A90390D0
:1007B000684605F04FFA09E0A0F500504A461F3898
:1007C000002303A90390684605F059FA8DE8070055
:1007D0000004000C03D04FF0FF30410800E0104649
:1007E000B8F1000F03D00022009215461EE0751EDE
:1007F00005D400F0EDF9303262556D1EF9D5B346DF
:100800000122084302D000227F1C04E02078302817
:1008100001D100227F1E002A099784D01DE0112DEE
:1008200007DA00F0D5F9303262556D1C50EA01024A
:10083000F5D1084302D00098C8B10EE00021681E2F
:1008400005E0235C625C63542254401E491C8142D3
:10085000F7DBAB46A81B401E0990002004F80B00F4
:100860000B98099AC0F80880C0E9002B7AE7112696
:100870004FF0000857E72DE9F04F88460446D21D97
:1008800022F0070191B0D1E90001CDE90A0105F09C
:100890002DFB02460B98C00F01D02D2007E02068E9
:1008A000810701D52B2002E0202101EAC000032AA4
:1008B000099001D0072A05DB03464146204600F097
:1008C000CDF90BE12078800601D5E06900E0062033
:1008D000B8F1650F814606D0B8F1660F18D0B8F1AF
:1008E000670F70D131E00020B9F1110F009001DBEA
:1008F000112301E009F101030AAA01A90CA8FFF7DD
:10090000E2FEDDE90C70002609F10105834647E0AF
:1009100001204B4600904FF000470AAA01A90CA8FD
:10092000FFF7D1FEDDE90DB00C995D46002610B948
:1009300009F101000D18B9EB050003D4C0F1FF3631
:1009400009F10105A5EB09002BE0B9F1010F01DA6E
:100950004FF001090020B9F1110F0090484601DD68
:10096000112300E003460AAA01A90CA8FFF7ABFE79
:10097000DDE90C704D4600268346207800070AD436
:10098000AB4500DA5D4601A8012D04DD411911F8DF
:10099000011C302907D04F4502DA17F1040F04DAA1
:1009A000012082460FE06D1EEEE7002F02DCED1BFA
:1009B0003E4403E0781CA84200DD7D1CB81B00F11A
:1009C000010A4FF000472078000703D4AA4501DB55
:1009D0004FF0FF3A0021B7F1004F0DF143088DF8B9
:1009E000431024D002202B23002F01DA7F422D2335
:1009F0000A21021EA0F1010000DC5FB197FBF1FCAF
:100A000097FBF1F201FB1C7C17460CF1300C08F847
:100A100001CDEEE7A8F1010003702188090501D599
:100A2000452100E06521A0F1010800F8011C0998AA
:100A30000FA9A1EB0807FF1D00B10120411901EB2F
:100A4000EA70A1693844081A401EA0612078C006E7
:100A500002D42046AFF30080099828B1D4E90121DF
:100A60009047206A401C20622078C00622D520468C
:100A7000AFF300801EE0002E04DBB34502DD01A8C9
:100A8000805D00E03020D4E901219047206A401CBD
:100A90002062761CAAF101005FEA000A0AD100F088
:100AA00093F8C0680168405CD4E901219047206A4E
:100AB000401C2062281EA5F10105DCDC07E0D4E91A
:100AC000012118F8010B9047206A401C2062381E53
:100AD000A7F10107F3DC2046AFF30080032011B03B
:100AE00041E6000001694A1C02610878704700B5C0
:100AF0008FB0CDE901310021059105497944CDE957
:100B0000031011466846FFF77FFC0FB000BD0000E0
:100B1000E5FFFFFF0A6802F8010B0A60704710B595
:100B2000203AC0F00B80B1E81850A0E81850B1E8A6
:100B30001850A0E81850203ABFF4F5AF5FEA027CE5
:100B400024BFB1E81850A0E8185044BF18C918C015
:100B5000BDE810405FEA827C24BF51F8043B40F8B6
:100B6000043B08BF7047D20728BF31F8023B48BF9B
:100B700011F8012B28BF20F8023B48BF00F8012BD9
:100B800070474FF000020429C0F0128010F0030CEF
:100B90003FF418ADCCF1040CBCF1020F18BF00F803
:100BA000012BA8BF20F8022BA1EB0C01FFF70ABD17
:100BB0005FEAC17C24BF00F8012B00F8012B48BF7D
:100BC00000F8012B704700000048704730000020FB
:100BD00030B5B0F10A0271F100034FEA900E4EEA0F
:100BE000817EB0EB0E0061EB91014FEA101E4EEAE0
:100BF000017E10EB0E0041EB11114FEA102E4EEA70
:100C0000016E10EB0E0041EB11214FEA104E4EEA3F
:100C1000014E10EB0E0041EB1141401841F1000173
:100C20004FEAD00040EA41704FEAD1014FEA810417
:100C300044EA907410EB800544EB01046D1944EB19
:100C40000404521BA3414FF0000348BF0A3200D5F1
:100C500030BD401C41F1000130BD00002DE9F041E4
:100C60001F46044603260168072A01F4006004DBDE
:100C700008B116A505E016A503E008B115A500E02A
:100C800015A521F010002060A069C01EA0610FB161
:100C9000401EA0612046AFF300804FB1D4E901218E
:100CA00038469047206A401C2062C01C206206E043
:100CB000206AFAE7D4E9012115F8010B9047761E66
:100CC000F8D22046AFF30080BDE8F0814E414E00DF
:100CD0006E616E00494E4600696E66002DE9F04770
:100CE000814616468AB0354878440DC88DE80D0017
:100CF00032487844801C03AC0DC884E80D0041F6EE
:100D00009B300844372190FBF1F290FBF1F5A5F1FF
:100D1000800501FB12041B3C02D56442012000E067
:100D20000020DFF898A080460027FA44AAF1BE0A06
:100D30000EE0E0070AD03246684607EB4701012380
:100D40000AEB810104F09BFF8DE8070064107F1C13
:100D5000002CEED1194F7F44AE3F19E0E80715D0C3
:100D600007EB04100DF1180A90E80E008AE80E0057
:100D7000C068F04201D1981908903246012306A9B3
:100D800003A804F07CFF03AB83E807006D10641C2C
:100D9000002DE3D14FF0010332466946B8F1000F50
:100DA00003A802D004F056FF01E004F068FFC9E98F
:100DB0000001C9F808200AB0BDE8F087885C00008F
:100DC00000487047100000207546FFF7F9FFAE4657
:100DD00005006946534620F00700854618B020B547
:100DE000FFF774FABDE820404FF000064FF000070F
:100DF0004FF000084FF0000BAC46ACE8C009ACE87F
:100E0000C009ACE8C009ACE8C00921F007018D4673
:100E1000704710B50446AFF300802046BDE810408F
:100E2000FFF73FBA0000000030B44FF0013C50F82B
:100E3000042B51F8043BCCFA52F4D51A20D1FCB95A
:100E400050F8042B51F8043BCCFA52F4D51A17D1C0
:100E5000B4B950F8042B51F8043BCCFA52F4D51A2B
:100E60000ED16CB950F8042B51F8043BCCFA52F473
:100E7000D51A05D1002CDAD030BC4FF000007047F5
:100E800029BAB1FA81F111F01801D1F120008440A2
:100E9000F2D1CA40CB4012F0FF0213F0FF0330BC86
:100EA000D01A704701491820ABBEFEE726000200A9
:100EB0007047000030EE010A70EEA10A7047000092
:100EC0009FED020AF0EE400A704700BF00000000EC
:100ED000FEE700004DF6C400C2F2000000F060B86A
:100EE0007047000072B600BFFEE7000070B5866D67
:100EF000044600F025FB94F83510022928D1054658
:100F00002068216C026822F016020260426922F019
:100F10008002426109B9A16C19B1016821F0080190
:100F20000160016821F00101016000BF20680068D4
:100F3000C00715D000F004FB401B0628F6D3202084
:100F40006065032084F83500002184F8341070BDFA
:100F5000802060650120002184F8341070BD00BF3E
:100F6000E06D3F2101FA00F0B060012084F8350007
:100F70000020002184F8341070BD000090F8351076
:100F8000022909D1052180F835100068016821F097
:100F900001010160002070478021416501207047F8
:100FA000F0B581B00021009140F20801C2F20001C9
:100FB0000B68D0E9166148F2B51537680822C1F60A
:100FC0004E358A403A42A3FB05350CD003681C68B5
:100FD000640708D51C6824F004041C60B260426DEC
:100FE00042F00102426501228A403A4208D0036879
:100FF0005B691B0604D5B260426D42F00202426595
:1010000004228A403A4208D003681B689B0704D533
:10101000B260426D42F00402426510228A403A42B8
:1010200019D001680B681B0715D5B2600B680A68F8
:101030005B0309D4D20509D40A6822F008020A60C9
:10104000016C29B907E000BF110341D4016C11B153
:10105000044688472046C26D202101FA02F33B4234
:1010600043D001680F68FF063FD5B36090F8357034
:101070000B68052F1CD123F016030B604B6923F07E
:1010800080034B61036C0BB9836C1BB10B6823F0BD
:1010900008030B603F219140B160012180F83510B9
:1010A000016D0022002980F8342054D158E000BF9F
:1010B0000A685B0310D4D20512D40A6822F0100229
:1010C0000A60012180F83510002180F8341007E013
:1010D000816C0029BCD1BEE7110301D4416C00E052
:1010E000C16B11B1044688472046416DC1B3416DC3
:1010F000C9072ED0052180F835100168AA0A0B68AF
:1011000023F001030B60009B0133934200931AD834
:101110000B68DB0717D0009B01339342009312D872
:101120000B68DB070FD0009B0133934200930AD872
:101130000B68DB0707D0009B01339342009302D872
:101140000B68DB07DFD1012180F83510002180F822
:101150003410C16C21B101B0BDE8F040084700BFB8
:1011600001B0F0BD2DE9F041044600F0E9F9ECB121
:101170000546022084F835000020216884F83400F8
:10118000086820F00100086021680868C00711D0D5
:1011900000F0D6F9401B0528F6D9032520230320AB
:1011A000636584F83550BDE8F08100BF0120BDE8DB
:1011B000F08100BF086848F23F02CFF21002D4E984
:1011C000013500EA020C04F10C0898E8C10143EA79
:1011D0000C032B431843D4E9072E30433843104304
:1011E000626A40EA0E00042A40EA08031CD1206B20
:1011F000D4E90A2E40EA0E00184308604869BEF19F
:10120000000F20F0030040EA020040F0040C11D06F
:10121000B8F5005F36D0B8F1000F45D1022A46D0AC
:10122000012A3BD032B942E00B60486920F0070048
:1012300040EA020C01F0F8004AF6AB221038CAF678
:10124000AA22A0FB02231A0946F6A413C1F814C06F
:10125000C0F600039A5C40F2FF335F284FF03F0076
:1012600021EA030100FA02F088BF0431C4E9161232
:101270008860002301250020636584F83550BDE8AF
:10128000F08100BF032AD5D8012540230120DFE8E3
:1012900002F0030E030500BF82E700BFAEF1C0708D
:1012A000B0FA80F0400904E0032A04D3C2D1CEF39F
:1012B00000600028BED0012540230120636584F82A
:1012C0003550BDE8F081000090F834C0BCF1010F4A
:1012D00004BF0220704770B54FF0010C80F834C095
:1012E000D0F858E090F835C0BCF1010F38D14FF07C
:1012F000020C80F835C04FF0000CC0F854C0D0F894
:1013000000C08468056CC06DDCF80060402C26F4D9
:101310008026CCF80060CCF804300B4604BF13469E
:101320000A463F2101FA00F0CCF80830CCF80C2036
:10133000CEF80800DCF8000040F01600CCF8000001
:101340002DB1DCF8000040F00800CCF80000DCF81B
:10135000000040F00100CCF80000002070BD00BF8C
:10136000002180F83410022070BD0000B0B50446A2
:1013700000F0E6F8054640F20000C2F200000078F6
:10138000611C18BF044400BF00F0DAF8401BA04203
:10139000FAD3B0BD2DE9F04F83B000F1200200F187
:1013A0003E4741F60005009207F1FF77C4F20205BF
:1013B00007224FEAB726A84208BF062200254FF0B1
:1013C00000084FF00009062E38BF4FEAB7220192FD
:1013D0000AE000BF09F1010908F10208B9F1100F94
:1013E00005F1040500F0A2800F68012202FA09FE4F
:1013F00017EA0E0AEED0D1F804C003220CF003075E
:101400007E1E02FA08F4012E6FEA040B12D88468DB
:10141000CE6804EA0B0406FA08F634438460446894
:1014200024EA0E06CCF3001404FA09F426434660BD
:1014300004E000BF032F01D103271EE0C6688C68BB
:1014400006EA0B0604FA08F42643022FC66014D1FC
:101450006FF00302009E02EA590756F807C005F034
:101460001C040F220B69A2402CEA0202A3401A437B
:10147000F251D1F804C00CF00307026807FA08F330
:1014800002EA0B021A431CF4403F0260A2D0002281
:1014900043F644030292C4F202031A6843F600447E
:1014A00042F480421A601A68C4F2010402F48042D5
:1014B0000292029A29F003024FF6084C2244CFF61A
:1014C000FF7C52F80C3005F00C070F26BE40B343EA
:1014D000019E06FA07F73B4342F80C30A2684B68BE
:1014E00042EA0A0743F60C4CDE0258BF22EA0A071A
:1014F000A760C4F2010CDCF800209E0242EA0A0751
:1015000058BF22EA0A07CCF8007062689E0342EADC
:101510000A0758BF22EA0A0767602268DB0342EA2B
:101520000A0758BF22EA0A07276053E703B0BDE85D
:10153000F08F0000002A08BF090481617047000095
:101540004EF67C70C2F201000068704740F2000065
:101550004EF67C71C2F20000C2F2010100780A6806
:10156000104408607047000080B543F60040C4F2A4
:101570000200016841F400710160016841F480617A
:101580000160016841F480710160032000F086F879
:10159000002000F005F800F027F8002080BD0000D2
:1015A00070B540F20006C2F2000640F2080132783F
:1015B000C2F200014FF47A730968B3FBF2F20446F9
:1015C000B1FBF2F1084601F043F80F2C4FF0010592
:1015D00008D838B94FF0FF3021460022002500F02E
:1015E00031F87460284670BD82B0002043F6400197
:1015F0000190C4F202014A6842F480424A604A689B
:1016000002F480420192019A0090086840F08050F4
:101610000860086800F080500090009802B07047A1
:10162000002848BF704700F01F01012202FA01F1B3
:101630001C2202EAD0004EF20012CEF200028150CB
:101640007047000010B54EF60C5CCEF2000CDCF8D2
:101650000030C3F3022E8EF00704042C28BF0424AC
:10166000BEF103034FF0FF3E0EFA04F438BF00232F
:10167000A14399400EFA03F39A43114300F00F027D
:1016800000F160430901043A03F564436244002811
:1016900048BF02F10C03197010BD00004EF60C514A
:1016A000CEF200010A684FF6FF031A4060F30A22E7
:1016B00042F0806040F0FD700860704701220168D0
:1016C000C0F8D824002280F8CC24886940F000605B
:1016D0008861486D40F0805040F0030200204A6568
:1016E00070470000002804BF01207047F0B581B0AA
:1016F0000446056890F8950428B9002084F89404FD
:10170000204600F02DF90320B5F1A04F84F8950490
:1017100004BF0020A071206803F0C4FB94E80F0010
:10172000267C009603F04AF8002840F000812068EB
:10173000002103F0BFFB002840F0F98094F804E09A
:10174000BEF1000F00F0EC800EF0030CBEF1040FB0
:101750004FF0000240D30EF0FC03A4F190000321EF
:10176000012500BFCE1E80F8A460A0F8BE608E1ECA
:1017700080F8C860A0F8E2604E1E80F8EC60A0F827
:10178000066180F81011A0F82A110E1D013180F8B1
:10179000A55080F8A820C0E92B22C0F8B42080F81A
:1017A000C95080F8CC20C0E93422C0F8D82080F895
:1017B000ED5080F8F020C0E93D22C0F8FC2080F810
:1017C000115180F81421C0E94622C0F82021903040
:1017D00099423146C6D1F21EBCF1000F31D004F15E
:1017E000140002EBC20100EB8105012300F8212067
:1017F0000021BCF1010F6B706A832971C5E90211E8
:1018000029611ED0551C05EBC50600EB8607BCF10F
:10181000020F7B7000F826507D833971C7E90211F1
:1018200039610ED0911C01EBC10200EB820301254E
:1018300000F8221000205D7059831871C3E902007E
:101840001861BEF1000F6BD0BEF1040F4FF0000223
:1018500036D30EF0FC000321234600BFCF1E83F8D1
:1018600054728F1E83F878724F1E83F8C0120D1DBC
:10187000013183F8552283F85822C3E99722C3F82F
:10188000642283F8792283F87C22C3E9A022C3F87A
:10189000882283F89D2283F89C7283F8A022C3E9F2
:1018A000A922C3F8AC2283F8C12283F8C422C3E979
:1018B000B222C3F8D022903381422946CED1EA1E0B
:1018C000BCF1000F2CD004F5157002EBC20300EB45
:1018D00083070021BCF1010F797000F823203971D2
:1018E000C7E9021139611BD0531C03EBC30700EB9E
:1018F0008706BCF1020F717000F827303171C6E91C
:10190000021131610CD0911C01EBC10200EB82038A
:1019100000275F7000F822101F71C3E902771F6172
:1019200094E80F00277C009703F062F830B10220A2
:1019300084F89504012001B0F0BD00BF0020607460
:10194000012084F89504207B012802D12046FFF76E
:10195000B5FE206803F03CF8002001B0F0BD0000A7
:10196000F0B59DB0044600201C90CDE91A00CDE9E9
:10197000180001A804305821FEF722FE2068B0F1BB
:10198000A04F01D01DB0F0BD4FF48070019001A8B0
:1019900000F03EF8002818BFFFF7A4FA002743F62E
:1019A00030060097C4F202063068002440F00100BF
:1019B00030603068C4F2020400F00100009000982A
:1019C0004FF4E85018900220CDE9190703201B902E
:1019D0000A2018AD1C9020462946FFF7DBFC4FF487
:1019E0000070CDE91807204629461A97FFF7D2FC68
:1019F000706840F0800070600097706940F480402B
:101A00007061706900F48040009000981DB0F0BDD6
:101A10002DE9F04381B00446006843F68C06C10707
:101A2000C4F2020604D14FF0000981070CD415E07E
:101A30003168A26B21F0C06111433160B2FA82F1CA
:101A40004FEA5119810709D53168E26B21F0C05185
:101A500011433160002A08BF4FF00109410705D446
:101A60004FF00008010712D420E000BF3168226B5C
:101A700021F4401111433160B2FA82F14FEA51185A
:101A8000B2F5801F08BF4FF0010901070ED531687C
:101A9000626B21F440011143B2F5800F316008BF41
:101AA0004FF00109002A08BF4FF0010881065AD5FE
:101AB0000020009056F84C0C47F2000740F0805090
:101AC00046F84C0C56F84C0CC4F2000700F080505D
:101AD00000900098386840F480703860FFF730FD5F
:101AE000054600BF3868C00506D4FFF729FD401B36
:101AF0000228F7D990E100BF56F81C0C10F4407092
:101B000017D0216C01F44071884212D056F81C0C99
:101B100040F64061C4F24721012220F440700A607F
:101B200000220A6046F81C0C56F81C0CC00740F056
:101B30007B812068216C56F8842C4FF6FF4701F416
:101B4000407322F4F812C0F6FF770F40B3F5407FE0
:101B500008BF3A4346F8842C56F81C2C6FF31F310B
:101B6000114346F81C1CC10610D4010619D44106C5
:101B70001FD4C10525D4810530D4410536D4B9F12F
:101B8000010F18BFB0F5006F3CD062E094F8580028
:101B900040F64061C4F24721C1F8A0032068010665
:101BA000E5D5B168E26C21F440011143B160410612
:101BB000DFD5B168A26C21F080611143B160C1052D
:101BC000D9D5B168626D21F000611143B160B2F105
:101BD000006F08BF4FF001088105CED5B168626C77
:101BE00021F080511143B1604105C8D5B268216D23
:101BF00022F000520A43B0F5006FB26018BFB1F195
:101C0000005F23D140F26809C4F247290020C9F8D7
:101C10000000FFF795FC054656F88C0C000105D531
:101C2000FFF78EFC401B0228F6D9F5E02068C107BB
:101C300002D0A16B00296FD0810702D5E16B00298A
:101C40006AD0410700F17D807FE000BFB9F1010F4C
:101C5000D8D0B8F1000F4FF0000000F0DE80682708
:101C6000C4F24727B860FFF76BFC054656F88C0CAA
:101C7000800005D5FFF764FC401B0228F6D9CBE0B5
:101C80002068410701D5216B19B101071AD5616B95
:101C9000C1B956F8041CD4E9062301F44031656A41
:101CA000114341EA831141EA0561D4F82CC046F89A
:101CB000041C31686FF0FF0221F4F85102EB0C2292
:101CC00011433160C00516D5606DB0F1006F12D1BF
:101CD00056F8040C226AD4E9061300F07060D203AF
:101CE0004FF6FF75AA430843A2F5803240EA8310FD
:101CF000104346F8040C0120B860FFF721FC0446AD
:101D000056F88C0C800000F18B80FFF719FC001B4B
:101D10000328F5D380E000BF56F8081C56F8082CBD
:101D2000D4E9013501F4403102F07062194367696A
:101D3000114341EA851141EA077146F8081C410741
:101D400003D5216BB1F5801F05D001071FD5616B4D
:101D5000B1F5800F1BD156F8081C56F8082CD4E9B1
:101D6000013701F4403102F0E04219432569114383
:101D700041EA871141EA0561D4F828C046F8081CF9
:101D80003168ACF1010221F01F01114331604105BE
:101D90001FD5216DB1F1005F1BD1271D56F808CC6E
:101DA00056F8082CA8CFFF034FF6FF7127EA010170
:101DB0004FF0C06702F0E04207EA4C2707F10077D6
:101DC0001A433A43A1F5803142EA8512114346F89D
:101DD000081C000510D5271D8FCF40EA8110D103C4
:101DE0004FF6FF729143A1F5803140EA036008434A
:101DF00040EA077046F8080C0120C9F80000FFF718
:101E00009FFB054656F88C0C00013FF522AFFFF70B
:101E100097FB401B0228F5D9032001B0BDE8F083F1
:101E2000002001B0BDE8F083FFF78AFB054641F2D0
:101E3000883700BF56F81C0C80073FF57AAEFFF7D5
:101E40007FFB401BB8424FF00300F3D9E5E70000E9
:101E5000002804BF012070472DE9F04143F608082F
:101E6000C4F202080446D8F8F8030D4600F00F004B
:101E7000884207D288F8F853D8F8F80300F00F002A
:101E8000A84277D12068810717D5410705D5D8F832
:101E9000001041F4E051C8F80010010705D5D8F84A
:101EA000001041F46041C8F80010D8F80010A26892
:101EB00021F0F0011143C8F80010C00740D1D8F854
:101EC000F80300F00F00A84207D988F8F853D8F8B3
:101ED000F80300F00F00A8424CD12068410707D555
:101EE000D8F80010E26821F4E0511143C8F800105E
:101EF000000708D5D8F80000216920F4604040EAC6
:101F0000C100C8F8000000F07DF8D8F8001046F6CF
:101F10008C12C1F30311C0F60002515C40F20802BA
:101F200020FA01F140F20400C2F200000068C2F29F
:101F300000021160FFF734FB0020BDE8F08100BF14
:101F40006068811E022907D258F8081C89015CBF0D
:101F50000120BDE8F08111E0012807D158F8081CE4
:101F600089035CBF0120BDE8F08107E058F8081C38
:101F7000890703D40120BDE8F08100BFD8F8001024
:101F800021F003010843C8F80000FFF7D9FA06461C
:101F900041F28837D8F80000616800F00C00B0EB1F
:101FA000810F8CD0FFF7CCFA801BB842F2D9032006
:101FB000BDE8F08140F2080043F60801C2F20000DB
:101FC000C4F202010068096846F69C12C1F382213E
:101FD000C0F60002515CC8407047000040F20800A3
:101FE00043F60801C2F20000C4F202010068096869
:101FF00046F69C12C1F34231C0F60002515CC84063
:102000007047000010B543F60404C4F2020460688F
:10201000C0F3810142F20040C0F2F400DFE801F0B9
:102020004202081841F20020C0F27A0010BD00BF41
:10203000216801F03F02216823684902C3F3881137
:1020400016D4A1FB00010023FEF752F917E000BFF0
:10205000216801F03F02216823684902C3F3881117
:1020600014D4A1FB00010023FEF742F915E000BFE4
:1020700041F20020C0F27A004843B0FBF2F0216840
:102080000222C1F3014102EB410109E041F20020CB
:10209000C0F27A004843B0FBF2F02168C1F302714C
:1020A000B0FBF1F010BD0000002804BF0120704714
:1020B0002DE9F04182B00446007843F60006C007DF
:1020C000C4F202060CD0B06800F00C00042840F006
:1020D00089803068800303D56068002800F0508153
:1020E0002078800723D5B06810F00C0F11D0B068AD
:1020F00000F00C00082802D17068400209D5B068D1
:1021000000F00C000C2840F09F807068400200F145
:102110009B803068800703D5E068012840F030815B
:102120003068216920F0F80040EAC1003060207872
:10213000000713D4207840072AD4A569002D00F0A9
:102140001A81B06800F00C00082840F0AB80012D27
:1021500040F0E880012002B0BDE8F081606900280D
:1021600040F20000C4F2472000F088800121C0F84E
:10217000801EFFF7E5F90546706F8007DAD4FFF798
:10218000DFF9401B0228F7D9032002B0BDE8F08137
:10219000306C5FEAC0080AD400200190306C40F037
:1021A00080503064306C00F080500190019847F20C
:1021B0000007C4F200073868C00537D4386840F417
:1021C00080703860FFF7BCF9054600BF3868C0056D
:1021D0002CD4FFF7B5F9401B0228F7D9032002B031
:1021E000BDE8F081B06800F00C00082803D17068E9
:1021F00040023FF56EAFB06800F00C000C2803D130
:10220000706840023FF565AF61683068B1F5803FA6
:1022100007D0B1F5A02F40F0CB8040F48020306093
:10222000306840F480303060CBE000BFA168306F90
:10223000012905D0052957D140F004003067306FDF
:1022400040F00100306759E0E068002800F09C8011
:102250000020C4F2472001210160FFF771F9054613
:10226000306880073FF55CAFFFF76AF9401B022832
:102270004FF00300F4D902B0BDE8F0810021C0F8AE
:10228000801EFFF75DF90546706F80077FF552AF3E
:10229000FFF756F9401B0228F6D9032002B0BDE82B
:1022A000F08100BF0027C4F2472700203866FFF7FF
:1022B00047F9022D05460BD13068800140F192802C
:1022C000FFF73EF9401B02284FF00300F4D9D2E794
:1022D000306880014FD5FFF733F9401B02284FF0DB
:1022E0000300F5D9C7E700BF20F001003067306F69
:1022F000002920F00400306700F09880FFF720F9F3
:10230000054641F2883700BF306F800700F1A0809A
:10231000FFF716F9401BB842F6D9032002B0BDE81A
:10232000F08100BF7068E16900F480028A4227D121
:10233000216A00F03F028A4222D147F6C071626AE8
:102340000140B1EB821F1BD1A16A4FF6FF73C90395
:10235000994300F44032A1F580318A4210D1E16AFC
:1023600000F07062B2EB016F0AD1216B00F0E04027
:10237000B0EB017F04D1002002B0BDE8F08100BFC6
:10238000012002B0BDE8F0810020C4F24720002106
:102390000160FFF7D5F80546306880077FF5C7AEC6
:1023A000FFF7CEF8401B02284FF00300F4D962E794
:1023B00020F4803030603068002920F480203060C4
:1023C00050D0FFF7BDF80546306880033FF588AE72
:1023D000FFF7B6F8401B6428F6D9032002B0BDE829
:1023E000F08100BF04F11C052FCD246B084340EAA7
:1023F0008210D9034FF6FF729143A1F5803140EA74
:102400000560084340EA0470706001203866FFF7F9
:1024100097F8044630688001ADD4FFF791F8001BAF
:1024200002284FF00300F5D925E700BFFFF788F831
:10243000054641F2883700BF306F800708D5FFF7A7
:102440007FF8401BB8424FF00300F5D913E700BFF7
:10245000B8F1000F3FF571AE306C20F08050306461
:102460006BE600BFFFF76CF8054600BF30688003DD
:102470007FF536AEFFF764F8401B64284FF0030089
:10248000F4D9F8E670B528B1416A29B1002101619B
:10249000142106E0012070BD4168B1F5827F02D0B1
:1024A0001C21002242500026866290F8511029B962
:1024B00080F85060054600F03DF82846022180F87B
:1024C000511090E82E0002F482720C6803F4044369
:1024D00024F040040C601A4405F4006305691A44B2
:1024E00005F0020345691A4405F001038569C469D2
:1024F0001A4405F400731A4404F03803046A1A44B9
:1025000004F08003846A1A4304F400531A430A60F7
:10251000436A042202EA154203F010031A444A6097
:10252000CA6922F40062CA610121466580F851102F
:10253000304670BD2DE9F04186B0006843F60001D9
:10254000C4F2000100268842CDE90466CDE90266A6
:1025500001962DD043F20001C4F20101884274D1EA
:10256000002043F630010090C4F202014A6942F4AF
:1025700080524A614A6902F480520092009A0090A7
:102580000A6842F001020A60096801F00101009145
:102590000099E02101910221CDE90210032004906D
:1025A00040F60000C4F20200A0F5006048E000BF61
:1025B00043F630000096C4F20200016940F60004C0
:1025C00041F4804101610169C4F2020401F48041D7
:1025D000009100990096016801AD41F0040101608D
:1025E0000168022701F0040100910099009601683A
:1025F0004FF0030841F0020101600068294600F035
:10260000020000900098072005902046CDE9017750
:102610000396CDF81080FEF7BDFE0420CDE901073A
:102620000520059020462946CDE90368FEF7B2FE55
:102630004FF48060CDE90107A4F58060CDE903681F
:102640000521059101A9FEF7A5FE06B0BDE8F081C0
:10265000411E0020B0EB116F1CBF012070474EF2ED
:102660001002CEF2000251604EF62351CEF200016C
:10267000F0230B70072190601160704790F83C20A8
:10268000012A4FF0020254D010B580F83D200268B4
:10269000D2F804E0D2F808C00C682EF0700323438F
:1026A00041F2FF74C4F20004A24253600EDC40F217
:1026B000FF73C4F200039A4216DCB2F1804F2BD0B4
:1026C00040F20043C4F2000324E000BF40F2FF33B5
:1026D000C4F201039A4213DC41F60003C4F2000382
:1026E0009A4219D0002313E040F60003C4F200031D
:1026F0009A4211D040F60043C4F200030AE000BF42
:1027000044F20003C4F201039A4205D040F20043B0
:10271000C4F201039A4204D149682CF080031943A2
:1027200091600121002280F83D1080F83C20BDE836
:102730001040104670470000002804BF0120704779
:1027400010B5044690F83D0028B9002084F83C00FC
:10275000204600F01FF8022084F83D002068211D6B
:1027600001F070FD012084F8460084F83E0084F8F2
:102770003F0084F8400084F8410084F8420084F867
:10278000430084F8440084F8450084F83D000020AC
:1027900010BD0000006841F20001C4F2000188424F
:1027A00018BF704781B00020009043F64000C4F28B
:1027B0000200016841F010010160006800F01000A3
:1027C0000090009801B0704770470000704700000B
:1027D00090F8411090F842000843C0B270470000E2
:1027E000B0B582B001680A68CC684B6902F02F0569
:1027F000202D04F0200505D125B102B0BDE8B04080
:1028000001F0E2BE5FEA027C1EBF03F0010E04F499
:10281000907313EB0E0341D1036BD50618D5012B32
:1028200016D114F0100313D0002201920A6801920D
:102830004A680192019A496949064BD4818DC28D3B
:10284000C38D002B18BF914240F0F48102B0B0BD9F
:1028500013062DD514F080032AD090F84120212AA8
:10286000F4D18268B2F5805F03D10269002A00F0DA
:102870006782026A531C036212784A60C28C013A72
:102880001304C284E2D1C86820F08000C860C86820
:1028900040F04000C86002B0B0BD00BFD30718BF11
:1028A00014F4807340F0D080530700F1D380D8E057
:1028B0005206CBD514F04002C8D0CA6822F04002BC
:1028C000CA60202180F8411002B0BDE8B04000F09D
:1028D000FFBB00BFC16B0A68526893B2002BB5D032
:1028E000858DAB42B2D2C285C969B1F5807F00F057
:1028F000A080016851E8031F026821F4807142E85A
:102900000313DBB1016851E8031F026821F48071F1
:1029100042E8031393B1016851E8031F026821F4F0
:10292000807142E803134BB1016851E8031F02684C
:1029300021F4807142E80313002BDAD1016851E8D9
:10294000051F026821F0010142E80513BBB30168CD
:1029500051E8051F026821F0010142E8051373B335
:10296000016851E8051F026821F0010142E80513E2
:102970002BB3016851E8051F026821F0010142E80C
:102980000513002BDAD11AE0016851E8051F02682F
:1029900021F0400142E80513DBB1016851E8051F51
:1029A000026821F0400142E8051393B1016851E843
:1029B000051F026821F0400142E805134BB1016890
:1029C00051E8051F026821F0400142E80513002B81
:1029D000DAD1202180F8421000210163016851E81A
:1029E000031F026821F0100142E80313DBB1016804
:1029F00051E8031F026821F0100142E8031393B16C
:102A0000016851E8031F026821F0100142E8031336
:102A10004BB1016851E8031F026821F0100142E840
:102A20000313002BDAD1C16B04460846FEF75EFAA9
:102A3000204602214163818DC28D891A89B202B07C
:102A4000BDE8B040FFF7C0BE436C43F001034364F0
:102A5000530706D5BEF1000F03D0436C43F00203C9
:102A60004364930706D5BEF1000F03D0436C43F0D7
:102A700004034364BCF1000F06D55EEA050303D0EE
:102A8000436C43F008034364436C002B3FF4DEAE19
:102A9000920605D525B1044601F096FD2168204631
:102AA0004969426C01F0400102F00802891800F007
:102AB000B98000BF016851E8031F026821F49071DA
:102AC00042E80313BBB3016851E8031F026821F415
:102AD000907142E8031373B3016851E8031F026861
:102AE00021F4907142E803132BB3016851E8031FEE
:102AF000026821F4907142E80313002BDAD11AE046
:102B0000016851E8051F026821F0010142E8051340
:102B1000DBB1016851E8051F026821F0010142E8BC
:102B2000051393B1016851E8051F026821F0010106
:102B300042E805134BB1016851E8051F026821F016
:102B4000010142E80513002BDAD1016B012924D1E0
:102B5000016851E8031F026821F0100142E80313E5
:102B6000DBB1016851E8031F026821F0100142E85F
:102B7000031393B1016851E8031F026821F01001AB
:102B800042E803134BB1016851E8031F026821F0CA
:102B9000100142E80313002BDAD1202180F8421003
:102BA0000021016301684969490640F1C380016859
:102BB00051E8051F026821F0400142E80513DBB12E
:102BC000016851E8051F026821F0400142E8051341
:102BD00093B1016851E8051F026821F0400142E805
:102BE00005134BB1016851E8051F026821F040014F
:102BF00042E80513002BDAD1C16B002900F09A805E
:102C000044F28932C0F60002044608460A65FEF71F
:102C1000B5F900283FF41AAEE06B016D02B0BDE8D3
:102C2000B04008470446FFF7D1FD0020606402B0C1
:102C3000B0BD00BF891A00BF026852E8032F0368C5
:102C400022F4907243E80325BDB3026852E8032FD3
:102C5000036822F4907243E8032575B3026852E8D2
:102C6000032F036822F4907243E803252DB3026812
:102C700052E8032F036822F4907243E80325002DE5
:102C8000DAD11AE0026852E8052F036822F0010247
:102C900043E80525DDB1026852E8052F036822F0FC
:102CA000010243E8052595B1026852E8052F036843
:102CB00022F0010243E805254DB1026852E8052FD4
:102CC000036822F0010243E80525002DDAD1202215
:102CD00080F8422000220263026852E8032F036852
:102CE00022F0100243E80325DDB1026852E8032F09
:102CF000036822F0100243E8032595B1026852E808
:102D0000032F036822F0100243E803254DB1026847
:102D100052E8032F036822F0100243E80325002D38
:102D2000DAD1022289B2426302B0BDE8B040FFF7B7
:102D30004BBD00BF02B0BDE8B040FFF747BD00BFCC
:102D4000026A32F8023B6FF35F234B60026295E543
:102D5000002804BF0120704710B5044690F84100D8
:102D600028B9002084F84000204600F021F82420F3
:102D700084F841002068C16821F40051C1602046F8
:102D800001F0A2FC2068016921F4904101614169D0
:102D900021F02A014161C16841F40051C160002065
:102DA0002021606484F8411084F84210606310BDF3
:102DB000F0B587B0044644F600002168C4F2000074
:102DC000002681420696CDE904660396029601D05C
:102DD00007B0F0BD43F630010196C4F202010A6962
:102DE000032742F480220A610A6900F5E23002F406
:102DF00080220192019A01960A6842F008020A6054
:102E0000096801F00801019101994FF440710291A4
:102E10000221CDE903160721069102A90597FEF7C5
:102E2000B9FA4DF6C40546F25800C2F20005C4F2E4
:102E300002004FF00061402285E8470004204FF473
:102E40008063C5E908602846C5E90436C5E9066619
:102E5000C5E90A762E63FEF785F9002818BFFEF74C
:102E600041F8272000210022A563AC63FEF7EAFBAE
:102E70002720FEF7D5FB07B0F0BD0000704700002B
:102E80002DE9F04381B0044690F84100202809D193
:102E900000294FF0010018BF002A07D101B0BDE89A
:102EA000F08300BF022001B0BDE8F0830020606421
:102EB00021201D460E4684F841001746FEF740FBD0
:102EC000A784E784A1688146B1F5805F02D12069BB
:102ED00000285DD037460020E28C2168002A5DD0B2
:102EE0006A1C24D0002D4AD0804600BF0868000626
:102EF00008D4FEF725FBA0EB0900A8427AD8216888
:102F0000C868F3E717B117F8010B04E038F8020BB3
:102F100000276FF35F204860E08C0138E084E08C8C
:102F20000028E3D13AE000BF0A68120609D40A6813
:102F3000120606D40A6812065CBF0A685FEA0262DB
:102F4000F2D51FB117F8012B05E000BF30F8022BB6
:102F500000276FF35F224A60E28C013AE284E28C40
:102F6000002AE4D11AE000BF30F8022B00276FF3EB
:102F70005F224A60E28C013AE284E28C72B10A6814
:102F8000120635D5002FEFD017F8012BF1E700BF5F
:102F900000273046E28C2168002AA1D1086840064B
:102FA0001ED42DB3681C14D1086840062AD40868C2
:102FB000400627D40868400624D4086840064FF02D
:102FC0000000F1D50DE000BF2068C1680068400630
:102FD00018D4FEF7B5FAA0EB0900A842F4D909E02D
:102FE0000020202184F8411001B0BDE8F08300BF2B
:102FF000FEF7A6FA0320202184F8411001B0BDE8B5
:10300000F08300BF0020202184F8411001B0BDE80A
:10301000F0830000B0B590F84140202C1CBF022086
:10302000B0BD134600294FF0010218BF002B01D19B
:103030001046B0BD0022212401628384C38442640F
:1030400080F84140D0F838C044F2115E44F2C155D6
:10305000C0F6000EC0F600050468CCE90FE544F2A6
:103060009535C0F60005CCE91352221D0446604692
:10307000FEF72AF9216820466FF040020A6000BF7F
:10308000016851E8051F026841F0800142E805131C
:10309000DBB1016851E8051F026841F0800142E898
:1030A000051393B1016851E8051F026841F08001E2
:1030B00042E805134BB1016851E8051F026841F071
:1030C000800142E80513002BDAD100221046B0BD82
:1030D0007047000070470000FEE7000020EEA01AD5
:1030E00020EE000A30EE010AB1EEC00A704700007F
:1030F000FEE70000FEE70000704700007047000098
:1031000020EE010A60EE810A704700002DE9F04FC1
:103110004FF680310020CFF6FF714FF0180C4FF0C2
:10312000190E4FF01A084FF01B094FF01C0A4FF010
:103130001D0B1E261F274DF28032002340F2C404CF
:10314000C2F200040C440125C4F8AC540225C4F8B2
:10315000D0540325C4F8F4540425C4F818550525A3
:10316000C4F83C550625C4F860550725C4F88455B5
:103170000825C4F8A8550925C4F8CC550A25C4F873
:10318000F0550B25C4F814560C25C4F838560D25F7
:10319000C4F85C560E25C4F880560F25C4F8A45612
:1031A0001025C4F8C8561125C4F8EC561225C4F8E9
:1031B00010571325C4F834571425C4F8585715254B
:1031C000C4F87C571625C4F8A0571725C4F8C4576F
:1031D00004F5FC6585E8091004F5076501F59061C3
:1031E000C4F88434C4F8A834C4F8CC34C4F8F03437
:1031F000C4F81435C4F83835C4F85C35C4F88035E3
:10320000C4F8A435C4F8C835C4F8EC35C4F8103691
:10321000C4F83436C4F85836C4F87C36C4F8A0363E
:10322000C4F8C436C4F8E836C4F80C37C4F83037EC
:10323000C4F85437C4F87837C4F89C37C4F8C0379A
:10324000C4F80838C4F82C38C4F8503885E80904A4
:10325000C4F89838C4F8BC38C4F8E038914203F197
:103260000103C4F88004C4F88804C4F8A404C4F8B2
:10327000C804C4F8EC04C4F81005C4F83405C4F854
:103280005805C4F87C05C4F8A005C4F8C405C4F802
:10329000E805C4F80C06C4F83006C4F85406C4F8AF
:1032A0007806C4F89C06C4F8C006C4F8E406C4F85E
:1032B0000807C4F82C07C4F85007C4F87407C4F80A
:1032C0009807C4F8BC07C4F80408C4F80CE8C4F8AC
:1032D0002808C4F83088C4F84C08C4F85498C4F8D6
:1032E0009408C4F89CB8C4F8B808C4F8C068C4F816
:1032F000DC08C4F8E4787FF421AFBDE8F08F00006B
:103300002DE9F04F81B02DED0E8B82B040F27400AC
:10331000C2F2000090EC020A9FED9D1AFFF7F0FE4A
:1033200040F2C403C2F200039FED9A8A9FED9A9A7D
:10333000A3F5896AA3F25C464FF0000B1F460FE02D
:10334000DDF804B040F2C40307F590670AF5906A0F
:1033500006F59066BBF1300FC2F2000300F0128157
:103360000BEBCB00C10159580BF10108022970D1B8
:10337000BBF1000F10D0ABF1010101EBC101CA019B
:103380009A58012A0CD10124B0EE48AABBF12F0FA4
:10339000B0EE48BA0ED11CE00124B0EE48AA09E014
:1033A00003EBC11191ED05AA0224BBF12F0FB0EE82
:1033B00048BA0ED008EBC801CA019A58012A03D1B5
:1033C000B0EE48BA05E000BF03EBC11191ED05BABC
:1033D000013403EBC015284650F8241F01291ABFF9
:1033E00090ED06CA0134B0EE48CA95ED050AD5ED58
:1033F000060A3BEE0C1A31EE4ADAFFF76FFE01EED9
:10340000104A2DEE090AB8EEC11A80EE010A95EDB8
:10341000062AB5EE40CA95ED051AF1EE10FAB0EEA7
:10342000CB5AB0EE404AB1EE403A08BFB0EE434A44
:1034300032EE042AB0EECA4AB4EE454AF1EE10FA72
:10344000C8BFB0EE403A31EE030A85ED050A85EDBE
:10345000062A1F250024CDF8048048E0D8F848004B
:1034600001281ABF98ED18DA09F10109B0EE48DA1F
:103470003DEE4C0A3BEE001A98ED0E0AD8ED0F0A0D
:1034800031EE4AEAFFF72AFE01EE109A2EEE090A03
:10349000B8EEC11A80EE010AB0EECD1AB0EECC2A19
:1034A00098ED0F4AB4EE421A98ED0E3AF1EE10FA8A
:1034B000B0EECA2AB1EE405AB0EE451AC8BFB0EE1F
:1034C000401A34EE011AB0EECB4AB4EE442AF1EEC3
:1034D00010FAC8BFB0EE405A33EE050A88ED0E0A66
:1034E00088ED0F1A013D04F124043FF429AF07EBE6
:1034F0000408D8F824000228F4D1BBF1000F13D03F
:103500003059012820D14FF00109B0EE48AABBF193
:103510002F0FB0EE48BA23D03019D0F80009012897
:103520000BD1B0EE48BA1BE04FF00109B0EE48AA4B
:103530003019D0F800090128F3D008F5976090ED14
:1035400000BA09F101090BE00AEB040090ED00AAB2
:103550004FF00209BBF12F0FB0EE48BADCD100BF2B
:103560003019D0F85C0401281ABF98ED06CA09F199
:103570000109B0EE48CAB4F5876F7FF46FAFB0EEC3
:1035800048DA75E702B0BDEC0E8B01B0BDE8F08FF4
:10359000CDCCCC3D000000003333F33F00000000F1
:1035A0002DE9F04F81B02DED0A8B86B09FED7A0B9F
:1035B0009FED7DAA51EC100B9FED790BCDE9021028
:1035C00051EC100BDDF80CB0CDE90010BDEE008A17
:1035D000B3EE0F9A4FF00009002008E0059809F1BA
:1035E0001C09B9F5604F00F1010000F0CD804FF2E9
:1035F0006471C2F2000101EB09080590C0EBC00044
:1036000098ED00CA01EB8000049098ED01BA1CEE21
:10361000100A03F0EBF8009E0B46B5EE40CA3146A7
:10362000F1EE10FA029FB8BF3946DDF804A0024659
:103630005046B8BF584602F0B9FC0446B5EE40BA51
:103640001BEE100A0D46F1EE10FABCBF3E46DA46FC
:1036500003F0CCF802460B465046314602F0A6FC79
:1036600006460F462046294602F0A4FE0446304690
:10367000394602F09FFE2F2C4FF0000188BF012138
:1036800000284FF0000248BF01221F284FF000031E
:10369000B5EE40CAC8BF0123F1EE10FA0CDA98ED7E
:1036A000020A0027B5EE400AF1EE10FAC8F80070E1
:1036B00017DA08F1080712E0B4EE4ACAF1EE10FA80
:1036C0000FDD98ED020A0027B5EE400AF1EE10FA80
:1036D000C4F23C27C8F8007003DD049F08370026B9
:1036E0003E60B5EE40BAF1EE10FA0DDA98ED030A3D
:1036F0000027B5EE400AF1EE10FAC8F8047018DAA7
:1037000008F10C0713E000BFB4EE49BAF1EE10FA6D
:103710000FDD98ED030A0027B5EE400AF1EE10FA2E
:10372000C4F2F817C8F8047003DD049F0C370026B4
:103730003E60114319437FF451AF40F2C40204EBE1
:10374000C401C2F2000202EBC11100EBC00001EBA8
:103750008000006801287FF441AF98ED020AD8ED9F
:10376000030AB0EE481AFFF7CBFC98ED012AB0EE41
:10377000401A98ED000AF0EE601AF0EE420AFDF7EA
:1037800099FB88EC020A29E706B0BDEC0A8B01B070
:10379000BDE8F08F00BF00BF000000000000E0BFE8
:1037A000000000000000E03F00003C42000000007C
:1037B0002DE9F04F81B02DED0E8B86B04FF68030A5
:1037C00040F2C405CFF6FF70C2F2000500214DF2B1
:1037D000803200BF2B1800F590609042C3F890141F
:1037E000C3F89C14C3F8A014C3F8B414C3F8C014ED
:1037F000C3F8C414C3F8D814C3F8E414C3F8E81425
:10380000C3F8FC14C3F80815C3F80C15C3F8201549
:10381000C3F82C15C3F83015C3F84415C3F8501578
:10382000C3F85415C3F86815C3F87415C3F87815B0
:10383000C3F88C15C3F89815C3F89C15C3F8B015D8
:10384000C3F8BC15C3F8C015C3F8D415C3F8E01508
:10385000C3F8E415C3F8F815C3F80416C3F808163E
:10386000C3F81C16C3F82816C3F82C16C3F8401664
:10387000C3F84C16C3F85016C3F86416C3F8701694
:10388000C3F87416C3F88816C3F89416C3F89816CC
:10389000C3F8AC16C3F8B816C3F8BC16C3F8D016F4
:1038A000C3F8DC16C3F8E016C3F8F416C3F8001723
:1038B000C3F80417C3F81817C3F82417C3F8281758
:1038C000C3F83C17C3F84817C3F84C17C3F8601780
:1038D000C3F86C17C3F87017C3F88417C3F89017B0
:1038E000C3F89417C3F8A817C3F8B417C3F8B817E8
:1038F000C3F8CC17C3F8D817C3F8DC17C3F8F01710
:10390000C3F8FC17C3F80018C3F81418C3F820183C
:10391000C3F82418C3F83818C3F84418C3F8481873
:10392000C3F85C18C3F86818C3F86C18C3F880189B
:10393000C3F88C18C3F89018C3F8A418C3F8B018CB
:10394000C3F8B418C3F8C818C3F8D418C3F8D81803
:10395000C3F8EC18C3F8F818C3F8FC187FF43AAFB2
:103960004DF6B860C2F20000E7A11B226423FFF706
:1039700087FA9FEDE10B9FEDE21B51EC100BCDE9B7
:10398000031058EC11BB00200AE000BF1831029A66
:103990000A60026205980230B0F5006F00F00681FF
:1039A0004FF264710590C0EBC000C2F2000101EB60
:1039B000800191ED008A0020886191ED019A18EE56
:1039C000100A019102F012FF02460B46B5EE408A42
:1039D00041465846F1EE10FA039FB8BF3946049CA1
:1039E000B8BF204602F0E2FAB5EE409A4646029091
:1039F000F1EE10FAB8BF3E465F4619EE100A89464E
:103A0000B8BF274602F0F2FE02460B463846314662
:103A100002F0CCFA824602980F46494602F0CAFCF0
:103A200006465046394602F0C5FC2F2E4FF00001E5
:103A30004FF0000288BF0121002848BF0122114336
:103A40001F284FF00002C8BF0122114306EBC60138
:103A500005EBC11100EBC00001EB8001084618BF67
:103A600000201AD151F81C2F51F80C3C03F101032E
:103A700041F80C3C72B100BF936911464BB19A6991
:103A8000194632B1936911461BB19A691946002A49
:103A9000F2D11831019A0A60026205984FF26471FE
:103AA00040F00100C0EBC000C2F2000101EB800158
:103AB00091ED008A0020886191ED019A18EE100ABC
:103AC000029102F093FE02460B46B5EE408A414653
:103AD0005846F1EE10FA039FB8BF3946049CB8BFB0
:103AE000204602F063FAB5EE409A46460546F1EEEE
:103AF00010FAB8BF3E465F4619EE100A8946B8BFB5
:103B0000274602F073FE02460B463846314602F065
:103B10004DFA82460F462846494602F04BFC0646BF
:103B20005046394602F046FC2F2E4FF000014FF070
:103B3000000288BF0121002848BF012211431F282D
:103B40004FF00002C8BF0122114340F2C40506EB4A
:103B5000C601C2F2000505EBC11100EBC00001EB8C
:103B60008001084618BF00207FF414AF51F81C2FC5
:103B700051F80C3C002A03F1010341F80C3C3FF4DE
:103B800006AF00BF93691146002B3FF4FFAE9A6960
:103B90001946002A3FF4FAAE93691146002B3FF410
:103BA000F5AE9A691946002AECD1EFE60020BFEE87
:103BB000008AB1EE00DAB0EE00EA08E0049840F2C4
:103BC000C40501303028C2F2000500F08D80049059
:103BD00000EBC000002405EBC010059003E000BF1F
:103BE0000134202CEAD0059904EBC40001EB8000DD
:103BF00001690229F4DBD0F81CA001E0D5F800A08F
:103C0000BAF1000FECD0554655F8189FB9F1000FE6
:103C1000E6D09AEC020AB0EE481AFFF771FA99ED75
:103C2000012AB0EE401A99ED000AF0EE601AF0EEAB
:103C3000420AFDF73FF9B0EE409AB0EE60AAFFF7F6
:103C40004DFA20EE001AB4EE4D1AF1EE10FAD5DC62
:103C5000B5EE401AF1EE10FAD0D03EEE401A11EE59
:103C6000100AB0EE40BA02F0C1FD5A46434602F0D7
:103C7000D1FB06461BEE100A0F4602F0B7FD0246C6
:103C80000B463046394602F039FA02F05DF901EE92
:103C9000100AB0EE490AF0EE4A0AFFF731FAB0EE28
:103CA000481AB0EE409AB0EE60AAFFF729FA99EDF3
:103CB000011AB0EE40BA99ED000AB0EE60CAF0EE1B
:103CC000410AB0EE491AF0EE4A1AFDF7F3F889EC12
:103CD000020A9AEC020AB0EE4B1AF0EE4C1AFDF70B
:103CE000E9F88AEC020A89E706B0BDEC0E8B01B058
:103CF000BDE8F04FFFF754BC000000000000E0BF3B
:103D0000000000000000E03F636F756E74696E672D
:103D1000207061727469636C657320696E206365DD
:103D20006C6C0A002DE9F04F81B02DED0A8BFFF786
:103D3000EDF94FF26470C2F20000A0F11C070024FC
:103D40004FF002084FF07E5946F22D4A4FF0170B04
:103D5000B6EE00AAB2EE08BA48F68905B3EE05CA77
:103D600007F11C06FDF7ACF8B0EE408AB0EE609AA1
:103D7000FDF7A6F887ED078A87ED089A87ED090A0F
:103D8000C7ED0A0AC7E90B89FDF79AF887ED070A1C
:103D9000C7ED080AFDF794F8A0B200FB0AF1A4EB06
:103DA000114292B2520802EB114168430909C00C5A
:103DB00001FB1B41A0EB0010204489B280B287EDCB
:103DC000090A00EE101A01EE100AB8EE400AB8EE29
:103DD000411A20EE0A0A21EE0A1A30EE0B0A31EEE1
:103DE0000C1A0134C7ED0A0A87ED070A87ED081A95
:103DF000B4F5006F3746B3D1FFF7DAFC40F2740038
:103E00000021C2F20000CCF2A0010022C0E9002192
:103E1000BDEC0A8B01B0BDE8F08F00002DE9F04346
:103E200081B02DED068B4DF6B864C2F200044EA1B0
:103E300020460D226423FFF723F84FA120460E22CF
:103E40006423FFF71DF840F27400C2F200009FEDFA
:103E50004E8A90EC020AB0EE481AFFF751F94FF281
:103E60006470C2F20000B0EE409AB0EE60AAA0F119
:103E700014054FF4006400BF95ED070AD5ED080A5C
:103E8000B0EE491AF0EE4A1A05F11C06FDF712F8D9
:103E900095ED062A85ED070A20EE081A95ED050A2C
:103EA000C5ED080A60EE881AF0EE420AFDF702F846
:103EB00085ED050AC5ED060A013C3546DCD1FFF764
:103EC0006FFBFFF775FC012000F06AF84DF6B86053
:103ED000C2F200002DA10C226423FEF7D1FFFFF7F0
:103EE0000FFA40F2C4084FF00009C2F20008B7EE22
:103EF000009A04E009F10109B9F1300F2ED009EB65
:103F0000C900002608EBC01703E000BF0136202ED1
:103F1000F0D006EBC60007EB800528690128F5DB29
:103F2000EC69002CF2D000EE100AB8EEC00A89EE5F
:103F3000008A00BF95ED050AD5ED060AB0EE481AD5
:103F4000FFF7DEF894ED020AD4ED030AB0EE481A4A
:103F5000FFF7D6F8A469002CECD1D7E7BDEC068BAF
:103F600001B0BDE8F08300BF7068797369637320A6
:103F7000737465700A0000007061727469636C6527
:103F800020737465700A0000CDCCCC3D6772696403
:103F900020736F6C7665720A00000000000000005C
:103FA0002DE9F04F81B02DED048B84B0002800F096
:103FB0009B8040F2C4050024C2F200054FF00008C7
:103FC000002700BFE859EE19022808BFEC51FCF7A2
:103FD00077FF2437B7F5906F86ED050AC6ED060A20
:103FE0003461EFD108F10108B8F1300F05F59065A3
:103FF000E6D19FED5F0B9FED601B51EC100BCDE9FF
:104000000210DDF80C80002550EC11AB019004E0AB
:104010001C35B5F5604F00F0A5804FF26470C2F218
:10402000000000EB050B9BED008A9BED019A18EE5A
:10403000100A02F0DBFB019E02460B46B5EE408AF9
:1040400031465046F1EE10FA029FBCBF3946404659
:1040500001F0ACFFB5EE409A0446F1EE10FAB8BF9D
:104060003E46574619EE100A8946B8BF474602F049
:10407000BDFB02460B463846314601F097FF064627
:104080000F462046494602F095F904463046394627
:1040900002F090F92F2CBBD80028B9D41F28B7DC28
:1040A00040F2C40204EBC401C2F2000202EBC111EF
:1040B00000EBC00001EB8004206921680130002979
:1040C000206104BF0220206094ED050AD4ED060AA9
:1040D0009BED021ADBED031AFCF7ECFE84ED050AFA
:1040E000C4ED060A94E700BF40F2C4084FF000098F
:1040F000C2F20008B7EE009A05E000BF09F101091D
:10410000B9F1300F2ED009EBC900002608EBC0171B
:1041100003E000BF0136202EF0D006EBC60007EB0F
:10412000800528690128F5DBEC69002CF2D000EE4F
:10413000100AB8EEC00A89EE008A00BF95ED050AA4
:10414000D5ED060AB0EE481AFEF7DAFF94ED020A42
:10415000D4ED030AB0EE481AFEF7D2FFA469002C92
:10416000ECD1D7E704B0BDEC048B01B0BDE8F08F13
:10417000000000000000E0BF000000000000E03F81
:10418000FDF7E4B970B594B007AC20463421FCF7D4
:1041900017FA002543F640000695CDE90455CDE910
:1041A00002550195C4F202000168022641F08051D7
:1041B0000160006800F080500190019847F2000013
:1041C0000195C4F20000016841F4404101600068BB
:1041D00000F4404001900198012007904FF4A02086
:1041E00008904FF480000E9004200F90A820CDE995
:1041F00010060720CDE9120620460D96FDF754FF64
:1042000010B172B6FEE700BF0F20CDE902064FF4F1
:10421000A05005904FF48050069002A80521049507
:10422000FDF716FE10B172B6FEE700BF14B070BD08
:104230004EF68850CEF20000016841F47001016032
:104240007047000010B540F6FF3E0368C4F2000E50
:1042500040F2004C7045C4F2010C25DCB0F1804FF7
:104260002FD040F20042C4F20002904229D040F622
:104270000002C4F20002904223D041F6FF72C4F261
:104280000002904227DC70453ADCB0F1804F5BD0F1
:1042900040F20042C4F20002904255D040F60002C3
:1042A000C4F200024EE000BF40F60042C4F2000239
:1042B000904206D0604504D00022C4F20102904230
:1042C000DBD14A6823F07003134341F6FF72C4F256
:1042D00000029042D7DD43F6FF72C4F20102904221
:1042E00020DC42F20002C4F2000290422CD00022F4
:1042F000C4F20102904227D0604525D028E000BFDB
:1043000040F60042C4F2000290421DD041F6000285
:10431000C4F20002904217D041F60042C4F20002FB
:1043200010E000BF44F20002C4F2010290420BD040
:1043300044F60002C4F20102904205D044F2004269
:10434000C4F20102904203D1CA6823F440731343BC
:1043500023F080024B69D1F800E08C681A430260B8
:10436000C46240F48062C0F828E0624504BF096975
:104370000163012141610169C90708BF10BD0169DD
:1043800021F00101016110BD806B0021C185C18454
:10439000FEF71CBA806B01684A6990F84130212B06
:1043A0002DD112F080022AD00021C184016851E889
:1043B000031F026821F0C00142E80313DBB101686A
:1043C00051E8031F026821F0C00142E8031393B1D2
:1043D000016851E8031F026821F0C00142E803139D
:1043E0004BB1016851E8031F026821F0C00142E8A7
:1043F0000313002BDAD1202180F8411001684969AC
:1044000090F84220222A40F07D8011F0400179D0BE
:104410000021C185016851E8031F026821F49071F1
:1044200042E80313BBB3016851E8031F026821F49B
:10443000907142E8031373B3016851E8031F0268E7
:1044400021F4907142E803132BB3016851E8031F74
:10445000026821F4907142E80313002BDAD11AE0CC
:10446000016851E8051F026821F0010142E80513C7
:10447000DBB1016851E8051F026821F0010142E843
:10448000051393B1016851E8051F026821F001018D
:1044900042E805134BB1016851E8051F026821F09D
:1044A000010142E80513002BDAD1016B012924D167
:1044B000016851E8031F026821F0100142E803136C
:1044C000DBB1016851E8031F026821F0100142E8E6
:1044D000031393B1016851E8031F026821F0100132
:1044E00042E803134BB1016851E8031F026821F051
:1044F000100142E80313002BDAD1202180F842108A
:1045000000210163416C41F010014164FEF75EB986
:104510000168806B0968C90548BFFEF7D9BD002155
:10452000C18400BF016851E8051F026821F08001C5
:1045300042E8051383B3016851E8051F026821F0C2
:10454000800142E805133BB3016851E8051F02688A
:1045500021F0800142E80513F3B1016851E8051F1D
:10456000026821F0800142E80513002BDAD113E044
:10457000016851E8031F026841F0400142E803135B
:10458000002B08BF7047016851E8031F026841F023
:10459000400142E8031393B1016851E8031F026828
:1045A00041F0400142E803134BB1016851E8031F99
:1045B000026841F0400142E80313002BD8D1704754
:1045C000806BFEF787BD000081B090F84210222971
:1045D00021D183680246B3F5805F09D152F8281FC4
:1045E00052F8183C002B63D003685B680AE000BFF8
:1045F00052F8281F13B90369002BF5D003685B68D4
:1046000003F07F030B70116801311160C18D013916
:104610000A04C18502D001B0704700BF0168CA68B2
:1046200022F02002CA60CA6822F48072CA604A6915
:1046300022F001024A61202180F8421000214163EA
:10464000026B012A3CD10163016851E8031F026833
:1046500021F0100142E80313DBB1016851E8031FA8
:10466000026821F0100142E8031393B1016851E898
:10467000031F026821F0100142E803134BB10168E7
:1046800051E8031F026821F0100142E80313002BD8
:10469000DAD101680A68D20606D5002200920A68BB
:1046A0000092496800910099818D01B0FEF78CB8A5
:1046B000026852686FF35F2221F8022B8162A5E73E
:1046C00001B0FEF7DBBB0000B0B50446006804F1A2
:1046D00008030ECB0569194325F440552A430261AE
:1046E0006269E3691143C268194349F20C639A4352
:1046F0001143C1604169A26921F4407141F2004354
:10470000114340F48062C4F201039A42416103D133
:10471000FDF764FC02E000BFFDF74CFCE1694FF6D9
:104720009C7563681922C0F6FF75B1F5004FA0FBB8
:1047300002011FD15A00DB0FFBF7DAFD48F21F51CF
:10474000C5F2EB11A0FB01235A0905F1805302FBCE
:104750000300322303EBC000A0FB01014FF4F8700B
:1047600000EA111000EB0210C1F342110844216865
:104770008860B0BD9A009B0FFBF7BAFD48F21F514D
:10478000C5F2EB11A0FB01235A0902FB05003223FD
:1047900003EB0010A0FB0101F02000EA511000EB38
:1047A0000210C1F34311084421688860B0BD0000C5
:1047B0004DF6B860C2F20000FEF712B882B002F403
:1047C0007F42B2F5807F40F07F80826B4FF6BF73EF
:1047D00022F480328263C268CFF6BD731A40C26091
:1047E000029BC268DBB222F44012012BC26003D1EB
:1047F000C26842F48012C26000220092009A013224
:104800000092009AB2F1706F00F2BE800269002A35
:1048100021D4009A01320092009AB2F1706F00F236
:10482000B3800269002A16D4009A01320092009ADD
:10483000B2F1706F00F2A8800269002A0BD4009ACE
:1048400001320092009AB2F1706F00F29D8002690D
:10485000B2F1FF3FD2DC00220092026942F0010275
:104860000261009A01320092009AB2F1706F00F278
:104870008B800269D2071ED0009A01320092009A02
:10488000B2F1706F00F280800269D20713D0009AF3
:1048900001320092009AB2F1706F75D80269D207A6
:1048A00009D0009A01320092009AB2F1706F6BD871
:1048B0000269D207D5D14FF0000C01F47F01B1F5A8
:1048C000803F40F0818077E0C26842F04002C260E1
:1048D00000220192019A01320192019AB2F1706FA5
:1048E0005AD80269002A1ED4019A01320192019A13
:1048F000B2F1706F50D80269002A14D4019A0132C3
:104900000192019AB2F1706F46D80269002A0AD466
:10491000019A01320192019AB2F1706F3CD802699A
:10492000B2F1FF3FD6DC00220192026942F001029F
:104930000261019A01320192019AB2F1706F2BD893
:104940000269D2071DD0019A01320192019AB2F197
:10495000706F21D80269D20713D0019A01320192F7
:10496000019AB2F1706F17D80269D20709D0019A83
:1049700001320192019AB2F1706F0DD80269D2072B
:10498000D7D14FF0000C09E04FF0030C01F47F0188
:10499000B1F5803F18D10FE04FF0030C826B13F498
:1049A0007F4F14BF22F4803242F48032826301F4DC
:1049B0007F01B1F5803F07D1816841F00601816038
:1049C000816841F020018160604602B070470000BC
:1049D0000146D0F8000E20F00300C1F8000ED1F817
:1049E000040840F002020020C1F8042870470000CB
:1049F0002DE9F04F86B0C3F3074516468E460021D9
:104A0000C0F80411C0F80811C0F80C11C0F810115A
:104A1000C0F81411C0F81811C0F81C11C0F820110A
:104A2000C0F82411C0F82811C0F82C11C0F83011BA
:104A3000C0F83411C0F83811C0F83C1125B100F1AC
:104A400038014FF400120FE0D0F80418802241F032
:104A50000201C0F80418816B21F400118163016820
:104A600041F04001016001460B681A430A6006F4F8
:104A70007F420021B2F5807FC0F8001E08D1D0F837
:104A80000028B1EB1E6F09D1C0F800280AE000BF72
:104A9000D0F8001841F0030102E000BF42F001012C
:104AA000C0F800180021049104990131049104997F
:104AB000B1F1706F52D8016900291ED404990131F7
:104AC00004910499B1F1706F48D80169002914D498
:104AD0000499013104910499B1F1706F3ED80169D4
:104AE00000290AD40499013104910499B1F1706F3D
:104AF00034D80169B1F1FF3FD6DC002104914FF4B5
:104B0000846101610499013104910499B1F1706FDC
:104B100024D8016989061DD50499013104910499AD
:104B2000B1F1706F1AD80169890613D50499013162
:104B300004910499B1F1706F10D80169890609D503
:104B40000499013104910499B1F1706F06D801699B
:104B50008906D7D44FF0000A02E000BF4FF0010AE7
:104B6000002105910599013105910599B1F1706F09
:104B70004ED8016900291ED4059901310591059986
:104B8000B1F1706F44D80169002914D4059901313D
:104B900005910599B1F1706F3AD8016900290AD4DD
:104BA0000599013105910599B1F1706F30D801690E
:104BB000B1F1FF3FD6DC002105911021016105997B
:104BC000013105910599B1F1706F21D80169C906CC
:104BD00020D50599013105910599B1F1706F17D86C
:104BE0000169C90616D50599013105910599B1F1FB
:104BF000706F0DD80169C9060CD505990131059171
:104C00000599B1F1706F03D80169C906D7D401E0E5
:104C10004FF0010A5FFA8EF94FF00008B9F1000F6A
:104C2000C0F81088C0F81488C0F81C8800F00D8106
:104C3000CDF80CA0CDE9015ED0F800194FF000646A
:104C400004EA11114FF67F35B9F1010BC0F80019D4
:104C5000C0F81089C0F8085974D0A9F102010329DD
:104C60000BF0030A04D20121BAF1000F40D169E030
:104C700000962BF0030700F5186600234FF0904CC8
:104C80004FF67F324FF0000E56F8601C0EF1040E06
:104C90000CEAE17146F8601C46F8503C46F8582C86
:104CA00056F8401C77450CEAE17146F8401C46F87E
:104CB000303C46F8382C56F8201C0CEAE17146F8D6
:104CC000201C46F8103C46F8182C31680CEAE171BB
:104CD00031603361B26006F18006D5D1009E0EF1DD
:104CE00001014FF67F354FF00064BAF1000F29D073
:104CF00000F510634F01B446DE594FF0904202EACE
:104D0000E67603EB4111DE51664600274FF67F330E
:104D1000BAF1010F0F618B6014D00E6ABAF1020F65
:104D200002EAE67266460A620F638B620AD00A6C78
:104D30004FF0904303EAE2720A6400220A654FF6DC
:104D40007F328A64D0F8001BBBF1000F04EA111116
:104D5000C0F8001B4FF00001C0F8101BC0F8085B42
:104D6000DDE9015EDDF80CA06FD0A9F10201032995
:104D70000BF0030C04D20121BCF1000F3BD164E025
:104D8000A94600962BF0030500F5386600234FF086
:104D900090474FF67F32002156F8604C043107EA05
:104DA000E47446F8604C46F8503C46F8582C56F8E7
:104DB000404C8D4207EAE47446F8404C46F8303CDB
:104DC00046F8382C56F8204C07EAE47446F8204C94
:104DD00046F8103C46F8182C346807EAE47434604E
:104DE0003361B26006F18006D6D1009E01314D4696
:104DF000BCF1000F29D000F530634F013446DE5975
:104E00004FF0904202EAE67603EB4111DE5126466E
:104E100000274FF67F33BCF1010F0F618B6014D078
:104E20000E6ABCF1020F02EAE67226460A620F63BE
:104E30008B620AD00A6C4FF0904303EAE2720A6474
:104E400000220A654FF67F328A64D0F810181EF4EB
:104E50007F0F21F48071C0F810186FF08041C0F806
:104E60001880416103D1816941F01001816181693C
:104E700043F60002C8F23C02114316F47F0F816131
:104E800003D0816941F008018161012D05D181695B
:104E900041F0804141F004018161504606B0BDE817
:104EA000F08F00000146806820F0010200208A6037
:104EB00070470000B0B50446C068002920F0C0402B
:104EC000E06000F09980012940F0B080E0680A2598
:104ED00040F00050E0600A20FCF748FA54F8140F44
:104EE000C00740F09C800A20FCF740FA2068C00709
:104EF00040F09E800A20FCF739FA2068C00740F095
:104F0000A5800A20FCF732FA2068C00740F0AC8088
:104F10000A20FCF72BFA2068C00740F0B3800A2073
:104F2000FCF724FA2068C00740F0BA800A20FCF79A
:104F30001DFA2068C00740F0C1800A20FCF716FA6D
:104F40002068C00740F0C8800A20FCF70FFA2068EC
:104F5000C00740F0CF800A20FCF708FA2068C0079D
:104F600040F0D6800A20FCF701FA2068C00740F024
:104F7000DD800A20FCF7FAF92068C00740F0E480E1
:104F80000A20FCF7F3F92068C00740F0EB800A2004
:104F9000FCF7ECF92068C00740F0F2800A20FCF72B
:104FA000E5F92068C00740F0F9800A20FCF7DEF937
:104FB0002068C00740F000810A20FCF7D7F920687C
:104FC000C00740F007810A20FCF7D0F92068C0072D
:104FD00040F00E810A20FCF7C9F92068C00740F0B4
:104FE00016810A20FCF7C2F92068C825A5F1C8007F
:104FF000B0FA80F04009B0BDE0680A2540F080407A
:10500000E0600A20FCF7B2F954F8140FC00706D08C
:105010000A20FCF7ABF92068C00711D11425A5F1CF
:10502000C800B0FA80F04009B0BD00BF0120B0BD9B
:105030001425A5F1C800B0FA80F04009B0BD00BF4A
:105040000A20FCF793F92068C00707D11E25A5F1B7
:10505000C800B0FA80F04009B0BD00BF0A20FCF7DC
:1050600085F92068C00707D12825A5F1C800B0FA46
:1050700080F04009B0BD00BF0A20FCF777F9206836
:10508000C00707D13225A5F1C800B0FA80F0400969
:10509000B0BD00BF0A20FCF769F92068C00707D13E
:1050A0003C25A5F1C800B0FA80F04009B0BD00BFB2
:1050B0000A20FCF75BF92068C00707D14625A5F157
:1050C000C800B0FA80F04009B0BD00BF0A20FCF76C
:1050D0004DF92068C00707D15025A5F1C800B0FAE6
:1050E00080F04009B0BD00BF0A20FCF73FF92068FE
:1050F000C00707D15A25A5F1C800B0FA80F04009D1
:10510000B0BD00BF0A20FCF731F92068C00707D105
:105110006425A5F1C800B0FA80F04009B0BD00BF19
:105120000A20FCF723F92068C00707D16E25A5F1F6
:10513000C800B0FA80F04009B0BD00BF0A20FCF7FB
:1051400015F92068C00707D17825A5F1C800B0FA85
:1051500080F04009B0BD00BF0A20FCF707F92068C5
:10516000C00707D18225A5F1C800B0FA80F0400938
:10517000B0BD00BF0A20FCF7F9F82068C00707D1CE
:105180008C25A5F1C800B0FA80F04009B0BD00BF81
:105190000A20FCF7EBF82068C00707D19625A5F197
:1051A000C800B0FA80F04009B0BD00BF0A20FCF78B
:1051B000DDF82068C00707D1A025A5F1C800B0FA26
:1051C00080F04009B0BD00BF0A20FCF7CFF820688E
:1051D000C00707D1AA25A5F1C800B0FA80F04009A0
:1051E000B0BD00BF0A20FCF7C1F82068C00707D196
:1051F000B425A5F1C800B0FA80F04009B0BD00BFE9
:105200000A20FCF7B3F82068C0077FF4EAAEBE2599
:10521000A5F1C800B0FA80F04009B0BDFEE700007B
:1052200088B040F60007C4F20207FCF79DF9FEF7CC
:10523000A9FF002443F630060694CDE90444CDE9E5
:1052400002440194C4F202063068182140F00400C0
:1052500030603068002200F0040001900198019451
:1052600030684FF0180840F080003060306800F07F
:105270008000019001980194306840F00100306096
:10528000306800F00100019001980194306840F00E
:1052900002003060306800F0020001900198019433
:1052A000306840F008003060306800F0080001907D
:1052B00001980194306840F040003060306800F0A0
:1052C0004000019001983846FCF734F9A7F5806951
:1052D000484644F281010022FCF72CF907F580557D
:1052E0002846402100224FF0400BFCF723F94FF4F1
:1052F000005002904FF488100DF1080ACDE9030424
:1053000038465146FCF746F8CDF80880B8460127E4
:1053100040465146CDE903770594FCF73BF844F24B
:105320008100CDE9020748465146CDE90444FCF727
:1053300031F828465146CDE902B7CDE90444FCF7DF
:1053400029F88020CDE90204284651460494FCF750
:1053500021F802943068002140F400103060306879
:10536000002200F40010029002980E20FCF76AF967
:105370000E20FCF755F94DF60860A8F55841C2F229
:1053800000004FF482764FF400750A27C0E900163A
:10539000C0E90244C0E90444C0E90654C0E9084435
:1053A000C0E90A47FDF76EF810B172B6FEE700BF1C
:1053B0004DF66060A8F5E831C2F20000C0E90016C1
:1053C000C0E90244C0E90444C0E90654C0E9084405
:1053D000C0E90A47FDF756F810B172B6FEE700BF04
:1053E00040F27004C2F20004A8F5FC32204600210D
:1053F00040F80C2F4FF6FF72CDE90211C0E9011100
:10540000C2608161FDF798F910B172B6FEE700BF86
:1054100004F10C0002A9FDF731F918B172B600BF12
:10542000FEE700BF4DF6B860A8F5E031C2F200001B
:1054300000230C274FF4E13280E80E00C0E903336B
:10544000C0E90573C361FDF783FC18B172B600BFF4
:10545000FEE700BF4DF62410C2F200004FF0A0415D
:105460000160062101714FF40071C1804FF4817118
:10547000C0F809100121C181FCF734F910B172B6EE
:10548000FEE700BF12A000F039F8404610210122CB
:10549000FCF750F8404608210122FCF74BF8FEF7D4
:1054A00041FC10A000F02AF800210020C4F2A00165
:1054B000C4E901016420FBF759FFFEF7AFFC206847
:1054C0000130206000F02CF800F002F9F2E700BF94
:1054D00066696E6973686564204D5820496E697409
:1054E000730A00007374617274696E67207768696B
:1054F0006C65206C6F6F700A0000000010B50446E8
:10550000FAF7F2FF82B24DF6B860C2F2000021460F
:105510006423BDE81040FDF7B3BC000000000000AC
:105520002DE9F04F81B02DED0A8B88B04DF600705B
:10553000C2F200004FF4C051FF22FBF739F84FF2DE
:1055400064709FED550BC2F2000000F1040A51ECAB
:10555000100B9FED530B9FED548ACDE906100025EB
:1055600051EC100BCDE9041026E000BF4FF200749F
:10557000C2F2000420464DA12A468DED00BB8DED00
:1055800002CBFAF72DFF2046FAF7AEFF82B24DF6B6
:10559000B860C2F2000021466423FDF771FC4DF6AD
:1055A0000070C2F2000041F2100101800135B5F532
:1055B000006F0AF11C0A67D01AED01AA9AED009A51
:1055C0001AEE100A01F012F9049E0B4641EC1B0B77
:1055D000B5EE40AA3146F1EE10FA069FB8BF394643
:1055E000DDF8148002464046079CB8BF204600F014
:1055F000DDFC8346B5EE409A19EE100A8946F1EEBD
:1056000010FABCBF3E46A04601F0F0F802460B4639
:1056100041EC1C0B4046314600F0C8FC06460C46E7
:105620005846494600F0C6FE07463046214600F07F
:10563000C1FE2F2F9AD8002898D41F2896DC3AEE66
:105640000A0ABDEEC00A10EE100A38EE490A30EE22
:10565000000ABDEEC00A10EE101A81F306015F28A1
:10566000A8BF5F2020EAE07001EB410100EB411090
:105670004DF60071C2F2000190220A540135B5F5D1
:10568000006F0AF11C0A97D108B0BDEC0A8B01B07B
:10569000BDE8F08F00BF00BF000000000000E0BFC9
:1056A000000000000000E03F0000004272656E64F0
:1056B0006572496D61676528292C204F4F423A2059
:1056C00025643A202825662C202566290A0000003A
:1056D000B0B54DF2647444F25410C2F20104C5F244
:1056E0005240606040F60D2040F62155C5F2213051
:1056F0004DF60071C0F20A05206004F10C00C2F200
:1057000000014FF4C052A560FAF70DFF44F2215199
:1057100041F60C00C4F24E412150204445604EF643
:1057200078704DF6B864C2F2010041F61401C2F27D
:10573000000401602046FDF74BF82028FAD14DF611
:10574000B8604DF26471C2F20000C2F2010141F68C
:105750000C02BDE8B040FDF75DBC5FEA400C08BF3D
:1057600091F0000F4FEA8C234FEAC12243EA5151D6
:105770004FEA1C5018BF00F5F0404FEA300018BF48
:1057800041F000415FEA6C5C00F02980BCF1FF3F12
:1057900008BF40F080407047130C06BF12044FF062
:1057A000100C4FF0000C130E04BF12020CF1080C89
:1057B000130F04BF12010CF1040C930F04BF9200ED
:1057C0000CF1020CD30F04BF52000CF1010C114676
:1057D0004FF00002A0F11F00A0EB0C00704711F089
:1057E000004F08BF704731F000413FF4D5AF0B0CBC
:1057F00006BF09044FF0100C4FF0000C0B0E04BF55
:1058000009020CF1080C0B0F04BF09010CF1040C88
:105810008B0F04BF89000CF1020CCB0F04BF4900B1
:105820000CF1010CCCF1200322FA03F341EA03014D
:1058300002FA0CF2A0EB0C0000F10100704700002E
:1058400023F07F4720F07F4C80EA030000F0004007
:10585000ACEB070303F57C5303F1FF032DE980490B
:1058600009B44FEA144324EA03484FEA154B25EAEA
:105870000B4E0FF2042606EB13273E7803FB066758
:10588000C7F5000707FB06F64FEAD64606F1020603
:105890004FEA543707FB066CCCF1005C4FEA1C471B
:1058A0002CEA074C0CFB06F507FB06F404EB154647
:1058B0004FEA961649085FEA320234BF00204FF0E3
:1058C00000404FEAD13706FB07FC4FEA1C4C0CFBAB
:1058D0000BF7D21B03FB0CF761EB07010CFB0EF778
:1058E000B0EB074072EB17420CFB08F734BFA2EB9A
:1058F0000742B2EB074261EB17414FEA0C444FEA13
:10590000910706FB07FC4FEA1C4C0CFB0BF7B0EBB6
:10591000C74072EB573203FB0CF734BFA2EBC74210
:10592000B2EBC74261EB57310CFB0EF7B0EBC7008F
:1059300072EB57720CFB08F734BFA2EBC702B2EB55
:10594000C70261EB57714FEA816141EA92114FEA58
:10595000826242EA90124FEA806004EBCC04039F1B
:105960004FEAD13706FB07FC4FEA1C4C0CFB0BF748
:10597000D21B03FB0CF761EB07010CFB0EF7B0EB3E
:10598000074072EB17420CFB08F734BFA2EB07424B
:10599000B2EB074261EB17414FEA8C5504EB9C24B4
:1059A0004FEA910706FB07FC4FEA1C4C0CFB0BF778
:1059B000B0EBC74072EB573203FB0CF734BFA2EBDE
:1059C000C742B2EBC74261EB57310CFB0EF7B0EBAD
:1059D000C70072EB57720CFB08F734BFA2EBC7028B
:1059E000B2EBC70261EB57714FEA816141EA921154
:1059F0004FEA826242EA90124FEA806015EB4C2532
:105A000044F100044FEAD13706FB07FC4FEA1C4C77
:105A10000CFB0BF7D21B03FB0CF761EB07010CFB34
:105A20000EF7B0EB074072EB17420CFB08F734BFE0
:105A3000A2EB0742B2EB074261EB17414FEA81311B
:105A400041EA92414FEA823242EA90424FEA803084
:105A50004FEA0C7615EB1C1544F1000448EA0343A9
:105A60004EEA0B484FF0000EB2EB080C71EB030747
:105A700024BF624639464EEB0E0E4FF0000B001865
:105A8000524149414BEB0B0BB2EB080C71EB030796
:105A90007BF1000B24BF624639464EEB0E0E4FF0F1
:105AA000000B0018524149414BEB0B0BB2EB080CB9
:105AB00071EB03077BF1000B24BF624639464EEBC6
:105AC0000E0E51EA020718BF46F0010616EB0E76DD
:105AD00055F1000254F1000103D5BDE88901BDE88C
