:020000040800F2
:10000000F80C0020A1020008E52A0008DD2A0008FB
:10001000E12A000825070008793A000800000000DE
:100020000000000000000000000000000D2C00088F
:100030003507000800000000E92A0008112C00081C
:10004000BB020008BB020008BB020008BB0200089C
:10005000BB020008BB020008BB020008BB0200088C
:10006000BB020008BB020008BB020008BB0200087C
:10007000BB020008BB02000829070008BB020008F9
:10008000BB020008BB020008BB020008BB0200085C
:10009000BB020008BB020008BB020008BB0200084C
:1000A000BB020008BB020008BB020008BB0200083C
:1000B000BB020008BB020008BB020008BB0200082C
:1000C000BB020008BB020008BB020008BB0200081C
:1000D000BB020008BB020008BB0200080D3000088C
:1000E00039070008BB020008BB020008BB02000879
:1000F000BB020008BB020008BB020008BB020008EC
:10010000BB020008BB020008BB020008BB020008DB
:10011000BB020008BB020008BB020008BB020008CB
:10012000BB020008BB020008BB020008BB020008BB
:10013000BB0200080000000000000000BB02000835
:10014000BB020008BB020008BB020008BB0200089B
:10015000BB020008BB020008BB020008BB0200088B
:10016000BB020008BB020008BB020008BB0200087B
:10017000BB020008BB020008BB0200080000000030
:1001800000000000BB0200080000000000000000AA
:10019000BB0200080000000000000000BB020008D5
:1001A000000000000000000000000000BB0200088A
:1001B000BB020008BB020008BB020008BB0200082B
:1001C000BB02000800F002F800F05AF814A696E806
:1001D000000CB244B344DA4501D100F051F8BAE85A
:1001E0000F000FA696E83000A5EB040504EB060708
:1001F000AAEB0704A7F101074FEA15154FEA3414DB
:10020000A4F10104AC4201D300F03AF813F0010F5D
:1002100018BFFB1A43F0010300F001F8DBE71847B1
:10022000DC400000FC400000103A24BF78C878C1D0
:10023000FAD8520724BF30C830C144BF04680C60EC
:1002400070470000704700000023002400250026AE
:10025000103A28BF78C1FBD8520728BF30C148BF29
:100260000B607047642900F0FB80782900F034812E
:10027000002070471FB503F0E2FF1FBD10B510BD91
:1002800000F015FA1146FFF7F5FF03F063FE00F0EA
:1002900033FA03B4FFF7F2FF03BC00F03BFA0000AF
:1002A0000948804709480047FEE7FEE7FEE7FEE70A
:1002B000FEE7FEE7FEE7FEE7FEE7FEE70448054946
:1002C000054A064B70470000C12C0008C501000814
:1002D000F8060020F80C0020F8080020F80800209C
:1002E00053EA020C00F069802DE9F04B4FF0000654
:1002F000002B1FBFB3FA83F503FA05F424FA05F6C1
:100300005E4012BF1643B2FA82F502FA05F4C5F157
:1003100020051EBF22FA05FC44EA0C04203556EAEB
:10032000044C4FEA144418BF641C4FF000084FF00F
:100330000009904271EB030C39D3002919BFB1FABF
:1003400081F701FA07F6B0FA80F700FA07F6C7F16D
:1003500020071EBF20FA07FC46EA0C062037B6FB32
:10036000F4FCA7EB0507103F07F01F0BCBF12006AD
:100370002CFA06F60CFA0BFB44BFB3460026202FDE
:10038000A4BF5E464FF0000B5BEA060C08BF4FF0BF
:10039000010B19EB0B0948EB0608ABFB027C06FBD3
:1003A00002CC0BFB03CCC01B71EB0C01C1E70B466D
:1003B000024641464846BDE8F08B13B5084318BFD6
:1003C0004FF0FF300146AFF30080BDE81C4070479E
:1003D0000FB41CB5074B06AA7B44694600900598EC
:1003E00000F04DF90020694600F05CF91CBC5DF896
:1003F00014FB0000C90200002DE9F0410E4604463E
:10040000002020622046E168884730B3252805D0C7
:10041000D4E901219047206A401CF2E7E1682046B8
:1004200000278847050018D0A5F14100192802D8F7
:1004300020354FF400673246294620462760FFF7F3
:1004400011FF40B1012804D0F61D26F0070608363A
:10045000D8E7361DD6E72846DAE7206ABDE8F081FE
:100460002DE9F0410646002410687529314616A58D
:1004700010D0AFF30080002802DA404213A507E055
:1004800031688A0701D512A502E0490704D511A5F4
:10049000012401E0AFF3008000210A2206F12407C5
:1004A00009E0B0FBF2FCB0FBF2F302FB1C003030C1
:1004B00078541846491C0028F3D123462A46304672
:1004C000BDE8F04100F07DB8000000002D00000004
:1004D0002B0000002000000070B504460D462146A8
:1004E0001068AFF300802188090502D50F4A7A44CD
:1004F00002E00E4A7A440E32002104F1240305E0A2
:1005000000F00F060009965D5E54491C0028F7D1E3
:1005100020780023000704D5702D02D009B10223F2
:1005200011322046BDE8704000F04BB8663D000037
:1005300010B5431C02E010F8011B71B18107FAD11C
:100540004FF0013202C88C1A8C4314EAC211F9D060
:10055000C01A0A0603D0C01E10BDC01A10BD0A047E
:1005600001D0801E10BD0902FCD0401E10BD4FF00E
:10057000000200B5134694469646203922BFA0E8F3
:100580000C50A0E80C50B1F12001BFF4F7AF0907FF
:1005900028BFA0E80C5048BF0CC05DF804EB8900F0
:1005A00028BF40F8042B08BF704748BF20F8022B33
:1005B00011F0804F18BF00F8012B7047704770474B
:1005C00070472DE9F0470D4699469246044600F1E2
:1005D00024080168880604D5E06921F01001216033
:1005E00000E00120A84201DD471B00E00027A169CF
:1005F0007A1902EB0900081AA0612078C00602D41B
:100600002046AFF30080002608E0D4E901211AF863
:1006100006009047206A401C761C20624E45F4DBA1
:100620002078C0060AD52046AFF3008006E0D4E962
:10063000012130209047206A401C2062381EA7F11B
:100640000107F4DC07E0D4E9012118F80500904720
:10065000206A401C2062281EA5F10105F3DC20461B
:10066000AFF300802078000602D50220BDE8F087B5
:100670000120FBE701694A1C02610878704700B558
:100680008FB0CDE901310021059105497944CDE9CB
:10069000031011466846FFF7AFFE0FB000BD000023
:1006A000E5FFFFFF0A6802F8010B0A607047754614
:1006B00000F02CF8AE4605006946534620F00700CE
:1006C000854618B020B5FFF7F9FDBDE820404FF092
:1006D00000064FF000074FF000084FF0000BAC464B
:1006E000ACE8C009ACE8C009ACE8C009ACE8C00996
:1006F00021F007018D46704710B50446AFF3008026
:100700002046BDE81040FFF7C4BD00000048704718
:100710001000002001491820ABBEFEE726000200B1
:1007200070470000FEE7000040F27000C2F20000D7
:1007300000F06CB87047000080B54FF4005000F036
:100740000FFA4FF40040BDE8804000F009BA000005
:1007500072B600BFFEE7000070B5866D044600F07B
:10076000E1FA94F83510022928D105462068216C59
:10077000026822F016020260426922F080024261A1
:1007800009B9A16C19B1016821F008010160016883
:1007900021F00101016000BF20680068C00715D08A
:1007A00000F0C0FA401B0628F6D320206065032025
:1007B00084F83500002184F8341070BD8020606515
:1007C0000120002184F8341070BD00BFE06D3F218E
:1007D00001FA00F0B060012084F83500002000210B
:1007E00084F8341070BD000090F83510022909D14A
:1007F000052180F835100068016821F001010160D1
:10080000002070478021416501207047F0B581B01C
:100810000021009140F20801C2F200010B68D0E90A
:10082000166148F2B51537680822C1F64E358A4080
:100830003A42A3FB05350CD003681C68640708D551
:100840001C6824F004041C60B260426D42F0010296
:10085000426501228A403A4208D003685B691B0660
:1008600004D5B260426D42F00202426504228A4021
:100870003A4208D003681B689B0704D5B260426DFA
:1008800042F00402426510228A403A4219D00168BF
:100890000B681B0715D5B2600B680A685B0309D4A7
:1008A000D20509D40A6822F008020A60016C29B94D
:1008B00007E000BF110341D4016C11B10446884721
:1008C0002046C26D202101FA02F33B4243D0016869
:1008D0000F68FF063FD5B36090F835700B68052FA1
:1008E0001CD123F016030B604B6923F080034B618E
:1008F000036C0BB9836C1BB10B6823F008030B600E
:100900003F219140B160012180F83510016D002236
:10091000002980F8342054D158E000BF0A685B03F6
:1009200010D4D20512D40A6822F010020A60012104
:1009300080F83510002180F8341007E0816C002920
:10094000BCD1BEE7110301D4416C00E0C16B11B111
:10095000044688472046416DC1B3416DC9072ED07A
:10096000052180F835100168AA0A0B6823F00103FD
:100970000B60009B0133934200931AD80B68DB078E
:1009800017D0009B01339342009312D80B68DB070A
:100990000FD0009B0133934200930AD80B68DB070A
:1009A00007D0009B01339342009302D80B68DB070A
:1009B000DFD1012180F83510002180F83410C16C9E
:1009C00021B101B0BDE8F040084700BF01B0F0BD63
:1009D0002DE9F041044600F0A5F9ECB105460220EE
:1009E00084F835000020216884F83400086820F07D
:1009F0000100086021680868C00711D000F092F972
:100A0000401B0528F6D9032520230320636584F8BD
:100A10003550BDE8F08100BF0120BDE8F08100BF86
:100A2000086848F23F02CFF21002D4E9013500EA2B
:100A3000020C04F10C0898E8C10143EA0C032B43B3
:100A40001843D4E9072E304338431043626A40EA22
:100A50000E00042A40EA08031CD1206BD4E90A2EB8
:100A600040EA0E00184308604869BEF1000F20F00C
:100A7000030040EA020040F0040C11D0B8F5005F1A
:100A800036D0B8F1000F45D1022A46D0012A3BD01A
:100A900032B942E00B60486920F0070040EA020CDE
:100AA00001F0F8004AF6AB221038CAF6AA22A0FBE1
:100AB00002231A0944F29823C1F814C0C0F60003B7
:100AC0009A5C40F2FF335F284FF03F0021EA0301B8
:100AD00000FA02F088BF0431C4E9161288600023CE
:100AE00001250020636584F83550BDE8F08100BF22
:100AF000032AD5D8012540230120DFE802F0030EA8
:100B0000030500BF82E700BFAEF1C070B0FA80F00D
:100B1000400904E0032A04D3C2D1CEF300600028C8
:100B2000BED0012540230120636584F83550BDE81F
:100B3000F0810000B0B5044600F0F4F8054640F23C
:100B40000000C2F200000078611C18BF044400BF1E
:100B500000F0E8F8401BA042FAD3B0BD7047000097
:100B600043F61441C4F201010A68024214BF08604E
:100B70007047FFF7F3BF00002DE9F04F83B000F19D
:100B8000200200F13E4741F60005009207F1FF7791
:100B9000C4F2020507224FEAB726A84208BF062280
:100BA00000254FF000084FF00009062E38BF4FEA2D
:100BB000B72201920AE000BF09F1010908F1020819
:100BC000B9F1100F05F1040500F0A2800F680122B1
:100BD00002FA09FE17EA0E0AEED0D1F804C0032289
:100BE0000CF003077E1E02FA08F4012E6FEA040BD4
:100BF00012D88468CE6804EA0B0406FA08F6344377
:100C00008460446824EA0E06CCF3001404FA09F464
:100C10002643466004E000BF032F01D103271EE0F6
:100C2000C6688C6806EA0B0604FA08F42643022F0D
:100C3000C66014D16FF00302009E02EA590756F80D
:100C400007C005F01C040F220B69A2402CEA020227
:100C5000A3401A43F251D1F804C00CF00307026814
:100C600007FA08F302EA0B021A431CF4403F026041
:100C7000A2D0002243F644030292C4F202031A688F
:100C800043F6004442F480421A601A68C4F2010438
:100C900002F480420292029A29F003024FF6084CB5
:100CA0002244CFF6FF7C52F80C3005F00C070F26DB
:100CB000BE40B343019E06FA07F73B4342F80C30AF
:100CC000A2684B6842EA0A0743F60C4CDE0258BFA2
:100CD00022EA0A07A760C4F2010CDCF800209E0299
:100CE00042EA0A0758BF22EA0A07CCF80070626895
:100CF0009E0342EA0A0758BF22EA0A076760226891
:100D0000DB0342EA0A0758BF22EA0A07276053E7D3
:100D100003B0BDE8F08F0000002A08BF090481611C
:100D20007047000040F2F460C2F2000000687047B3
:100D300040F2000040F2F461C2F20000C2F2000191
:100D400000780A68104408607047000080B543F6D8
:100D50000040C4F20200016841F4007101600168C2
:100D600041F480610160016841F4807101600320F9
:100D700000F086F8002000F005F800F027F80020C9
:100D800080BD000070B540F20006C2F2000640F2DD
:100D900008013278C2F200014FF47A730968B3FB9C
:100DA000F2F20446B1FBF2F1084601F0BBF90F2C58
:100DB0004FF0010508D838B94FF0FF302146002226
:100DC000002500F031F87460284670BD82B0002024
:100DD00043F640010190C4F202014A6842F48042A5
:100DE0004A604A6802F480420192019A00900868C1
:100DF00040F080500860086800F080500090009833
:100E000002B07047002848BF704700F01F01012260
:100E100002FA01F11C2202EAD0004EF20012CEF2D8
:100E2000000281507047000010B54EF60C5CCEF207
:100E3000000CDCF80030C3F3022E8EF00704042C03
:100E400028BF0424BEF103034FF0FF3E0EFA04F462
:100E500038BF0023A14399400EFA03F39A4311438C
:100E600000F00F0200F160430901043A03F5644306
:100E70006244002848BF02F10C03197010BD000045
:100E80004EF60C51CEF200010A684FF6FF031A40ED
:100E900060F30A2242F0806040F0FD700860704705
:100EA00001220168C0F8D824002280F8CC24886987
:100EB00040F000608861486D40F0805040F00302CF
:100EC00000204A6570470000002804BF01207047D9
:100ED000F0B581B00446056890F8950428B9002063
:100EE00084F89404204600F02DF90320B5F1A04FBA
:100EF00084F8950404BF0020A071206802F000FC73
:100F000094E80F00267C009602F086F8002840F056
:100F100000812068002102F0FBFB002840F0F980EE
:100F200094F804E0BEF1000F00F0EC800EF0030C2A
:100F3000BEF1040F4FF0000240D30EF0FC03A4F109
:100F400090000321012500BFCE1E80F8A460A0F808
:100F5000BE608E1E80F8C860A0F8E2604E1E80F869
:100F6000EC60A0F8066180F81011A0F82A110E1D9F
:100F7000013180F8A55080F8A820C0E92B22C0F8E4
:100F8000B42080F8C95080F8CC20C0E93422C0F8E1
:100F9000D82080F8ED5080F8F020C0E93D22C0F85C
:100FA000FC2080F8115180F81421C0E94622C0F8D5
:100FB0002021903099423146C6D1F21EBCF1000F7B
:100FC00031D004F1140002EBC20100EB81050123D2
:100FD00000F821200021BCF1010F6B706A83297198
:100FE000C5E9021129611ED0551C05EBC50600EBB1
:100FF0008607BCF1020F7B7000F826507D833971A3
:10100000C7E9021139610ED0911C01EBC10200EB5E
:101010008203012500F8221000205D7059831871A9
:10102000C3E902001861BEF1000F6BD0BEF1040FDE
:101030004FF0000236D30EF0FC000321234600BF20
:10104000CF1E83F854728F1E83F878724F1E83F878
:10105000C0120D1D013183F8552283F85822C3E9CF
:101060009722C3F8642283F8792283F87C22C3E9AB
:10107000A022C3F8882283F89D2283F89C7283F80B
:10108000A022C3E9A922C3F8AC2283F8C12283F8C5
:10109000C422C3E9B222C3F8D02290338142294648
:1010A000CED1EA1EBCF1000F2CD004F5157002EB76
:1010B000C20300EB83070021BCF1010F797000F837
:1010C00023203971C7E9021139611BD0531C03EB8E
:1010D000C30700EB8706BCF1020F717000F82730E0
:1010E0003171C6E9021131610CD0911C01EBC102D2
:1010F00000EB820300275F7000F822101F71C3E924
:1011000002771F6194E80F00277C009702F09EF899
:1011100030B1022084F89504012001B0F0BD00BF79
:1011200000206074012084F89504207B012802D1FE
:101130002046FFF7B5FE206802F078F8002001B0E5
:10114000F0BD0000F0B59DB0044600201C90CDE934
:101150001A00CDE9180001A804305821FFF707FA5A
:101160002068B0F1A04F01D01DB0F0BD4FF48070E9
:10117000019001A800F03EF8002818BFFFF7E8FA38
:10118000002743F630060097C4F2020630680024B8
:1011900040F0010030603068C4F2020400F0010049
:1011A000009000984FF4E85018900220CDE91907FC
:1011B00003201B900A2018AD1C9020462946FFF7FB
:1011C000DBFC4FF40070CDE91807204629461A973A
:1011D000FFF7D2FC706840F0800070600097706983
:1011E00040F480407061706900F480400090009885
:1011F0001DB0F0BD2DE9F04381B00446006843F610
:101200008C06C107C4F2020604D14FF00009810721
:101210000CD415E03168A26B21F0C061114331603C
:10122000B2FA82F14FEA5119810709D53168E26BB0
:1012300021F0C05111433160002A08BF4FF001096D
:10124000410705D44FF00008010712D420E000BF89
:101250003168226B21F4401111433160B2FA82F1FE
:101260004FEA5118B2F5801F08BF4FF0010901077E
:101270000ED53168626B21F440011143B2F5800F45
:10128000316008BF4FF00109002A08BF4FF0010884
:1012900081065AD50020009056F84C0C47F2000702
:1012A00040F0805046F84C0C56F84C0CC4F2000745
:1012B00000F0805000900098386840F480703860EA
:1012C000FFF730FD054600BF3868C00506D4FFF7BC
:1012D00029FD401B0228F7D990E100BF56F81C0CED
:1012E00010F4407017D0216C01F44071884212D084
:1012F00056F81C0C40F64061C4F24721012220F44C
:1013000040700A6000220A6046F81C0C56F81C0C5B
:10131000C00740F07B812068216C56F8842C4FF682
:10132000FF4701F4407322F4F812C0F6FF770F4034
:10133000B3F5407F08BF3A4346F8842C56F81C2C7E
:101340006FF31F31114346F81C1CC10610D401066F
:1013500019D441061FD4C10525D4810530D44105D7
:1013600036D4B9F1010F18BFB0F5006F3CD062E080
:1013700094F8580040F64061C4F24721C1F8A00338
:1013800020680106E5D5B168E26C21F44001114303
:10139000B1604106DFD5B168A26C21F080611143D4
:1013A000B160C105D9D5B168626D21F0006111430A
:1013B000B160B2F1006F08BF4FF001088105CED5D2
:1013C000B168626C21F080511143B1604105C8D50C
:1013D000B268216D22F000520A43B0F5006FB2608E
:1013E00018BFB1F1005F23D140F26809C4F2472968
:1013F0000020C9F80000FFF795FC054656F88C0C54
:10140000000105D5FFF78EFC401B0228F6D9F5E058
:101410002068C10702D0A16B00296FD0810702D5D7
:10142000E16B00296AD0410700F17D807FE000BFB9
:10143000B9F1010FD8D0B8F1000F4FF0000000F063
:10144000DE806827C4F24727B860FFF76BFC0546CB
:1014500056F88C0C800005D5FFF764FC401B022871
:10146000F6D9CBE02068410701D5216B19B10107FE
:101470001AD5616BC1B956F8041CD4E9062301F4EE
:101480004031656A114341EA831141EA0561D4F8AC
:101490002CC046F8041C31686FF0FF0221F4F851AB
:1014A00002EB0C2211433160C00516D5606DB0F11E
:1014B000006F12D156F8040C226AD4E9061300F02A
:1014C0007060D2034FF6FF75AA430843A2F580323D
:1014D00040EA8310104346F8040C0120B860FFF77F
:1014E00021FC044656F88C0C800000F18B80FFF73D
:1014F00019FC001B0328F5D380E000BF56F8081C38
:1015000056F8082CD4E9013501F4403102F070623C
:1015100019436769114341EA851141EA077146F8A9
:10152000081C410703D5216BB1F5801F05D00107C9
:101530001FD5616BB1F5800F1BD156F8081C56F80A
:10154000082CD4E9013701F4403102F0E04219439C
:101550002569114341EA871141EA0561D4F828C0A1
:1015600046F8081C3168ACF1010221F01F0111435B
:10157000316041051FD5216DB1F1005F1BD1271DE1
:1015800056F808CC56F8082CA8CFFF034FF6FF7189
:1015900027EA01014FF0C06702F0E04207EA4C275A
:1015A00007F100771A433A43A1F5803142EA8512E8
:1015B000114346F8081C000510D5271D8FCF40EABF
:1015C0008110D1034FF6FF729143A1F5803140EABB
:1015D0000360084340EA077046F8080C0120C9F888
:1015E0000000FFF79FFB054656F88C0C00013FF505
:1015F00022AFFFF797FB401B0228F5D9032001B06B
:10160000BDE8F083002001B0BDE8F083FFF78AFB5E
:10161000054641F2883700BF56F81C0C80073FF59D
:101620007AAEFFF77FFB401BB8424FF00300F3D9BF
:10163000E5E70000002804BF012070472DE9F041D4
:1016400043F60808C4F202080446D8F8F8030D4629
:1016500000F00F00884207D288F8F853D8F8F80352
:1016600000F00F00A84277D12068810717D5410705
:1016700005D5D8F8001041F4E051C8F80010010772
:1016800005D5D8F8001041F46041C8F80010D8F82A
:101690000010A26821F0F0011143C8F80010C00743
:1016A00040D1D8F8F80300F00F00A84207D988F815
:1016B000F853D8F8F80300F00F00A8424CD1206886
:1016C000410707D5D8F80010E26821F4E051114332
:1016D000C8F80010000708D5D8F80000216920F4E8
:1016E000604040EAC100C8F8000000F07DF8D8F87A
:1016F000001044F28022C1F30311C0F60002515CD5
:1017000040F2080220FA01F140F20400C2F20000A7
:101710000068C2F200021160FFF734FB0020BDE850
:10172000F08100BF6068811E022907D258F8081CAA
:1017300089015CBF0120BDE8F08111E0012807D1DB
:1017400058F8081C89035CBF0120BDE8F08107E060
:1017500058F8081C890703D40120BDE8F08100BFB8
:10176000D8F8001021F003010843C8F80000FFF783
:10177000D9FA064641F28837D8F80000616800F0CF
:101780000C00B0EB810F8CD0FFF7CCFA801BB84275
:10179000F2D90320BDE8F08140F2080043F60801C9
:1017A000C2F20000C4F202010068096844F290220B
:1017B000C1F38221C0F60002515CC84070470000AE
:1017C00040F2080043F60801C2F20000C4F2020130
:1017D0000068096844F29022C1F34231C0F6000269
:1017E000515CC8407047000010B543F60404C4F2D1
:1017F00002046068C0F3810142F20040C0F2F400CC
:10180000DFE801F04202081841F20020C0F27A003D
:1018100010BD00BF216801F03F0221682368490222
:10182000C3F3881116D4A1FB00010023FEF758FD75
:1018300017E000BF216801F03F02216823684902D8
:10184000C3F3881114D4A1FB00010023FEF748FD67
:1018500015E000BF41F20020C0F27A004843B0FB1F
:10186000F2F021680222C1F3014102EB410109E0DB
:1018700041F20020C0F27A004843B0FBF2F0216848
:10188000C1F30271B0FBF1F010BD0000002804BFED
:10189000012070472DE9F04182B00446007843F6FC
:1018A0000006C007C4F202060CD0B06800F00C00BD
:1018B000042840F089803068800303D560680028E0
:1018C00000F050812078800723D5B06810F00C0F0D
:1018D00011D0B06800F00C00082802D170684002F6
:1018E00009D5B06800F00C000C2840F09F807068AB
:1018F000400200F19B803068800703D5E068012832
:1019000040F030813068216920F0F80040EAC100E1
:1019100030602078000713D4207840072AD4A569C6
:10192000002D00F01A81B06800F00C00082840F08B
:10193000AB80012D40F0E880012002B0BDE8F081CD
:101940006069002840F20000C4F2472000F088805F
:101950000121C0F8801EFFF7E5F90546706F80078A
:10196000DAD4FFF7DFF9401B0228F7D9032002B0D1
:10197000BDE8F081306C5FEAC0080AD40020019015
:10198000306C40F080503064306C00F0805001903A
:10199000019847F20007C4F200073868C00537D441
:1019A000386840F480703860FFF7BCF9054600BF26
:1019B0003868C0052CD4FFF7B5F9401B0228F7D9C9
:1019C000032002B0BDE8F081B06800F00C000828E8
:1019D00003D1706840023FF56EAFB06800F00C00B4
:1019E0000C2803D1706840023FF565AF616830682C
:1019F000B1F5803F07D0B1F5A02F40F0CB8040F487
:101A000080203060306840F480303060CBE000BF30
:101A1000A168306F012905D0052957D140F0040095
:101A20003067306F40F00100306759E0E06800280F
:101A300000F09C800020C4F2472001210160FFF7E4
:101A400071F90546306880073FF55CAFFFF76AF92A
:101A5000401B02284FF00300F4D902B0BDE8F0812A
:101A60000021C0F8801EFFF75DF90546706F800702
:101A70007FF552AFFFF756F9401B0228F6D9032035
:101A800002B0BDE8F08100BF0027C4F24727002064
:101A90003866FFF747F9022D05460BD13068800103
:101AA00040F19280FFF73EF9401B02284FF00300FF
:101AB000F4D9D2E7306880014FD5FFF733F9401BE6
:101AC00002284FF00300F5D9C7E700BF20F001005E
:101AD0003067306F002920F00400306700F09880F4
:101AE000FFF720F9054641F2883700BF306F8007C5
:101AF00000F1A080FFF716F9401BB842F6D9032089
:101B000002B0BDE8F08100BF7068E16900F48002B6
:101B10008A4227D1216A00F03F028A4222D147F649
:101B2000C071626A0140B1EB821F1BD1A16A4FF6FE
:101B3000FF73C903994300F44032A1F580318A4212
:101B400010D1E16A00F07062B2EB016F0AD1216B33
:101B500000F0E040B0EB017F04D1002002B0BDE80E
:101B6000F08100BF012002B0BDE8F0810020C4F286
:101B7000472000210160FFF7D5F80546306880074F
:101B80007FF5C7AEFFF7CEF8401B02284FF00300E9
:101B9000F4D962E720F4803030603068002920F406
:101BA0008020306050D0FFF7BDF8054630688003D4
:101BB0003FF588AEFFF7B6F8401B6428F6D903203E
:101BC00002B0BDE8F08100BF04F11C052FCD246BED
:101BD000084340EA8210D9034FF6FF729143A1F502
:101BE000803140EA0560084340EA047070600120DB
:101BF0003866FFF797F8044630688001ADD4FFF7E8
:101C000091F8001B02284FF00300F5D925E700BF2B
:101C1000FFF788F8054641F2883700BF306F80072C
:101C200008D5FFF77FF8401BB8424FF00300F5D905
:101C300013E700BFB8F1000F3FF571AE306C20F034
:101C4000805030646BE600BFFFF76CF8054600BFBC
:101C5000306880037FF536AEFFF764F8401B6428D8
:101C60004FF00300F4D9F8E670B528B1416A29B104
:101C700000210161142106E0012070BD4168B1F529
:101C8000827F02D01C21002242500026866290F8FA
:101C9000511029B980F85060054600F03DF82846FB
:101CA000022180F8511090E82E0002F482720C6834
:101CB00003F4044324F040040C601A4405F4006368
:101CC00005691A4405F0020345691A4405F0010349
:101CD0008569C4691A4405F400731A4404F0380392
:101CE000046A1A4404F08003846A1A4304F400531B
:101CF0001A430A60436A042202EA154203F0100301
:101D00001A444A60CA6922F40062CA610121466528
:101D100080F85110304670BD80B586B0006843F63B
:101D20000042C4F2000200219042CDE90411CDE945
:101D30000211019124D043F20001C4F20101884252
:101D400049D1002043F630010090C4F202014A69F3
:101D500042F480524A614A6902F480520092009A29
:101D600000900868E02240F0010008600868052142
:101D700000F00100009000980020C4F202001FE073
:101D800043F630000091C4F20200026942F40042BE
:101D90000261026902F400420092009A0091016817
:101DA0004FF4E05241F0040101600068062100F0A8
:101DB0000400009000980020C4F2020000F50060CA
:101DC000019202220292002203920322CDE9042111
:101DD00001A9FEF7D1FE06B080BD00002DE9F04359
:101DE00083B01E4615460F460446FEF79BFF94F847
:101DF00051108146012909D1002F4FF0010018BF71
:101E0000002D0FD103B0BDE8F08300BF6068B0F5CE
:101E1000827F0DD104294FF00200F3D1A16800297F
:101E2000EAD0EFE7002EEDD094F85000012803D15E
:101E3000022003B0BDE8F083012084F8500094F83C
:101E40005100002104281CBF052084F85100616561
:101E5000A563E687A6872763E6862068A6862164B1
:101E600061640168490603D4016841F040010160E2
:101E70006168731EE268B1FA81F1B3FA83F3DDF8A9
:101E8000288049095B09B2F5006F41EA030165D179
:101E900031B137F8021BC1602763E08E0138E0865C
:101EA000012518F1010032D102E000BFFEF73AFF30
:101EB000E08E18B9E08F002800F0B88020688168B3
:101EC00089070CD5E18E51B1012D08D1216B002578
:101ED00031F8022BC2602163E18E0139E18681680D
:101EE000C907E3D0E18F0029E0D0C068A16B0125CC
:101EF00021F8020BA163E08F0138E087D6E700BF2D
:101F0000FEF710FFA0EB0900404580F0A580E08EB1
:101F100018B9E08F002800F089802068816889075F
:101F20000CD5E18E51B1012D08D1216B002531F87E
:101F3000022BC2602163E18E0139E1868168C90705
:101F4000DED0E18F0029DBD0C068A16B012521F82C
:101F5000020BA163E08F0138E087D1E739B139780E
:101F60000173206B01302063E08E0138E08601258B
:101F700018F1010032D101E0FEF7D4FEE08E10B975
:101F8000E08F002852D02068816889070ED5E18E45
:101F900061B1012D0AD1216B002509780173216BF4
:101FA000206801312163E18E0139E1868168C9072A
:101FB000E2D0E18F0029DFD0C068A16B0125087055
:101FC000A06B0130A063E08F0138E087D4E700BF49
:101FD000FEF7A8FEA0EB090040453DD2E08E08B90F
:101FE000E08F18B32068816889070ED5E18E61B152
:101FF000012D0AD1216B002509780173216B20681E
:1020000001312163E18E0139E1868168C907DFD0A2
:10201000E18F0029DCD0C068A16B01250870A06B9E
:102020000130A063E08F0138E087D1E7204602212C
:1020300001224346CDF8009000F058FDB0B1606D2C
:1020400040F02000606520206065002084F850008A
:10205000012003B0BDE8F083012084F85100002086
:1020600084F85000032003B0BDE8F08340F208007C
:10207000C2F20000006849F68171C1F25E61A0FB06
:102080000101480D4FF47A71484302906068B0F541
:10209000827F0BD12046802100224346CDF800905C
:1020A00000F024FD0028CAD124E000BF029808B344
:1020B0000298013802902068806800061AD50298BC
:1020C000C0B102980138029020688068000611D5DE
:1020D000029878B102980138029020688068000662
:1020E00008D5029830B102980138029020688068C3
:1020F0000006DBD4A06838B9002001902068C168D0
:102100000191806801900198012084F8510000201D
:1021100084F85000606D002818BF012003B0BDE8AE
:10212000F0830000411E0020B0EB116F1CBF0120A6
:1021300070474EF21002CEF2000251604EF623516B
:10214000CEF20001F0230B70072190601160704700
:1021500090F83C20012A4FF0020254D010B580F8CC
:102160003D200268D2F804E0D2F808C00C682EF0D6
:102170007003234341F2FF74C4F20004A24253608F
:102180000EDC40F2FF73C4F200039A4216DCB2F197
:10219000804F2BD040F20043C4F2000324E000BF84
:1021A00040F2FF33C4F201039A4213DC41F600030C
:1021B000C4F200039A4219D0002313E040F6000352
:1021C000C4F200039A4211D040F60043C4F2000367
:1021D0000AE000BF44F20003C4F201039A4205D0B2
:1021E00040F20043C4F201039A4204D149682CF042
:1021F0008003194391600121002280F83D1080F88E
:102200003C20BDE81040104670470000002804BF85
:102210000120704710B5044690F83D0028B9002011
:1022200084F83C00204600F01FF8022084F83D00AE
:102230002068211D00F04EFD012084F8460084F83E
:102240003E0084F83F0084F8400084F8410084F8A0
:10225000420084F8430084F8440084F8450084F880
:102260003D00002010BD0000006841F20001C4F2F2
:102270000001884218BF704781B00020009043F6EB
:102280004000C4F20200016841F0100101600068E2
:1022900000F010000090009801B0704770470000F7
:1022A00070470000B0B582B001680A68CC684B691D
:1022B00002F02F05202D04F0200505D125B102B034
:1022C000BDE8B04000F0AEBD5FEA027C1EBF03F087
:1022D000010E04F4907313EB0E0341D1036BD5068A
:1022E00018D5012B16D114F0100313D0002201923F
:1022F0000A6801924A680192019A496949064BD4D9
:10230000818DC28DC38D002B18BF914240F0F481A6
:1023100002B0B0BD13062DD514F080032AD090F87A
:102320004120212AF4D18268B2F5805F03D102698D
:10233000002A00F06782026A531C036212784A6026
:10234000C28C013A1304C284E2D1C86820F0800034
:10235000C860C86840F04000C86002B0B0BD00BFAF
:10236000D30718BF14F4807340F0D080530700F1F6
:10237000D380D8E05206CBD514F04002C8D0CA684A
:1023800022F04002CA60202180F8411002B0BDE86E
:10239000B04000F0A1BB00BFC16B0A68526893B2A5
:1023A000002BB5D0858DAB42B2D2C285C969B1F5DB
:1023B000807F00F0A080016851E8031F026821F4CB
:1023C000807142E80313DBB1016851E8031F026822
:1023D00021F4807142E8031393B1016851E8031FAF
:1023E000026821F4807142E803134BB1016851E89F
:1023F000031F026821F4807142E80313002BDAD135
:10240000016851E8051F026821F0010142E8051347
:10241000BBB3016851E8051F026821F0010142E8E1
:10242000051373B3016851E8051F026821F001012B
:1024300042E805132BB3016851E8051F026821F03B
:10244000010142E80513002BDAD11AE0016851E8D6
:10245000051F026821F0400142E80513DBB1016865
:1024600051E8051F026821F0400142E8051393B1CD
:10247000016851E8051F026821F0400142E8051398
:102480004BB1016851E8051F026821F0400142E8A4
:102490000513002BDAD1202180F8421000210163BE
:1024A000016851E8031F026821F0100142E803139C
:1024B000DBB1016851E8031F026821F0100142E816
:1024C000031393B1016851E8031F026821F0100162
:1024D00042E803134BB1016851E8031F026821F081
:1024E000100142E80313002BDAD1C16B0446084601
:1024F000FEF732F9204602214163818DC28D891A8F
:1025000089B202B0BDE8B040FFF7C8BE436C43F0EB
:1025100001034364530706D5BEF1000F03D0436C9B
:1025200043F002034364930706D5BEF1000F03D0C6
:10253000436C43F004034364BCF1000F06D55EEA2C
:10254000050303D0436C43F008034364436C002B42
:102550003FF4DEAE920605D525B1044600F062FCDC
:10256000216820464969426C01F0400102F00802EE
:10257000891800F0B98000BF016851E8031F0268A4
:1025800021F4907142E80313BBB3016851E8031FC3
:10259000026821F4907142E8031373B3016851E8B3
:1025A000031F026821F4907142E803132BB3016802
:1025B00051E8031F026821F4907142E80313002BD5
:1025C000DAD11AE0016851E8051F026821F0010123
:1025D00042E80513DBB1016851E8051F026821F0EC
:1025E000010142E8051393B1016851E8051F026833
:1025F00021F0010142E805134BB1016851E8051FC4
:10260000026821F0010142E80513002BDAD1016BC9
:10261000012924D1016851E8031F026821F010014B
:1026200042E80313DBB1016851E8031F026821F09F
:10263000100142E8031393B1016851E8031F0268D7
:1026400021F0100142E803134BB1016851E8031F68
:10265000026821F0100142E80313002BDAD1202197
:1026600080F842100021016301684969490640F180
:10267000C380016851E8051F026821F0400142E86B
:102680000513DBB1016851E8051F026821F0400124
:1026900042E8051393B1016851E8051F026821F073
:1026A000400142E805134BB1016851E8051F02687B
:1026B00021F0400142E80513002BDAD1C16B00295B
:1026C00000F09A8042F61962C0F6000204460846FD
:1026D0000A65FEF789F800283FF41AAEE06B016D39
:1026E00002B0BDE8B04008470446FFF7D9FD00201E
:1026F000606402B0B0BD00BF891A00BF026852E832
:10270000032F036822F4907243E80325BDB30268E7
:1027100052E8032F036822F4907243E8032575B34F
:10272000026852E8032F036822F4907243E80325FD
:102730002DB3026852E8032F036822F4907243E835
:102740000325002DDAD11AE0026852E8052F03684C
:1027500022F0010243E80525DDB1026852E8052FA9
:10276000036822F0010243E8052595B1026852E8AA
:10277000052F036822F0010243E805254DB10268E8
:1027800052E8052F036822F0010243E80525002DD9
:10279000DAD1202280F8422000220263026852E847
:1027A000032F036822F0100243E80325DDB102681D
:1027B00052E8032F036822F0100243E8032595B185
:1027C000026852E8032F036822F0100243E8032551
:1027D0004DB1026852E8032F036822F0100243E86B
:1027E0000325002DDAD1022289B2426302B0BDE88E
:1027F000B040FFF753BD00BF02B0BDE8B040FFF7E7
:102800004FBD00BF026A32F8023B6FF35F234B609B
:10281000026295E5002804BF0120704710B5044608
:1028200090F8410028B9002084F84000204600F0CC
:1028300021F8242084F841002068C16821F4005167
:10284000C160204600F06EFB2068016921F49041D0
:102850000161416921F02A014161C16841F40051DF
:10286000C16000202021606484F8411084F8421087
:10287000606310BDF0B587B0044644F600002168DF
:10288000C4F20000002681420696CDE90466039654
:10289000029601D007B0F0BD43F630010196C4F2B4
:1028A00002010A69032742F480220A610A6900F5DD
:1028B000E23002F480220192019A01960A6842F005
:1028C00008020A60096801F00801019101994FF4BA
:1028D000407102910221CDE903160721069102A958
:1028E0000597FEF749F940F2700546F25800C2F22A
:1028F0000005C4F202004FF00061402285E8470065
:1029000004204FF48063C5E908602846C5E9043611
:10291000C5E90666C5E90A762E63FEF759F8002870
:1029200018BFFDF715FF272000210022A563AC6327
:10293000FEF77AFA2720FEF765FA07B0F0BD00002F
:10294000704700002DE9F04381B0044690F8410043
:10295000202809D100294FF0010018BF002A07D113
:1029600001B0BDE8F08300BF022001B0BDE8F083F4
:102970000020606421201D460E4684F84100174661
:10298000FEF7D0F9A784E784A1688146B1F5805F9E
:1029900002D1206900285DD037460020E28C2168F2
:1029A000002A5DD06A1C24D0002D4AD0804600BF8A
:1029B0000868000608D4FEF7B5F9A0EB0900A842A4
:1029C0007AD82168C868F3E717B117F8010B04E05B
:1029D00038F8020B00276FF35F204860E08C013865
:1029E000E084E08C0028E3D13AE000BF0A681206D8
:1029F00009D40A68120606D40A6812065CBF0A687F
:102A00005FEA0262F2D51FB117F8012B05E000BFA3
:102A100030F8022B00276FF35F224A60E28C013A04
:102A2000E284E28C002AE4D11AE000BF30F8022BE5
:102A300000276FF35F224A60E28C013AE284E28C65
:102A400072B10A68120635D5002FEFD017F8012BA6
:102A5000F1E700BF00273046E28C2168002AA1D1AF
:102A6000086840061ED42DB3681C14D108684006BF
:102A70002AD40868400627D40868400624D4086889
:102A800040064FF00000F1D50DE000BF2068C1689E
:102A90000068400618D4FEF745F9A0EB0900A842EB
:102AA000F4D909E00020202184F8411001B0BDE8EC
:102AB000F08300BFFEF736F90320202184F841108F
:102AC00001B0BDE8F08300BF0020202184F8411050
:102AD00001B0BDE8F083000070470000FEE7000091
:102AE000FEE70000FEE70000704700002DE9F0431C
:102AF00081B0089C984615460E468146FEF712F9AD
:102B0000201A00EB0804FEF70DF940F20801C2F2AA
:102B100000010968C1F3CB3161430091D9F800107D
:102B20008A683240921BB2FA82F25209AA423DD020
:102B3000074618F1010031D0FEF7F4F8C01BA0429F
:102B400038D2009800990028A1F101010091D9F82C
:102B50000010896808BF044601EA0600801BB0FA2D
:102B600080F04009A842E7D120E000BF88683040EB
:102B7000801BB0FA80F04009A84217D08868304026
:102B8000801BB0FA80F04009A8420FD0886830401E
:102B9000801BB0FA80F04009A84207D08868304016
:102BA000801BB0FA80F04009A842DFD1002001B0BC
:102BB000BDE8F083D9E900014268B1F5827F22F0D7
:102BC000E00242600BD1D9F80810B1F5004F02D0F5
:102BD000B1F5806F03D1016821F040010160D9F89F
:102BE0002810B1F5005F07D1016821F400510160A0
:102BF000016841F400510160012089F85100002072
:102C000089F85000032001B0BDE8F0837047000050
:102C1000FEF78EB870B594B007AC20463421FDF7AE
:102C2000A6FC002543F640000695CDE90455CDE904
:102C300002550195C4F202000168022641F080515C
:102C40000160006800F080500190019847F2000098
:102C50000195C4F20000016841F440410160006840
:102C600000F4404001900198012007904FF4A0200B
:102C700008904FF480000E9004200F90A820CDE91A
:102C800010060720CDE9120620460D96FEF7FEFD40
:102C900010B172B6FEE700BF0F20CDE902064FF477
:102CA000A05005904FF48050069002A8052104958D
:102CB000FEF7C0FC10B172B6FEE700BF14B070BDE5
:102CC0004EF68850CEF20000016841F470010160B8
:102CD0007047000010B540F6FF3E0368C4F2000ED6
:102CE00040F2004C7045C4F2010C25DCB0F1804F7D
:102CF0002FD040F20042C4F20002904229D040F6A8
:102D00000002C4F20002904223D041F6FF72C4F2E6
:102D10000002904227DC70453ADCB0F1804F5BD076
:102D200040F20042C4F20002904255D040F6000248
:102D3000C4F200024EE000BF40F60042C4F20002BE
:102D4000904206D0604504D00022C4F201029042B5
:102D5000DBD14A6823F07003134341F6FF72C4F2DB
:102D600000029042D7DD43F6FF72C4F201029042A6
:102D700020DC42F20002C4F2000290422CD0002279
:102D8000C4F20102904227D0604525D028E000BF60
:102D900040F60042C4F2000290421DD041F600020B
:102DA000C4F20002904217D041F60042C4F2000281
:102DB00010E000BF44F20002C4F2010290420BD0C6
:102DC00044F60002C4F20102904205D044F20042EF
:102DD000C4F20102904203D1CA6823F44073134342
:102DE00023F080024B69D1F800E08C681A4302603E
:102DF000C46240F48062C0F828E0624504BF0969FB
:102E00000163012141610169C90708BF10BD016962
:102E100021F00101016110BD806B0021C185C184D9
:102E2000FFF73EBA81B090F84210222921D1836881
:102E30000246B3F5805F09D152F8281F52F8183CBA
:102E4000002B63D003685B680AE000BF52F8281FBC
:102E500013B90369002BF5D003685B6803F07F03A7
:102E60000B70116801311160C18D01390A04C185EF
:102E700002D001B0704700BF0168CA6822F020028A
:102E8000CA60CA6822F48072CA604A6922F00102EC
:102E90004A61202180F8421000214163026B012A1F
:102EA0003CD10163016851E8031F026821F0100161
:102EB00042E80313DBB1016851E8031F026821F007
:102EC000100142E8031393B1016851E8031F02683F
:102ED00021F0100142E803134BB1016851E8031FD0
:102EE000026821F0100142E80313002BDAD10168D7
:102EF0000A68D20606D5002200920A680092496844
:102F000000910099818D01B0FFF7C8B9026852683D
:102F10006FF35F2221F8022B8162A5E701B0FFF772
:102F20000FBD0000B0B50446006804F108030ECBE5
:102F30000569194325F440552A4302616269E36932
:102F40001143C268194349F20C639A431143C160AB
:102F50004169A26921F4407141F20043114340F4F8
:102F60008062C4F201039A42416103D1FEF728FC5A
:102F700002E000BFFEF710FCE1694FF69C75636844
:102F80001922C0F6FF75B1F5004FA0FB02011FD159
:102F90005A00DB0FFDF7A4F948F21F51C5F2EB11FF
:102FA000A0FB01235A0905F1805302FB03003223E1
:102FB00003EBC000A0FB01014FF4F87000EA111010
:102FC00000EB0210C1F34211084421688860B0BDD3
:102FD0009A009B0FFDF784F948F21F51C5F2EB11DF
:102FE000A0FB01235A0902FB0500322303EB00106A
:102FF000A0FB0101F02000EA511000EB0210C1F328
:103000004311084421688860B0BD000040F2AC6004
:10301000C2F20000FFF746B982B002F47F42B2F577
:10302000807F40F07F80826B4FF6BF7322F4803246
:103030008263C268CFF6BD731A40C260029BC26849
:10304000DBB222F44012012BC26003D1C26842F409
:103050008012C26000220092009A01320092009A0F
:10306000B2F1706F00F2BE800269002A21D4009A8A
:1030700001320092009AB2F1706F00F2B3800269DF
:10308000002A16D4009A01320092009AB2F1706FB1
:1030900000F2A8800269002A0BD4009A0132009243
:1030A000009AB2F1706F00F29D800269B2F1FF3FA9
:1030B000D2DC00220092026942F001020261009A11
:1030C00001320092009AB2F1706F00F28B800269B7
:1030D000D2071ED0009A01320092009AB2F1706FAE
:1030E00000F280800269D20713D0009A0132009268
:1030F000009AB2F1706F75D80269D20709D0009AB0
:1031000001320092009AB2F1706F6BD80269D20757
:10311000D5D14FF0000C01F47F01B1F5803F40F0B4
:10312000818077E0C26842F04002C26000220192D2
:10313000019A01320192019AB2F1706F5AD8026974
:10314000002A1ED4019A01320192019AB2F1706FE5
:1031500050D80269002A14D4019A01320192019ACE
:10316000B2F1706F46D80269002A0AD4019A01327E
:103170000192019AB2F1706F3CD80269B2F1FF3F3F
:10318000D6DC00220192026942F001020261019A3A
:1031900001320192019AB2F1706F2BD80269D20705
:1031A0001DD0019A01320192019AB2F1706F21D8BB
:1031B0000269D20713D0019A01320192019AB2F149
:1031C000706F17D80269D20709D0019A01320192B3
:1031D000019AB2F1706F0DD80269D207D7D14FF0C2
:1031E000000C09E04FF0030C01F47F01B1F5803FC2
:1031F00018D10FE04FF0030C826B13F47F4F14BF14
:1032000022F4803242F48032826301F47F01B1F50E
:10321000803F07D1816841F006018160816841F0FB
:1032200020018160604602B0704700000146D0F87E
:10323000000E20F00300C1F8000ED1F8040840F0A1
:1032400002020020C1F80428704700002DE9F04F69
:1032500086B0C3F3074516468E460021C0F8041118
:10326000C0F80811C0F80C11C0F81011C0F8141102
:10327000C0F81811C0F81C11C0F82011C0F82411B2
:10328000C0F82811C0F82C11C0F83011C0F8341162
:10329000C0F83811C0F83C1125B100F138014FF4E5
:1032A00000120FE0D0F80418802241F00201C0F8AB
:1032B0000418816B21F400118163016841F0400121
:1032C000016001460B681A430A6006F47F42002140
:1032D000B2F5807FC0F8001E08D1D0F80028B1EB0D
:1032E0001E6F09D1C0F800280AE000BFD0F800180E
:1032F00041F0030102E000BF42F00101C0F80018F4
:10330000002104910499013104910499B1F1706F85
:1033100052D8016900291ED40499013104910499FD
:10332000B1F1706F48D80169002914D404990131B2
:1033300004910499B1F1706F3ED8016900290AD453
:103340000499013104910499B1F1706F34D8016985
:10335000B1F1FF3FD6DC002104914FF4846101619B
:103360000499013104910499B1F1706F24D8016975
:1033700089061DD50499013104910499B1F1706F4A
:103380001AD80169890613D5049901310491049969
:10339000B1F1706F10D80169890609D5049901311E
:1033A00004910499B1F1706F06D801698906D7D4E8
:1033B0004FF0000A02E000BF4FF0010A0021059122
:1033C0000599013105910599B1F1706F4ED80169E8
:1033D00000291ED40599013105910599B1F1706F4D
:1033E00044D80169002914D4059901310591059942
:1033F000B1F1706F3AD8016900290AD405990131F9
:1034000005910599B1F1706F30D80169B1F1FF3FB5
:10341000D6DC00210591102101610599013105914A
:103420000599B1F1706F21D80169C90620D50599B8
:10343000013105910599B1F1706F17D80169C9067D
:1034400016D50599013105910599B1F1706F0DD827
:103450000169C9060CD50599013105910599B1F1AC
:10346000706F03D80169C906D7D401E04FF0010A93
:103470005FFA8EF94FF00008B9F1000FC0F810881C
:10348000C0F81488C0F81C8800F00D81CDF80CA09D
:10349000CDE9015ED0F800194FF0006404EA111183
:1034A0004FF67F35B9F1010BC0F80019C0F810894B
:1034B000C0F8085974D0A9F1020103290BF0030ADE
:1034C00004D20121BAF1000F40D169E000962BF03F
:1034D000030700F5186600234FF0904C4FF67F323B
:1034E0004FF0000E56F8601C0EF1040E0CEAE1716C
:1034F00046F8601C46F8503C46F8582C56F8401CDC
:1035000077450CEAE17146F8401C46F8303C46F835
:10351000382C56F8201C0CEAE17146F8201C46F8BD
:10352000103C46F8182C31680CEAE17131603361C7
:10353000B26006F18006D5D1009E0EF101014FF672
:103540007F354FF00064BAF1000F29D000F5106309
:103550004F01B446DE594FF0904202EAE67603EBA3
:103560004111DE51664600274FF67F33BAF1010F55
:103570000F618B6014D00E6ABAF1020F02EAE67294
:1035800066460A620F638B620AD00A6C4FF0904362
:1035900003EAE2720A6400220A654FF67F328A6407
:1035A000D0F8001BBBF1000F04EA1111C0F8001B9A
:1035B0004FF00001C0F8101BC0F8085BDDE9015EA8
:1035C000DDF80CA06FD0A9F1020103290BF0030C68
:1035D00004D20121BCF1000F3BD164E0A946009662
:1035E0002BF0030500F5386600234FF090474FF6A7
:1035F0007F32002156F8604C043107EAE47446F843
:10360000604C46F8503C46F8582C56F8404C8D42D9
:1036100007EAE47446F8404C46F8303C46F8382C4B
:1036200056F8204C07EAE47446F8204C46F8103C63
:1036300046F8182C346807EAE47434603361B260E9
:1036400006F18006D6D1009E01314D46BCF1000F37
:1036500029D000F530634F013446DE594FF09042D7
:1036600002EAE67603EB4111DE51264600274FF6CB
:103670007F33BCF1010F0F618B6014D00E6ABCF177
:10368000020F02EAE67226460A620F638B620AD0D4
:103690000A6C4FF0904303EAE2720A6400220A6562
:1036A0004FF67F328A64D0F810181EF47F0F21F491
:1036B0008071C0F810186FF08041C0F81880416127
:1036C00003D1816941F010018161816943F60002F3
:1036D000C8F23C02114316F47F0F816103D0816967
:1036E00041F008018161012D05D1816941F08041DE
:1036F00041F004018161504606B0BDE8F08F000042
:103700000146806820F0010200208A6070470000B6
:10371000B0B50446C068002920F0C040E06000F069
:103720009980012940F0B080E0680A2540F00050FF
:10373000E0600A20FDF7FEF954F8140FC00740F0CE
:103740009C800A20FDF7F6F92068C00740F09E80B3
:103750000A20FDF7EFF92068C00740F0A5800A2095
:10376000FDF7E8F92068C00740F0AC800A20FDF7BB
:10377000E1F92068C00740F0B3800A20FDF7DAF9CC
:103780002068C00740F0BA800A20FDF7D3F920680E
:10379000C00740F0C1800A20FDF7CCF92068C007BF
:1037A00040F0C8800A20FDF7C5F92068C00740F046
:1037B000CF800A20FDF7BEF92068C00740F0D68010
:1037C0000A20FDF7B7F92068C00740F0DD800A2025
:1037D000FDF7B0F92068C00740F0E4800A20FDF74B
:1037E000A9F92068C00740F0EB800A20FDF7A2F994
:1037F0002068C00740F0F2800A20FDF79BF920689E
:10380000C00740F0F9800A20FDF794F92068C0074E
:1038100040F000810A20FDF78DF92068C00740F0D4
:1038200007810A20FDF786F92068C00740F00E8165
:103830000A20FDF77FF92068C00740F016810A20B2
:10384000FDF778F92068C825A5F1C800B0FA80F026
:103850004009B0BDE0680A2540F08040E0600A20E1
:10386000FDF768F954F8140FC00706D00A20FDF7D9
:1038700061F92068C00711D11425A5F1C800B0FA7C
:1038800080F04009B0BD00BF0120B0BD1425A5F1F6
:10389000C800B0FA80F04009B0BD00BF0A20FDF7B3
:1038A00049F92068C00707D11E25A5F1C800B0FA64
:1038B00080F04009B0BD00BF0A20FDF73BF9206849
:1038C000C00707D12825A5F1C800B0FA80F040094B
:1038D000B0BD00BF0A20FDF72DF92068C00707D151
:1038E0003225A5F1C800B0FA80F04009B0BD00BF94
:1038F0000A20FDF71FF92068C00707D13C25A5F174
:10390000C800B0FA80F04009B0BD00BF0A20FDF742
:1039100011F92068C00707D14625A5F1C800B0FA03
:1039200080F04009B0BD00BF0A20FDF703F9206810
:10393000C00707D15025A5F1C800B0FA80F04009B2
:10394000B0BD00BF0A20FDF7F5F82068C00707D119
:103950005A25A5F1C800B0FA80F04009B0BD00BFFB
:103960000A20FDF7E7F82068C00707D16425A5F114
:10397000C800B0FA80F04009B0BD00BF0A20FDF7D2
:10398000D9F82068C00707D16E25A5F1C800B0FAA4
:1039900080F04009B0BD00BF0A20FDF7CBF82068D9
:1039A000C00707D17825A5F1C800B0FA80F040091A
:1039B000B0BD00BF0A20FDF7BDF82068C00707D1E1
:1039C0008225A5F1C800B0FA80F04009B0BD00BF63
:1039D0000A20FDF7AFF82068C00707D18C25A5F1B4
:1039E000C800B0FA80F04009B0BD00BF0A20FDF762
:1039F000A1F82068C00707D19625A5F1C800B0FA44
:103A000080F04009B0BD00BF0A20FDF793F82068A0
:103A1000C00707D1A025A5F1C800B0FA80F0400981
:103A2000B0BD00BF0A20FDF785F82068C00707D1A8
:103A3000AA25A5F1C800B0FA80F04009B0BD00BFCA
:103A40000A20FDF777F82068C00707D1B425A5F153
:103A5000C800B0FA80F04009B0BD00BF0A20FDF7F1
:103A600069F82068C0077FF4EAAEBE25A5F1C8005A
:103A7000B0FA80F04009B0BDFEE700002DE9F04F3C
:103A80009DB040F2AC68C2F2000897A140462122E6
:103A90006423FEF757FF40F60000C4F202004FF423
:103AA000804100224FF0000BFDF736F940F2B45987
:103AB00040F20B10C2F20009ADF80D004FF47A7A13
:103AC0000DF10D010DF10A02484603238DF80FB0E8
:103AD000CDF800A0FEF782F944F2D7259DF80C60DE
:103AE000C0F6000504AFFF24002818BF264638465C
:103AF000294601223346FCF76BFC3846FCF718FDDB
:103B000082B2404639466423FEF71CFF0A20FDF7C7
:103B100011F80B20ADF80D000DF10D010DF10A02A9
:103B2000484603238DF80FB0CDF800A0FEF756F9F4
:103B300004AF9DF80C300028384629464FF00002AB
:103B400018BF2346FCF744FC3846FCF7F1FC82B270
:103B5000404639466423FEF7F5FE0A20FCF7EAFFEB
:103B600040F20B20ADF80D000DF10D010DF10A0230
:103B7000484603238DF80FB0CDF800A0FEF72EF9CC
:103B800004AF9DF80C300028384629464FF0020259
:103B900018BF2346FCF71CFC3846FCF7C9FC82B270
:103BA000404639466423FEF7CDFE0A20FCF7C2FFEB
:103BB00040F60B30ADF80D000DF10D010DF10A02CC
:103BC000484603238DF80FB0CDF800A0FEF706F9A4
:103BD00004AF9DF80C300028384629464FF00B0200
:103BE00018BF2346FCF7F4FB3846FCF7A1FC82B271
:103BF000404639466423FEF7A5FE0A20FCF79AFFEB
:103C00001D2E55D11F20522100F0B0F840F2AC65B6
:103C1000C2F2000544F2A021C0F600012846252288
:103C20006423FEF78FFE40F20B10ADF80D0040F25A
:103C3000B450C2F200000DF10D010DF10A02032390
:103C40008DF80FB0CDF800A0FEF7C8F89DF80C1065
:103C5000002808BF0C4644F2D72104AEC0F600018C
:103C6000304601222346FCF7B3FB3046FCF760FCEC
:103C700082B2284631466423FEF764FE0A20FCF730
:103C800059FF04AE30A130462246FCF7A1FB304676
:103C9000FCF74EFC82B2284631466423FEF752FE02
:103CA0002D20122100F062F800201DB0BDE8F08F39
:103CB00040F2AC64C2F2000414A120462022642326
:103CC000FEF740FE04AD1AA128463246FCF780FB01
:103CD0002846FCF72DFC82B2204629466423FEF7D5
:103CE00031FE00BFFEE700BF0A2A20416363656C16
:103CF00065726F6D6574657220696E697469616C57
:103D0000697A696E67202A0A0A00000041636365C8
:103D10006C65726F6D6574657220696E6974696136
:103D20006C2072656164206661696C0A00000000A5
:103D30005265616420612076616C7565206F663A1A
:103D400020307825780A0000436F6E74656E7473B6
:103D5000206F6620726567697374657220307830F1
:103D60003120697320307825780A00002DE9F0476A
:103D7000B8B00D4604460DF1120663A130462A463E
:103D80002346FCF725FB3046FCF7D2FB82B240F21B
:103D9000AC60C2F2000031466423FEF7D3FD0A2076
:103DA0008DF80E008DF80A0040F2B4504FF0000A72
:103DB0004FF47A79C2F200000DF10E010DF10A0202
:103DC00004238DF80F408DF810508DF811A08DF858
:103DD0000B408DF80C50CDF80090FDF7FFFF8046AA
:103DE00040B140F2AC60C2F2000050A10E22642348
:103DF000FEF7A8FD40F2AC66C2F200064FA13046C5
:103E000016226423FEF79EFD44F2C6259DF80E207F
:103E10009DF80A30C0F600050DF112073846294614
:103E2000FCF7D6FA3846FCF783FB82B230463946B7
:103E30006423FEF787FD9DF80F209DF80B30384670
:103E40002946FCF7C5FA3846FCF772FB82B23046C9
:103E500039466423FEF776FD9DF810209DF80C305E
:103E600038462946FCF7B4FA3846FCF761FB82B2C3
:103E7000304639466423FEF765FD9DF811209DF814
:103E80000D3038462946FCF7A3FA3846FCF750FBBC
:103E900082B2304639466423FEF754FD0A20FCF70F
:103EA00049FE0B208DF8790040F2B450C2F20000B8
:103EB0000DF179010DF1760203238DF87A408DF82A
:103EC0007BA0CDF80090FDF789FF62B244F2D721C4
:103ED0001FAC9DF878300028C0F60001204618BFBE
:103EE000FF23FCF775FA2046FCF722FB82B230462E
:103EF00021466423FEF726FD0A20FCF71BFE404600
:103F000038B0BDE8F08700BF57726974696E6720EA
:103F10003078257820696E746F20726567697374D4
:103F2000657220307825780A0000000057726974A5
:103F300065206E6F20676F6F640A000074785F629F
:103F40007566662020202020202072785F627566CA
:103F5000660A000088B040F6000BC4F2020BFCF7C2
:103F6000F5FEFEF757FE002443F630050694CDE932
:103F70000444CDE902440194C4F202052868ABF57B
:103F8000806940F004002860286844F2810100F054
:103F900004000190019801942868002240F08000FC
:103FA0002860286800F0800001900198019428683A
:103FB00040F001002860286800F00100019001989D
:103FC0000194286840F002002860286800F0020090
:103FD000019001980194286840F008002860286842
:103FE00000F00800019001980194286840F040001A
:103FF0002860286800F04000019001984846FCF7CE
:104000008BFE0BF58066304644F204010022FCF77B
:1040100083FE0BF5805A504640210022FCF77CFEBF
:104020004FF4005002AF02904FF4881858463946BA
:10403000CDE90384FCF7A0FD44F2810002904FF02B
:10404000010B48463946CDE903B40594FCF794FDCD
:1040500044F20400CDE9020B30463946CDE904B400
:10406000FCF78AFD4FF40040CDE9020802200490DD
:1040700030463946FCF780FD4020CDE9020B504622
:104080003946CDE90444FCF777FD8020CDE90204F0
:10409000504639460494FCF76FFD28200021002289
:1040A000FCF7C2FE2820FCF7ADFE02942868002130
:1040B00040F400102860286840F6000500F4001065
:1040C000029002980E200022C4F20205FCF7ACFE1A
:1040D0000E20FCF797FE40F2B450A5F55841C2F20D
:1040E00000004FF482724FF4007380E816000A213A
:1040F000C0E90344C0E90543C461C0E90844C0E91C
:104100000A41FDF7B1FD18B172B600BFFEE700BF6E
:1041100040F26460A5F5FC31C2F200004FF6FF7278
:10412000CDE90244C0E90014C0E902428461FEF70F
:104130006DF818B172B600BFFEE700BF40F26460D0
:10414000C2F2000002A9FEF703F818B172B600BF70
:10415000FEE700BF40F2AC60A5F5E031C2F200001E
:1041600000230C274FF4E13280E80E00C0E903334E
:10417000C0E90573C361FEF74DFB18B172B600BF0D
:10418000FEE700BF40F2D000C2F200004FF0A041B5
:104190000160062101714FF481714FF40074C0F881
:1041A00009100121C480C181FCF78EFE10B172B6E6
:1041B000FEE700BF40F20C60A5F5E631C2F2000058
:1041C0004FF48272002380E80E000A21C0E9033315
:1041D000C0E90534C361C0E90833C0E90A31FDF71D
:1041E00043FD18B172B600BFFEE700BF28464FF48A
:1041F00080410122FCF790FD284604210122FCF7B2
:104200008BFDFFF73BFC02A000F00AF8FEE700BFC1
:10421000456E746572696E67207768696C650A001F
:1042200010B50446FCF784F982B240F2AC60C2F2E9
:10423000000021466423BDE81040FEF783BBF1EE89
:10424000100A4FF6FF71C0F2C03120EA010040F0C1
:104250004070E1EE100A7047303132333435363772
:1042600038394142434445464030580030313233BA
:1042700034353637383961626364656640307800BA
:104280000000000000000000010203040607080906
:1042900000000000010203040006101600061016BC
:1042A000496E697469616C697A696E6720616363DC
:1042B000656C65726F6D6574657220726567697390
:1042C000746572730A003078257820202020202021
:1042D00020307825780A0052656164206F6E207264
:1042E000656720307825782072657475726E73204A
:1042F00076616C756520307825780A0020430008C7
:1043000000000020100000002802000830430008D0
:1043100010000020E80C0000480200080000000027
:1043200001000000100000000024F4000000000064
:04000005080001C529
:00000001FF
