:020000040800F2
:1000000020F5012091020008492800082D28000849
:100010004528000825060008D54800080000000013
:10002000000000000000000000000000512800084F
:1000300035060008000000004D2800083938000887
:10004000AB020008AB020008AB020008AB020008DC
:10005000AB020008AB020008AB020008AB020008CC
:10006000AB020008AB020008AB020008AB020008BC
:10007000AB020008AB02000829060008AB0200082A
:10008000AB020008AB020008AB020008AB0200089C
:10009000AB020008AB020008AB020008AB0200088C
:1000A000AB020008AB020008AB020008AB0200087C
:1000B000AB020008AB020008AB020008AB0200086C
:1000C000AB020008AB020008AB020008AB0200085C
:1000D000AB020008AB020008AB020008693E000852
:1000E000AB020008AB020008AB020008AB0200083C
:1000F000AB020008AB020008AB020008AB0200082C
:10010000AB020008AB020008AB020008AB0200081B
:10011000AB020008AB020008AB020008AB0200080B
:10012000AB020008AB020008AB020008AB020008FB
:10013000AB0200080000000000000000AB02000855
:10014000AB020008AB020008AB020008AB020008DB
:10015000AB020008AB020008AB020008AB020008CB
:10016000AB020008AB020008AB020008AB020008BB
:10017000AB020008AB020008AB0200080000000060
:1001800000000000AB0200080000000000000000BA
:10019000AB0200080000000000000000AB020008F5
:1001A000000000000000000000000000AB0200089A
:1001B000AB020008AB020008AB020008AB0200086B
:1001C000AB02000800F002F800F052F814A696E81E
:1001D000000CB244B344DA4501D100F049F8BAE862
:1001E0000F000FA696E83000A5EB040504EB060708
:1001F000AAEB0704A7F101074FEA15154FEA3414DB
:10020000A4F10104AC4201D300F032F813F0010F65
:1002100018BFFB1A43F0010300F001F8DBE71847B1
:10022000B4500000D4500000103A24BF78C878C100
:10023000FAD8520724BF30C830C144BF04680C60EC
:1002400070470000704700000023002400250026AE
:10025000103A28BF78C1FBD8520728BF30C148BF29
:100260000B6070471FB505F018F81FBD10B510BD25
:1002700000F090F91146FFF7F5FF04F02DFB00F0B8
:10028000AEF903B4FFF7F2FF03BC00F0B5F90000CC
:100290000948804709480047FEE7FEE7FEE7FEE71A
:1002A000FEE7FEE7FEE7FEE7FEE7FEE70448054956
:1002B000054A064B70470000E9380008C5010008F0
:1002C00020EF012020F5012020F1012020F1012064
:1002D00053EA020C00F069802DE9F04B4FF0000664
:1002E000002B1FBFB3FA83F503FA05F424FA05F6D1
:1002F0005E4012BF1643B2FA82F502FA05F4C5F168
:1003000020051EBF22FA05FC44EA0C04203556EAFB
:10031000044C4FEA144418BF641C4FF000084FF01F
:100320000009904271EB030C39D3002919BFB1FACF
:1003300081F701FA07F6B0FA80F700FA07F6C7F17D
:1003400020071EBF20FA07FC46EA0C062037B6FB42
:10035000F4FCA7EB0507103F07F01F0BCBF12006BD
:100360002CFA06F60CFA0BFB44BFB3460026202FEE
:10037000A4BF5E464FF0000B5BEA060C08BF4FF0CF
:10038000010B19EB0B0948EB0608ABFB027C06FBE3
:1003900002CC0BFB03CCC01B71EB0C01C1E70B467D
:1003A000024641464846BDE8F08B13B5084318BFE6
:1003B0004FF0FF300146AFF30080BDE81C407047AE
:1003C00010B5431C02E010F8011B71B18107FAD18E
:1003D0004FF0013202C88C1A8C4314EAC211F9D0D2
:1003E000C01A0A0603D0C01E10BDC01A10BD0A04F0
:1003F00001D0801E10BD0902FCD0401E10BD032A92
:1004000040F2308010F0030C00F0158011F8013B31
:10041000BCF1020F624498BF11F801CB00F8013B18
:1004200038BF11F8013BA2F1040298BF00F801CBDC
:1004300038BF00F8013B11F0030300F05780083A81
:10044000C0F0088051F8043B083A51F804CBA0E80A
:100450000810F5E7121D5CBF51F8043B40F8043B5F
:10046000AFF30080D20724BF11F8013B11F801CB94
:1004700048BF11F8012B24BF00F8013B00F801CB65
:1004800048BF00F8012B704702F0FF0343EA032244
:1004900042EA024200F05EB84FF0000200B5134697
:1004A00094469646203922BFA0E80C50A0E80C5094
:1004B000B1F12001BFF4F7AF090728BFA0E80C5045
:1004C00048BF0CC05DF804EB890028BF40F8042B3E
:1004D00008BF704748BF20F8022B11F0804F18BFAB
:1004E00000F8012B704770477047704710B5203AED
:1004F000C0F00B80B1E81850A0E81850B1E81850CF
:10050000A0E81850203ABFF4F5AF5FEA027C24BFA0
:10051000B1E81850A0E8185044BF18C918C0BDE889
:1005200010405FEA827C24BF51F8043B40F8043B52
:1005300008BF7047D20728BF31F8023B48BF11F807
:10054000012B28BF20F8023B48BF00F8012B704761
:100550004FF000020429C0F0128010F0030C3FF4A9
:100560009DAFCCF1040CBCF1020F18BF00F8012BB9
:10057000A8BF20F8022BA1EB0C01FFF78FBF5FEAA9
:10058000C17C24BF00F8012B00F8012B48BF00F804
:10059000012B7047754600F02BF8AE460500694602
:1005A000534620F00700854618B020B5FFF77EFEC1
:1005B000BDE820404FF000064FF000074FF0000864
:1005C0004FF0000BAC46ACE8C009ACE8C009ACE8A1
:1005D000C009ACE8C00921F007018D46704710B58D
:1005E0000446AFF300802046BDE81040FFF749BE47
:1005F000004870471000002001491820ABBEFEE7FC
:10060000260002007047000030EE010A70EEA10AD9
:10061000704700009FED020AF0EE400A704700BFED
:1006200000000000FEE700004DF6C400C2F200002A
:1006300000F060B87047000072B600BFFEE700002F
:1006400070B5866D044600F025FB94F8351002293C
:1006500028D105462068216C026822F0160202604B
:10066000426922F08002426109B9A16C19B10168A6
:1006700021F008010160016821F00101016000BF63
:1006800020680068C00715D000F004FB401B062856
:10069000F6D320206065032084F83500002184F81B
:1006A000341070BD802060650120002184F8341072
:1006B00070BD00BFE06D3F2101FA00F0B060012085
:1006C00084F835000020002184F8341070BD00004B
:1006D00090F83510022909D1052180F835100068FD
:1006E000016821F00101016000207047802141650F
:1006F00001207047F0B581B00021009140F208015F
:10070000C2F200010B68D0E9166148F2B5153768EE
:100710000822C1F64E358A403A42A3FB05350CD07B
:1007200003681C68640708D51C6824F004041C6076
:10073000B260426D42F00102426501228A403A42B3
:1007400008D003685B691B0604D5B260426D42F0B5
:100750000202426504228A403A4208D003681B68BC
:100760009B0704D5B260426D42F00402426510223C
:100770008A403A4219D001680B681B0715D5B26050
:100780000B680A685B0309D4D20509D40A6822F011
:1007900008020A60016C29B907E000BF110341D4C7
:1007A000016C11B1044688472046C26D202101FA30
:1007B00002F33B4243D001680F68FF063FD5B360A8
:1007C00090F835700B68052F1CD123F016030B60D1
:1007D0004B6923F080034B61036C0BB9836C1BB135
:1007E0000B6823F008030B603F219140B1600121A9
:1007F00080F83510016D0022002980F8342054D192
:1008000058E000BF0A685B0310D4D20512D40A680E
:1008100022F010020A60012180F83510002180F8D2
:10082000341007E0816C0029BCD1BEE7110301D46C
:10083000416C00E0C16B11B1044688472046416D10
:10084000C1B3416DC9072ED0052180F8351001686C
:10085000AA0A0B6823F001030B60009B013393424B
:1008600000931AD80B68DB0717D0009B0133934223
:10087000009312D80B68DB070FD0009B0133934223
:1008800000930AD80B68DB0707D0009B0133934223
:10089000009302D80B68DB07DFD1012180F8351007
:1008A000002180F83410C16C21B101B0BDE8F040E6
:1008B000084700BF01B0F0BD2DE9F041044600F04B
:1008C000E9F9ECB10546022084F8350000202168E2
:1008D00084F83400086820F0010008602168086886
:1008E000C00711D000F0D6F9401B0528F6D9032522
:1008F00020230320636584F83550BDE8F08100BFF4
:100900000120BDE8F08100BF086848F23F02CFF245
:100910001002D4E9013500EA020C04F10C0898E851
:10092000C10143EA0C032B431843D4E9072E30439B
:1009300038431043626A40EA0E00042A40EA080382
:100940001CD1206BD4E90A2E40EA0E00184308603F
:100950004869BEF1000F20F0030040EA020040F0B9
:10096000040C11D0B8F5005F36D0B8F1000F45D1B6
:10097000022A46D0012A3BD032B942E00B604869D6
:1009800020F0070040EA020C01F0F8004AF6AB2222
:100990001038CAF6AA22A0FB02231A0945F2CC237A
:1009A000C1F814C0C0F600039A5C40F2FF335F2820
:1009B0004FF03F0021EA030100FA02F088BF043142
:1009C000C4E916128860002301250020636584F8BD
:1009D0003550BDE8F08100BF032AD5D8012540235A
:1009E0000120DFE802F0030E030500BF82E700BF2D
:1009F000AEF1C070B0FA80F0400904E0032A04D3DD
:100A0000C2D1CEF300600028BED0012540230120D2
:100A1000636584F83550BDE8F081000090F834C07B
:100A2000BCF1010F04BF0220704770B54FF0010CFC
:100A300080F834C0D0F858E090F835C0BCF1010F10
:100A400038D14FF0020C80F835C04FF0000CC0F8E0
:100A500054C0D0F800C08468056CC06DDCF800603C
:100A6000402C26F48026CCF80060CCF804300B46ED
:100A700004BF13460A463F2101FA00F0CCF80830C3
:100A8000CCF80C20CEF80800DCF8000040F016008E
:100A9000CCF800002DB1DCF8000040F00800CCF8E4
:100AA0000000DCF8000040F00100CCF8000000205D
:100AB00070BD00BF002180F83410022070BD00001E
:100AC000B0B5044600F0E6F8054640F20000C2F278
:100AD00000000078611C18BF044400BF00F0DAF881
:100AE000401BA042FAD3B0BD2DE9F04F83B000F116
:100AF000200200F13E4741F60005009207F1FF7722
:100B0000C4F2020507224FEAB726A84208BF062210
:100B100000254FF000084FF00009062E38BF4FEABD
:100B2000B72201920AE000BF09F1010908F10208A9
:100B3000B9F1100F05F1040500F0A2800F68012241
:100B400002FA09FE17EA0E0AEED0D1F804C0032219
:100B50000CF003077E1E02FA08F4012E6FEA040B64
:100B600012D88468CE6804EA0B0406FA08F6344307
:100B70008460446824EA0E06CCF3001404FA09F4F5
:100B80002643466004E000BF032F01D103271EE087
:100B9000C6688C6806EA0B0604FA08F42643022F9E
:100BA000C66014D16FF00302009E02EA590756F89E
:100BB00007C005F01C040F220B69A2402CEA0202B8
:100BC000A3401A43F251D1F804C00CF003070268A5
:100BD00007FA08F302EA0B021A431CF4403F0260D2
:100BE000A2D0002243F644030292C4F202031A6820
:100BF00043F6004442F480421A601A68C4F20104C9
:100C000002F480420292029A29F003024FF6084C45
:100C10002244CFF6FF7C52F80C3005F00C070F266B
:100C2000BE40B343019E06FA07F73B4342F80C303F
:100C3000A2684B6842EA0A0743F60C4CDE0258BF32
:100C400022EA0A07A760C4F2010CDCF800209E0229
:100C500042EA0A0758BF22EA0A07CCF80070626825
:100C60009E0342EA0A0758BF22EA0A076760226821
:100C7000DB0342EA0A0758BF22EA0A07276053E764
:100C800003B0BDE8F08F0000002A08BF09048161AD
:100C9000704700004EF61870C2F2010000687047FD
:100CA00040F200004EF61871C2F20000C2F20101DB
:100CB00000780A68104408607047000080B543F669
:100CC0000040C4F20200016841F400710160016853
:100CD00041F480610160016841F48071016003208A
:100CE00000F086F8002000F005F800F027F800205A
:100CF00080BD000070B540F20006C2F2000640F26E
:100D000008013278C2F200014FF47A730968B3FB2C
:100D1000F2F20446B1FBF2F1084601F043F80F2C61
:100D20004FF0010508D838B94FF0FF3021460022B6
:100D3000002500F031F87460284670BD82B00020B4
:100D400043F640010190C4F202014A6842F4804235
:100D50004A604A6802F480420192019A0090086851
:100D600040F080500860086800F0805000900098C3
:100D700002B07047002848BF704700F01F010122F1
:100D800002FA01F11C2202EAD0004EF20012CEF269
:100D9000000281507047000010B54EF60C5CCEF298
:100DA000000CDCF80030C3F3022E8EF00704042C94
:100DB00028BF0424BEF103034FF0FF3E0EFA04F4F3
:100DC00038BF0023A14399400EFA03F39A4311431D
:100DD00000F00F0200F160430901043A03F5644397
:100DE0006244002848BF02F10C03197010BD0000D6
:100DF0004EF60C51CEF200010A684FF6FF031A407E
:100E000060F30A2242F0806040F0FD700860704795
:100E100001220168C0F8D824002280F8CC24886917
:100E200040F000608861486D40F0805040F003025F
:100E300000204A6570470000002804BF0120704769
:100E4000F0B581B00446056890F8950428B90020F3
:100E500084F89404204600F02DF90320B5F1A04F4A
:100E600084F8950404BF0020A071206803F076FB8D
:100E700094E80F00267C009602F0FCFF002840F06A
:100E800000812068002103F071FB002840F0F98008
:100E900094F804E0BEF1000F00F0EC800EF0030CBB
:100EA000BEF1040F4FF0000240D30EF0FC03A4F19A
:100EB00090000321012500BFCE1E80F8A460A0F899
:100EC000BE608E1E80F8C860A0F8E2604E1E80F8FA
:100ED000EC60A0F8066180F81011A0F82A110E1D30
:100EE000013180F8A55080F8A820C0E92B22C0F875
:100EF000B42080F8C95080F8CC20C0E93422C0F872
:100F0000D82080F8ED5080F8F020C0E93D22C0F8EC
:100F1000FC2080F8115180F81421C0E94622C0F865
:100F20002021903099423146C6D1F21EBCF1000F0B
:100F300031D004F1140002EBC20100EB8105012362
:100F400000F821200021BCF1010F6B706A83297128
:100F5000C5E9021129611ED0551C05EBC50600EB41
:100F60008607BCF1020F7B7000F826507D83397133
:100F7000C7E9021139610ED0911C01EBC10200EBEF
:100F80008203012500F8221000205D70598318713A
:100F9000C3E902001861BEF1000F6BD0BEF1040F6F
:100FA0004FF0000236D30EF0FC000321234600BFB1
:100FB000CF1E83F854728F1E83F878724F1E83F809
:100FC000C0120D1D013183F8552283F85822C3E960
:100FD0009722C3F8642283F8792283F87C22C3E93C
:100FE000A022C3F8882283F89D2283F89C7283F89C
:100FF000A022C3E9A922C3F8AC2283F8C12283F856
:10100000C422C3E9B222C3F8D022903381422946D8
:10101000CED1EA1EBCF1000F2CD004F5157002EB06
:10102000C20300EB83070021BCF1010F797000F8C7
:1010300023203971C7E9021139611BD0531C03EB1E
:10104000C30700EB8706BCF1020F717000F8273070
:101050003171C6E9021131610CD0911C01EBC10262
:1010600000EB820300275F7000F822101F71C3E9B4
:1010700002771F6194E80F00277C009703F014F8B3
:1010800030B1022084F89504012001B0F0BD00BF0A
:1010900000206074012084F89504207B012802D18F
:1010A0002046FFF7B5FE206802F0EEFF002001B0F9
:1010B000F0BD0000F0B59DB0044600201C90CDE9C5
:1010C0001A00CDE9180001A804305821FFF7E4F90F
:1010D0002068B0F1A04F01D01DB0F0BD4FF480707A
:1010E000019001A800F03EF8002818BFFFF7A4FA0D
:1010F000002743F630060097C4F202063068002449
:1011000040F0010030603068C4F2020400F00100D9
:10111000009000984FF4E85018900220CDE919078C
:1011200003201B900A2018AD1C9020462946FFF78B
:10113000DBFC4FF40070CDE91807204629461A97CA
:10114000FFF7D2FC706840F0800070600097706913
:1011500040F480407061706900F480400090009815
:101160001DB0F0BD2DE9F04381B00446006843F6A0
:101170008C06C107C4F2020604D14FF000098107B2
:101180000CD415E03168A26B21F0C06111433160CD
:10119000B2FA82F14FEA5119810709D53168E26B41
:1011A00021F0C05111433160002A08BF4FF00109FE
:1011B000410705D44FF00008010712D420E000BF1A
:1011C0003168226B21F4401111433160B2FA82F18F
:1011D0004FEA5118B2F5801F08BF4FF0010901070F
:1011E0000ED53168626B21F440011143B2F5800FD6
:1011F000316008BF4FF00109002A08BF4FF0010815
:1012000081065AD50020009056F84C0C47F2000792
:1012100040F0805046F84C0C56F84C0CC4F20007D5
:1012200000F0805000900098386840F4807038607A
:10123000FFF730FD054600BF3868C00506D4FFF74C
:1012400029FD401B0228F7D990E100BF56F81C0C7D
:1012500010F4407017D0216C01F44071884212D014
:1012600056F81C0C40F64061C4F24721012220F4DC
:1012700040700A6000220A6046F81C0C56F81C0CEC
:10128000C00740F07B812068216C56F8842C4FF613
:10129000FF4701F4407322F4F812C0F6FF770F40C5
:1012A000B3F5407F08BF3A4346F8842C56F81C2C0F
:1012B0006FF31F31114346F81C1CC10610D4010600
:1012C00019D441061FD4C10525D4810530D4410568
:1012D00036D4B9F1010F18BFB0F5006F3CD062E011
:1012E00094F8580040F64061C4F24721C1F8A003C9
:1012F00020680106E5D5B168E26C21F44001114394
:10130000B1604106DFD5B168A26C21F08061114364
:10131000B160C105D9D5B168626D21F0006111439A
:10132000B160B2F1006F08BF4FF001088105CED562
:10133000B168626C21F080511143B1604105C8D59C
:10134000B268216D22F000520A43B0F5006FB2601E
:1013500018BFB1F1005F23D140F26809C4F24729F8
:101360000020C9F80000FFF795FC054656F88C0CE4
:10137000000105D5FFF78EFC401B0228F6D9F5E0E9
:101380002068C10702D0A16B00296FD0810702D568
:10139000E16B00296AD0410700F17D807FE000BF4A
:1013A000B9F1010FD8D0B8F1000F4FF0000000F0F4
:1013B000DE806827C4F24727B860FFF76BFC05465C
:1013C00056F88C0C800005D5FFF764FC401B022802
:1013D000F6D9CBE02068410701D5216B19B101078F
:1013E0001AD5616BC1B956F8041CD4E9062301F47F
:1013F0004031656A114341EA831141EA0561D4F83D
:101400002CC046F8041C31686FF0FF0221F4F8513B
:1014100002EB0C2211433160C00516D5606DB0F1AE
:10142000006F12D156F8040C226AD4E9061300F0BA
:101430007060D2034FF6FF75AA430843A2F58032CD
:1014400040EA8310104346F8040C0120B860FFF70F
:1014500021FC044656F88C0C800000F18B80FFF7CD
:1014600019FC001B0328F5D380E000BF56F8081CC8
:1014700056F8082CD4E9013501F4403102F07062CD
:1014800019436769114341EA851141EA077146F83A
:10149000081C410703D5216BB1F5801F05D001075A
:1014A0001FD5616BB1F5800F1BD156F8081C56F89B
:1014B000082CD4E9013701F4403102F0E04219432D
:1014C0002569114341EA871141EA0561D4F828C032
:1014D00046F8081C3168ACF1010221F01F011143EC
:1014E000316041051FD5216DB1F1005F1BD1271D72
:1014F00056F808CC56F8082CA8CFFF034FF6FF711A
:1015000027EA01014FF0C06702F0E04207EA4C27EA
:1015100007F100771A433A43A1F5803142EA851278
:10152000114346F8081C000510D5271D8FCF40EA4F
:101530008110D1034FF6FF729143A1F5803140EA4B
:101540000360084340EA077046F8080C0120C9F818
:101550000000FFF79FFB054656F88C0C00013FF595
:1015600022AFFFF797FB401B0228F5D9032001B0FB
:10157000BDE8F083002001B0BDE8F083FFF78AFBEF
:10158000054641F2883700BF56F81C0C80073FF52E
:101590007AAEFFF77FFB401BB8424FF00300F3D950
:1015A000E5E70000002804BF012070472DE9F04165
:1015B00043F60808C4F202080446D8F8F8030D46BA
:1015C00000F00F00884207D288F8F853D8F8F803E3
:1015D00000F00F00A84277D12068810717D5410796
:1015E00005D5D8F8001041F4E051C8F80010010703
:1015F00005D5D8F8001041F46041C8F80010D8F8BB
:101600000010A26821F0F0011143C8F80010C007D3
:1016100040D1D8F8F80300F00F00A84207D988F8A5
:10162000F853D8F8F80300F00F00A8424CD1206816
:10163000410707D5D8F80010E26821F4E0511143C2
:10164000C8F80010000708D5D8F80000216920F478
:10165000604040EAC100C8F8000000F07DF8D8F80A
:10166000001045F2B422C1F30311C0F60002515C30
:1016700040F2080220FA01F140F20400C2F2000038
:101680000068C2F200021160FFF734FB0020BDE8E1
:10169000F08100BF6068811E022907D258F8081C3B
:1016A00089015CBF0120BDE8F08111E0012807D16C
:1016B00058F8081C89035CBF0120BDE8F08107E0F1
:1016C00058F8081C890703D40120BDE8F08100BF49
:1016D000D8F8001021F003010843C8F80000FFF714
:1016E000D9FA064641F28837D8F80000616800F060
:1016F0000C00B0EB810F8CD0FFF7CCFA801BB84206
:10170000F2D90320BDE8F08140F2080043F6080159
:10171000C2F20000C4F202010068096845F2C42266
:10172000C1F38221C0F60002515CC840704700003E
:1017300040F2080043F60801C2F20000C4F20201C0
:101740000068096845F2C422C1F34231C0F60002C4
:10175000515CC8407047000010B543F60404C4F261
:1017600002046068C0F3810142F20040C0F2F4005C
:10177000DFE801F04202081841F20020C0F27A00CE
:1017800010BD00BF216801F03F02216823684902B3
:10179000C3F3881116D4A1FB00010023FEF798FDC6
:1017A00017E000BF216801F03F0221682368490269
:1017B000C3F3881114D4A1FB00010023FEF788FDB8
:1017C00015E000BF41F20020C0F27A004843B0FBB0
:1017D000F2F021680222C1F3014102EB410109E06C
:1017E00041F20020C0F27A004843B0FBF2F02168D9
:1017F000C1F30271B0FBF1F010BD0000002804BF7E
:10180000012070472DE9F04182B00446007843F68C
:101810000006C007C4F202060CD0B06800F00C004D
:10182000042840F089803068800303D56068002870
:1018300000F050812078800723D5B06810F00C0F9D
:1018400011D0B06800F00C00082802D17068400286
:1018500009D5B06800F00C000C2840F09F8070683B
:10186000400200F19B803068800703D5E0680128C2
:1018700040F030813068216920F0F80040EAC10072
:1018800030602078000713D4207840072AD4A56957
:10189000002D00F01A81B06800F00C00082840F01C
:1018A000AB80012D40F0E880012002B0BDE8F0815E
:1018B0006069002840F20000C4F2472000F08880F0
:1018C0000121C0F8801EFFF7E5F90546706F80071B
:1018D000DAD4FFF7DFF9401B0228F7D9032002B062
:1018E000BDE8F081306C5FEAC0080AD400200190A6
:1018F000306C40F080503064306C00F080500190CB
:10190000019847F20007C4F200073868C00537D4D1
:10191000386840F480703860FFF7BCF9054600BFB6
:101920003868C0052CD4FFF7B5F9401B0228F7D959
:10193000032002B0BDE8F081B06800F00C00082878
:1019400003D1706840023FF56EAFB06800F00C0044
:101950000C2803D1706840023FF565AF61683068BC
:10196000B1F5803F07D0B1F5A02F40F0CB8040F417
:1019700080203060306840F480303060CBE000BFC1
:10198000A168306F012905D0052957D140F0040026
:101990003067306F40F00100306759E0E0680028A0
:1019A00000F09C800020C4F2472001210160FFF775
:1019B00071F90546306880073FF55CAFFFF76AF9BB
:1019C000401B02284FF00300F4D902B0BDE8F081BB
:1019D0000021C0F8801EFFF75DF90546706F800793
:1019E0007FF552AFFFF756F9401B0228F6D90320C6
:1019F00002B0BDE8F08100BF0027C4F247270020F5
:101A00003866FFF747F9022D05460BD13068800193
:101A100040F19280FFF73EF9401B02284FF003008F
:101A2000F4D9D2E7306880014FD5FFF733F9401B76
:101A300002284FF00300F5D9C7E700BF20F00100EE
:101A40003067306F002920F00400306700F0988084
:101A5000FFF720F9054641F2883700BF306F800755
:101A600000F1A080FFF716F9401BB842F6D9032019
:101A700002B0BDE8F08100BF7068E16900F4800247
:101A80008A4227D1216A00F03F028A4222D147F6DA
:101A9000C071626A0140B1EB821F1BD1A16A4FF68F
:101AA000FF73C903994300F44032A1F580318A42A3
:101AB00010D1E16A00F07062B2EB016F0AD1216BC4
:101AC00000F0E040B0EB017F04D1002002B0BDE89F
:101AD000F08100BF012002B0BDE8F0810020C4F217
:101AE000472000210160FFF7D5F8054630688007E0
:101AF0007FF5C7AEFFF7CEF8401B02284FF003007A
:101B0000F4D962E720F4803030603068002920F496
:101B10008020306050D0FFF7BDF805463068800364
:101B20003FF588AEFFF7B6F8401B6428F6D90320CE
:101B300002B0BDE8F08100BF04F11C052FCD246B7D
:101B4000084340EA8210D9034FF6FF729143A1F592
:101B5000803140EA0560084340EA0470706001206B
:101B60003866FFF797F8044630688001ADD4FFF778
:101B700091F8001B02284FF00300F5D925E700BFBC
:101B8000FFF788F8054641F2883700BF306F8007BD
:101B900008D5FFF77FF8401BB8424FF00300F5D996
:101BA00013E700BFB8F1000F3FF571AE306C20F0C5
:101BB000805030646BE600BFFFF76CF8054600BF4D
:101BC000306880037FF536AEFFF764F8401B642869
:101BD0004FF00300F4D9F8E670B528B1416A29B195
:101BE00000210161142106E0012070BD4168B1F5BA
:101BF000827F02D01C21002242500026866290F88B
:101C0000511029B980F85060054600F03DF828468B
:101C1000022180F8511090E82E0002F482720C68C4
:101C200003F4044324F040040C601A4405F40063F8
:101C300005691A4405F0020345691A4405F00103D9
:101C40008569C4691A4405F400731A4404F0380322
:101C5000046A1A4404F08003846A1A4304F40053AB
:101C60001A430A60436A042202EA154203F0100391
:101C70001A444A60CA6922F40062CA6101214665B9
:101C800080F85110304670BD2DE9F04186B00068F3
:101C900043F60001C4F2000100268842CDE9046643
:101CA000CDE9026601962DD043F20001C4F2010194
:101CB000884274D1002043F630010090C4F2020142
:101CC0004A6942F480524A614A6902F480520092A1
:101CD000009A00900A6842F001020A60096801F067
:101CE000010100910099E02101910221CDE902104A
:101CF0000320049040F60000C4F20200A0F500604A
:101D000048E000BF43F630000096C4F202000169CB
:101D100040F6000441F4804101610169C4F202040B
:101D200001F48041009100990096016801AD41F0F5
:101D3000040101600168022701F00401009100998B
:101D4000009601684FF0030841F00201016000684D
:101D5000294600F0020000900098072005902046D8
:101D6000CDE901770396CDF81080FEF7BDFE042083
:101D7000CDE901070520059020462946CDE90368F5
:101D8000FEF7B2FE4FF48060CDE90107A4F5806054
:101D9000CDE903680521059101A9FEF7A5FE06B06E
:101DA000BDE8F081411E0020B0EB116F1CBF012087
:101DB00070474EF21002CEF2000251604EF62351EF
:101DC000CEF20001F0230B70072190601160704784
:101DD00090F83C20012A4FF0020254D010B580F850
:101DE0003D200268D2F804E0D2F808C00C682EF05A
:101DF0007003234341F2FF74C4F20004A242536013
:101E00000EDC40F2FF73C4F200039A4216DCB2F11A
:101E1000804F2BD040F20043C4F2000324E000BF07
:101E200040F2FF33C4F201039A4213DC41F600038F
:101E3000C4F200039A4219D0002313E040F60003D5
:101E4000C4F200039A4211D040F60043C4F20003EA
:101E50000AE000BF44F20003C4F201039A4205D035
:101E600040F20043C4F201039A4204D149682CF0C5
:101E70008003194391600121002280F83D1080F811
:101E80003C20BDE81040104670470000002804BF09
:101E90000120704710B5044690F83D0028B9002095
:101EA00084F83C00204600F01FF8022084F83D0032
:101EB0002068211D01F022FD012084F8460084F8ED
:101EC0003E0084F83F0084F8400084F8410084F824
:101ED000420084F8430084F8440084F8450084F804
:101EE0003D00002010BD0000006841F20001C4F276
:101EF0000001884218BF704781B00020009043F66F
:101F00004000C4F20200016841F010010160006865
:101F100000F010000090009801B07047704700007A
:101F20007047000090F8411090F842000843C0B29A
:101F300070470000B0B582B001680A68CC684B6990
:101F400002F02F05202D04F0200505D125B102B0A7
:101F5000BDE8B04001F094BE5FEA027C1EBF03F012
:101F6000010E04F4907313EB0E0341D1036BD506FD
:101F700018D5012B16D114F0100313D000220192B2
:101F80000A6801924A680192019A496949064BD44C
:101F9000818DC28DC38D002B18BF914240F0F4811A
:101FA00002B0B0BD13062DD514F080032AD090F8EE
:101FB0004120212AF4D18268B2F5805F03D1026901
:101FC000002A00F06782026A531C036212784A609A
:101FD000C28C013A1304C284E2D1C86820F08000A8
:101FE000C860C86840F04000C86002B0B0BD00BF23
:101FF000D30718BF14F4807340F0D080530700F16A
:10200000D380D8E05206CBD514F04002C8D0CA68BD
:1020100022F04002CA60202180F8411002B0BDE8E1
:10202000B04000F0FFBB00BFC16B0A68526893B2BA
:10203000002BB5D0858DAB42B2D2C285C969B1F54E
:10204000807F00F0A080016851E8031F026821F43E
:10205000807142E80313DBB1016851E8031F026895
:1020600021F4807142E8031393B1016851E8031F22
:10207000026821F4807142E803134BB1016851E812
:10208000031F026821F4807142E80313002BDAD1A8
:10209000016851E8051F026821F0010142E80513BB
:1020A000BBB3016851E8051F026821F0010142E855
:1020B000051373B3016851E8051F026821F001019F
:1020C00042E805132BB3016851E8051F026821F0AF
:1020D000010142E80513002BDAD11AE0016851E84A
:1020E000051F026821F0400142E80513DBB10168D9
:1020F00051E8051F026821F0400142E8051393B141
:10210000016851E8051F026821F0400142E805130B
:102110004BB1016851E8051F026821F0400142E817
:102120000513002BDAD1202180F842100021016331
:10213000016851E8031F026821F0100142E803130F
:10214000DBB1016851E8031F026821F0100142E889
:10215000031393B1016851E8031F026821F01001D5
:1021600042E803134BB1016851E8031F026821F0F4
:10217000100142E80313002BDAD1C16B0446084674
:10218000FEF75EFA204602214163818DC28D891AD5
:1021900089B202B0BDE8B040FFF7C0BE436C43F067
:1021A00001034364530706D5BEF1000F03D0436C0F
:1021B00043F002034364930706D5BEF1000F03D03A
:1021C000436C43F004034364BCF1000F06D55EEAA0
:1021D000050303D0436C43F008034364436C002BB6
:1021E0003FF4DEAE920605D525B1044601F048FD68
:1021F000216820464969426C01F0400102F0080262
:10220000891800F0B98000BF016851E8031F026817
:1022100021F4907142E80313BBB3016851E8031F36
:10222000026821F4907142E8031373B3016851E826
:10223000031F026821F4907142E803132BB3016875
:1022400051E8031F026821F4907142E80313002B48
:10225000DAD11AE0016851E8051F026821F0010196
:1022600042E80513DBB1016851E8051F026821F05F
:10227000010142E8051393B1016851E8051F0268A6
:1022800021F0010142E805134BB1016851E8051F37
:10229000026821F0010142E80513002BDAD1016B3D
:1022A000012924D1016851E8031F026821F01001BF
:1022B00042E80313DBB1016851E8031F026821F013
:1022C000100142E8031393B1016851E8031F02684B
:1022D00021F0100142E803134BB1016851E8031FDC
:1022E000026821F0100142E80313002BDAD120210B
:1022F00080F842100021016301684969490640F1F4
:10230000C380016851E8051F026821F0400142E8DE
:102310000513DBB1016851E8051F026821F0400197
:1023200042E8051393B1016851E8051F026821F0E6
:10233000400142E805134BB1016851E8051F0268EE
:1023400021F0400142E80513002BDAD1C16B0029CE
:1023500000F09A8043F64122C0F600020446084687
:102360000A65FEF7B5F900283FF41AAEE06B016D7F
:1023700002B0BDE8B04008470446FFF7D1FD002099
:10238000606402B0B0BD00BF891A00BF026852E8A5
:10239000032F036822F4907243E80325BDB302685B
:1023A00052E8032F036822F4907243E8032575B3C3
:1023B000026852E8032F036822F4907243E8032571
:1023C0002DB3026852E8032F036822F4907243E8A9
:1023D0000325002DDAD11AE0026852E8052F0368C0
:1023E00022F0010243E80525DDB1026852E8052F1D
:1023F000036822F0010243E8052595B1026852E81E
:10240000052F036822F0010243E805254DB102685B
:1024100052E8052F036822F0010243E80525002D4C
:10242000DAD1202280F8422000220263026852E8BA
:10243000032F036822F0100243E80325DDB1026890
:1024400052E8032F036822F0100243E8032595B1F8
:10245000026852E8032F036822F0100243E80325C4
:102460004DB1026852E8032F036822F0100243E8DE
:102470000325002DDAD1022289B2426302B0BDE801
:10248000B040FFF74BBD00BF02B0BDE8B040FFF762
:1024900047BD00BF026A32F8023B6FF35F234B6017
:1024A000026295E5002804BF0120704710B504467C
:1024B00090F8410028B9002084F84000204600F040
:1024C00021F8242084F841002068C16821F40051DB
:1024D000C160204601F054FC2068016921F490415C
:1024E0000161416921F02A014161C16841F4005153
:1024F000C16000202021606484F8411084F84210FB
:10250000606310BDF0B587B0044644F60000216852
:10251000C4F20000002681420696CDE904660396C7
:10252000029601D007B0F0BD43F630010196C4F227
:1025300002010A69032742F480220A610A6900F550
:10254000E23002F480220192019A01960A6842F078
:1025500008020A60096801F00801019101994FF42D
:10256000407102910221CDE903160721069102A9CB
:102570000597FEF7B9FA4DF6C40546F25800C2F2C7
:102580000005C4F202004FF00061402285E84700D8
:1025900004204FF48063C5E908602846C5E9043685
:1025A000C5E90666C5E90A762E63FEF785F90028B7
:1025B00018BFFEF741F8272000210022A563AC6375
:1025C000FEF7EAFB2720FEF7D5FB07B0F0BD0000C1
:1025D000704700002DE9F04381B0044690F84100B7
:1025E000202809D100294FF0010018BF002A07D187
:1025F00001B0BDE8F08300BF022001B0BDE8F08368
:102600000020606421201D460E4684F841001746D4
:10261000FEF740FBA784E784A1688146B1F5805F9F
:1026200002D1206900285DD037460020E28C216865
:10263000002A5DD06A1C24D0002D4AD0804600BFFD
:102640000868000608D4FEF725FBA0EB0900A842A5
:102650007AD82168C868F3E717B117F8010B04E0CE
:1026600038F8020B00276FF35F204860E08C0138D8
:10267000E084E08C0028E3D13AE000BF0A6812064B
:1026800009D40A68120606D40A6812065CBF0A68F2
:102690005FEA0262F2D51FB117F8012B05E000BF17
:1026A00030F8022B00276FF35F224A60E28C013A78
:1026B000E284E28C002AE4D11AE000BF30F8022B59
:1026C00000276FF35F224A60E28C013AE284E28CD9
:1026D00072B10A68120635D5002FEFD017F8012B1A
:1026E000F1E700BF00273046E28C2168002AA1D123
:1026F000086840061ED42DB3681C14D10868400633
:102700002AD40868400627D40868400624D40868FC
:1027100040064FF00000F1D50DE000BF2068C16811
:102720000068400618D4FEF7B5FAA0EB0900A842ED
:10273000F4D909E00020202184F8411001B0BDE85F
:10274000F08300BFFEF7A6FA0320202184F8411091
:1027500001B0BDE8F08300BF0020202184F84110C3
:1027600001B0BDE8F0830000B0B590F84140202CE6
:102770001CBF0220B0BD134600294FF0010218BF54
:10278000002B01D11046B0BD0022212401628384B8
:10279000C384426480F84140D0F838C043F6C93E53
:1027A00043F67945C0F6000EC0F600050468CCE992
:1027B0000FE543F64D25C0F60005CCE91352221D66
:1027C00004466046FEF72AF9216820466FF0400271
:1027D0000A6000BF016851E8051F026841F08001EE
:1027E00042E80513DBB1016851E8051F026841F0BA
:1027F000800142E8051393B1016851E8051F0268A2
:1028000041F0800142E805134BB1016851E8051F12
:10281000026841F0800142E80513002BDAD1002262
:102820001046B0BD7047000070470000FEE7000092
:1028300020EEA01A20EE000A30EE010AB1EEC00A26
:1028400070470000FEE70000FEE700007047000050
:102850007047000020EE010A60EE810A7047000018
:102860002DE9F04F4FF680310020CFF6FF714FF089
:10287000180C4FF0190E4FF01A084FF01B094FF0CB
:102880001C0A4FF01D0B1E261F274DF2803200231D
:1028900040F2C404C2F200040C440125C4F8AC5454
:1028A0000225C4F8D0540325C4F8F4540425C4F810
:1028B00018550525C4F83C550625C4F8605507256C
:1028C000C4F884550825C4F8A8550925C4F8CC5582
:1028D0000A25C4F8F0550B25C4F814560C25C4F885
:1028E00038560D25C4F85C560E25C4F880560F25C1
:1028F000C4F8A4561025C4F8C8561125C4F8EC56DF
:102900001225C4F810571325C4F834571425C4F8F9
:1029100058571525C4F87C571625C4F8A057172515
:10292000C4F8C45704F5FC6585E8091004F507658B
:1029300001F59061C4F88434C4F8A834C4F8CC34E8
:10294000C4F8F034C4F81435C4F83835C4F85C352C
:10295000C4F88035C4F8A435C4F8C835C4F8EC35DB
:10296000C4F81036C4F83436C4F85836C4F87C3687
:10297000C4F8A036C4F8C436C4F8E836C4F80C3736
:10298000C4F83037C4F85437C4F87837C4F89C37E3
:10299000C4F8C037C4F80838C4F82C38C4F8503824
:1029A00085E80904C4F89838C4F8BC38C4F8E0389D
:1029B000914203F10103C4F88004C4F88804C4F808
:1029C000A404C4F8C804C4F8EC04C4F81005C4F89E
:1029D0003405C4F85805C4F87C05C4F8A005C4F84B
:1029E000C405C4F8E805C4F80C06C4F83006C4F8F9
:1029F0005406C4F87806C4F89C06C4F8C006C4F8A7
:102A0000E406C4F80807C4F82C07C4F85007C4F853
:102A10007407C4F89807C4F8BC07C4F80408C4F8DD
:102A20000CE8C4F82808C4F83088C4F84C08C4F886
:102A30005498C4F89408C4F89CB8C4F8B808C4F80A
:102A4000C068C4F8DC08C4F8E4787FF421AFBDE8BE
:102A5000F08F00002DE9F04F81B02DED0E8B82B08C
:102A600040F27400C2F2000090EC020A9FEDAB1A33
:102A7000FFF7F0FE40F2C403C2F200039FEDA88A04
:102A80009FEDA89AA3F58960A3F25C464FF0000B76
:102A90001C46002501900FE00198009D40F2C40300
:102AA00004F5906400F5906006F59066302DC2F252
:102AB0000003019000F02C8105EBC500C1015958BD
:102AC00003EBC01005F1010902290746CDF800907B
:102AD00004D0002908BFC7E905BB73E095B1691EA2
:102AE00001EBC101CA019A58022A11D103EBC111AD
:102AF00091ED05AA4FF002082F2DB0EE48BA0FD184
:102B00001EE000BF4FF00108B0EE48AA08E000BF89
:102B10004FF00108B0EE48AA2F2DB0EE48BA0FD002
:102B200009EBC901CA019A58022A07D103EBC11166
:102B300091ED05BA08F1010802E000BFB0EE48BA15
:102B400050F8241F022906BF90ED06CA08F10108BB
:102B5000B0EE48CA97ED050AD7ED060A3BEE0C1A0F
:102B600031EE4ADAFFF764FE3DEE000A01EE108A0C
:102B700020EE090AB8EEC11A80EE011AB5EE40CA7D
:102B800097ED062AF1EE10FA14BF31EE021A32EE7A
:102B9000411A02EE108AB8EEC22A80EE020AB0EEA6
:102BA000CA2AB0EECB3AB4EE432AF1EE10FA87ED22
:102BB000061A97ED051ACCBF30EE010A31EE400A35
:102BC00087ED050A1F274FF0000808E0002808BF1E
:102BD000C9E90EBB013F08F124083FF45DAF04EBE7
:102BE0000809D9F824000228F0D1DDB156F8080010
:102BF000022825D101984FF0020A404490ED00AA26
:102C00002F2DB0EE48BA23D006EB0800D0F800090B
:102C1000022811D109F5976090ED00BA0AF1010A76
:102C200016E000BF4FF0010AB0EE48AA06EB08001C
:102C3000D0F800090228EDD0B0EE48BA08E000BF95
:102C40004FF0010AB0EE48AA2F2DB0EE48BADBD102
:102C500006EB0800D0F85C04022806BF99ED06CA0E
:102C60000AF1010AB0EE48CAB8F5876F02D1B0EE9A
:102C700048DA09E0D9F84800022806BF99ED18DAC9
:102C80000AF1010AB0EE48DA3DEE4C0A3BEE001ABA
:102C900099ED0E0AD9ED0F0A31EE4AEAFFF7C8FDA9
:102CA0003EEE000A01EE10AA20EE090AB8EEC11AA3
:102CB000B0EECD2AB0EECC3A80EE011AB4EE432A43
:102CC00099ED0F2AF1EE10FAD4BF32EE411A31EE2F
:102CD000021A02EE10AAB8EEC22A80EE020AB0EE84
:102CE000CA2AB0EECB3AB4EE432AF1EE10FA89EDDF
:102CF0000F1A99ED0E1AD4BF31EE400A30EE010AD8
:102D000089ED0E0A013F08F124087FF468AFC3E69D
:102D100002B0BDEC0E8B01B0BDE8F08FCDCC4C3EC7
:102D2000000000009A99D93F2DE9F04F81B02DEDB8
:102D30000C8B84B09FED5A0B9FED5B1B51EC100B7D
:102D4000CDE902109FED5A9A9FED5ABADDF80C803A
:102D500050EC119BBDEE008AB3EE0FAA4FF0000AB3
:102D6000019005E00AF11C0ABAF5604F00F090806E
:102D70004FF20070C2F2000000EB0A0B9BED00DA8C
:102D80009BED01CA1DEE100A02F016FA019E0246E2
:102D90000B46B5EE40DA31464846F1EE10FA029F96
:102DA000BCBF3946404601F0EDFFB5EE40CA0446CF
:102DB000F1EE10FAB8BF3E464F461CEE100A0D4623
:102DC000B8BF474602F0F8F902460B46384631468E
:102DD00001F0D8FF06460F462046294602F07AF851
:102DE00004463046394602F075F82F2C4FF00001AA
:102DF00088BF012100284FF0000248BF01221F2890
:102E00004FF00003B5EE40DAC8BF0123F1EE10FA2F
:102E1000B0EE490A06DBB4EE4BDAF1EE10FAB0EE92
:102E20004B0A04DD00278BED000ACBF80870B5EEE5
:102E300040CAF1EE10FAB0EE490A06DBB4EE4ACA17
:102E4000F1EE10FAB0EE4A0A04DD00278BED010A1C
:102E5000CBF80C70114319437FF484AF40F2C402E5
:102E600004EBC401C2F2000202EBC11100EBC0008E
:102E700001EB8000006801287FF474AF9BED020A2B
:102E8000DBED030AB0EE481AFFF7E4FC6AE700BF87
:102E900004B0BDEC0C8B01B0BDE8F08F00BF00BFEB
:102EA000000000000000E0BF000000000000E03F64
:102EB0000000000000003C422DE9F04F81B02DEDF4
:102EC0000E8B84B04FF6803040F2C407CFF6FF700F
:102ED000C2F2000700214DF2803200BF3B1800F51E
:102EE00090609042C3F89014C3F89C14C3F8A014E7
:102EF000C3F8B414C3F8C014C3F8C414C3F8D81486
:102F0000C3F8E414C3F8E814C3F8FC14C3F80815B4
:102F1000C3F80C15C3F82015C3F82C15C3F83015E9
:102F2000C3F84415C3F85015C3F85415C3F8681511
:102F3000C3F87415C3F87815C3F88C15C3F8981541
:102F4000C3F89C15C3F8B015C3F8BC15C3F8C01579
:102F5000C3F8D415C3F8E015C3F8E415C3F8F815A1
:102F6000C3F80416C3F80816C3F81C16C3F82816CD
:102F7000C3F82C16C3F84016C3F84C16C3F8501605
:102F8000C3F86416C3F87016C3F87416C3F888162D
:102F9000C3F89416C3F89816C3F8AC16C3F8B8165D
:102FA000C3F8BC16C3F8D016C3F8DC16C3F8E01695
:102FB000C3F8F416C3F80017C3F80417C3F81817BA
:102FC000C3F82417C3F82817C3F83C17C3F84817E9
:102FD000C3F84C17C3F86017C3F86C17C3F8701721
:102FE000C3F88417C3F89017C3F89417C3F8A81749
:102FF000C3F8B417C3F8B817C3F8CC17C3F8D81779
:10300000C3F8DC17C3F8F017C3F8FC17C3F80018AF
:10301000C3F81418C3F82018C3F82418C3F83818D4
:10302000C3F84418C3F84818C3F85C18C3F8681804
:10303000C3F86C18C3F88018C3F88C18C3F890183C
:10304000C3F8A418C3F8B018C3F8B418C3F8C81864
:10305000C3F8D418C3F8D818C3F8EC18C3F8F81894
:10306000C3F8FC187FF43AAF4DF6B860C2F2000026
:10307000DBA11B226423FFF7ADFA9FEDD50B9FED7B
:10308000D61B51EC100BCDE9021050EC11AB4FF0F8
:10309000000901900BE000BF1831C1F800B0C0F882
:1030A00020B009F10209B9F5006F00F007814FF275
:1030B0000071C9EBC900C2F2000101EB800B9BED6E
:1030C000008A0020CBF818009BED019A18EE100A38
:1030D00002F072F8019E02460B46B5EE408A314678
:1030E0005046F1EE10FA029FB8BF3946DDF80C8069
:1030F000B8BF404601F046FEB5EE409A0446F1EEF8
:1031000010FAB8BF3E46574619EE100A0D46B8BF32
:10311000474602F051F802460B463846314601F068
:1031200031FE06460F462046294601F0D3FE0446EE
:103130003046394601F0CEFE2F2C4FF000014FF003
:10314000000288BF0121002848BF0122114300224C
:103150001F28C8BF0122114340F2C40204EBC4017E
:10316000C2F2000202EBC11100EBC00001EB8001D2
:10317000084618BF00201BD151F81C2F51F80C3CF9
:1031800003F1010341F80C3C72B100BF9369114691
:103190004BB19A69194632B1936911461BB19A69CC
:1031A0001946002AF2D11831C1F800B0C0F820B099
:1031B00049F001004FF20071C0EBC000C2F2000103
:1031C00001EB800B9BED008A0020CBF818009BEDF3
:1031D000019A18EE100A01F0EFFF019E02460B461D
:1031E000B5EE408A31465046F1EE10FA029FB8BF64
:1031F0003946039CB8BF204601F0C4FDB5EE409AA5
:103200008046F1EE10FAB8BF3E46574619EE100A56
:103210000D46B8BF274601F0CFFF02460B463846A1
:10322000314601F0AFFD06460F464046294601F003
:1032300051FE04463046394601F04CFE2F2C4FF02B
:1032400000014FF0000288BF0121002848BF012281
:10325000114300221F28C8BF0122114340F2C402BB
:1032600004EBC401C2F2000202EBC11100EBC0008A
:1032700001EB8001084618BF00207FF412AF51F81F
:103280001C2F51F80C3C002A03F1010341F80C3CBF
:103290003FF403AF93691146002B3FF4FDAE9A69EA
:1032A0001946002A3FF4F8AE93691146002B3FF40B
:1032B000F3AE9A691946002AECD1EDE640F2C40A51
:1032C0004FF00008BFEE008AB0EE02DAB7EE08EA6F
:1032D000C2F2000A05E000BF08F10108B8F1300FA2
:1032E0006ED008EBC80000250AEBC01903E000BF50
:1032F0000135202DF0D005EBC50009EB80000169F8
:103300000229F5DBC46900E03C68002CF0D02746B8
:1033100057F8186F002EEBD094EC020AB0EE481A62
:10332000FFF798FA96ED012AB0EE401A96ED000AE2
:10333000F0EE601AF0EE420AFDF766F9B0EE409A40
:10334000B0EE60AAFFF774FA20EE001AB4EE4D1A40
:10335000F1EE10FAD8DCB5EE401AF1EE10FAD3D047
:103360003EEE401A81EE001AB0EE490AF0EE4A0A2B
:10337000FFF770FAB0EE481AB0EE409AB0EE60AACD
:10338000FFF768FA96ED011AB0EE40BA96ED000A22
:10339000B0EE60CAF0EE410AB0EE491AF0EE4A1AF9
:1033A000FDF732F986EC020A94EC020AB0EE4B1AF1
:1033B000F0EE4C1AFDF728F984EC020AA4E700BFEE
:1033C00004B0BDEC0E8B01B0BDE8F08F00BF00BFB4
:1033D000000000000000E0BF000000000000E03F2F
:1033E000636F756E74696E67207061727469636C67
:1033F000657320696E2063656C6C0A002DE9F04FDF
:1034000081B02DED0A8BFFF72BFA4FF20070C2F25C
:103410000000A0F11C0700244FF002084FF07D5976
:1034200046F22D4A4FF0170BB6EE00AAB2EE08BADC
:1034300048F68905B3EE05CA07F11C06FDF7EAF860
:10344000B0EE408AB0EE609AFDF7E4F887ED078AA7
:1034500087ED089A87ED090AC7ED0A0AC7E90B89C3
:10346000FDF7D8F887ED070AC7ED080AFDF7D2F88F
:10347000A0B200FB0AF1A4EB114292B2520802EB97
:10348000114168430909C00C01FB1B41A0EB00106E
:10349000204489B280B287ED090A00EE101A01EECD
:1034A000100AB8EE400AB8EE411A20EE0A0A21EEE0
:1034B0000A1A30EE0B0A31EE0C1A0134C7ED0A0A73
:1034C00087ED070A87ED081AB4F5006F3746B3D1C8
:1034D000FFF7F2FC40F274000021C2F20000CCF2CF
:1034E000A0010022C0E90021BDEC0A8B01B0BDE8BB
:1034F000F08F000070B52DED068B40F27400C2F223
:1035000000009FED248A90EC020AB0EE481AFFF703
:10351000A1F94FF20070C2F20000B0EE409AB0EE96
:1035200060AAA0F114054FF4006400BF95ED070AEE
:10353000D5ED080AB0EE491AF0EE4A1A05F11C065C
:10354000FDF762F895ED062A85ED070A20EE081AC8
:1035500095ED050AC5ED080A60EE881AF0EE420AFC
:10356000FDF752F885ED050AC5ED060A013C354622
:10357000DCD1FFF7D9FBFFF79FFC012000F00CF82E
:10358000FFF768FA0020BDEC068BBDE8704000F044
:1035900003B800BFCDCC4C3E2DE9F04F81B02DEDEE
:1035A000108B84B0002800F09B8040F2C4050024FA
:1035B000C2F200054FF00008002700BFE859EE19DD
:1035C000022808BFEC51FDF725F82437B7F5906FB6
:1035D00086ED050AC6ED060A3461EFD108F101084F
:1035E000B8F1300F05F59065E6D19FED8F0B9FED9B
:1035F000901B51EC100BCDE90210DDF80C8000257A
:1036000050EC11AB019004E01C35B5F5604F00F0B3
:1036100005814FF20070C2F2000000EB050B9BED3C
:10362000008A9BED019A18EE100A01F0C5FD019E7B
:1036300002460B46B5EE408A31465046F1EE10FA8E
:10364000029FBCBF3946404601F09CFBB5EE409A54
:103650000446F1EE10FAB8BF3E46574619EE100A7E
:103660008946B8BF474601F0A7FD02460B463846DB
:10367000314601F087FB06460F462046494601F0D9
:1036800029FC04463046394601F024FC2F2CBBD8D7
:103690000028B9D41F28B7DC40F2C40204EBC401EF
:1036A000C2F2000202EBC11100EBC00001EB80048A
:1036B0002069216801300029206104BF02202060B8
:1036C00094ED050AD4ED060A9BED021ADBED031A10
:1036D000FCF79AFF84ED050AC4ED060A94E700BFE3
:1036E0000025B7EE008AF1EE049A04E0B9F1300F3C
:1036F0004D4600F0938040F2C402681E05F10109B6
:1037000005EBC501C2F2000202EBC11409EBC901CD
:1037100000EBC000002702EBC11B02EBC01A02E065
:103720000137202FE2D007EBC70204EB82010869C2
:103730000128F5DB0B68022BF2D10E464DB15AF889
:103740002230022B04BF0AEB8203D3ED05BA2F2DE2
:1037500007D05BF82230022B04BF0BEB8202D2EDC4
:1037600005DA47B10A4652F8243D022B08BFD2EDD4
:1037700006AA1F2F05D051F8242F022A08BFD1ED29
:1037800006CAD6F81C80B8F1000FC9D000EE100AA6
:10379000B8EEC00A88EE009A3AEEACBA3BEEADCA7B
:1037A00089EE29AA96ED050AD6ED060AB0EE491A69
:1037B000FFF750F898ED031AB0EE40DA98ED020AE0
:1037C000B0EE60EAF0EE410AB0EE481AFFF742F8B8
:1037D000B0EE40FAF0EE608AB0EE4C0AF0EE4B0A22
:1037E000B0EE4D1AF0EE4E1AFCF70EFFB0EE4A1A8C
:1037F000FFF730F8B0EE401AF0EE601AB0EE4F0A64
:10380000F0EE680AFCF700FF88ED020AC8ED030A33
:10381000D8F81880B8F1000FC4D181E704B0BDEC2E
:10382000108B01B0BDE8F08F000000000000E0BF89
:10383000000000000000E03FFDF732BA70B594B020
:1038400007AC20463421FCF727FE002543F6400054
:103850000695CDE90455CDE902550195C4F2020063
:103860000168022641F080510160006800F080503C
:103870000190019847F200000195C4F20000016830
:1038800041F440410160006800F44040019001981B
:10389000012007904FF4A02008904FF480000E9074
:1038A00004200F90A820CDE910060720CDE91206CC
:1038B00020460D96FDF7A2FF10B172B6FEE700BFDD
:1038C0000F20CDE902064FF4A05005904FF4805030
:1038D000069002A805210495FDF764FE10B172B6AA
:1038E000FEE700BF14B070BD4EF68850CEF2000067
:1038F000016841F4700101607047000010B540F6A6
:10390000FF3E0368C4F2000E40F2004C7045C4F262
:10391000010C25DCB0F1804F2FD040F20042C4F200
:103920000002904229D040F60002C4F20002904208
:1039300023D041F6FF72C4F20002904227DC7045AA
:103940003ADCB0F1804F5BD040F20042C4F200029A
:10395000904255D040F60002C4F200024EE000BF93
:1039600040F60042C4F20002904206D0604504D006
:103970000022C4F201029042DBD14A6823F07003B6
:10398000134341F6FF72C4F200029042D7DD43F6C2
:10399000FF72C4F20102904220DC42F20002C4F243
:1039A000000290422CD00022C4F20102904227D0A3
:1039B000604525D028E000BF40F60042C4F2000276
:1039C00090421DD041F60002C4F20002904217D08E
:1039D00041F60042C4F2000210E000BF44F20002CF
:1039E000C4F2010290420BD044F60002C4F201027C
:1039F000904205D044F20042C4F20102904203D149
:103A0000CA6823F44073134323F080024B69D1F852
:103A100000E08C681A430260C46240F48062C0F81F
:103A200028E0624504BF0969016301214161016920
:103A3000C90708BF10BD016921F00101016110BD76
:103A4000806B0021C185C184FEF76ABA806B016872
:103A50004A6990F84130212B2DD112F080022AD0F2
:103A60000021C184016851E8031F026821F0C001F0
:103A700042E80313DBB1016851E8031F026821F03B
:103A8000C00142E8031393B1016851E8031F0268C3
:103A900021F0C00142E803134BB1016851E8031F54
:103AA000026821F0C00142E80313002BDAD1202183
:103AB00080F841100168496990F84220222A40F0BC
:103AC0007D8011F0400179D00021C185016851E865
:103AD000031F026821F4907142E80313BBB301682D
:103AE00051E8031F026821F4907142E8031373B395
:103AF000016851E8031F026821F4907142E8031342
:103B00002BB3016851E8031F026821F4907142E869
:103B10000313002BDAD11AE0016851E8051F02688F
:103B200021F0010142E80513DBB1016851E8051FEE
:103B3000026821F0010142E8051393B1016851E8E0
:103B4000051F026821F0010142E805134BB101682D
:103B500051E8051F026821F0010142E80513002B1E
:103B6000DAD1016B012924D1016851E8031F0268F1
:103B700021F0100142E80313DBB1016851E8031F93
:103B8000026821F0100142E8031393B1016851E883
:103B9000031F026821F0100142E803134BB10168D2
:103BA00051E8031F026821F0100142E80313002BC3
:103BB000DAD1202180F8421000210163416C41F0EC
:103BC00010014164FEF7ACB90168806B0968C90552
:103BD00048BFFEF727BE0021C18400BF016851E83D
:103BE000051F026821F0800142E8051383B30168D4
:103BF00051E8051F026821F0800142E805133BB33C
:103C0000016851E8051F026821F0800142E80513B0
:103C1000F3B1016851E8051F026821F0800142E814
:103C20000513002BDAD113E0016851E8031F026885
:103C300041F0400142E80313002B08BF70470168C0
:103C400051E8031F026841F0400142E8031393B1B9
:103C5000016851E8031F026841F0400142E8031384
:103C60004BB1016851E8031F026841F0400142E88E
:103C70000313002BD8D17047806BFEF7D5BD000031
:103C800081B090F84210222921D183680246B3F511
:103C9000805F09D152F8281F52F8183C002B63D0DE
:103CA00003685B680AE000BF52F8281F13B9036974
:103CB000002BF5D003685B6803F07F030B7011687D
:103CC00001311160C18D01390A04C18502D001B0F2
:103CD000704700BF0168CA6822F02002CA60CA6843
:103CE00022F48072CA604A6922F001024A612021EE
:103CF00080F8421000214163026B012A3CD101632C
:103D0000016851E8031F026821F0100142E8031323
:103D1000DBB1016851E8031F026821F0100142E89D
:103D2000031393B1016851E8031F026821F01001E9
:103D300042E803134BB1016851E8031F026821F008
:103D4000100142E80313002BDAD101680A68D20699
:103D500006D5002200920A680092496800910099F5
:103D6000818D01B0FEF7DAB8026852686FF35F2206
:103D700021F8022B8162A5E701B0FEF729BC000003
:103D8000B0B50446006804F108030ECB0569194379
:103D900025F440552A4302616269E3691143C26810
:103DA000194349F20C639A431143C1604169A26906
:103DB00021F4407141F20043114340F48062C4F2A7
:103DC00001039A42416103D1FDF7B2FC02E000BF5A
:103DD000FDF79AFCE1694FF69C7563681922C0F6FD
:103DE000FF75B1F5004FA0FB02011FD15A00DB0F98
:103DF000FCF76EFA48F21F51C5F2EB11A0FB01234C
:103E00005A0905F1805302FB0300322303EBC00083
:103E1000A0FB01014FF4F87000EA111000EB021052
:103E2000C1F34211084421688860B0BD9A009B0F1D
:103E3000FCF74EFA48F21F51C5F2EB11A0FB01232B
:103E40005A0902FB0500322303EB0010A0FB01011D
:103E5000F02000EA511000EB0210C1F343110844B6
:103E600021688860B0BD00004DF6B860C2F2000065
:103E7000FEF760B882B002F47F42B2F5807F40F076
:103E80007F80826B4FF6BF7322F480328263C268F8
:103E9000CFF6BD731A40C260029BC268DBB222F447
:103EA0004012012BC26003D1C26842F48012C2608A
:103EB00000220092009A01320092009AB2F1706FD3
:103EC00000F2BE800269002A21D4009A01320092D9
:103ED000009AB2F1706F00F2B3800269002A16D422
:103EE000009A01320092009AB2F1706F00F2A8803D
:103EF0000269002A0BD4009A01320092009AB2F1B2
:103F0000706F00F29D800269B2F1FF3FD2DC0022A7
:103F10000092026942F001020261009A01320092AD
:103F2000009AB2F1706F00F28B800269D2071ED046
:103F3000009A01320092009AB2F1706F00F2808014
:103F40000269D20713D0009A01320092009AB2F1AE
:103F5000706F75D80269D20709D0009A01320092B9
:103F6000009AB2F1706F6BD80269D207D5D14FF0C9
:103F7000000C01F47F01B1F5803F40F0818077E0D3
:103F8000C26842F04002C26000220192019A0132EE
:103F90000192019AB2F1706F5AD80269002A1ED4B8
:103FA000019A01320192019AB2F1706F50D8026900
:103FB000002A14D4019A01320192019AB2F1706F71
:103FC00046D80269002A0AD4019A01320192019A64
:103FD000B2F1706F3CD80269B2F1FF3FD6DC00222B
:103FE0000192026942F001020261019A01320192DA
:103FF000019AB2F1706F2BD80269D2071DD0019AD5
:1040000001320192019AB2F1706F21D80269D20790
:1040100013D0019A01320192019AB2F1706F17D850
:104020000269D20709D0019A01320192019AB2F1D4
:10403000706F0DD80269D207D7D14FF0000C09E09C
:104040004FF0030C01F47F01B1F5803F18D10FE070
:104050004FF0030C826B13F47F4F14BF22F48032B5
:1040600042F48032826301F47F01B1F5803F07D1D1
:10407000816841F006018160816841F02001816022
:10408000604602B0704700000146D0F8000E20F0F4
:104090000300C1F8000ED1F8040840F0020200202D
:1040A000C1F80428704700002DE9F04F86B0C3F333
:1040B000074516468E460021C0F80411C0F80811C5
:1040C000C0F80C11C0F81011C0F81411C0F8181184
:1040D000C0F81C11C0F82011C0F82411C0F8281134
:1040E000C0F82C11C0F83011C0F83411C0F83811E4
:1040F000C0F83C1125B100F138014FF400120FE077
:10410000D0F80418802241F00201C0F80418816B35
:1041100021F400118163016841F040010160014612
:104120000B681A430A6006F47F420021B2F5807FD3
:10413000C0F8001E08D1D0F80028B1EB1E6F09D1DD
:10414000C0F800280AE000BFD0F8001841F00301D1
:1041500002E000BF42F00101C0F800180021049104
:104160000499013104910499B1F1706F52D8016939
:1041700000291ED40499013104910499B1F1706FA2
:1041800048D80169002914D4049901310491049993
:10419000B1F1706F3ED8016900290AD40499013148
:1041A00004910499B1F1706F34D80169B1F1FF3F06
:1041B000D6DC002104914FF484610161049901313E
:1041C00004910499B1F1706F24D8016989061DD555
:1041D0000499013104910499B1F1706F1AD8016901
:1041E000890613D50499013104910499B1F1706FD6
:1041F00010D80169890609D50499013104910499FF
:10420000B1F1706F06D801698906D7D44FF0000A62
:1042100002E000BF4FF0010A00210591059901312C
:1042200005910599B1F1706F4ED8016900291ED42E
:104230000599013105910599B1F1706F44D8016973
:10424000002914D40599013105910599B1F1706FD8
:104250003AD8016900290AD40599013105910599D7
:10426000B1F1706F30D80169B1F1FF3FD6DC0021A8
:104270000591102101610599013105910599B1F16F
:10428000706F21D80169C90620D5059901310591C2
:104290000599B1F1706F17D80169C90616D505994E
:1042A000013105910599B1F1706F0DD80169C90609
:1042B0000CD50599013105910599B1F1706F03D8BD
:1042C0000169C906D7D401E04FF0010A5FFA8EF9FF
:1042D0004FF00008B9F1000FC0F81088C0F814883A
:1042E000C0F81C8800F00D81CDF80CA0CDE9015E6E
:1042F000D0F800194FF0006404EA11114FF67F3531
:10430000B9F1010BC0F80019C0F81089C0F80859BC
:1043100074D0A9F1020103290BF0030A04D2012190
:10432000BAF1000F40D169E000962BF0030700F5C9
:10433000186600234FF0904C4FF67F324FF0000E7E
:1043400056F8601C0EF1040E0CEAE17146F8601C90
:1043500046F8503C46F8582C56F8401C77450CEA75
:10436000E17146F8401C46F8303C46F8382C56F8C7
:10437000201C0CEAE17146F8201C46F8103C46F877
:10438000182C31680CEAE17131603361B26006F1DA
:104390008006D5D1009E0EF101014FF67F354FF01A
:1043A0000064BAF1000F29D000F510634F01B44644
:1043B000DE594FF0904202EAE67603EB4111DE51FE
:1043C000664600274FF67F33BAF1010F0F618B600D
:1043D00014D00E6ABAF1020F02EAE67266460A6269
:1043E0000F638B620AD00A6C4FF0904303EAE272CB
:1043F0000A6400220A654FF67F328A64D0F8001BF7
:10440000BBF1000F04EA1111C0F8001B4FF00001CE
:10441000C0F8101BC0F8085BDDE9015EDDF80CA0F8
:104420006FD0A9F1020103290BF0030C04D2012182
:10443000BCF1000F3BD164E0A94600962BF00305C8
:1044400000F5386600234FF090474FF67F32002189
:1044500056F8604C043107EAE47446F8604C46F8BC
:10446000503C46F8582C56F8404C8D4207EAE4740C
:1044700046F8404C46F8303C46F8382C56F8204C6C
:1044800007EAE47446F8204C46F8103C46F8182C2D
:10449000346807EAE47434603361B26006F1800680
:1044A000D6D1009E01314D46BCF1000F29D000F558
:1044B00030634F013446DE594FF0904202EAE6760F
:1044C00003EB4111DE51264600274FF67F33BCF146
:1044D000010F0F618B6014D00E6ABCF1020F02EA6B
:1044E000E67226460A620F638B620AD00A6C4FF0AE
:1044F000904303EAE2720A6400220A654FF67F32B3
:104500008A64D0F810181EF47F0F21F48071C0F86F
:1045100010186FF08041C0F81880416103D18169A3
:1045200041F010018161816943F60002C8F23C024A
:10453000114316F47F0F816103D0816941F00801B6
:104540008161012D05D1816941F0804141F0040173
:104550008161504606B0BDE8F08F000001468068DA
:1045600020F0010200208A6070470000B0B50446C8
:10457000C068002920F0C040E06000F09980012967
:1045800040F0B080E0680A2540F00050E0600A206A
:10459000FCF796FA54F8140FC00740F09C800A20EC
:1045A000FCF78EFA2068C00740F09E800A20FCF7D6
:1045B00087FA2068C00740F0A5800A20FCF780FA3F
:1045C0002068C00740F0AC800A20FCF779FA206828
:1045D000C00740F0B3800A20FCF772FA2068C007D9
:1045E00040F0BA800A20FCF76BFA2068C00740F060
:1045F000C1800A20FCF764FA2068C00740F0C88038
:104600000A20FCF75DFA2068C00740F0CF800A203E
:10461000FCF756FA2068C00740F0D6800A20FCF765
:104620004FFA2068C00740F0DD800A20FCF748FA06
:104630002068C00740F0E4800A20FCF741FA2068B7
:10464000C00740F0EB800A20FCF73AFA2068C00768
:1046500040F0F2800A20FCF733FA2068C00740F0EF
:10466000F9800A20FCF72CFA2068C00740F000818E
:104670000A20FCF725FA2068C00740F007810A20CD
:10468000FCF71EFA2068C00740F00E810A20FCF7F4
:1046900017FA2068C00740F016810A20FCF710FACC
:1046A0002068C825A5F1C800B0FA80F04009B0BD67
:1046B000E0680A2540F08040E0600A20FCF700FA3C
:1046C00054F8140FC00706D00A20FCF7F9F9206847
:1046D000C00711D11425A5F1C800B0FA80F0400937
:1046E000B0BD00BF0120B0BD1425A5F1C800B0FACF
:1046F00080F04009B0BD00BF0A20FCF7E1F9206856
:10470000C00707D11E25A5F1C800B0FA80F0400906
:10471000B0BD00BF0A20FCF7D3F92068C00707D15D
:104720002825A5F1C800B0FA80F04009B0BD00BF4F
:104730000A20FCF7C5F92068C00707D13225A5F18A
:10474000C800B0FA80F04009B0BD00BF0A20FCF7F5
:10475000B7F92068C00707D13C25A5F1C800B0FA19
:1047600080F04009B0BD00BF0A20FCF7A9F920681D
:10477000C00707D14625A5F1C800B0FA80F040096E
:10478000B0BD00BF0A20FCF79BF92068C00707D125
:104790005025A5F1C800B0FA80F04009B0BD00BFB7
:1047A0000A20FCF78DF92068C00707D15A25A5F12A
:1047B000C800B0FA80F04009B0BD00BF0A20FCF785
:1047C0007FF92068C00707D16425A5F1C800B0FAB9
:1047D00080F04009B0BD00BF0A20FCF771F92068E5
:1047E000C00707D16E25A5F1C800B0FA80F04009D6
:1047F000B0BD00BF0A20FCF763F92068C00707D1ED
:104800007825A5F1C800B0FA80F04009B0BD00BF1E
:104810000A20FCF755F92068C00707D18225A5F1C9
:10482000C800B0FA80F04009B0BD00BF0A20FCF714
:1048300047F92068C00707D18C25A5F1C800B0FA58
:1048400080F04009B0BD00BF0A20FCF739F92068AC
:10485000C00707D19625A5F1C800B0FA80F040093D
:10486000B0BD00BF0A20FCF72BF92068C00707D1B4
:10487000A025A5F1C800B0FA80F04009B0BD00BF86
:104880000A20FCF71DF92068C00707D1AA25A5F169
:10489000C800B0FA80F04009B0BD00BF0A20FCF7A4
:1048A0000FF92068C00707D1B425A5F1C800B0FAF8
:1048B00080F04009B0BD00BF0A20FCF701F9206874
:1048C000C0077FF4EAAEBE25A5F1C800B0FA80F0BB
:1048D0004009B0BDFEE7000088B040F60007C4F212
:1048E0000207FCF7EBF9FEF7A9FF002443F63006B8
:1048F0000694CDE90444CDE902440194C4F20206D1
:104900003068182140F0040030603068002200F068
:10491000040001900198019430684FF0180840F0AD
:1049200080003060306800F08000019001980194B0
:10493000306840F001003060306800F00100019004
:1049400001980194306840F002003060306800F057
:104950000200019001980194306840F00800306036
:10496000306800F00800019001980194306840F030
:1049700040003060306800F04000019001983846F7
:10498000FCF782F9A7F58069484644F281010022CC
:10499000FCF77AF907F580552846402100224FF0B0
:1049A000400BFCF771F94FF4005002904FF488105F
:1049B0000DF1080ACDE9030438465146FCF794F896
:1049C000CDF80880B846012740465146CDE9037727
:1049D0000594FCF789F844F28100CDE902074846C6
:1049E0005146CDE90444FCF77FF828465146CDE90D
:1049F00002B7CDE90444FCF777F88020CDE9020442
:104A0000284651460494FCF76FF802943068002160
:104A100040F4001030603068002200F40010029072
:104A200002980E20FCF7B8F90E20FCF7A3F94DF61A
:104A30000860A8F55841C2F200004FF482764FF4A6
:104A400000750A27C0E90016C0E90244C0E9044421
:104A5000C0E90654C0E90844C0E90A47FDF7BCF8BC
:104A600010B172B6FEE700BF4DF66060A8F5E83100
:104A7000C2F20000C0E90016C0E90244C0E90444E3
:104A8000C0E90654C0E90844C0E90A47FDF7A4F8A4
:104A900010B172B6FEE700BF40F27004C2F200042B
:104AA000A8F5FC322046002140F80C2F4FF6FF728B
:104AB000CDE90211C0E90111C2608161FDF7E6F99B
:104AC00010B172B6FEE700BF04F10C0002A9FDF7B9
:104AD0007FF918B172B600BFFEE700BF4DF6B860AF
:104AE000A8F5E031C2F2000000230C274FF4E132B8
:104AF00080E80E00C0E90333C0E90573C361FDF728
:104B0000D1FC18B172B600BFFEE700BF4DF624100D
:104B1000C2F200004FF0A0410160062101714FF484
:104B20000071C1804FF48171C0F809100121C18169
:104B3000FCF782F910B172B6FEE700BF10A000F0DA
:104B400035F8404610210122FCF79EF84046082126
:104B50000122FCF799F8FEF751FC0EA000F026F8B0
:104B600000210020CCF2A001C4E90101FEF7C2FC43
:104B700020680130206000F029F800F0BDF8F5E76A
:104B800066696E6973686564204D5820496E697462
:104B9000730A00007374617274696E6720776869C4
:104BA0006C65206C6F6F700A0000000010B5044641
:104BB000FBF706FC82B24DF6B860C2F20000214657
:104BC0006423BDE81040FDF705BD000070B54DF64B
:104BD0000076C2F2000630464FF4C051FF22FBF7C8
:104BE00053FC4FF20070C2F200009FED420AA0F1A8
:104BF00038034FF400605F21902200BF93ED0E1A3E
:104C000093ED0F2A31EE011ABDEEC11A11EE104AD2
:104C100030EE421A31EE011ABDEEC11A93ED153A8B
:104C200011EE105A93ED164A85F306055F2CA8BFC6
:104C30000C4624EAE47405EB450533EE031A04EB55
:104C40004515BDEEC11A725511EE105A30EE441AD8
:104C500031EE011ABDEEC11A11EE104A5F2DA8BF48
:104C60000D4693ED1C1A84F3060425EAE57504EB62
:104C7000440493ED1D2A31EE011A05EB4415BDEEF7
:104C8000C11A725511EE105A30EE421A31EE011A65
:104C9000BDEEC11A93ED233A11EE104A93ED244A6A
:104CA00084F306045F2DA8BF0D4625EAE57504EBE5
:104CB000440433EE031A05EB4415BDEEC11A7255D8
:104CC00011EE105A30EE441A31EE011ABDEEC11A3F
:104CD00011EE104A84F306045F2DA8BF0D4625EAA5
:104CE000E57504EB4404703305EB44150438725544
:104CF00084D170BD00000042B0B54DF2007444F2A2
:104D00005410C2F20104C5F25240606040F60D201A
:104D100040F62155C5F221304DF60071C0F20A056A
:104D2000206004F10C00C2F200014FF4C052A560F3
:104D3000FBF765FB44F2215141F60C00C4F24E41F1
:104D40002150204445604EF614704DF6B864C2F20E
:104D5000010041F61401C2F2000401602046FDF793
:104D6000E1F82028FAD14DF6B8604DF20071C2F298
:104D70000000C2F2010141F60C02BDE8B040FDF7AF
:104D8000F3BC000010B591EA030F48BF83F0004365
:104D900000F12C81841A71EB030C05D2121943EB3C
:104DA0000C03001B61EB0C014FEA1154A4EB135CE4
:104DB000DFF81CE11EEA430F18BF9EEA445F00F0D3
:104DC000748021EA045123EA0E0343F48013DCF1DA
:104DD000200E32D322FA0CFE10EB0E0023FA0CFE4A
:104DE00041EB0E01CCF1200E03FA0EFE10EB0E008B
:104DF000CCF1200E51F10001B1F5801F32D201EB50
:104E0000045112FA0EF2BDE8104058BF7047401C22
:104E100038BF5FEA420218BF7047002814BF20F075
:104E2000010041F100014FEA410313F5001F38BFB3
:104E30007047A1F1C04100F0CAB8012A43EB030258
:104E4000ACF1200CDCF11F0E32BF4FF0000E23FA44
:104E50000CF310EB030041EB0451B4EB115FD0D025
:104E6000A1EB045101F58011490801EB04515FEAFF
:104E700030000ED350F1000038BF12FA0EFE08D1F8
:104E8000BDE81040C9E7401C38BF5FEA4202CAD102
:104E9000C3E7BDE810404FEA410313F5001F38BFD8
:104EA0007047A1F1C04100F092B89EEA445F08D07B
:104EB00011EA5E0FBDE8104004BF01F00041002080
:104EC0007047BDE8104070B500F033F864FBBE3E9B
:104ED0000000E0FF4FEA41034FEA5353A3F580631C
:104EE000D3F11E03C8BFD3F1210C0CDD4FF00042FB
:104EF00042EAC12242EA505232FA03FC8CEAE17CD7
:104F0000ACEBE1707047102BC4BF0020704703F575
:104F1000787CBCF1FF3F04D06FF0004282EA2100B0
:104F2000704770B500F005F8499224800020704762
:104F3000F2E70EF1020E2EF0030E5EF8046B36421D
:104F400005D4012A43EB030515F5001F12D80128EB
:104F500041EB010C1CF5001F0CD80ED14FEAD17C9F
:104F60000CEB4C0C0CF1020C15F5001F08BF4CEBC0
:104F7000D37C04E04FF0080C01E04FEAD37C0CEB4B
:104F80004C0526FA05F606F00706B6F1040C06D223
:104F90000EEB860CBDE870404CF0010C6047DFE87A
:104FA0000CF0090B02024FF00041A1F500214FF077
:104FB000000070BD19461046012851EB010418BFCE
:104FC000D4F5001484BF002001F0004170BD080832
:104FD000A0F500114FEA31017047000010B591EAC9
:104FE000030F48BF83F000433FF5D4AE841A71EB42
:104FF000030C07D28CF0004C121943EB0C03001B7E
:1050000061EB0C014FEA1154A4EB135CDFF8A4E14F
:105010001EEA430F18BF9EEA445F00F0B48021EA05
:10502000045123EA6E035242C3EB6E0338BF5B1E8A
:10503000DCF1200E25D322FA0CFE10EB0E0043FA11
:105040000CFE41EB0E01CCF1200E03FA0EFE10EB2C
:105050000E00CCF1200E51F1000129D401EB0451D6
:1050600012FA0EF2BDE8104058BF7047401C1CBF3A
:10507000B2F1004F704700280CBF491C20F001001E
:10508000704712EB020E43EB030218BF4FF0010E04
:105090004EEA4202ACF1200CDCF11E0E56D943FA66
:1050A0000CFE10EB0E00CCF11E0E51F1FF31D5D5E8
:1050B0000EF1010E12FA0EFE404141EB010101EB2F
:1050C000445C5FEA5C5C10D901EB045110EBDE70CC
:1050D00038BFBEF1004FBDE8104018BF7047002830
:1050E0000CBF491C20F00100704734D24FEAD42C89
:1050F00024F4006411F500111BD0B1FA81F20B3ACF
:10510000A41AA41ED2F12003914030FA03F31943EC
:10511000904001EBCC7101EB0451002CBDE8104034
:10512000A8BF704701F1C04101F000414FF00000FD
:105130007047B0FA80F310FA03F102D1BDE81040D5
:105140007047E41A173C4805C90AE2E701EB04512D
:10515000BDE81040704749104FEA300001EB0451A0
:10516000BDE8104002E04FF0000170474A0008BF60
:105170000042F8D0B2F5001F28BF704701F000418F
:105180004FF0000070479EEA445F07D011EA5E0FBF
:10519000BDE8104004BF002100207047BDE810406A
:1051A00070B5FFF7C6FE00BF40DFF63E104683F045
:1051B000004170470000E0FF43004FEAD30C4FEA84
:1051C0003C0C43401FBF40070CF1605113F0FE4FF1
:1051D00070471CF0006F03D10CF0004100207047B5
:1051E0000CF0004343EA507040EACC0010B500F0E8
:1051F0000EF800BF000000924FEA0001FFF7E7BE83
:105200004FF00041A1F500214FF0000070470EF172
:10521000020E2EF0030E5EF8044B244204D44FEA33
:105220004102B2F17F4F11D84FEA4003B3F17F4FF3
:105230000CD80ED14FEAD07C0CEB4C0C0CF1020CCC
:10524000B2F17F4F08BF4CEBD17C04E04FF0080C6B
:1052500001E04FEAD17C0CEB4C0324FA03F404F098
:105260000704B4F1040C06D20EEB840CBDE8104028
:105270004CF0010C6047DFE80CF0070802024FF029
:105280000040A0F5800010BD0846420018BFD2F1D2
:10529000807288BF00F0004010BDF1EE100A4FF69A
:1052A000FF71C0F2C03120EA010040F04070E1EE31
:1052B000100A704700000000000000000102030413
:1052C000060708090000000001020304000610168A
:1052D00000061016F8520008000000201000000020
:1052E00028020008085300081000002010F50100F3
:1052F000480200080000000001000000100000004B
:085300000024F400000000008D
:04000005080001C529
:00000001FF
