:020000040800F2
:1000000080F60120B5020008BD2E0008A52E0008CC
:10001000B92E0008450E00085940000800000000F5
:10002000000000000000000000000000B3300008E5
:100030006B0E000800000000BF2E00087D3800088D
:10004000CF020008CF020008CF020008CF0200084C
:10005000CF020008CF020008CF020008CF0200083C
:10006000CF020008CF020008CF020008CF0200082C
:10007000CF020008CF020008470E0008CF02000898
:10008000530E0008CF020008CF020008CF0200087C
:10009000CF020008CF020008CF020008CF020008FC
:1000A000CF020008CF020008CF020008CF020008EC
:1000B000CF020008CF020008CF020008CF020008DC
:1000C000CF020008CF020008CF020008CF020008CC
:1000D000CF020008CF020008CF020008DF3C000872
:1000E0006D0E0008CF020008CF020008CF02000802
:1000F000CF020008CF020008CF020008CF0200089C
:10010000CF020008CF020008CF020008CF0200088B
:10011000CF020008CF020008CF020008CF0200087B
:10012000CF020008CF020008CF0200085F0E0008CF
:10013000CF0200080000000000000000CF0200080D
:10014000CF020008CF020008CF020008CF0200084B
:10015000CF020008CF020008CF020008CF0200083B
:10016000CF020008CF020008CF020008CF0200082B
:10017000CF020008CF020008CF02000800000000F4
:1001800000000000CF020008000000000000000096
:10019000CF0200080000000000000000CF020008AD
:1001A000000000000000000000000000CF02000876
:1001B000CF020008CF020008CF020008CF020008DB
:1001C000CF02000800F002F800F065F814A696E8E7
:1001D000000CB244B344DA4501D100F05CF8BAE84F
:1001E0000F000FA696E83000A5EB040504EB060708
:1001F000AAEB0704A7F101074FEA15154FEA3414DB
:10020000A4F10104AC4201D300F045F813F0010F52
:1002100018BFFB1A43F0010300F001F8DBE71847B1
:10022000A86A0000C86A0000103A24BF78C878C1E4
:10023000FAD8520724BF30C830C144BF04680C60EC
:1002400070470000704700000023002400250026AE
:10025000103A28BF78C1FBD8520728BF30C148BF29
:100260000B607047662906F02484642900F002813F
:10027000782900F03B81002070471FB506F007FC8D
:1002800000F05CFC04000020002105F0D1FDE060DE
:100290001FBD10B510BD00F055FD1146FFF7EDFF75
:1002A00004F0D6F800F073FD03B4FFF7F2FF03BCCF
:1002B00000F0B4FD0948804709480047FEE7FEE723
:1002C000FEE7FEE7FEE7FEE7FEE7FEE7FEE7FEE706
:1002D00004480549054A064B704700002B390008C1
:1002E000C501000880F0012080F6012080F2012085
:1002F00080F2012053EA020C00F069802DE9F04BF6
:100300004FF00006002B1FBFB3FA83F503FA05F484
:1003100024FA05F65E4012BF1643B2FA82F502FADD
:1003200005F4C5F120051EBF22FA05FC44EA0C04C1
:10033000203556EA044C4FEA144418BF641C4FF0B1
:1003400000084FF00009904271EB030C39D30029EB
:1003500019BFB1FA81F701FA07F6B0FA80F700FA8F
:1003600007F6C7F120071EBF20FA07FC46EA0C0675
:100370002037B6FBF4FCA7EB0507103F07F01F0B77
:10038000CBF120062CFA06F60CFA0BFB44BFB34661
:100390000026202FA4BF5E464FF0000B5BEA060C40
:1003A00008BF4FF0010B19EB0B0948EB0608ABFB3C
:1003B000027C06FB02CC0BFB03CCC01B71EB0C01D7
:1003C000C1E70B46024641464846BDE8F08B13B5EF
:1003D000084318BF4FF0FF300146AFF30080BDE87F
:1003E0001C4070470FB41CB5074B06AA7B446946F6
:1003F0000090059800F089FB0020694600F098FB0A
:100400001CBC5DF814FB0000410700002DE9F04121
:100410000E460446002020622046E168884730B33B
:10042000252805D0D4E901219047206A401CF2E735
:10043000E168204600278847050018D0A5F1410053
:10044000192802D820354FF4006732462946204645
:100450002760FFF707FF40B1012804D0F61D26F002
:1004600007060836D8E7361DD6E72846DAE7206AB9
:10047000BDE8F0812DE9F041064600241068752999
:10048000314616A510D0AFF30080002802DA4042B2
:1004900013A507E031688A0701D512A502E04907D4
:1004A00004D511A5012401E0AFF3008000210A2248
:1004B00006F1240709E0B0FBF2FCB0FBF2F302FB0B
:1004C0001C00303078541846491C0028F3D12346CC
:1004D0002A463046BDE8F04100F0AAB8000000000E
:1004E0002D0000002B0000002000000070B5044625
:1004F0000D4621461068AFF300802188090502D51A
:100500000F4A7A4402E00E4A7A440E32002104F186
:10051000240305E000F00F060009965D5E54491CB7
:100520000028F7D120780023000704D5702D02D0D1
:1005300009B1022311322046BDE8704000F078B8BE
:10054000B065000010B5431C02E010F8011B71B14A
:100550008107FAD14FF0013202C88C1A8C4314EA99
:10056000C211F9D0C01A0A0603D0C01E10BDC01AAD
:1005700010BD0A0401D0801E10BD0902FCD0401E2F
:1005800010BD4FF000020429C0F0128010F0030CDF
:1005900000F01B80CCF1040CBCF1020F18BF00F876
:1005A000012BA8BF20F8022BA1EB0C0100F00DB825
:1005B0005FEAC17C24BF00F8012B00F8012B48BF83
:1005C00000F8012B70474FF0000200B51346944627
:1005D0009646203922BFA0E80C50A0E80C50B1F19B
:1005E0002001BFF4F7AF090728BFA0E80C5048BFAF
:1005F0000CC05DF804EB890028BF40F8042B08BF4D
:10060000704748BF20F8022B11F0804F18BF00F848
:10061000012B704770477047704710B500F092FA91
:10062000006810BD10B5044600F08CFA046010BDDF
:100630002DE9F0470D4699469246044600F12408FC
:100640000168880604D5E06921F01001216000E00E
:100650000120A84201DD471B00E00027A1697A19AB
:1006600002EB0900081AA0612078C00602D42046D7
:10067000AFF30080002608E0D4E901211AF8060053
:100680009047206A401C761C20624E45F4DB20789F
:10069000C0060AD52046AFF3008006E0D4E9012168
:1006A00030209047206A401C2062381EA7F10107C5
:1006B000F4DC07E0D4E9012118F805009047206A2E
:1006C000401C2062281EA5F10105F3DC2046AFF393
:1006D00000802078000602D50220BDE8F0870120C6
:1006E000FBE72DE9FF4F0C461E464FF0FF378BB05E
:1006F000D2E90001DDF860800A908A46C1F30A550C
:1007000005B93D46002108464FF00000BAF1000F40
:1007100000F4400005DA00EB80004FF4400101EAEC
:1007200050004FEA9059B9F1010F00DDB9460A981F
:1007300050EA4A000ED044F61050A5F2FF3545436A
:100740002F14B8F1000F1ED07542291E1EDDC9F10D
:1007500000021CE0B8F1010F4FF0000001D0302181
:1007600003E0F24305E02154401CB042FBDB30467D
:100770000022002121540B99C1F80880C1E9002012
:100780000FB0BDE8F08FBD1B6D1CDEE74A4600DAF6
:10079000694206A800F060FA06AB93E8070003ABD5
:1007A00083E8070050460A9904F000FC8DE8070032
:1007B000A0F500501F3800900398002D0ADD42F28A
:1007C0001F014A460844002303A90390684604F029
:1007D00069FE09E0A0F500504A461F38002303A92E
:1007E0000390684604F073FE8DE807000004000CD7
:1007F00003D04FF0FF30410800E01046B8F1000F81
:1008000003D00022009215461EE0751E05D400F0AC
:100810009DF9303262556D1EF9D5B3460122084369
:1008200002D000227F1C04E02078302801D1002271
:100830007F1E002A099784D01DE0112D07DA00F0F1
:1008400085F9303262556D1C50EA0102F5D108433A
:1008500002D00098C8B10EE00021681E05E0235CBC
:10086000625C63542254401E491C8142F7DBAB4654
:10087000A81B401E0990002004F80B000B98099A51
:10088000C0F80880C0E9002B7AE711264FF0000875
:1008900057E72DE9F04F88460446D21D22F00701A4
:1008A00091B0D1E90001CDE90A0104F047FF024609
:1008B0000B98C00F01D02D2007E02068810701D5DB
:1008C0002B2002E0202101EAC000032A099001D078
:1008D000072A05DB03464146204600F07DF90BE17F
:1008E0002078800601D5E06900E00620B8F1650FA8
:1008F000814606D0B8F1660F18D0B8F1670F70D1F5
:1009000031E00020B9F1110F009001DB112301E06B
:1009100009F101030AAA01A90CA8FFF7E2FEDDE92B
:100920000C70002609F10105834647E001204B4683
:1009300000904FF000470AAA01A90CA8FFF7D1FECA
:10094000DDE90DB00C995D46002610B909F10100F2
:100950000D18B9EB050003D4C0F1FF3609F101050C
:10096000A5EB09002BE0B9F1010F01DA4FF0010905
:100970000020B9F1110F0090484601DD112300E07D
:1009800003460AAA01A90CA8FFF7ABFEDDE90C702B
:100990004D4600268346207800070AD4AB4500DA8E
:1009A0005D4601A8012D04DD411911F8011C302913
:1009B00007D04F4502DA17F1040F04DA012082460E
:1009C0000FE06D1EEEE7002F02DCED1B3E4403E05E
:1009D000781CA84200DD7D1CB81B00F1010A4FF015
:1009E00000472078000703D4AA4501DB4FF0FF3A07
:1009F0000021B7F1004F0DF143088DF8431024D0CA
:100A000002202B23002F01DA7F422D230A21021E10
:100A1000A0F1010000DC5FB197FBF1FC97FBF1F264
:100A200001FB1C7C17460CF1300C08F801CDEEE7F9
:100A3000A8F1010003702188090501D5452100E0D6
:100A40006521A0F1010800F8011C09980FA9A1EB8C
:100A50000807FF1D00B10120411901EBEA70A169EF
:100A60003844081A401EA0612078C00602D42046EF
:100A7000AFF30080099828B1D4E901219047206A9A
:100A8000401C20622078C00622D52046AFF30080AB
:100A90001EE0002E04DBB34502DD01A8805D00E00E
:100AA0003020D4E901219047206A401C2062761C46
:100AB000AAF101005FEA000A0AD100F03FF8C0681D
:100AC0000168405CD4E901219047206A401C206203
:100AD000281EA5F10105DCDC07E0D4E9012118F8A6
:100AE000010B9047206A401C2062381EA7F10107C5
:100AF000F3DC2046AFF30080032011B041E6000094
:100B000001694A1C02610878704700B58FB0CDE9D1
:100B100001310021059105497944CDE903101146C1
:100B20006846FFF773FC0FB000BD0000E5FFFFFF54
:100B30000A6802F8010B0A6070470000004870471D
:100B400030000020004870471000002030B5B0F1A0
:100B50000A0271F100034FEA900E4EEA817EB0EB7B
:100B60000E0061EB91014FEA101E4EEA017E10EB80
:100B70000E0041EB11114FEA102E4EEA016E10EB00
:100B80000E0041EB11214FEA104E4EEA014E10EBE0
:100B90000E0041EB1141401841F100014FEAD00035
:100BA00040EA41704FEAD1014FEA810444EA90746F
:100BB00010EB800544EB01046D1944EB0404521B57
:100BC000A3414FF0000348BF0A3200D530BD401C9E
:100BD00041F1000130BD00002DE9F0411F460446FF
:100BE00003260168072A01F4006004DB08B116A59A
:100BF00005E016A503E008B115A500E015A521F054
:100C000010002060A069C01EA0610FB1401EA0614D
:100C10002046AFF300804FB1D4E901213846904718
:100C2000206A401C2062C01C206206E0206AFAE7AD
:100C3000D4E9012115F8010B9047761EF8D2204621
:100C4000AFF30080BDE8F0814E414E006E616E0052
:100C5000494E4600696E66002DE9F047814616460A
:100C60008AB0354878440DC88DE80D003248784484
:100C7000801C03AC0DC884E80D0041F69B3008448D
:100C8000372190FBF1F290FBF1F5A5F1800501FB16
:100C900012041B3C02D56442012000E00020DFF872
:100CA00098A080460027FA44AAF1BE0A0EE0E007A9
:100CB0000AD03246684607EB470101230AEB81015F
:100CC00004F005FC8DE8070064107F1C002CEED1B9
:100CD000194F7F44AE3F19E0E80715D007EB041029
:100CE0000DF1180A90E80E008AE80E00C068F04284
:100CF00001D1981908903246012306A903A804F0EF
:100D0000E6FB03AB83E807006D10641C002DE3D104
:100D10004FF0010332466946B8F1000F03A802D034
:100D200004F0C0FB01E004F0D2FBC9E90001C9F8FE
:100D300008200AB0BDE8F087945F000000487047C3
:100D4000100000207546FFF7F9FFAE460500694622
:100D5000534620F00700854618B020B5FFF7B8FAD3
:100D6000BDE820404FF000064FF000074FF00008AC
:100D70004FF0000BAC46ACE8C009ACE8C009ACE8E9
:100D8000C009ACE8C00921F007018D46704710B5D5
:100D90000446AFF300802046BDE81040FFF784BA58
:100DA00030B44FF0013C50F8042B51F8043BCCFA1E
:100DB00052F4D51A20D1FCB950F8042B51F8043B59
:100DC000CCFA52F4D51A17D1B4B950F8042B51F813
:100DD000043BCCFA52F4D51A0ED16CB950F8042B5E
:100DE00051F8043BCCFA52F4D51A05D1002CDAD0D4
:100DF00030BC4FF00000704729BAB1FA81F111F010
:100E00001801D1F120008440F2D1CA40CB4012F049
:100E1000FF0213F0FF0330BCD01A704701491820BD
:100E2000ABBEFEE726000200704730EE010A70EE0E
:100E3000A10A70479FED020AF0EE400A704700BF1A
:100E400000000000FEE74DF63C10C2F2000000F08A
:100E5000DDB84DF6DC00C2F2000000F0D7B84DF668
:100E60007C00C2F2000000F0D1B8704743F6144095
:100E7000C4F201000068800405D540F27B00C2F294
:100E800000000121017080B54FF4005000F08BFA92
:100E90004FF40040BDE8804000F085BA72B600BF54
:100EA000FEE70000000000002DE9F04381B02DEDC9
:100EB000048B10EE100AB0EE608AB0EE409A05F096
:100EC00075FD9FED271B9FED240B54EC115B024633
:100ED0000B46B5EE409A2146284657EC106BF1EED2
:100EE00010FABCBF3946304604F0F6FF8046B5EE36
:100EF000408A18EE100A8946F1EE10FABCBF3C4653
:100F0000354605F053FD02460B462846214604F0BF
:100F1000E3FF04460D464046494605F029FA0646D9
:100F20002046294605F024FA40F27C0206EBC60171
:100F3000C2F2000202EBC11100EBC00201EB820120
:100F40001F2888BF00212F2E88BF00210846BDEC36
:100F5000048B01B0BDE8F083000000000000E0BF9A
:100F6000000000000000E03F70B5866D044600F010
:100F7000F6FA94F83510022925D105462068216C2F
:100F8000026822F016020260426922F08002426189
:100F900009B9A16C19B1016821F00801016001686B
:100FA00021F00101016000BF20680068C0070ED079
:100FB00000F0D5FA401B0628F6D3202060650320F8
:100FC00084F835000CE080206065012008E0E06DC9
:100FD0003F2101FA00F0B060012084F835000020C4
:100FE000002184F8341070BD90F83510022909D121
:100FF000052180F835100068016821F001010160C9
:10100000002070478021416501207047F0B581B014
:1010100004460020009040F20000C2F20000026886
:10102000D4E9166048F2B51337680821C1F64E338B
:1010300081403942A2FB03250CD0226813685B076C
:1010400008D5136823F004031360B160616D41F0AB
:101050000101616501218140394208D0226852694D
:10106000120604D5B160616D41F002016165042191
:101070008140394208D022681268920704D5B160D5
:10108000616D41F00401616510218140394217D042
:1010900020680268120713D5B16002680168520324
:1010A00006D4C90506D4016821F00801016001E0F9
:1010B000080301D4216C00E0A16C09B120468847E7
:1010C000E16D202000FA01F23A423CD0206803682A
:1010D000DB0638D5B26094F835300268052B1AD19A
:1010E00022F016020260426922F080024261226C04
:1010F0000AB9A26C1AB1026822F0080202603F200D
:101100008840B060012084F83500216D002084F80B
:101110003400B9BB3BE0016852030CD4C9050ED4BE
:10112000016821F010010160012084F835000020E1
:1011300084F8340003E0080301D4616C00E0E16B43
:1011400009B120468847606D08B3606DC00717D0AD
:10115000052084F835002068A90A026822F00102FF
:10116000026000BF009A01328A42009202D80268EF
:10117000D207F7D1012084F83500002084F834002C
:10118000E16C21B1204601B0BDE8F040084701B054
:10119000F0BD00002DE9F041044600F0E0F9C4B1D3
:1011A0000546022084F835000020216884F83400C8
:1011B000086820F00100086021680868C0070BD0AB
:1011C00000F0CDF9401B0528F6D903252023032084
:1011D00064E00120BDE8F081086848F23F02CFF2E8
:1011E0001002D4E9013500EA020C04F10C0898E879
:1011F000C10143EA0C032B431843D4E9072E3043C3
:1012000038431043626A40EA0E00042A40EA0803A9
:101210001CD1206BD4E90A2E40EA0E001843086066
:101220004869BEF1000F20F0030040EA020040F0E0
:10123000040C11D0B8F5005F35D0B8F1000F42D1E1
:10124000022A43D0012A38D0002A3EE00B604869C8
:1012500020F0070040EA020C01F0F8004AF6AB2249
:101260001038CAF6AA22A0FB02231A0946F62C431C
:10127000C1F814C0C0F600039A5C40F2FF335F2847
:101280004FF03F0021EA030100FA02F088BF043169
:10129000C4E916128860002301250020636584F8E4
:1012A0003550BDE8F081032AD6D80125402301201E
:1012B000DFE802F0020C0203F0E7AEF1C070B0FA12
:1012C00080F0400904E0032A04D3C5D1CEF30060C6
:1012D0000028C1D0012540230120DFE790F834C069
:1012E000BCF1010F04BF0220704770B54FF0010C34
:1012F00080F834C0D0F858E090F835C0BCF1010F48
:1013000037D14FF0020C80F835C04FF0000CC0F818
:1013100054C0D0F800C08468056CC06DDCF8006073
:10132000402C26F48026CCF80060CCF804300B4624
:1013300004BF13460A463F2101FA00F0CCF80830FA
:10134000CCF80C20CEF80800DCF8000040F01600C5
:10135000CCF800002DB1DCF8000040F00800CCF81B
:101360000000DCF8000040F00100CCF80000002094
:1013700070BD002180F83410022070BDB0B5044665
:1013800000F0EDF8054640F20400C2F200000078DB
:10139000611C18BF044400BF00F0E1F8401BA042EC
:1013A000FAD3B0BD704743F61441C4F201010A6894
:1013B000024214BF08607047FFF7F4BF2DE9F04FF9
:1013C00083B000F1200200F13E4741F60005009293
:1013D00007F1FF77C4F2020507224FEAB726A842B9
:1013E00008BF062200254FF000084FF00009062E26
:1013F00038BF4FEAB72201920F68012202FA09FEB4
:1014000017EA0E0A00F09980D1F804C003220CF00C
:1014100003077E1E02FA08F4012E6FEA040B11D8AE
:101420008468CE6804EA0B0406FA08F63443846044
:10143000446824EA0E06CCF3001404FA09F42643A7
:10144000466003E0032F01D103271EE0C6688C68C5
:1014500006EA0B0604FA08F42643022FC66014D1EC
:101460006FF00302009E02EA590756F807C005F024
:101470001C040F220B69A2402CEA0202A3401A436B
:10148000F251D1F804C00CF00307026807FA08F320
:1014900002EA0B021A431CF4403F02604DD00022C6
:1014A00043F644030292C4F202031A6843F600446E
:1014B00042F480421A601A68C4F2010402F48042C5
:1014C0000292029A29F003024FF6084C2244CFF60A
:1014D000FF7C52F80C3005F00C070F26BE40B343DA
:1014E000019E06FA07F73B4342F80C30A2684B68AE
:1014F00042EA0A0743F60C4CDE0258BF22EA0A070A
:10150000A760C4F2010CDCF800209E0242EA0A0740
:1015100058BF22EA0A07CCF8007062689E0342EACC
:101520000A0758BF22EA0A0767602268DB0342EA1B
:101530000A0758BF22EA0A07276009F1010908F1E2
:101540000208B9F1100F05F104057FF455AF03B09F
:10155000BDE8F08F002A08BF0904816170474FF28F
:101560006000C2F201000068704740F204004FF2D0
:101570006001C2F20000C2F2010100780A68104462
:101580000860704780B543F60040C4F2020001686D
:1015900041F400710160016841F4806101600168FB
:1015A00041F480710160032000F086F8002000F013
:1015B00004F800F02AF8002080BDB0B540F2040223
:1015C000C2F2000240F200011278C2F200014FF4B0
:1015D0007A730968B3FBF2F20446B1FBF2F10846F4
:1015E00001F065F90F2C4FF001050CD858B94FF0F8
:1015F000FF3021460022002500F033F840F20800B9
:10160000C2F2000004602846B0BD82B0002043F65C
:1016100040010190C4F202014A6842F480424A60EB
:101620004A6802F480420192019A0090086840F0F2
:1016300080500860086800F080500090009802B068
:10164000704700280CD400F01F01012202FA01F1BA
:101650001C2202EAD0004EF20012CEF200028150AB
:10166000704710B54EF60C5CCEF2000CDCF8003082
:10167000C3F3022E8EF00704042C28BF0424BEF10D
:1016800003034FF0FF3E0EFA04F438BF0023A143DA
:1016900099400EFA03F39A43114300F00F0200F150
:1016A00060430901043A03F564436244002848BFDB
:1016B00002F10C03197010BD4EF60C51CEF2000170
:1016C0000A684FF6FF031A4060F30A2242F0806076
:1016D00040F0FD700860704701220168C0F8D8240E
:1016E000002280F8CC24886940F000608861486D51
:1016F00040F0805040F0030200204A65704700002F
:10170000002861D0B0B582B00446056890F8950411
:1017100028B9002084F89404204600F067F80320DC
:10172000B5F1A04F84F8950404BF0020A071206893
:1017300002F010FC94E80F00257C009502F0D5FA29
:10174000E0BB2068002102F055FCB8BB94F804C04F
:10175000BCF1000F2BD00CEBCC00810000224FF02D
:10176000010E0020002300BF251824302B75EB85C7
:10177000814203F1010385F815E02A76C5E90722C5
:101780006A62F1D1BCF1000F11D004F51971002289
:10179000002000BF01F8100C013001F80F2C01F8F7
:1017A0000C2C41E9022241F8242B8445F2D194E823
:1017B0000F00257C009502F00FFB38B1022084F861
:1017C0009504012002B0B0BD012070470020607474
:1017D000012084F89504207B012802D12046FFF7E0
:1017E0007BFF206802F0E9FA0020EBE7F0B59DB03E
:1017F000044618A81421FEF7E6FE01A8043058217B
:10180000FEF7E1FE2068B0F1A04F40D14FF48070A8
:10181000019001A800F03EF808B1FFF73FFB002758
:1018200043F630060097C4F202063068002440F008
:10183000010030603068C4F2020400F00100009042
:1018400000984FF4E85018900220CDE919070320C2
:101850001B900A2018AD1C9020462946FFF7AEFDCC
:101860004FF40070CDE91807204629461A97FFF774
:10187000A5FD706840F0800070600097706940F4CA
:1018800080407061706900F48040009000981DB045
:10189000F0BD00002DE9F04381B00446006843F636
:1018A0000006C107C4F2020602D14FF000090BE0A6
:1018B000D6F88C10A26B21F0C0611143C6F88C10D1
:1018C000B2FA82F14FEA511981070BD5D6F88C1084
:1018D000E26B21F0C0511143C6F88C10002A08BFFA
:1018E0004FF00109410702D44FF0000810E0D6F88C
:1018F0008C10226B21F440111143C6F88C10B2FAFF
:1019000082F14FEA5118B2F5801F08BF4FF001096C
:10191000010710D5D6F88C10626B21F440011143F9
:10192000B2F5800FC6F88C1008BF4FF00109002AED
:1019300008BF4FF0010881064ED500200090306CA2
:1019400047F2000740F080503064306CC4F200076A
:1019500000F0805000900098386840F48070386043
:10196000FFF7FDFD054600BF3868C00505D4FFF749
:10197000F6FD401B0228F7D980E1306F10F440706B
:1019800014D0216C01F4407188420FD0306F40F6C2
:101990004061C4F24721012220F440700A60002215
:1019A0000A603067306FC00740F06E812068216C9C
:1019B000B2684FF6FF4701F4407322F4F812C0F604
:1019C000FF770F40B3F5407F08BF3A43B260326FF4
:1019D0006FF31F3111433167C10608D594F85800E1
:1019E00040F64061C4F24721C1F8A0032068010617
:1019F00007D5D6F89410E26C21F440011143C6F8E3
:101A00009410410607D5D6F89410A26C21F080619D
:101A10001143C6F89410C1050CD5D6F89410626D28
:101A200021F000611143C6F89410B2F1006F08BFB5
:101A30004FF00108810507D5D6F89410626C21F0AB
:101A400080511143C6F89410410506D4B9F1010F35
:101A500018BFB0F5006F0FD0AFE0D6F89420216D1D
:101A600022F000520A43B0F5006FC6F8942018BF68
:101A7000B1F1005F40F09D8040F26809C4F247294F
:101A80000020C9F80000FFF76AFD05463068000134
:101A900005D5FFF764FD401B0228F7D9EEE020686A
:101AA000C10701D0A16B19B1810714D5E16B91B9C0
:101AB000D6F88410D6F88420D4E9013501F44031F9
:101AC00002F0706219436769114341EA851141EAE6
:101AD0000771C6F88410410703D5216BB1F5801F4B
:101AE00005D0010721D5616BB1F5800F1DD1D6F866
:101AF0008410D6F88420D4E9013701F4403102F093
:101B0000E04219432569114341EA871141EA056121
:101B1000D4F828C0C6F88410D6F88C10ACF10102B5
:101B200021F01F011143C6F88C1041051FD5216D0E
:101B3000B1F1005F1BD1271DD6F884C0D6F88420F0
:101B4000A8CFFF034FF6FF7127EA01014FF0C067EE
:101B500002F0E04207EA4C2707F100771A433A43C4
:101B6000A1F5803142EA85121143C6F884100005C0
:101B700010D5271D8FCF40EA8110D1034FF6FF7299
:101B80009143A1F5803140EA0360084340EA0770C1
:101B9000C6F884000120C9F80000FFF7E0FC054604
:101BA0003068000109D4FFF7DAFC401B0228F7D99E
:101BB00064E0B9F1010F3FF45FAFB8F1000F4FF0EF
:101BC00000005CD06827C4F24727B860FFF7C7FC65
:101BD000054600BF3068800005D5FFF7C0FC401BFC
:101BE0000228F7D94AE02068410701D5216B19B1D5
:101BF00001071CD5616BD1B9D6F88810D4E906234A
:101C000001F44031656A114341EA831141EA0561FB
:101C1000D4F82CC0C6F88810D6F88C106FF0FF02EC
:101C200021F4F85102EB0C221143C6F88C10C005C8
:101C300016D5606DB0F1006F12D1D6F88800226A17
:101C4000D4E9061300F07060D2034FF6FF75AA4383
:101C50000843A2F5803240EA83101043C6F888009A
:101C60000120B860FFF77BFC044600BF30688000AD
:101C700008D4FFF774FC001B0328F7D3032001B03E
:101C8000BDE8F0830020FAE7FFF769FC054641F262
:101C9000883700BF306F80073FF588AEFFF75FFCE5
:101CA000401BB8424FF00300F4D9E8E7002872D097
:101CB0002DE9F04143F60008C4F202080446D8F8C2
:101CC00000040D4600F00F00814207D988F8005447
:101CD000D8F8000400F00F00A84266D12068810700
:101CE00017D5410705D5D8F8081041F4E051C8F8D8
:101CF0000810010705D5D8F8081041F46041C8F86C
:101D00000810D8F80810A26821F0F0011143C8F8B3
:101D10000810C00741D1D8F8000400F00F00854238
:101D200007D288F80054D8F8000400F00F00A84249
:101D30003BD12068410707D5D8F80810E26821F4A4
:101D4000E0511143C8F80810000708D5D8F808007A
:101D5000216920F4604040EAC100C8F8080000F0A2
:101D600075F8D8F8081046F61442C1F30311C0F60E
:101D70000002515C40F2000220FA01F140F208003A
:101D8000C2F200000068C2F200021160FFF715FC09
:101D90000020BDE8F081012070476068811E0229A3
:101DA00006D2D8F80010890108D40120BDE8F081DE
:101DB00001281FD1D8F800108903F6D5D8F80810EB
:101DC00021F003010843C8F80800FFF7C8FB0646E6
:101DD00041F28837D8F80800616800F00C00B0EBD9
:101DE000810F98D0FFF7BBFB801BB842F2D90320CC
:101DF000BDE8F081D8F800108907D6D5DEE740F2BB
:101E0000000043F60801C2F20000C4F202010068BB
:101E1000096846F62442C1F38221C0F60002515CF3
:101E2000C840704740F2000043F60801C2F20000CB
:101E3000C4F202010068096846F62442C1F3423147
:101E4000C0F60002515CC8407047000010B543F670
:101E50000404C4F202046068C0F3810142F200404D
:101E6000C0F2F400DFE801F03F02071641F2002063
:101E7000C0F27A0010BD216801F03F02216823689A
:101E80004902C3F3881114D4A1FB00010023FEF71B
:101E900031FA15E0216801F03F0221682368490208
:101EA000C3F3881113D4A1FB00010023FEF722FA2B
:101EB00014E041F20020C0F27A004843B0FBF2F097
:101EC00021680222C1F3014102EB410109E041F224
:101ED0000020C0F27A004843B0FBF2F02168C1F361
:101EE0000271B0FBF1F010BD002879D02DE9F0416E
:101EF00082B00446007843F60006C007C4F202062A
:101F00000CD0B06800F00C00042840F0AA803068C3
:101F1000800303D56068002800F0A1802078800746
:101F200023D5B06810F00C0F11D0B06800F00C0091
:101F3000082802D17068400209D5B06800F00C0092
:101F40000C2840F0BF807068400200F1BB80306810
:101F5000800703D5E068012840F08180306821695E
:101F600020F0F80040EAC10030602078000739D442
:101F7000207840074DD4A56985B3B06800F00C0007
:101F8000082840F0C780012D69D07068E16900F42D
:101F900080028A4263D1216A00F03F028A425ED108
:101FA00047F6C071626A0140B1EB821F57D1A16A46
:101FB0004FF6FF73C903994300F44032A1F5803115
:101FC0008A424CD1E16A00F07062B2EB016F46D1F7
:101FD000216B00F0E040B0EB017F40D10020FDE03C
:101FE000012070476069002840F20000C4F24720D9
:101FF00000F080800121C0F8801EFFF7B0FA05468E
:10200000706F8007B4D4FFF7AAFA401B0228F7D9F3
:10201000E3E0306C5FEAC0080AD400200190306C25
:1020200040F080503064306C00F080500190019896
:1020300047F20007C4F200073868C00534D4386896
:1020400040F480703860FFF78AFA05463868C005AA
:102050002AD4FFF784FA401B0228F7D9BDE00120FB
:10206000BCE0B06800F00C00082803D170684002A2
:102070003FF54DAFB06800F00C000C2803D170683C
:1020800040023FF544AF61683068B1F5803F07D04A
:10209000B1F5A02F40F08C8040F480203060306893
:1020A00040F4803030608CE0A168306F012905D0A9
:1020B000052951D140F004003067306F40F0010035
:1020C000306752E0E06800285DD00020C4F247206D
:1020D00001210160FFF743FA054600BF3068800721
:1020E0003FF53CAFFFF73BFA401B02284FF00300DF
:1020F000F4D973E00021C0F8801EFFF730FA0546DE
:10210000706F80077FF534AFFFF729FA401B022874
:10211000F6D962E00027C4F2472700203866FFF7AF
:102120001EFA022D05460BD13068800159D5FFF704
:1021300016FA401B02284FF00300F5D94EE000BF0D
:10214000306880017FF54AAFFFF709FA401B02288B
:102150004FF00300F4D941E020F001003067306F08
:10216000002920F00400306760D0FFF7F8F9054639
:1021700041F28837306F800769D4FFF7F0F9401BD0
:10218000B842F7D929E00020C4F2472000210160BD
:10219000FFF7E5F9054600BF306880077FF5E5AE3B
:1021A000FFF7DDF9401B02284FF00300F4D915E0DA
:1021B00020F4803030603068002920F480203060C6
:1021C0004ED0FFF7CCF90546306880033FF5A6AE48
:1021D000FFF7C5F9401B6428F6D9032002B0BDE81B
:1021E000F08104F11C052FCD246B084340EA8210D6
:1021F000D9034FF6FF729143A1F5803140EA0560A3
:10220000084340EA0470706001203866FFF7A7F9C0
:10221000044600BF306880013FF5E0AEFFF79FF94C
:10222000001B02284FF00300F4D9D7E7FFF797F916
:10223000054641F2883700BF306F800707D5FFF7AA
:102240008EF9401BB8424FF00300F5D9C6E7B8F14C
:10225000000F3FF590AE306C20F0805030648AE67D
:10226000FFF77DF90546306880037FF557AEFFF72D
:1022700076F9401B64284FF00300F4D9AEE77047AD
:1022800090F85100704770B530B10446406A28B1EB
:1022900000202061142006E001264AE06068B0F5C5
:1022A000827F02D01C20002121500026A66294F8D3
:1022B000510020B9204684F8506000F03CF802201C
:1022C00084F8510094E80F0001F48271056802F46B
:1022D000044225F040050560114403F400622369BF
:1022E000114403F002026369114403F00102A3697F
:1022F000E569114403F40072114405F03802256ABF
:10230000114405F08002A56A114305F400521143FF
:102310000160626A042101EA134102F010021144D3
:102320004160C16921F40061C1610120666584F8E2
:102330005100304670BDF0B587B0044602A81421A4
:10234000FEF741F9206843F60041C4F200018842DB
:102350004AD043F20001C4F20101884240F08C806F
:10236000002643F630000196C4F2020041690327BB
:1023700041F480514161416901F480510191019919
:102380000196016841F001010160006802A900F0B6
:10239000010001900198E02002900220CDE903069F
:1023A000052006900020C4F202000597FFF706F80A
:1023B00046F28800C4F202004DF67C0500F5747008
:1023C000C2F200054FF0C06140224FF4806385E8FF
:1023D00047000420C5E90436C5E90666C5E908607A
:1023E000C5E90A762E633FE0002643F630000196E9
:1023F000C4F20200016941F400410161016901F484
:102400000041019101990196016841F004010160C8
:10241000006802A900F00400019001984FF4E05018
:1024200002900220CDE903060320059006200690C5
:102430000020C4F2020000F50060FEF7BFFF4DF679
:10244000DC0546F28800C2F20005C4F20200402119
:102450004FF48062C5E90006C5E9021605F11400D3
:1024600014212A61FEF7AFF82846FEF793FE08B163
:10247000FEF714FDA564AC6307B0F0BD2DE9F04193
:1024800082B01D4616460F460446FFF768F894F8DA
:102490005110012908D180464FF001002FB126B11B
:1024A00094F85000012803D1022002B0BDE8F08169
:1024B000012084F850000320002184F85100616558
:1024C0002763A686E686A163A187E187A0682164C9
:1024D000B0F5004F2068616407D1016821F0400128
:1024E0000160016841F4804101600168490603D43C
:1024F000016841F0400101606168731EE268B1FA51
:1025000081F1B3FA83F349095B09B2F5006F41EA3F
:10251000030123D131B137F8021BC1602763E08E7C
:102520000138E086E08E00283CD06E1C206881686F
:10253000890707D4FFF713F866B1A0EB0800A8429B
:1025400008D34CE0216B31F8022BC2602163E08E8E
:102550000138E086E08E0028E8D123E039B13978EF
:102560000173206B01302063E08E0138E086E08E3D
:10257000C0B16E1C20688168890707D4FEF7EFFFA1
:102580006EB1A0EB0800A84209D328E0216B0978BE
:102590000173206B01302063E08E0138E086E08E0D
:1025A0000028E7D120462946424600F0D5FC08B174
:1025B00020206065A06838B9002001902068C168BB
:1025C0000191806801900198012084F85100002059
:1025D00084F85000606D002818BF012065E70120D5
:1025E00084F85100002084F8500003205DE70000CB
:1025F0002DE9F04381B01E4615460F460446FEF70E
:10260000AEFF94F851108146012972D1002F4FF08E
:10261000010000F0BE80002D00F0BB80002E00F015
:10262000B88094F85000012870D0012084F8500040
:1026300094F85100002104281CBF052084F85100A3
:102640006165A563E687A6872763E6862068A68678
:10265000216461640168490603D4016841F04001C6
:1026600001606168731EE268B1FA81F1B3FA83F325
:10267000DDF8208049095B09B2F5006F41EA0301EA
:1026800046D131B137F8021BC1602763E08E0138B3
:10269000E086012608F10105E08E10B9E08F0028E0
:1026A0007AD02068816889070CD5E18E51B1012E5E
:1026B00008D1216B002631F8022BC2602163E18E24
:1026C0000139E1868168C9070AD0E18F41B1C0684C
:1026D000A16B012621F8020BA163E08F0138E0878E
:1026E000FEF73DFF002DD7D0A0EB09004045D3D326
:1026F00048E06068B0F5827F08D104294FF00200FD
:1027000047D1A16800293FF481AF42E0022040E0B8
:1027100039B139780173206B01302063E08E0138C4
:10272000E086012608F10105E08E08B9E08F98B334
:102730002068816889070ED5E18E61B1012E0AD12A
:10274000216B002609780173216B20680131216318
:10275000E18E0139E1868168C9070BD0E18F49B16B
:10276000C068A16B01260870A06B0130A063E08FE8
:102770000138E087FEF7F3FE002DD5D0A0EB09006D
:102780004045D1D3012084F85100002084F8500046
:10279000032001B0BDE8F083204641464A4600F0E0
:1027A000DBFB30B120206065002084F85000012060
:1027B000EFE7A06838B9002000902068C168009158
:1027C000806800900098012084F85100002084F86F
:1027D0005000606D002818BF0120DAE710B50446EC
:1027E00090F85100012809D100294FF001005BD079
:1027F000002A59D094F85000012801D1022010BDC0
:10280000012084F8500003204FF0000E84F851009E
:10281000C4F854E02163A286E286C4F838E0C4E933
:1028200010EEA4F83CE0A4F83EE0A0682268B0F501
:10283000004F07D1106820F040001060106840F48D
:1028400080401060A06C42F6DF6C42F6E563C0F693
:10285000000CC0F60003C0E90F3C42F6C163C0F6AD
:102860000003C0E9133EE38E0C32FEF737FD40B1A2
:10287000606D40F010006065002084F85000012079
:1028800010BD21680868400603D4086840F0400085
:102890000860002084F850004A6842F020024A6034
:1028A0004A6842F002024A6010BD70477047411EFC
:1028B0000020B0EB116F1CBF012070474EF21002D8
:1028C000CEF2000251604EF62351CEF20001F02309
:1028D0000B70072190601160704790F83C20012A2E
:1028E0004FF0020250D010B580F83D200268D2F8B7
:1028F00004E0D2F808C00C682EF07003234341F2C4
:10290000FF74C4F20004A24253600BDC40F2FF7378
:10291000C4F200039A4213DCB2F1804F27D040F298
:10292000004315E040F2FF33C4F201039A4212DC87
:1029300041F60003C4F200039A4218D0002312E0CB
:1029400040F60003C4F200039A4210D040F6004360
:10295000C4F2000309E044F20003C4F201039A4206
:1029600005D040F20043C4F201039A4204D1496801
:102970002CF08003194391600121002280F83D1062
:1029800080F83C20BDE810401046704740B310B5B9
:10299000044690F83D0028B9002084F83C00204609
:1029A00000F020F8022084F83D002068211D00F08E
:1029B000C5FF012084F8460084F83E0084F83F00FB
:1029C00084F8400084F8410084F8420084F8430011
:1029D00084F8440084F8450084F83D00002010BDD0
:1029E00001207047006841F20001C4F200018842F2
:1029F00018BF704781B00020009043F64000C4F239
:102A00000200016841F010010160006800F0100050
:102A10000090009801B0704770477047B0B582B021
:102A2000044600680168C368426901F02F05202D43
:102A300003F0200506D12DB1204602B0BDE8B0401C
:102A400001F040B85FEA017C1EBF02F0010E03F402
:102A5000907212EB0E026ED1226BCD0643D5012A85
:102A600041D113F010023ED0002101910168019183
:102A70004168019101994069400600F1CB80A08D29
:102A8000E18DE28D002A00F01581884200F012816C
:102A9000401A00BF216851E8031F226821F4907199
:102AA00042E80313002BF5D1216851E8051F226885
:102AB00021F0010142E80513002BF5D1202184F813
:102AC00042100021216300BF216851E8031F2268E2
:102AD00021F0100142E80313002BF5D1022281B24C
:102AE00020466263DCE00A0640F1828013F0800237
:102AF00000F07E8094F84110212940F0DB80A1682D
:102B0000B1F5805F03D12169002900F0DB80216AE3
:102B10004A1C226209784160E18C01390A04E1848F
:102B200040F0C880C16821F08001C160C16841F0F7
:102B30004001C160BEE0CA0718BF13F4807203D021
:102B4000626C42F0010262644A0706D5BEF1000FD2
:102B500003D0626C42F0020262648A0706D5BEF1BD
:102B6000000F03D0626C42F004026264BCF1000FFB
:102B700006D55EEA050203D0626C42F00802626488
:102B8000626C002A00F09680890604D51DB12046AB
:102B900000F098FF20684069616C00F0400001F08F
:102BA0000801401800F08180204600F063FF206893
:102BB0004069400640F18080206850E8050F216898
:102BC00020F0400041E80502002AF5D1E06B002822
:102BD00072D043F66921C0F600010165FEF704FAE0
:102BE000002867D0E06B016D02B0BDE8B040084737
:102BF00049065FD513F040015CD0C16821F0400167
:102C0000C1602021204684F8411002B0BDE8B040E8
:102C100000F047B9E06B016849688AB2002A49D0E0
:102C2000A38D9A4246D2E185C069B0F5807F30D04D
:102C3000206850E8030F216820F4807041E8030207
:102C4000002AF5D1206850E8050F216820F0010026
:102C500041E80502002AF5D1206850E8050F2168F7
:102C600020F0400041E80502002AF5D1202084F838
:102C700042000020206300BF206850E8030F216855
:102C800020F0100041E80302002AF5D1E06BFEF7C6
:102C90006BF902206063A08DE18D401A81B220465D
:102CA00002B0BDE8B040FFF7B7BE2046FFF7B5FE63
:102CB0000020606402B0B0BD204602B0BDE8B04064
:102CC000FFF7ABBE216A31F8022B6FF35F2242603F
:102CD000216221E758B310B5044690F8410028B9A5
:102CE000002084F84000204600F023F8242084F8D7
:102CF00041002068C16821F40051C160204600F005
:102D000042FF2068016921F490410161416921F08D
:102D10002A014161C16841F40051C16000202021B5
:102D2000606484F8411084F84210606310BD012093
:102D30007047F0B587B0044644F6000502A8142198
:102D4000C4F20005FDF73FFC2068A84250D10026E0
:102D500043F630000196C4F202000169032741F4F2
:102D600080210161016901F480210191019901969D
:102D7000016841F008010160006802A900F0080044
:102D8000019001984FF4407002900220CDE90306B3
:102D90000720069005F5E2300597FEF70FFB4DF68C
:102DA0003C1546F25800C2F20005C4F202004FF092
:102DB0000061402285E8470004204FF48063C5E9A4
:102DC00008602846C5E90436C5E90666C5E90A76FD
:102DD0002E63FEF7DFF908B1FEF760F82720002127
:102DE0000022A563AC63FEF73CFC2720FEF729FC1C
:102DF00007B0F0BD704700002DE9F041044690F89F
:102E0000410020281CBF0220BDE8F0810D464FF094
:102E10000100E1B31746D2B3002060642120984638
:102E200084F84100FEF79BFBA784E784A16807466E
:102E3000B1F5805F01D1206988B32E46002500BF1F
:102E4000E08CC0B1204680213A46434600F00AFF9C
:102E5000F8B92EB116F8010B2168486007E000BFF1
:102E600035F8020B21686FF35F2048600026E08C84
:102E70000138E084E4E7204640213A46434600F02A
:102E8000F1FE202184F84110002818BF0320BDE87E
:102E9000F081202084F841000320BDE8F081002665
:102EA000CEE77047FEE720EEA01A20EE000A30EED3
:102EB000010AB1EEC00A7047FEE70000FEE7704766
:102EC000806B01684A6822F003024A60416D41F05C
:102ED00010014165012180F85110FFF7D0B9806BD6
:102EE000FFF7E4BCB0B582B0846B0546FEF737FB54
:102EF00029680968C90529D402462068416821F07B
:102F000020014160416821F00201416020466421B6
:102F100000F022F818B1606D40F020006065A068F4
:102F200038B9002001902068C16801918068019043
:102F300001980020E086012084F85100606D28B1DE
:102F4000204602B0BDE8B040FFF799B9204602B074
:102F5000BDE8B040FFF7A9BC70B582B00D4616467B
:102F6000022101222B460446009600F035F828B1D4
:102F7000606D032540F02000606529E040F200000C
:102F8000C2F20000006849F68171C1F25E61A0FBE7
:102F90000101480D4FF47A71484301906068B0F523
:102FA000827F0BD12046802100222B4600960025EF
:102FB00000F012F80028DBD10AE000BF019830B120
:102FC000019801380190206880680006F6D4002539
:102FD000284602B070BD00002DE9F04782B00A9C7F
:102FE000984615460E468146FEF7B9FA201A00EBC0
:102FF0000804FEF7B4FA40F20001C2F200010968C9
:10300000C1F3CB3161430191D9F800108A68324095
:10301000921BB2FA82F2520995421CD0824608F104
:10302000010700BF7FB1FEF79AFAA0EB0A00A042A9
:1030300015D2019801990028A1F101010191D9F857
:10304000001008BF044688683040801BB0FA80F04A
:1030500040098542E6D1002002B0BDE8F087D9E9F9
:1030600000014268B1F5827F22F0E00242600BD19C
:10307000D9F80810B1F5004F02D0B1F5806F03D137
:10308000016821F040010160D9F82810B1F5005F16
:1030900007D1016821F400510160016841F4005139
:1030A0000160012089F85100002089F850000320B8
:1030B000D2E7704720EE010A60EE810A70470000F7
:1030C0002DE9F04F81B02DED0E8B82B040F27000F3
:1030D000C2F2000090EC020A9FED601AFFF7EAFFCF
:1030E00040F27C04C2F200049FED5D8A9FED5D9A80
:1030F000A4F26C40A4F5906604F2944A4FF0000BE1
:10310000019000BF0BF1010000271F25009000BFB8
:10311000F019D0F88014022940F08280BBF1000F32
:1031200007D0F159012909D14FF00109B0EE48AAA1
:103130000AE04FF00109B0EE48AA0AE001994FF009
:103140000209394491ED00AABBF12F0FB0EE48BA45
:103150000DD0E119D1F88014012902D1B0EE48BA9E
:1031600005E00AEB070191ED00BA09F1010937B159
:10317000D0F85C04012805D1B0EE48CA07E0B0EEF3
:1031800048CA07E0E01910ED03CA09F10109B0EEE1
:1031900048DA4DB1E019416A01291ABF90ED0FDA02
:1031A00009F10109B0EE48DA3DEE4C0A04EB0708DC
:1031B0003BEE001A98ED050AD8ED060A31EE4AEA10
:1031C000FFF771FE01EE109A2EEE090AB8EE411AD1
:1031D00080EE010AB0EECD1AB0EECC2A98ED064A88
:1031E000B4EE421A98ED053AF1EE10FAB0EECA2AA2
:1031F000B1EE405AB0EE451AC8BFB0EE401A34EEF8
:10320000011AB0EECB4AB4EE442AF1EE10FAC8BF70
:10321000B0EE405A33EE050A88ED050A88ED061A2D
:103220002437B7F5906FA5F101057FF471AF0198D0
:10323000DDF800B004F5906400F5906006F5906646
:103240000AF5906ABBF1300F01907FF45BAF02B0DA
:10325000BDEC0E8B01B0BDE8F08F00BFCDCCCC3DF6
:10326000000000003333F33F2DE9F04F81B02DED26
:103270000A8B41F24C0B40F200089FED48CA40F225
:1032800000094FF0000AC2F2010BBDEE008AB3EE56
:103290000FBAC4F2F818C4F23C290026002700BF78
:1032A0000BEB060494ED00AA94ED019AC7EBC7005E
:1032B000B0EE4A0AF0EE490A0BEB8005FDF7F4FD8B
:1032C000B5EE40AAF1EE10FA0CDA94ED020AC4F859
:1032D00000A0B5EE400AF1EE10FA15DA04F108018B
:1032E00010E000BFB4EE4CAAF1EE10FA0CDD94ED44
:1032F000020AC4F80090B5EE400AF1EE10FA03DDC0
:1033000005F10801C1F800A0B5EE409AF1EE10FAFF
:103310000CDA94ED030AC4F804A0B5EE400AF1EE0D
:1033200010FA15DA04F10C0110E000BFB4EE4B9A6C
:10333000F1EE10FA0CDD94ED030AC4F80480B5EE4A
:10334000400AF1EE10FA03DD05F10C01C1F800A00E
:10335000C0B10068012815D194ED020AD4ED030A2A
:10336000B0EE481AFFF7A6FE94ED012AB0EE401A1F
:1033700094ED000AF0EE601AF0EE420AFDF755FDFA
:1033800084EC020A1C36B6F5604F07F101077FF4A2
:1033900087AFBDEC0A8B01B0BDE8F08F00003C4266
:1033A0002DE9F04F81B02DED0A8B00244FF002097A
:1033B0004FF07E5A46F22D4B1726B6EE00AAB2EE1B
:1033C00008BA48F68907B3EE05CA002541F24C0059
:1033D000C2F2010000EB0408FDF72CFDB0EE408ABC
:1033E000B0EE609AFDF726FD88ED008A88ED019A1F
:1033F00088ED020AC8ED030AC8E9049AFDF71AFD30
:1034000088EC020AFDF716FDA8B200FB0BF1A5EB54
:10341000114292B2520802EB114178430909C00CE3
:1034200001FB1651A0EB0010284489B280B288ED50
:10343000020A00EE101A01EE100AB8EE400AB8EEC9
:10344000411A20EE0A0A21EE0A1A1C3430EE0B0A49
:1034500031EE0C1AB4F5604F05F10105C8ED030A11
:1034600088ED000A88ED011AB0D100F011F840F2A1
:1034700070000021C2F20000CCF2A0010022C0E9DD
:103480000021BDEC0A8B01B0BDE8F08F0000000008
:103490002DE9F04F81B02DED108B40F27C01002022
:1034A000C2F20001002200BF002300BFCF18243366
:1034B000B3F5906F3861F8613862F7D10132302A84
:1034C00001F59061F0D141F24C050024C2F20105F2
:1034D000002600BFC6EBC60005EB800797EC020A8A
:1034E000BC61FDF7E1FC80B1024652F81C1F52F8A6
:1034F0000C3C03F1010342F80C3C21B10A468969F6
:103500000029FBD11832176007620136B6F5006F4B
:10351000E0D19FED53EB4FF00009BFEE008AB1EE12
:1035200000DAB0EE00FA00BF40F27C0109EBC900FE
:10353000C2F200014FF0000B01EBC01A0BEBCB0005
:103540000AEB80000169022974DBC669002E71D084
:10355000374657F8188FB8F1000F6BD096EC020A77
:10356000B0EE481AFFF7A6FD98ED012AB0EE401A1A
:1035700098ED000AF0EE601AF0EE420AFDF755FCF5
:10358000B0EE409AB0EE60AAFFF78DFCB0EE40BA04
:1035900020EE000AB4EE4D0AF1EE10FA48DCB5EE6A
:1035A000400AF1EE10FA43D03FEE4B0A10EE100A3B
:1035B00003F0FCF953EC1E2B02F034FF04461BEE23
:1035C000100A0D4603F0F2F902460B462046294642
:1035D00002F036FD02F04EFC01EE100AB0EE490A90
:1035E000F0EE4A0AFFF766FDB0EE481AB0EE409AD8
:1035F000B0EE60AAFFF75EFD98ED011AB0EE40BA9A
:1036000098ED000AB0EE60CAF0EE410AB0EE491A39
:10361000F0EE4A1AFDF709FC88EC020A96EC020A61
:10362000B0EE4B1AF0EE4C1AFDF7FFFB86EC020AE7
:103630003E688BE70BF1010BBBF1200F7FF47EAFEF
:1036400009F10109B9F1300F7FF46EAFBDEC108BB9
:1036500001B0BDE8F04FFFF707BE00BF00BF00BFDD
:10366000000000000000E03F70B52DED068B40F239
:103670007000C2F200009FED1D8A90EC020AB0EECD
:10368000481AFFF717FD41F24C05B0EE409AB0EE34
:1036900060AA0024C2F201052E1996ED020AD6EDA9
:1036A000030AB0EE491AF0EE4A1AFDF7BEFB96ED9A
:1036B000012A86ED020A20EE081A96ED000AC6EDF0
:1036C000030A60EE881AF0EE420AFDF7AEFB1C34E6
:1036D000B4F5604F86ED000AC6ED010ADCD1BDEC01
:1036E000068BBDE87040FFF7BFBD00BFCDCCCC3D21
:1036F00040F27C00C2F2000000F1040C0021002224
:103700000023604640F8041CE0E809230133202B25
:10371000F8D10132302A0CF5906C08BFFFF740BE9B
:10372000EEE780B5FFF7A0FFFFF7B2FE012000F043
:1037300007F8FFF7C5FC0020BDE88040AFF300802C
:103740002DE9F04381B02DED088B002847D040F2E1
:103750007C050024C2F200054FF00008002700BFDE
:10376000E859EE19022808BFEC51FDF763FB243736
:10377000B7F5906F86ED050AC6ED060A3461EFD104
:1037800008F10108B8F1300F05F59065E6D141F276
:103790004C060025C2F201064FF00208771997EC9B
:1037A000020AFDF781FBA8B10446006921680130D7
:1037B000206109B9C4F8008094ED050AD4ED060A29
:1037C00097ED021AD7ED031AFDF72FFB84ED050ADA
:1037D000C4ED060A1C35B5F5604FDFD149E040F273
:1037E0007C084FF00009C2F20008B7EE00BA00BF33
:1037F00009EBC900002608EBC01700BF06EBC600A6
:1038000007EB8005286901282BDBEC694CB300EE3F
:10381000100AB8EE400A8BEE008A00BF95ED050A4B
:10382000D5ED060AB0EE481AFFF744FC94ED031AF2
:10383000B0EE409A94ED020AB0EE60AAF0EE410AB2
:10384000B0EE481AFFF736FCB0EE491AF0EE4A1A0D
:10385000FDF7EBFA84ED020AC4ED030AA469002C1B
:10386000DCD10136202EC9D109F10109B9F1300F9F
:10387000BED1BDEC088B01B0BDE8F083FDF775BE8D
:1038800070B594B007AC20463421FCF79CFE02A82A
:103890001421FCF798FE002543F640000195C4F280
:1038A00002000168022641F080510160006800F0CA
:1038B00080500190019847F200000195C4F2000089
:1038C000016841F440410160006800F4404001900B
:1038D0000198012007904FF4A02008904FF4800039
:1038E0000E9004200F90A820CDE910060720CDE906
:1038F000120620460D96FEF7F7FA10B172B600BF19
:10390000FEE70F20CDE902064FF4A05005904FF4DA
:103910008050069002A805210495FEF7C7F910B162
:1039200072B600BFFEE714B070BD4EF68850CEF2FE
:103930000000016841F470010160704710B540F665
:10394000FF3E0368C4F2000E40F2004C7045C4F222
:10395000010C0DDCB0F1804F17D040F20042C4F2F0
:103960000002904211D040F60002C4F200020AE0C8
:1039700040F60042C4F20002904206D0604504D0F6
:103980000022C4F20102904203D14A6823F070037E
:10399000134341F6FF72C4F2000290420DDC704501
:1039A0001FDCB0F1804F3FD040F20042C4F2000271
:1039B000904239D040F6000221E043F6FF72C4F293
:1039C000010290421EDC42F20002C4F20002904268
:1039D0002AD00022C4F20102904225D0604523D0B3
:1039E00026E040F60042C4F2000290421CD041F6AC
:1039F0000002C4F20002904216D041F60042C4F226
:103A000000020FE044F20002C4F2010290420BD027
:103A100044F60002C4F20102904205D044F2004292
:103A2000C4F20102904203D1CA6823F440731343E5
:103A300023F080024B69D1F800E08C681A430260E1
:103A4000C46240F48062C0F828E0624504BF09699E
:103A50000163012141610169C90708BF10BD016906
:103A600021F00101016110BD806B0021C185C1847D
:103A7000FEF7D3BF016851E8031F026821F490717B
:103A800042E80313002BF5D1016851E8051F0268D5
:103A900021F0010142E80513002BF5D1016B01294A
:103AA0000AD100BF016851E8031F026821F010012C
:103AB00042E80313002BF5D1202180F842100021A9
:103AC0000163704790F84210222918BF704783683D
:103AD0000246B3F5805F08D152F8281F52F8183C0F
:103AE000002B48D003685B6809E052F8281F13B91F
:103AF0000369002BF6D003685B6803F07F030B704B
:103B0000116801311160C18D01390A04C18500D0ED
:103B100070470168CA6822F02002CA60CA6822F4AD
:103B20008072CA604A6922F001024A61202180F84D
:103B3000421000214163026B012A18BFFFF75AB9F6
:103B400081B00163016851E8031F026821F0100190
:103B500042E80313002BF5D101680A68D20606D5A6
:103B6000002200920A680092496800910099818DB4
:103B700001B0FEF751BF026852686FF35F2221F86F
:103B8000022B8162BFE7B0B50446006804F1080368
:103B90000ECB0569194325F440552A430261626939
:103BA000E3691143C268194349F20C639A43114314
:103BB000C1604169A26921F4407141F2004311439F
:103BC00040F48062C4F201039A42416102D1FEF7DF
:103BD00029F901E0FEF713F9E1694FF69C75636876
:103BE0001922C0F6FF75B1F5004FA0FB02011CD1F0
:103BF0005A00DB0FFCF77EFB48F21F51C5F2EB11B8
:103C0000A0FB01235A0905F1805302FB0300322374
:103C100003EBC000A0FB01014FF4F87000EA1110A3
:103C200000EB0210C1F3421118E09A009B0FFCF761
:103C300061FB48F21F51C5F2EB11A0FB01235A09A9
:103C400002FB0500322303EB0010A0FB0101F02072
:103C500000EA511000EB0210C1F34311084421683F
:103C60008860B0BD2DE9F04182B0804600681D46F5
:103C700003680E461940B1421CD017466C1C00BFA9
:103C8000A4B1FDF76CFC01464FF003009DB1C91BC8
:103C9000A94210D8D8F80000C168490706D5402EBF
:103CA00004D0802E02D00168090707D40168314092
:103CB000B142E5D1002002B0BDE8F08100240194BA
:103CC000016801914068019001984046FFF7D2FEDB
:103CD0000820C8F8440088F840400120EBE74DF682
:103CE0007870C2F20000FEF799BE70B50D4602F47E
:103CF0007F41B1F5807F04461AD1A06B4FF6BF71AA
:103D000020F48030A063E068CFF6BD710840E06029
:103D10000499E068C9B220F440100129E06003D1A1
:103D2000E06840F48010E060204600F021F810E0E8
:103D3000E0681E4640F04000E060204600F018F8C1
:103D4000A16B16F47F4F14BF21F4803141F4803110
:103D5000A16305F47F01B1F5803F18BF70BDA16874
:103D600041F00601A160A16841F02001A16070BD91
:103D700081B00021009100BF0099013100910099AC
:103D8000B1F1706F16D80169B1F1FF3FF4DC002189
:103D90000091016941F00101016100BF0099013109
:103DA00000910099B1F1706F04D80169C907F5D18C
:103DB000002000E0032001B070470146D0F8000E5B
:103DC00020F00300C1F8000ED1F8040840F0020210
:103DD0000020C1F8042870472DE9F04F83B08B46CE
:103DE0000446180C4121002344F8213001315029A8
:103DF000FAD1C0B2019020B104F138004FF40011A3
:103E00000FE0D4F80408802140F00200C4F8040850
:103E1000A06B20F40010A063206840F040002060F8
:103E2000204603681943016002F47F410020B1F588
:103E3000807FC4F8000E02920DD1D4F80018B0EBC8
:103E40001B6F04F500680EBFC8F8001041F00100B8
:103E5000C8F8000007E0D4F8000804F5006840F056
:103E60000300C4F800082046102100F09FF88246A5
:103E7000204600F077F85FFA8BF24FF0000CC8F89C
:103E800010C0C8F814C0C8F81CC082B304F5106391
:103E900052014FF67F3E002699594FF09047002E71
:103EA00008BF4FF0006707EAE1719D19995120366C
:103EB000B242C5F810C0C5F808E0EDD104F5306392
:103EC0004FF0000E4FF67F36002500BF5F594FF0D0
:103ED0009049002D08BF4FF0006909EAE7775919AA
:103EE0005F512035AA42C1F810E08E60EED1D8F8BB
:103EF00010101BF47F0F21F48071C8F810106FF0C0
:103F00008041C4F818C0616103D1A16941F010017A
:103F1000A161A16943F60002C8F23C021143029A72
:103F2000A16112F47F0F03D0A16941F00801A161E2
:103F30000199012905D1A16941F0804141F00401B5
:103F4000A16140EA0A00C0B2002818BF012003B0F6
:103F5000BDE8F08F0146806820F0010200208A60F1
:103F60007047000081B00021009100BF009901312D
:103F700000910099B1F1706F14D80169B1F1FF3F60
:103F8000F4DC002100911021016100BF0099013192
:103F900000910099B1F1706F04D80169C906F5D498
:103FA000002000E0032001B07047000081B0002233
:103FB000009200BF009A01320092009AB2F1706F35
:103FC00014D80269B2F1FF3FF4DC890100222031EC
:103FD000009201610099013100910099B1F1706F77
:103FE00004D801698906F5D4002000E0032001B05F
:103FF00070470000B0B50446C06820F0C040E060E3
:1040000091B1012926D1E068002540F00050E06020
:104010000A20FDF7B3F96069C00705F10A0014D161
:10402000BE2D0546F4D310E0E068002540F0804046
:10403000E06000BF0A20FDF7A1F96069C00705F143
:104040000A0002D0BE2D0546F4D3C838B0FA80F07D
:104050004009B0BD0120B0BDFEE70000B0B59EB084
:1040600032A000F059FF012000F0F4F81D280CD018
:10407000C4B237A000F050FF05AD3EA1284622464D
:10408000FCF7B0F9284600F047FF1F20522100F04E
:1040900061F946F64B40C0F6000000F03DFF40F6E7
:1040A0000044C4F2020420464FF48041002200255F
:1040B000FDF750FA0A20FDF761F942F20A00ADF867
:1040C000040064208DF806003B20C1F20000CDF80A
:1040D0000D004FF49850ADF8110012208DF8130028
:1040E0004DF6D860C2F2000001A910224FF47A7395
:1040F000CDF80750ADF80B50FEF7C0F920464FF44D
:1041000080410122FDF726FA0A20FDF737F9012048
:1041100000F0A0F805ACC2B21CA12046FCF762F981
:10412000204600F0F9FE00201EB0B0BD0A2A204152
:104130006363656C65726F6D6574657220696E6925
:104140007469616C697A696E67202A0A0A00000046
:10415000416363656C65726F6D6574657220696E2D
:10416000697469616C2072656164206661696C0ABA
:10417000000000005265616420612076616C756505
:10418000206F663A20307825780A0000436F6E74FD
:10419000656E7473206F66207265676973746572EB
:1041A000203078303120697320307825780A00007B
:1041B000F0B59DB0064640F6004740F60B00C4F24D
:1041C0000207CDF80B0000208DF80F0038464FF4A1
:1041D00080410022FDF7BEF90A20FDF7CFF84DF629
:1041E000D8604FF47A75C2F200000DF10B010DF1A9
:1041F000060205230095FEF7FBF99DF80820054609
:1042000020B19DF809309DF80A4006E09DF809307C
:104210009DF80A4032707370B47008A104A800942D
:10422000FCF7E0F838464FF480410122FDF792F99F
:104230000A20FDF7A3F828461DB0F0BD0A583A2021
:1042400025640A593A2025640A5A3A2025640A0A44
:10425000000000002DE9F04F9DB0804630A000F036
:104260005BFE40F600440B20C4F202048DF80D0002
:10427000002520464FF4804100228DF80E808DF8F5
:104280000F50FDF767F90A20FDF778F84DF6D86072
:104290000DF10D0A0DF10A064FF47A77C2F2000013
:1042A0005146324603230097FEF7A2F98146204685
:1042B0004FF480410122FDF74DF90A20FDF75EF829
:1042C00046F634409DF80CB0C0F6000000F024FE25
:1042D00046F67144C0F6000404AF00BF1AF805208A
:1042E000735D38462146FCF77DF8384600F014FE31
:1042F0000135032DF2D104ACB9F1000F18BF4FF016
:10430000FF3B5FFA8BF309A120464246FCF76AF8AF
:10431000204600F001FE4FFA8BF01DB0BDE8F08F93
:1043200052656164696E670A00000000526561644D
:10433000206F6E2072656720307825782072657452
:1043400075726E732076616C756520307825780AF9
:10435000000000002DE9F0479CB00D46064603AC76
:1043600040F600482DA120462A463346C4F20208F2
:10437000FCF738F8204600F0CFFD40464FF480416E
:104380000022FDF7E7F80A200A24FCF7F7FF4DF6B4
:10439000D8600DF1090A0DF106078DF80A608DF855
:1043A00007604FF47A76C2F2000051463A46032382
:1043B0008DF809408DF80B508DF806408DF80850A7
:1043C0000096FEF715F9814610B11DA000F0A4FD7E
:1043D00046F63440C0F6000000F09EFD46F67144FB
:1043E0000026C0F6000403AD1AF80620BB5D28467F
:1043F0002146FBF7F7FF284600F08EFD0136032E1D
:10440000F2D140464FF480410122FDF7A3F80A2083
:10441000FCF7B4FF48461CB0BDE8F08757726974DA
:10442000696E67203078257820696E746F20726518
:1044300067697374657220307825780A000000007F
:104440005772697465206E6F20676F6F640A000091
:104450009CB041F20005C4F20005FDF793F8FFF7A8
:104460000FFA0DF1580A50461421FCF7ACF800245D
:1044700043F630081594C4F20208D8F8000005F598
:10448000F83640F00400C8F80000D8F80000102109
:1044900000F00400159015981594D8F8000000223B
:1044A00040F08000C8F80000D8F8000000F080005C
:1044B000159015981594D8F8000040F00100C8F840
:1044C0000000D8F8000000F0010015901598159430
:1044D000D8F8000040F00200C8F80000D8F800004A
:1044E00000F00200159015981594D8F8000040F0DF
:1044F0000800C8F80000D8F8000000F00800159087
:1045000015981594D8F8000040F04000C8F8000055
:10451000D8F8000000F04000159015983046FDF7DF
:1045200019F805F5FA3044F2B90100221090FDF7B0
:1045300011F805F5FE3B58464FF480410022FDF787
:1045400009F805F50237384644210022FDF702F844
:1045500005F5FC3528468021012211954FF001090F
:10456000FCF7F8FF4FF4005016904FF48810CDE997
:10457000170428465146FCF721FF1020CDE9160903
:104580000220189003201990304651460325FCF76D
:1045900015FF109E44F28100CDE9160930465146C0
:1045A000CDE91844FCF70AFF4FF48040CDE9160925
:1045B00058465146CDE91895FCF700FF4FF40040EE
:1045C00016904FF4881017900220189058465146C4
:1045D000CDF83CB0FCF7F2FE4420CDE91609384690
:1045E0005146CDE91844FCF7E9FE8025384651468E
:1045F000CDE916541894FCF7E1FE022018901198AA
:104600005146CDE916590225CDF86490FCF7D6FE47
:104610000820CDE916090327304651461895022592
:104620001997FCF7CBFE1020CDE91609304651460C
:10463000CDE91897FCF7C2FE2020CDE916093046D7
:104640005146CDE91859FCF7B9FE28200021002277
:10465000FDF707F82820FCF7F4FF1694D8F80000BF
:10466000002140F40010C8F80000D8F80000002233
:1046700000F40010169016981694D8F8000040F434
:104680008000C8F80000D8F8000000F48000169000
:1046900016980E20FCF7E5FF0E20FCF7D2FF102045
:1046A00000210022FCF7DDFF1020FCF7CAFF3B20B1
:1046B00000210022FCF7D5FF3B20FCF7C2FF41F2AE
:1046C0000000C4F20000074600F590314DF680600E
:1046D000C2F200004FF482724FF4007380E81600BB
:1046E0000A21C0E90344C0E90543C461C0E90844A4
:1046F000C0E90A41FDF7C7FD08B172B6FEE74DF605
:1047000030700F9DC2F200004FF6FF71CDE91644E4
:10471000C0E90074C0E902418461FEF737F910B1C5
:1047200072B600BFFEE74DF63070C2F2000016A967
:10473000FEF7D3F808B172B6FEE74DF6787007F5CC
:104740006051C2F2000000230C244FF4E13280E8F3
:104750000E00C0E90333C0E90543C361FEF7BAFAAE
:1047600008B172B6FEE74DF69C10C2F200004FF0A1
:10477000A0410160062101714FF481714FF4007472
:10478000C0F809100121C480C181FCF7B9FF10B144
:1047900072B600BFFEE74DF6D86007F53051C2F2A1
:1047A00000004FF48272002780E886000A21C0E9E9
:1047B0000377C0E90574C761C0E90877C0E90A71E9
:1047C000FDF761FD08B172B6FEE74DF67874C2F2EE
:1047D0000004B9A1204612226423FEF70DFBFEF768
:1047E00087FF28464FF480410122FCF7B3FE304694
:1047F00010210122FCF7AEFE0A20FCF7BFFDFFF7F7
:104800002DFC0A20FCF7BAFD00F0EAF90A20FCF7BB
:10481000B5FD002000215F223F2300F0C8F9FEF71C
:1048200067FF40F270010020C2F20001CCF2A0004C
:10483000C1E90070A5A1204614226423FEF7DCFA2A
:104840004FF2700B4FF278079FED979B9FED98AB5F
:10485000C2F2010BC2F2010740F27804C2F2000476
:104860002046FFF7A5FC94F800A06678A5785C4682
:104870004FEA0A1B584601F0C1FD10963601CDE9FA
:104880000C10304601F0BAFD41EC100B11952D01D2
:1048900080462846894684ED000B01F0AFFD41ECCF
:1048A000100B0A46BAF1080FCDE90E2087ED000B78
:1048B0000CD3ABF5807001F08AFD41EC180B4FF280
:1048C0006800C2F2010080ED008B03E0DDE90C100E
:1048D00041EC180BA6F5807001F079FD8346109825
:1048E0008A460728A5F580709CBFCA46C34601F0DA
:1048F0006EFD054611980C4607280E9898BF044691
:104900000F9856EC197B98BF054651EC180B3A46A8
:10491000334601F087FD41EC1B0B4FF26800C2F2F9
:10492000010080ED00BB584651463A46334601F03F
:1049300079FD41EC180B4FF2700B82468846C2F2AB
:10494000010B284621463A4633468BED008B01F099
:1049500069FD41EC110B4FF27807B0EE480AC2F244
:104960000107F0EE680A05460C4687ED001B01F0D2
:104970006BF859EC1A6B51EC100B32464B4601F0B8
:1049800051FD41EC100B4FF25800C2F2010080EDD6
:10499000000B8DED12BB9DF84F00214680F080008A
:1049A0008DF84F009DED128B28462A46234601F0D4
:1049B00039FD04460D46504641465246434601F0F5
:1049C00031FD22462B4601F087FA41EC100B01F035
:1049D0003BF9B0EE401AB0EE480AF0EE601AF0EE85
:1049E000680A01F031F851EC100B32464B4601F0E9
:1049F00019FD41EC100B4FF25004C2F2010484ED9A
:104A0000000BFEF78EFE00F097FA4DF6C070C2F272
:104A1000000000F093F840F27B06C2F20006307806
:104A200000283FF419AF4FF26800C2F2010090ED88
:104A3000008B4FF25800C2F2010090ED00DB40F213
:104A40007000C2F2000094ED00EBD0E900049BED91
:104A500000BB97ED00CB01F0A9FF41EC1F0B2046F6
:104A600001F0A4FF40F6C07441EC100BC2F2010447
:104A700046F6824153EC182B2046C0F600018DEC1F
:104A80000ABB8DED0A0BFBF7ADFC2046FBF75AFD88
:104A900082B24DF67870C2F2000021466423FEF720
:104AA000ABF900203070D7E6000000E04D62503FC7
:104AB0006666666666A64C4066696E69736865647C
:104AC000204D5820496E6974730A00007374617236
:104AD00074696E67207768696C65206C6F6F700A07
:104AE00000000000B0B582B040F20044C4F20204FD
:104AF0000546A4F5806010210022FCF72BFD20461E
:104B000010210022FCF726FD0120FCF737FC4DF6B2
:104B10008060C2F200000DF1070101224FF47A73A8
:104B20008DF80750FDF7AAFC05462046102101220A
:104B3000FCF710FD284602B0B0BD0000B0B54DF640
:104B400080650446C2F200052846FDF799FB01285E
:104B5000FAD11520FFF7C6FF0020FFF7C3FF5F2043
:104B6000FFF7C0FF7520FFF7BDFF0020FFF7BAFF7A
:104B70003F20FFF7B7FF0025C4F2020528461021A9
:104B80000122FCF7E7FC05F5806010210022FCF70C
:104B9000E1FC0120FCF7F2FB4DF68060C2F2000060
:104BA00021464FF44052BDE8B040FDF717BEF0B5C6
:104BB00081B0074625201C4615460E46FFF792FF9A
:104BC000F8B2FFF78FFFF0B2FFF78CFFE8B2FFF704
:104BD00089FFE0B201B0BDE8F040FFF783BF0000FD
:104BE0002DE9F04FA1B00025AEA0C4F2020500F0FF
:104BF00093F905F58066304610210022FCF7AAFCE7
:104C0000284610210022FCF7A5FC05F5006420468B
:104C100080210122FCF79EFC304608210022FCF78F
:104C200099FC3046202101221F96FCF793FC1420AA
:104C3000FCF7A4FB204680210022FCF78BFC0A2015
:104C4000FCF79CFB204680210122FCF783FC0A2014
:104C5000FCF794FB4DF68064FD20C2F200048DF851
:104C600082000DF18201204601224FF47A73FDF794
:104C700005FC064612208DF883000DF183012046C5
:104C800001224FF47A73FDF7F9FB30431E9002D0F6
:104C90008BA000F041F9284610210122FCF75AFCB4
:104CA0000A20FCF76BFBAE20FFF71CFF1D90812054
:104CB000FFF718FF1C909120FFF714FF1B90822034
:104CC000FFF710FF1A905020FFF70CFF1990832078
:104CD000FFF708FF18907D20FFF704FF179087204B
:104CE000FFF700FF16900620FFF7FCFE15908A20C4
:104CF000FFF7F8FE14906420FFF7F4FE13908B206A
:104D0000FFF7F0FE12907820FFF7ECFE11908C2058
:104D1000FFF7E8FE10906420FFF7E4FE0F90A0205C
:104D2000FFF7E0FE0E907620FFF7DCFE0D90A1204D
:104D3000FFF7D8FE0C900020FFF7D4FE0B90A220C6
:104D4000FFF7D0FE0A900020FFF7CCFE0990A420C8
:104D5000FFF7C8FE0890A820FFF7C4FE07903F2089
:104D6000FFF7C0FE0690AD20FFF7BCFE05908E2039
:104D7000FFF7B8FE0490B020FFF7B4FE03900020C8
:104D8000FFF7B0FE0290B120FFF7ACFE019031209A
:104D9000FFF7A8FE8046B320FFF7A4FE8146F0206F
:104DA000FFF7A0FE8246BB20FFF79CFE04463A2098
:104DB000FFF798FE8346BE20FFF794FE06463E208E
:104DC000FFF790FE07462E20FFF78CFE0546AF202A
:104DD000FFF788FEDDE91C2111431B9A11431A9A43
:104DE0001143199A1143189A1143179A1143169AAD
:104DF0001143159A1143149A1143139A1143129AAD
:104E00001143119A1143109A11430F9A11430E9AAC
:104E100011430D9A11430C9A11430B9A11430A9AAC
:104E20001143099A1143089A1143079A1143069AAC
:104E30001143059A1143049A1143039A1143029AAC
:104E40001143019A114341EA080141EA090141EA8B
:104E50000A01214341EA0B01314339432943084305
:104E60001E99012240EA01041F980821FCF772FBF9
:104E70001920FCF783FA14B117A000F04DF8AF2009
:104E8000FFF730FE044610B116A000F045F864208C
:104E9000FCF774FA17A000F03FF8204621B0BDE8F7
:104EA000F08F00BF0A2A20496E697469616C697AC3
:104EB000696E67204F4C4544202A0A0A0000000012
:104EC000454E41424C45434D4420777269746520FC
:104ED0006261640A0000000042616420696E6974C6
:104EE0000A0000004F4E2077726974652062616489
:104EF0000A0000000A2A204F4C454420696E69745C
:104F000069616C697A6174696F6E20636F6D706C32
:104F1000657465202A0A0A0010B50446FBF712FBE7
:104F200082B24DF67870C2F2000021466423BDE8DB
:104F30001040FDF761BF0000B0B54DF6C075C2F27C
:104F4000000528464FF44051FBF71BFB41F24C0192
:104F50009FED150A0020C2F201011F220B1893EDEC
:104F6000001A93ED012A31EE011ABDEEC11A11EEBD
:104F7000103A30EE421A31EE011ABDEEC11A11EEAE
:104F8000104A84F306045F2BA8BF5F2323EAE37370
:104F900004EB44041C3003EB4413B0F5604F25F8D8
:104FA0001320DBD1B0BD00BF000000425FEA400C1F
:104FB00008BF91F0000F4FEA8C234FEAC12243EA69
:104FC00051514FEA1C5018BF00F5F0404FEA300035
:104FD00018BF41F000415FEA6C5C00F02980BCF131
:104FE000FF3F08BF40F080407047130C06BF12041B
:104FF0004FF0100C4FF0000C130E04BF12020CF116
:10500000080C130F04BF12010CF1040C930F04BF22
:1050100092000CF1020CD30F04BF52000CF1010CF2
:1050200011464FF00002A0F11F00A0EB0C007047EA
:1050300011F0004F08BF704731F000413FF4D5AF89
:105040000B0C06BF09044FF0100C4FF0000C0B0EB8
:1050500004BF09020CF1080C0B0F04BF09010CF18D
:10506000040C8B0F04BF89000CF1020CCB0F04BFA2
:1050700049000CF1010CCCF1200322FA03F341EAC0
:10508000030102FA0CF2A0EB0C0000F101007047E2
:1050900023F07F4720F07F4C80EA030000F00040BF
:1050A000ACEB070303F57C5303F1FF032DE98049C3
:1050B00009B44FEA144324EA03484FEA154B25EAA2
:1050C0000B4E0FF2042606EB13273E7803FB066710
:1050D000C7F5000707FB06F64FEAD64606F10206BB
:1050E0004FEA543707FB066CCCF1005C4FEA1C47D3
:1050F0002CEA074C0CFB06F507FB06F404EB1546FF
:105100004FEA961649085FEA320234BF00204FF09A
:1051100000404FEAD13706FB07FC4FEA1C4C0CFB62
:105120000BF7D21B03FB0CF761EB07010CFB0EF72F
:10513000B0EB074072EB17420CFB08F734BFA2EB51
:105140000742B2EB074261EB17414FEA0C444FEACA
:10515000910706FB07FC4FEA1C4C0CFB0BF7B0EB6E
:10516000C74072EB573203FB0CF734BFA2EBC742C8
:10517000B2EBC74261EB57310CFB0EF7B0EBC70047
:1051800072EB57720CFB08F734BFA2EBC702B2EB0D
:10519000C70261EB57714FEA816141EA92114FEA10
:1051A000826242EA90124FEA806004EBCC04039FD3
:1051B0004FEAD13706FB07FC4FEA1C4C0CFB0BF700
:1051C000D21B03FB0CF761EB07010CFB0EF7B0EBF6
:1051D000074072EB17420CFB08F734BFA2EB074203
:1051E000B2EB074261EB17414FEA8C5504EB9C246C
:1051F0004FEA910706FB07FC4FEA1C4C0CFB0BF730
:10520000B0EBC74072EB573203FB0CF734BFA2EB95
:10521000C742B2EBC74261EB57310CFB0EF7B0EB64
:10522000C70072EB57720CFB08F734BFA2EBC70242
:10523000B2EBC70261EB57714FEA816141EA92110B
:105240004FEA826242EA90124FEA806015EB4C25E9
:1052500044F100044FEAD13706FB07FC4FEA1C4C2F
:105260000CFB0BF7D21B03FB0CF761EB07010CFBEC
:105270000EF7B0EB074072EB17420CFB08F734BF98
:10528000A2EB0742B2EB074261EB17414FEA8131D3
:1052900041EA92414FEA823242EA90424FEA80303C
:1052A0004FEA0C7615EB1C1544F1000448EA034361
:1052B0004EEA0B484FF0000EB2EB080C71EB0307FF
:1052C00024BF624639464EEB0E0E4FF0000B00181D
:1052D000524149414BEB0B0BB2EB080C71EB03074E
:1052E0007BF1000B24BF624639464EEB0E0E4FF0A9
:1052F000000B0018524149414BEB0B0BB2EB080C71
:1053000071EB03077BF1000B24BF624639464EEB7D
:105310000E0E51EA020718BF46F0010616EB0E7694
:1053200055F1000254F1000103D5BDE88901BDE843
:105330000088BDE88901BDE80048B619524141EB3B
:105340000101A3F10103704780807F7E7D7C7B7A21
:105350007978777676757473727171706F6E6E6D21
:105360006C6C6B6A6A6968686766666564646363C7
:1053700062616160605F5F5E5E5D5D5C5C5B5B5A4D
:105380005A595958585757565655555554545353BA
:1053900052525251515050504F4F4F4E4E4D4D4D15
:1053A0004C4C4C4B4B4B4A4A4A4949494848484760
:1053B000474747464646454545444444444343439E
:1053C00043424242424141419C46002B30D4770047
:1053D0002BD04FEA37071CB503B44FF010004FF045
:1053E0001001BAF1000F06D0BCF1000FDCBF40F095
:1053F000080040F008014FF000000FBCBDE810406D
:105400000BF1010BBBF1010F08BF5FEA170722BFC9
:1054100012F1010211F101014FF0004143F10003CB
:1054200000F0004043EA00007047F9D35708D0E786
:1054300046EA06464FEA164613F1400F1FDD13F108
:10544000200FDFBF16430A46002120335B42BED047
:10545000C3F1200746EA06464FEA164602FA07F766
:1054600046EA070622FA03F2C3F1200701FA07F71A
:1054700042EA070221FA03F14FF00003A7E746EAE8
:10548000020646EA06464FEA164646EA0106BCBF51
:1054900046EA0646360C4FF000034FF000024FF08C
:1054A000000194E72DE9804C70B49A46934691E848
:1054B000380007C831EA400C48BF34EA430C03D532
:1054C000FFF7E6FDFFF780FFF0BCBDE8008C2DE99B
:1054D000804C70B49A46934691E8380007C810F0A3
:1054E000804F08BF13F0804F03D100F005F8FFF79D
:1054F0006BFFF0BCBDE8008C20F07F4723F07F4CB1
:1055000080EA030000F0004007EB0C03A3F57C5396
:10551000A3F1FE0392F0000F00F0B38095F0000FAE
:1055200000F077802DE901494FEA114021EA004857
:105530004FEA144624EA064700FB06FC08FB06F681
:1055400007FB08F818EB06484CEB164C00FB07F776
:1055500018EB07484CEB17404FEA124B22EA0B4E70
:105560004FEA154625EA06470BFB06FC0EFB06F63E
:1055700007FB0EFE1EEB064E4CEB164C0BFB07F723
:105580001EEB074E4CEB174B18EB0B0840F10000DD
:1055900018EB0E0B58EB000840F100008F1A4FF08B
:1055A00000014FF000063CBFC943661B14BFB5EBBA
:1055B000040C00213CBFC943F61B4FEA174427EAFD
:1055C00004454FEA1C472CEA074C04FB076205FB25
:1055D00007F70CFB05F616EB074642EB174204FBF8
:1055E0000CFC16EB0C4642EB1C421BEB060658EB80
:1055F000020241414EEA8E0E46EA9E0601D5BDE802
:105600000189B619524141EB0101A3F10103BDE843
:1056100001894FEA144524EA05464FEA114721EA79
:10562000074C05FB07F406FB07F70CFB06F111EB33
:10563000074144EB174405FB0CFC11EB0C4144EB18
:105640001C444FEA124722EA074C05FB07F206FB0F
:1056500007F70CFB06F616EB074642EB174205FB75
:105660000CFC16EB0C4642EB1C456A1854F1000189
:1056700048BF7047B619524141EB0101A3F1010344
:10568000704795F0000F37D04FEA114221EA0246E9
:105690004FEA144724EA074C02FB07F106FB07F721
:1056A0000CFB06F414EB074441EB174102FB0CFC26
:1056B00014EB0C4441EB1C414FEA154725EA074C1B
:1056C00002FB07F506FB07F70CFB06F616EB074691
:1056D00045EB174502FB0CFC16EB0C4645EB1C4258
:1056E000121951F1000148BF7047B619524141EB00
:1056F0000101A3F1010370474FEA144524EA05466E
:105700004FEA114721EA074C05FB07F106FB07F7B3
:105710000CFB06F212EB074241EB174105FB0CFCB8
:1057200012EB0C4251EB1C414FF0000648BF704792
:10573000921841EB0101A3F10103704703B40198F2
:105740004100009850EAC12018BF04204A0D18BF3C
:1057500040F0010040F2FF72B2EB515F08BF40F031
:105760000200012808BF052002B0704700000000B9
:1057700070B59B482DED020B2DED068B079D25F096
:105780000044A04218DC9748844202DC0AD1069803
:1057900040B19DED060BBDEC068B02B0BDE870403C
:1057A00000F00BBB002DCCBF9FED8F0B9FED900B3E
:1057B000BDEC068B02B070BD8F48A04215DD8F484E
:1057C000A042D8BF4FF0FF3458DD9DED060B51ECE1
:1057D000100BFFF7B3FF042808BF00F005FB9DED99
:1057E000060BBDEC068B02B070BD9DED060B51ECB7
:1057F000100B00F011FBCDE9060181489FED828B73
:10580000A0423CDD8248A0421FDD00249FED82AB18
:105810009DED060B53EC1A2B51EC100B00F05CFBCA
:105820009DED060B41EC190B53EC1A2B51EC100BB0
:1058300000F0F8FD53EC182B00F0CAFF53EC192BC5
:1058400000F0FEFBCDE9060149E09DED060B0124C9
:1058500053EC182B51EC100B00F03EFB9DED060BAA
:1058600041EC190B53EC182B51EC100B00F0B0FF6E
:1058700053EC192B00F0E4FBCDE906012FE068485A
:10588000A0421FDD02249FED689B9DED060B53ECAB
:10589000192B51EC100B00F0C5FD53EC182B00F048
:1058A0001BFB9DED060B41EC180B53EC192B51EC37
:1058B000100B00F08DFF53EC182B00F0C1FBCDE96D
:1058C00006010CE09DED060B032453EC102B9FED1D
:1058D000580B51EC100B00F0B3FBCDE906019DED28
:1058E000060B53EC102B51EC100B00F09BFD41EC20
:1058F000180B53EC182B00F095FD41EC190B4E489A
:105900000621B0EE490AF0EE690A784400F0D9F9B0
:1059100053EC182B51EC100B00F084FD41EC180BEC
:105920004648B0EE490AF0EE690A0521784400F0D5
:10593000C8F953EC192B51EC100B00F073FD41EC3E
:10594000100B51EC180B53EC102B002C0EDA00F05E
:10595000C3FA9DED061B53EC112B00F063FD9DED8A
:10596000061B53EC112B00F05BFE35E000F0B4FA9F
:105970009DED061B53EC112B00F054FD41EC100B78
:105980002F48784400EBC40090ED001B51EC100B45
:1059900053EC112B00F01CFF9DED061B53EC112B5B
:1059A00000F016FF41EC100B2648784400EBC400D1
:1059B00090ED001B51EC100B53EC112B00F030FE5E
:1059C00041EC100B002DA2BFBDEC068B02B070BDE8
:1059D00051EC100B00F042FA41EC100B01E7000013
:1059E000000010440000F07F182D4454FB21F93FC3
:1059F000182D4454FB21F9BF0000DC3F0000203E7D
:105A00000000F33F00000000000000000000F03F35
:105A10000000E63F00000000000000000000004021
:105A20000080034000000000000000000000F83F7C
:105A3000000000000000F0BF3A120000F01100006A
:105A40007A1100003211000070B56F4E2DED040B7D
:105A50002DED048B82B0DDF824C0DDE907235C4224
:105A60002CF000411C4341EAD474069D22F0004012
:105A7000B44205D86C422C4340EAD474B4420BD9EA
:105A80009DED081B9DED060B02B0BDEC048B04B030
:105A9000BDE8704000F09BB9ACF14054A4F17F64C4
:105AA0001C430BD0022404EAAC7444EAD2740543CC
:105AB0009FED578B9FED582B07D015E09DED060B02
:105AC00051EC100B00F0A0F942E0002C11BF012CAA
:105AD0009DED060B02B0BDEC048B04BF04B070BD9D
